:020000040000FA
:0600000091EF17F0120061
:0600080004EF04F01200F9
:060018000CEF04F01200E1
:0608000091EF17F0120059
:060808004DEF17F0120095
:0608180064EF17F012006E
:06082A000500522F000042
:10083000FA00000001000000512F0000F900000044
:1008400001000000502F0000F8000000010000002F
:100850004E2F0000FD010000020000007F2D00006F
:08086000FF010000010000008F
:08086800D9CFE6FFE1CFD9FF73
:10087000E6526A6A686A160E6F6E9F0E6B6E7B0E8A
:10088000696E6D8C6E6A020EE66EE66AE66A710E3D
:10089000E66E0F0EE66E77EC17F00B6E050EE15E5E
:1008A0000B506D9CDF6ADF500B6E0C6A100E0B5CF8
:1008B000000E0C5810E2DF50040DF3CFE9FFF4CF27
:1008C000EAFF000EE926040EEA22EE6AEE6AEE6AFC
:1008D000EE6ADF2AE8D7160E706E68A602D0689618
:1008E000FCD700017B6B0001806B0001816B826B88
:1008F0006D980001080E6F6F040E706F0001616B40
:100900000001606BE552E552E7CFD9FF1200D9CF65
:10091000E6FFE1CFD9FFE65206D06D6A696A0001B1
:10092000606BA19AAFD0000160510FE16D6A696AF6
:10093000160E6F6E9F0E6B6E7B0E696E6DB602D0DB
:100940006D86FCD70001010E606F0001600509E1B2
:100950006DBA07D0686A696A698069880001020E09
:10096000606F6850040B05E06950040B02E0689466
:10097000BAD86DA202D0A19A85D06850010B15E0BB
:100980006950010B12E070DF0001040E606F04017A
:10099000400E026F040E036F0401080E016F040184
:1009A000006B8C0E0401001368906850100B05E07A
:1009B0006950100B02E084D868986850400B13E02F
:1009C0006950400B10E0010EE66EE66A000EE66E1E
:1009D000E66A730EE66EE66A70EC12F00B6E060EB7
:1009E000E15E0B50689C6850200B04E06950200BBE
:1009F00001E04DD86850020B12E06950020B0FE085
:100A0000010EE66EE66A000EE66EE66AE668E668E5
:100A100070EC12F00B6E060EE15E0B506A6A040E6B
:100A20000001E76E6019E8AE02D0E73402D0E7506B
:100A3000605D02E2A19A26D069A623D0DF6A040E87
:100A4000DF5C1FE268A61AD06CCF88F06896780E3B
:100A50000001881502E15DD810D0000EE66EE66A4E
:100A6000880EE66E000EE66E720EE66EE66A70ECBA
:100A700012F00B6E060EE15E0B5001D002D0DF2AA1
:100A8000DED7A19AE552E552E7CFD9FF120070A058
:100A900015D063C0E9FF64C0EAFFEF5080080DE1A4
:100AA0006FC0E9FF70C0EAFFEF50840806E163C041
:100AB000E9FF64C0EAFF8C0EEF6E7090689A120036
:100AC000698468986D82000EE66EE66A000EE66E36
:100AD000E66A750EE66EE66A70EC12F00B6E060EB4
:100AE000E15E0B501200000EE66EE66A000EE66E46
:100AF000E66A740EE66EE66A70EC12F00B6E060E95
:100B0000E15E0B506D92699468A402D06894FCD7A2
:100B10001200D9CFE6FFE1CFD9FFE652FD0E00016A
:100B200088155EE17E0E00018815E8407F0B040DFC
:100B3000F3CF63F0F4CF64F0000E00016327040EDE
:100B40000001642363C065F064C066F00001657550
:100B500063C0E9FF64C0EAFFEF503C0BE842E842A3
:100B60000D083CE163C0E9FF64C0EAFF020EE9261C
:100B7000000EEA22EECF0BF0EFCF0CF0480E0B1870
:100B800002E1040E0C1828E163C0E9FF64C0EAFF2B
:100B9000020EE926000EEA22400EEE6E040EED6E05
:100BA000DF6ADF500B6E0C6A080E0B5C000E0C58EF
:100BB00013E2DF50EA6A480FE96E040EEA22EF50B2
:100BC000E66EDF50EA6A400FE96E040EEA22E55253
:100BD000E750EF6EDF2AE5D70ED801D033D806D024
:100BE000FD0E00018815040801E153D8E552E552D5
:100BF000E7CFD9FF12006FC0E9FF70C0EAFFEF50E6
:100C0000800B05E06FC0E9FF70C0EAFFEF6A0001EA
:100C1000776B0001786B00017C6B7D6B00017B6B57
:100C2000BFD8000EE66EE66A000EE66EE66A030EB8
:100C3000E66EE66A70EC12F00B6E060EE15E0B508B
:100C40009DEF08F0020E0001785D02E1E7DB20D0A5
:100C500071D8000189511AE165C0E9FF66C0EAFF59
:100C6000EE52080EEF6E65C0E9FF66C0EAFF020EA5
:100C7000E926000EEA22400EEE6E040EED6E65C00F
:100C8000E9FF66C0EAFF8C0EEF6E02D00001896BAF
:100C90001200D9CFE6FFE1CFD9FFE6526FC0E9FFDE
:100CA00070C0EAFFEF50400B01E0010EDF6E000163
:100CB0006F75080E0001605D0CE142C46EFF6E505E
:100CC000000804E20001100E606F03D00001040E62
:100CD000606F0001780528E16FC0E9FF70C0EAFF8E
:100CE000020EE926000EEA22480EEE6E040EED6EAC
:100CF000FEDA020E0001775D07E16FC0E9FF70C008
:100D0000EAFF840EEF6E0FD0DF5007E16FC0E9FFFE
:100D100070C0EAFFC80EEF6E06D06FC0E9FF70C06A
:100D2000EAFF880EEF6E01D005D8E552E552E7CF15
:100D3000D9FF1200D9CFE6FFE1CFD9FF020EE1269D
:100D40000001786B6FC0E9FF70C0EAFFEF6A040E24
:100D500000016F190B6E70C00CF00BC0DEFF0CC0F1
:100D6000DDFFDECFE9FFDDCFEAFFEF6A000180AFF4
:100D70000DD000018351841107E005D084C0FAFF33
:100D800000018351F96EFADF0001809F020EE15CE1
:100D900002E2E16AE552E16EE552E7CFD9FF1200C7
:100DA00004014051600BE842E842E842E842E84270
:100DB000000901E064D0040141510C0A5FE00B0A14
:100DC0004DE00C0A3FE0010A2AE00B0A26E0020A85
:100DD00024E0030A20E0080A11E0010A0DE00F0AEE
:100DE00009E0030A01E04AD000017B8F0001080EF0
:100DF000606F45D0DAD843D0B6DB41D00001610E38
:100E0000796F000E7A6F00017B810001010E7C6F0B
:100E100000017B8F34D028D932D032D830D00401B1
:100E200044510001796F7A6B620E00017927000E40
:100E300000017A2300017B810001010E7C6F00011B
:100E40007B8F1DD000017B8F04014451EA6A620F41
:100E5000E96E000EEA2242C4EFFF11D0000EE66EEA
:100E6000E66A000EE66EE66A020EE66EE66A70EC70
:100E700012F00B6E060EE15E0B5001D000D0120096
:100E8000D9CFE6FFE1CFD9FF040EE12604014205E8
:100E900011E1040140511F0B00090CE100017B8F9F
:100EA000030E0401415D04E10001010E876F02D0D1
:100EB0000001876B040142516EE1040140511F0B98
:100EC000020869E1040144510F0B000964E00001CC
:100ED0007B8F040144BF11D0040144510F0BE96E14
:100EE000EA6AD890E936EA36670EE926000EEA2269
:100EF000EECFDEFFEDCFDDFF10D0040144510F0B2C
:100F0000E96EEA6AD890E936EA366F0EE926000EF5
:100F1000EA22EECFDEFFEDCFDDFF030E0401415DDF
:100F200007E1DECFE9FFDDCFEAFF840EEF6E33D0BD
:100F3000040144510F0B0C6A700F0B6E0F0E0C2244
:100F4000020E0BC0DBFF030E0CC0DBFF020EDBCF7B
:100F5000E9FF030EDBCFEAFFEE90ED52040144AF50
:100F60000DD0DECFE9FFDDCFEAFFEF6ADF74DECF21
:100F7000E9FFDDCFEAFF400EEF6E0DD0DECFE9FFD7
:100F8000DDCFEAFF880EEF6EDF74DECFE9FFDDCF45
:100F9000EAFFC80EEF6E040EE15C02E2E16AE55280
:100FA000E16EE552E7CFD9FF1200800E0401405DEB
:100FB0005AE10001C00E7B6F04014351030A2EE089
:100FC000010A0DE0030A01E04BD00001C60E796F63
:100FD0002C0E7A6F120E00017C6F7D6B44D00401E1
:100FE0004251F66EF76AD890F636F736770EF62647
:100FF0002D0EF7220900F5CF79F00A00F5CF7AF02F
:10100000020E0001F76A7925F66E7A51F72209007F
:10101000F5CF7CF00A00F5CF7DF025D0030E04015A
:10102000425D1BE204014251F66EF76AD890F63633
:10103000F736790EF6262D0EF7220900F5CF79F056
:101040000A00F5CF7AF079C0F6FF7AC0F7FF080002
:10105000F55000017C6F7D6B02D000017B6B03D0EB
:1010600000017B6B00D01200D9CFE6FFE1CFD9FFA2
:10107000020EE1260401486B0401496B0401405152
:101080001F0B020A12E0030A0DE0010A01E03ED044
:1010900000017B8F040148810001870502E1040102
:1010A000488334D000017B8F31D000017B8F040155
:1010B00044BF11D0040144510F0BE96EEA6AD89085
:1010C000E936EA36670EE926000EEA22EECFDEFFA9
:1010D000EDCFDDFF10D0040144510F0BE96EEA6A39
:1010E000D890E936EA366F0EE926000EEA22EECFF6
:1010F000DEFFEDCFDDFFDECFE9FFDDCFEAFFEF5012
:10110000040B03E00401010E486F00D000017BAF27
:101110000AD00001480E796F040E7A6F00017B81BE
:101120000001020E7C6F020EE15C02E2E16AE55210
:10113000E16EE552E7CFD9FF12006D9800017BBF49
:101140004CD0000180AF29D00001020E786F6FC033
:10115000E9FF70C0EAFFEE52EF6A6FC0E9FF70C0AE
:10116000EAFFC80EEF6E65C0E9FF66C0EAFFEE5207
:10117000080EEF6E65C0E9FF66C0EAFF020EE926C1
:10118000000EEA22480EEE6E040EED6E65C0E9FF19
:1011900066C0EAFFC80EEF6E1FD065C0E9FF66C0EB
:1011A000EAFFEE52080EEF6E65C0E9FF66C0EAFF87
:1011B000020EE926000EEA22400EEE6E040EED6EDF
:1011C00065C0E9FF66C0EAFF8C0EEF6E6FC0E9FFF5
:1011D00070C0EAFF840EEF6E89D0000180BF86D018
:1011E000040140AF5BD000017C510401465D000169
:1011F0007D510401475904E246C47CF047C47DF0A8
:1012000076D80001010E786F65C0E9FF66C0EAFF7D
:10121000EE52080EEF6E65C0E9FF66C0EAFF020EEF
:10122000E926000EEA22400EEE6E040EED6E65C059
:10123000E9FF66C0EAFF800EEF6E0001896B63C0B4
:10124000E9FF64C0EAFFEE52080EEF6E63C0E9FFEB
:1012500064C0EAFF020EE926000EEA22400EEE6E9E
:10126000040EED6E63C0E9FF64C0EAFF840EEF6E0A
:101270000001010E896F6FC0E9FF70C0EAFF020E26
:10128000E926000EEA22480EEE6E040EED6E6FC0E7
:10129000E9FF70C0EAFFC80EEF6E28D00001020E11
:1012A000786F6FC0E9FF70C0EAFFEE52EF6A6FC05F
:1012B000E9FF70C0EAFFC80EEF6E65C0E9FF66C0C7
:1012C000EAFFEE52080EEF6E65C0E9FF66C0EAFF66
:1012D000020EE926000EEA22480EEE6E040EED6EB6
:1012E00065C0E9FF66C0EAFFC80EEF6E1200D9CFF5
:1012F000E6FFE1CFD9FF020EE1260001080E7C5D7A
:10130000000E7D5912E27CC0DEFF7DC0DDFF0001D2
:10131000775104E10001010E776F06D000017705D7
:1013200003E10001020E776F03D0080EDE6EDD6A66
:101330006FC0E9FF70C0EAFFEF926FC0E9FF70C0B5
:10134000EAFFEF906FC0E9FF70C0EAFF010EDB50CB
:10135000EF126FC0E9FF70C0EAFFEE52DFCFEFFF80
:10136000000EDB5000017C5F010EDB5000017D5B55
:101370000001480E856F040E866F00017BB123D0FB
:10138000D9CFE9FFDACFEAFFEE50ED101BE0000104
:1013900079C0F6FF7AC0F7FF792B000E7A23080098
:1013A000F550E66E000185C0E9FF86C0EAFF852B97
:1013B000000E8623E552E750EF6EDF06010E01E2D4
:1013C000DB06DED721D0D9CFE9FFDACFEAFFEE5036
:1013D000ED101AE0000179C0E9FF7AC0EAFF792B2D
:1013E000000E7A23EF50E66E000185C0E9FF86C04B
:1013F000EAFF852B000E8623E552E750EF6EDF06ED
:10140000010E01E2DB06DFD7020EE15C02E2E16AD7
:10141000E552E16EE552E7CFD9FF1200D9CFE6FFE2
:10142000E1CFD9FF020EE12663C0E9FF64C0EAFF05
:10143000EE52EFCFDFFFDFCF0BF00B500001815DED
:10144000000E825903E281C0DFFF0DD0DF500B6E2A
:101450000C6A0B500001815D0001816F0C5000018E
:1014600082590001826F010EDB6ADF50F36E010EBC
:10147000DBCFF4FFF350F45C17E2010EDB50EA6AB5
:10148000480FE96E040EEA22EF50E66E00017EC0BE
:10149000E9FF7FC0EAFF7E2B000E7F23E552E75075
:1014A000EF6E010EDB2AE1D70001000ED8808155D6
:1014B000000E825528E265C0E9FF66C0EAFFEE52E1
:1014C000080EEF6E65C0E9FF66C0EAFF020EE9266E
:1014D000000EEA22480EEE6E040EED6E63C0E9FFC8
:1014E00064C0EAFFEF50400B07E165C0E9FF66C04A
:1014F000EAFFC80EEF6E06D065C0E9FF66C0EAFFDE
:10150000880EEF6E26D065C0E9FF66C0EAFFEE5296
:10151000080EEF6E65C0E9FF66C0EAFF020EE9261D
:10152000000EEA22400EEE6E040EED6E65C0E9FF7D
:1015300066C0EAFF840EEF6E00018351841107E05C
:1015400005D084C0FAFF00018351F96EFADF000173
:10155000809F020EE15C02E2E16AE552E16EE55233
:10156000E7CFD9FF120000017B8F020EE66EE66A1C
:10157000E66A710EE66E0F0EE66E77EC17F00B6EF4
:10158000050EE15E0B50010EE66EE66AE66A620E3B
:10159000E66E000EE66E77EC17F00B6E050EE15E60
:1015A0000B5042C461F00001615104E10001100ED2
:1015B000606F13D00001200E606F010EE66EE66AC8
:1015C000610EE66E000EE66E010EE66EE66A70ECE7
:1015D00012F00B6E060EE15E0B501200D9CFE6FF43
:1015E000E1CFD9FF020EE126000EDE6E040EDD6EA5
:1015F000FD0EDB50E8240D6EFE0EDB50040DF350A3
:101600000D24040DF3500B6E0C6A020E0F0B05E057
:10161000D8900C320B32E806FBE1D8900B360C3632
:10162000D8900B360C36D9CFE9FFDACFEAFF0B5052
:10163000EE260C50ED22DECFE9FFDDCFEAFFEF9E74
:10164000FD0EDB500FE1FE0EEA6ADB34FE0BEA36DC
:10165000E96E670EE926000EEA22DECFEEFFDDCF4F
:10166000EDFF0ED0FE0EEA6ADB34FE0BEA36E96EC1
:101670006F0EE926000EEA22DECFEEFFDDCFEDFF92
:10168000DECFE9FFDDCFEAFFEF9CDECFE9FFDDCF64
:10169000EAFF040EE926000EEA22EF8C020EE15C5E
:1016A00002E2E16AE552E16EE552E7CFD9FF1200AE
:1016B000D9CFE6FFE1CFD9FF020EE126FE0EDB50C7
:1016C0000C6A700F0B6E0F0E0C220BC0DEFF0CC0ED
:1016D000DDFFDECFE9FFDDCFEAFFFD0EDBCFEFFF61
:1016E000FD0EDBA407D0E66AFE0EDBCFE6FF76DF59
:1016F000E552E552FD0EDBA208D0010EE66EFE0EAD
:10170000DBCFE6FF6BDFE552E552020EE15C02E261
:10171000E16AE552E16EE552E7CFD9FF1200D9CF79
:10172000E6FFE1CFD9FF020EE126FE0EDB5020E1FD
:1017300065C0E9FF66C0EAFFEE52080EEF6E65C0B5
:10174000E9FF66C0EAFF020EE926000EEA22400E1B
:10175000EE6E040EED6E65C0E9FF66C0EAFF8C0E0A
:10176000EF6E6FC0E9FF70C0EAFF840EEF6E3DD0F0
:10177000FD0EDB50E8240D6EFE0EDB50040DF35021
:101780000D24040DF3CF0BF0F4CF0CF0000E0B265C
:10179000040E0C220BC0DEFF0CC0DDFF840E0B6EAE
:1017A000DECFE9FFDDCFEAFF0B50EF12FD0EDB507D
:1017B000E8240D6EFE0EDB50040DF3500D24010FD6
:1017C000040DF3CF0BF0F4CF0CF0000E0B26040E3B
:1017D0000C220BC0DEFF0CC0DDFF840E0B6EDECFD3
:1017E000E9FFDDCFEAFF0B50EF12020EE15C02E2EF
:1017F000E16AE552E16EE552E7CFD9FF1200D9CF99
:10180000E6FFE1CFD9FF020EE126FD0EDB500FE02F
:10181000FE0EEA6ADB34FE0BEA36E96E6F0EE9264D
:10182000000EEA22EECFDEFFEDCFDDFF0ED0FE0E82
:10183000EA6ADB34FE0BEA36E96E670EE926000E33
:10184000EA22EECFDEFFEDCFDDFFDECFE9FFDDCF19
:10185000EAFF020EE926000EEA22FB0EDBCFEEFFC6
:10186000FC0EDBCFEDFFDECFE9FFDDCFEAFFEE526E
:10187000FA0EDBCFEFFF400E0B6EDECFE9FFDDCFC0
:10188000EAFF0B50EF16880E0B6EDECFE9FFDDCFBF
:10189000EAFF0B50EF12FD0EDB500CE0FE0EEA6A81
:1018A000DB34FE0BEA36E96E6F0EE926000EEA2203
:1018B000EF740BD0FE0EEA6ADB34FE0BEA36E96EFB
:1018C000670EE926000EEA22EF74DECF0BF0DDCFC3
:1018D0000CF00BC0F3FF0CC0F4FF00D0020EE15C73
:1018E00002E2E16AE552E16EE552E7CFD9FF12006C
:1018F000D9CFE6FFE1CFD9FF6DA84ED0FE0EEA6A40
:10190000DB34FE0BEA36E96E6F0EE926000EEA22A2
:10191000EE50EFCFEAFFE96E400EEE16EE6AEE6A89
:10192000EE6AFE0EEA6ADB34FE0BEA36E96E6F0EF3
:10193000E926000EEA22EE50EFCFEAFFE96EEE7CD8
:10194000FE0EEA6ADB34FE0BEA36E96E6F0EE9261C
:10195000000EEA22EF74400E0B6EFE0EEA6ADB34D4
:10196000FE0BEA36E96E6F0EE926000EEA22EE5013
:10197000EFCFEAFFE96E0B50EF16FE0EEA6ADB349A
:10198000FE0BEA36E96E6F0EE926000EEA22EE50F3
:10199000EFCFEAFFE96EEF7CE552E7CFD9FF120007
:1019A000040140511F0B010801E057D004014051D0
:1019B000600BE842E842E842E842E842010801E000
:1019C0004CD00401445104E00401440501E045D039
:1019D00004014151220A3BE0030A2CE0010A1BE00A
:1019E000210A11E0010A01E037D00001F50E796FFC
:1019F000010E7A6F080E00017C6F7D6B00017B8108
:101A000000017B8F2AD00001F50E796F010E7A6FED
:101A100000017B8F22D046C481F047C482F00001D0
:101A2000880E7E6F050E7F6F0001836B846B000153
:101A3000808F13D00001880E796F050E7A6F070E24
:101A400000017C6F7D6B0001C10E7B6F06D042C42C
:101A5000F0F100017B8F01D000D012000501886BEE
:101A60004B0E896F8A6B8B6B05018C6B05018D6B3F
:101A70000501080E8E6F0101E56B0101E46B1A0E82
:101A8000E66E020EE66E58EC0BF0E552E5521E0EC5
:101A9000E66E030EE66E58EC0BF0E552E552400E92
:101AA000E66E080EE66E050EE66EE66A030EE66E5C
:101AB000FFEC0BF00B6E050EE15E0B50F3CFECF17B
:101AC000F4CFEDF10101EE6BEF6B1200D9CFE6FF21
:101AD000E1CFD9FF0101E46B0101EC51ED1102E10D
:101AE000000E08D0ECC1E9FFEDC1EAFFEF50800B1A
:101AF00001E0010E00094AE1FC0EDBCF0BF0ECC166
:101B0000E9FFEDC1EAFFEE52EF50D8800B5408E236
:101B1000ECC1E9FFEDC1EAFFEE52FC0EEFCFDBFFB7
:101B20000101E46BFC0EDB500101E45D1CE20101EC
:101B3000E451EA6A080FE96E050EEA22EF50E66EFC
:101B40000101E451E76EFD0EDBCFE9FFFE0EDBCFB6
:101B5000EAFFE750E926000EEA22E552E750EF6E71
:101B60000101E42BDFD7400EE66E080EE66E050E8F
:101B7000E66EE66A030EE66EFFEC0BF00B6E050EEA
:101B8000E15E0B50F3CFECF1F4CFEDF10101E45144
:101B900000D0E552E7CFD9FF1200D9CFE6FFE1CF61
:101BA000D9FF0101E5510FE1FD0EDBCFE6F1FE0E9D
:101BB000DBCFE7F1FC0EDBCFEAF10101010EEB6FA9
:101BC0000101010EE56FE552E7CFD9FF1200D9CF31
:101BD000E6FFE1CFD9FF030EE1260101E55101E067
:101BE00030D0DF6AFD0EDBCF06F0FE0EDBCF07F054
:101BF000DE5206C0DEFF07C0DDFFDD52DF2ADF5008
:101C00000B6E0C6AFF0E0B1801E10C5001E10BD0BA
:101C1000010EDBCFE9FFDB2A020EDBCFEAFF01E397
:101C2000DB2AEF50EBE1FD0EDBCFE6F1FE0EDBCF62
:101C3000E7F1DFCFEAF10101010EEB6F0101010EC7
:101C4000E56F030EE15C02E2E16AE552E16EE55206
:101C5000E7CFD9FF1200D9CFE6FFE1CFD9FF030EBE
:101C6000E1260101E55101E030D0DF6AFD0EDBCF56
:101C700006F0FE0EDBCF07F0DE5206C0DEFF07C027
:101C8000DDFFDD52DF2ADF500B6E0C6AFF0E0B18F2
:101C900001E10C5001E10CD0010EDBCFF6FFDB2A95
:101CA000020EDBCFF7FF01E3DB2A0800F550EAE183
:101CB000FD0EDBCFE6F1FE0EDBCFE7F1DFCFEAF181
:101CC0000101EB6B0101010EE56F030EE15C02E225
:101CD000E16AE552E16EE552E7CFD9FF1200D9CFB4
:101CE000E6FFE1CFD9FF020EE1260101EE51EF112F
:101CF00002E1000E08D0EEC1E9FFEFC1EAFFEF50AC
:101D0000800B01E0010E000901E098D0030E0101F3
:101D1000E55D02E10101E56B0101E55101E18ED0D4
:101D2000020E0101E55D16E1E66A000EE66EE66A66
:101D3000010EE66E030EE66EFFEC0BF00B6E050E69
:101D4000E15E0B50F3CFEEF1F4CFEFF10101030EA2
:101D5000E56F74D00101E50571E1400E0B6E0C6A70
:101D60000101EA510B5C000E0C5803E2400EDF6EDD
:101D700002D0EAC1DFFFDF500101EA5D0101EA6F35
:101D80000101480EE86F050EE96F010EDFCFDBFFA2
:101D90000101EB511AE1010EDB5016E0E6C1F6FF3E
:101DA000E7C1F7FF0800F550E8C1E9FFE9C1EAFF24
:101DB000EF6E0101E82B000EE9230101E62B000E76
:101DC000E723010EDB06E7D718D0010EDB5015E044
:101DD000E6C1E9FFE7C1EAFFEF50E8C1E9FFE9C169
:101DE000EAFFEF6E0101E82B000EE9230101E62B6B
:101DF000000EE723010EDB06E8D70101EA510AE1F4
:101E0000400EDF5C04E10101020EE56F03D0010129
:101E1000030EE56FDFCFE6FF480EE66E050EE66EB9
:101E2000010EE66E030EE66EFFEC0BF00B6E050E78
:101E3000E15E0B50F3CFEEF1F4CFEFF1020EE15C77
:101E400002E2E16AE552E16EE552E7CFD9FF120006
:101E50000101E55114E10101580E9E6F0101300EA0
:101E60009F6F0101310EA06F030EE66E9E0EE66EAF
:101E7000010EE66ECDEC0DF0E552E552E55294848C
:101E80008B949E929D92520ECB6E050ECA6E290EB9
:101E9000BE6E1C0EBD6E0001CE6B0001D39300011F
:101EA000D3950001D3970001CD6B0001CB6B0001EE
:101EB000CC6B0001D3910001FB0EC96F00014B0EEA
:101EC000CA6F0001400ECF6FF28612000001CC51A4
:101ED0000FE1400EE66E000EE66E010EE66E66EC59
:101EE0000DF0E552E552E5520001CC6F0001D46BD4
:101EF0000001CC51000801E3C4D00001FA51020AEC
:101F000001E19ED0030A01E17CD0010A01E0B9D0D1
:101F1000800E0001CF5D0AE00001D451EA6A000F93
:101F2000E96E010EEA22EF50800B34E00001D3B1DC
:101F30001ED089800001D381F296CD6A0001D3873B
:101F40000001D451EA6A000FE96E010EEA22EFCFD8
:101F5000D2F00001D3850001CC070001D42BC9C009
:101F6000CFFFCAC0CEFF9E909D80CD8012D00001D1
:101F7000D3B50FD00001D451EA6A000FE96E010E0B
:101F8000EA22EFCFD2F00001D42B0001D38500016B
:101F9000CC0736D00001D451EA6A000FE96E010E79
:101FA000EA22EF50030A23E0020A11E0030A0FE0DD
:101FB000020A01E020D0BD6ACA94CD909D90F296AD
:101FC00094848B9489909290010E8ED015D000014C
:101FD000D451EA6A000FE96E010EEA22EFCFD5F084
:101FE0000001020EDA6F0001010EFA6F05D0000148
:101FF000800ECF6F01D000D00001CC070001D42BA0
:1020000040D00001D451EA6A000FE96E010EEA22C5
:10201000EF50E66E0001DB51EA6AD50FE96E000E63
:10202000EA22E552E750EF6E0001CC070001D42B05
:102030000001DB2B0001DA510001DB5D01E221D060
:102040000001D551020A08E0030A01E017D0D6C00A
:10205000C9F0D7C0CAF012D0CA6AD6C0CBFF0001FF
:10206000D6417F0BBE6E0001D6A103D02C0EBD6EF3
:1020700002D00C0EBD6E050ECA6E00D00001FA6BC8
:1020800000D00001D3A313D0400E0001CB5D0EE2BF
:102090000001CB51EA6A9E0FE96E010EEA22D1C01F
:1020A000EFFF0001CB2B0001D39301D09280400EB3
:1020B0000001CB5D05E000010001D351080B12E0E7
:1020C0000101E5510FE1CBC0E6FF9E0EE66E010E69
:1020D000E66ECDEC0DF0E552E552E5520001CB6B1A
:1020E0000001D397000E00D01200DACFE4FFE2CF58
:1020F000DAFFE652F250080B1BE0F250010B18E039
:1021000081B814D0F2968980CD6AC9C0CFFFCAC009
:10211000CEFF9E909D80CD800001400ED06F0001CB
:10212000200ECE6F0001D3930001CD6BF29060D0F2
:102130009D50010B5DE09E50010B5AE0CD90C9C04F
:10214000CFFFCAC0CEFFCD800001D3A125D00001B2
:10215000CE510BE100010001D351040B06E0D2C0C7
:10216000D0F00001D395CFC0CEF00001CE510CE0ED
:102170000001D0510001CE1502E1948401D0949465
:102180000001CE91CE4307D0948489900001D39171
:102190009D90CD90F2862BD081B804D00001CE5115
:1021A0000001D0130001CE91CE430001CE511FE1BA
:1021B0000001D05103E10001CD2B02D00001CD6B15
:1021C000050E0001CD5D05E1CD9089900001D3871A
:1021D000F2860001D3B305D0D0C0D1F00001D38383
:1021E00001D092800001D06B0001800ECE6F9E90D6
:0821F000E552E5CFDAFF110012
:0821F80050D948EC17F069EC26
:1022000015F034EC04F087EC04F0010E0001E76EE9
:102210006019E8AE02D0E73402D0E750605D03E316
:102220006D50020B03E08990EED717D0200E00010D
:10223000E76E6019E8AE02D0E73402D0E750605D87
:1022400006E289800101010EDF6FDDD706D00101B2
:10225000DF5103E089900101DF6B0101FF51030AA7
:1022600028E0010A1DE0030A01E02CD00FEC17F072
:10227000DE0EE66E010EE66E22EC17F0E552E55238
:10228000010805E1DEC1E6FF1DEC14F0E55288EC23
:1022900014F0FF0804E169EC15F00101FF6BB4D004
:1022A00066EC0FF0000904E069EC15F00101FF6B2A
:1022B000ABD0E8EC12F0000904E069EC15F0010184
:1022C000FF6BA2D087EC15F00FEC17F0DE0EE66E78
:1022D000010EE66E22EC17F0E552E552000901E12D
:1022E00093D00101DE51240A01E18AD0720A6DE027
:1022F000200A6BE0220A37E0200A35E02C0A2BE0A6
:10230000200A29E02B0A1FE0200A1DE0010A14E040
:10231000200A12E0520A05E0010A03E0030A01E084
:1023200072D0F2969D920101010EFF6FDEC1E6FFB1
:102330001DEC14F0E55267D069EC15F00101FF6B5C
:1023400072EC15F060D09D92F2960101030EFF6FC2
:10235000BBEC12F058D09D92F2960101020EFF6F75
:1023600028EC0FF050D0F2969D9252D80101DE6F0A
:102370000101E55129E10101DE5130080DE28990AA
:102380000101460E9E6F0101410E9F6F0101490E32
:10239000A06FDEC1A1F10DD089800101560E9E6FA4
:1023A0000101310E9F6F0101300EA06F0101350E4A
:1023B000A16F040EE66E9E0EE66E010EE66ECDEC8B
:1023C0000DF0E552E552E5521ED00101E55117E14D
:1023D0000101560E9E6F0101310E9F6F0101300EFB
:1023E000A06F0101350EA16F040EE66E9E0EE66E23
:1023F000010EE66ECDEC0DF0E552E552E55203D04C
:102400000BEF00F000D000D06FEC0EF0FCD6120005
:10241000D9CFE6FFE1CFD9FFE652300EDF6E9388C9
:102420008B949494BD6ACA6A0101100EE26F270E64
:10243000E36F0101E2C10BF0E3C10CF0E207000E13
:10244000E35B0B500C1001E0F4D781B802D0000E12
:10245000DB809E929D92520ECB6E050ECA6E290EA7
:10246000BE6E1C0EBD6E0101400EE26F9C0EE36F4E
:102470000101E2C10BF0E3C10CF0E207000EE35BE7
:102480000B500C1001E0F4D781B8DF82DF5000D090
:10249000E552E552E7CFD9FF12000F0EC112B56A1F
:1024A00034EC04F094948B9489809290BD6ABA6A5B
:1024B000CD6A9F80CA6A9F82F18E8A6A936A9388E6
:1024C000F290F296F1809384F28CF28E1200120058
:1024D000120012001200D0EF0CF012002EEF0DF0DF
:1024E000D9CFE6FFE1CFD9FFFD0EDBCF06F0FE0E20
:1024F000DBCF07F0720E061801E1075033E0E86801
:10250000061802E1E86807182BE0740E061801E1CE
:10251000075024E0750E061801E107501DE0730E08
:10252000061801E1075016E0030E061801E10750F6
:102530000FE0020E061801E1075008E0010E061830
:1025400001E1075001E010D0C9DF0FD0C6DF0DD088
:10255000C2DF0BD0BEDF09D0BADF07D0B9DF05D0AC
:10256000B9DF03D0000001D000D0010E00D0E55249
:06257000E7CFD9FF1200C5
:0A2576000101E55114E10101530ECB
:102580009E6F0101300E9F6F0101310EA06F030E8F
:10259000E66E9E0EE66E010EE66ECDEC0DF0E55297
:1025A000E552E5520001C0930001C0950001C097BB
:1025B0000001BA6B0001B86B0001B96B0001C0915A
:1025C000D56A070ED56ED596CD6AF286F2901200C6
:1025D0000001B9510FE1400EE66E000EE66E010EED
:1025E000E66E66EC0DF0E552E552E5520001B96F7A
:1025F0000001C16B0001B951000874E20001F951FA
:10260000020A56E0030A35E0010A01E06BD000013E
:10261000C151EA6A000FE96E010EEA22EF50020A88
:1026200012E0020A01E01FD0BD6AD59EF29AD56A77
:10263000CA94CD909D90F29694848B9489909290B8
:10264000010E6DD011D00001C151EA6A000FE96E90
:10265000010EEA22EFCFC2F00001020EC76F0001A7
:10266000010EF96F01D000D00001B9070001C12BA4
:1026700039D00001C151EA6A000FE96E010EEA2269
:10268000EF50E66E0001C851EA6AC20FE96E000E13
:10269000EA22E552E750EF6E0001B9070001C12BB5
:1026A0000001C82B0001C7510001C85D01E21AD02A
:1026B0000001C251020A01E012D0CA6AC3C0CBFFB6
:1026C0000001C3417F0BBE6E0001C3A103D02C0EDD
:1026D000BD6E02D00C0EBD6E050ECA6E00D000019C
:1026E000F96B00D0400E0001B85D05E0000100016B
:1026F000C051080B12E00101E5510FE1B8C0E6FF3F
:102700009E0EE66E010EE66ECDEC0DF0E552E55242
:10271000E5520001B86B0001C097000E00D0120016
:10272000DACFE4FFE2CFDAFFE9CFE4FFEACFE4FF5C
:10273000E652D9CFE6FFE1CFD9FF020EE126F250F3
:10274000080B3EE0F250010B3BE0010E81CFDBFFB6
:10275000D5BE0FD0010EDBB80BD08980D76AD66A00
:10276000F28AF294D58ECF6ACE6A9E909D80CD80FB
:1027700025D0D59E010ED6CFDBFFD750DF6ED76AAE
:10278000D66AF294D58ECD90CF6ACE6ACD80000104
:10279000B851EA6A9E0FE96E010EEA22DFCFEFFF21
:1027A0000001B82B0001B851EA6A9E0FE96E010ED4
:1027B000EA22010EDBCFEFFF0001B82BF2902CD004
:1027C000F250200B20E0F250040B1DE0CD90D59E7E
:1027D000F2940001B851EA6A9E0FE96E010EEA22F6
:1027E000EF680001B82B0001B851EA6A9E0FE96E4C
:1027F000010EEA22EF680001B82B0001C087F286C3
:10280000F290899009D09D50010B06E09E50010B7B
:1028100003E00001C0879E90020EE15C02E2E16AE3
:10282000E552E16EE552E7CFD9FFE552E5CFEAFF89
:0A283000E5CFE9FFE5CFDAFF110064
:06283A00D9CFE6FFE1CF5B
:10284000D9FF0101FE51020A5CE0030A48E0010AD7
:1028500001E05AD0FE0EDB50130A33E0020A30E0EA
:10286000100A27E0030A0AE0020A01E02BD09D9239
:10287000CA94F2960101030EFD6F30D00101E551BB
:1028800017E10101310E9E6F0101410E9F6F0101A1
:102890004C0EA06F0101530EA16F040EE66E9E0E4A
:1028A000E66E010EE66ECDEC0DF0E552E552E55216
:1028B00015D089800101010EFD6FF290F2860ED0D5
:1028C0000DD00CD0FE0EDBCFE1F00001040EE66F60
:1028D0000001E76B0101010EFE6F00D015D0000171
:1028E000E751EA6AE10FE96E000EEA22FE0EDBCF45
:1028F000EFFF0001E72B0001E6510001E75D01E277
:1029000003D00101FE6B00D0E552E7CFD9FF1200E2
:102910000101FD51030A5DE0010A01E05FD0010100
:10292000E55156E10001E96B0001E86B080E00017A
:10293000E85D43E20001E09FE0470001E0510EE165
:102940000001000ED880DE55000EDF5507E20001C1
:10295000010EE06F0001DE07000EDF5B000E0001DC
:10296000DE25E96E010E0001DF21EA6EEF50000165
:10297000E01509E00001E951EA6A9E0FE96E010ED7
:10298000EA22EF6A09D00001E951EA6A9E0FE96E76
:10299000010EEA22010EEF6E0001E92B0001DC07B7
:1029A000000EDD5B0001DC51DD1104E10101030ECD
:1029B000FD6F03D00001E82BB9D7E9C0E6FF9E0EFA
:1029C000E66E010EE66ECDEC0DF0E552E552E552F5
:1029D00005D00101FD6BFF0E03D000D0000E00D02A
:1029E0001200DACFE4FFE2CFDAFFE9CFE4FFEACF6B
:1029F000E4FFE652F250080B1DE0F250010B1AE022
:102A000081B816D0F2968980960ECB6E090ECA6EEA
:102A10009E929D82CA840101800E006F020E000109
:102A2000DC6FDD6B0001DE6BDF6B0001200EE06F01
:102A3000F29047D09D50020B44E09E50020B41E0C3
:102A4000100E811411E00001800EDE5D000EDF59D2
:102A50000BE2000E0001DE25E96E010E0001DF2110
:102A6000EA6E0001E051EF120001E091E043000145
:102A7000E05116E10001800EE06F0001DE2B000E38
:102A8000DF230001800EDE5D000EDF5909E2000E3B
:102A90000001DE25E96E010E0001DF21EA6EEF6A1A
:102AA0000001DC2B000EDD230001DC5102E1040EED
:102AB000DD1906E10101020EFD6FCA949D92899015
:102AC0009E92E552E5CFEAFFE5CFE9FFE5CFDAFFD9
:022AD0001100F3
:0E2AD2000001F86BBD6ACA6A9D929E92F29056
:102AE000F28612000101E55111E101014F0E9E6FC6
:102AF00001014B0E9F6F020EE66E9E0EE66E010EFA
:102B0000E66ECDEC0DF0E552E552E5521200040EF2
:102B10000001F85D4BE10101E55148E101019E6BC7
:102B20000001020EF76F070E0001F75D10E20101D0
:102B30009E9F9E470001F751EA6A000FE96E010E61
:102B4000EA22EF5001019E130001F72BECD700C1E0
:102B50009FF10001070EF76F0D0E0001F75D10E207
:102B600001019F9F9F470001F751EA6A000FE96E3C
:102B7000010EEA22EF5001019F130001F72BECD761
:102B80000101A06B0101A16B0101A26B0101A36B0B
:102B9000060EE66E9E0EE66E010EE66ECDEC0DF0B4
:102BA000E552E552E5520001F86BF2861200DACFE9
:102BB000E4FFE2CFDAFFE9CFE4FFEACFE4FFE65239
:102BC000F250080B17E0F250010B14E00001F8512D
:102BD0000FE1100E81140CE1F2968980DD0ECB6EB0
:102BE000290ECA6E9E929D82CA840001010EF86F62
:102BF000F29061D09D50020B5EE09E50020B5BE0B4
:102C00000001F851030A1EE0010A12E0030A01E084
:102C100051D0CA94DD0ECB6E590ECA6E0001F66B10
:102C20000001020EF86F9E929D82CA84899042D064
:102C30008150100B01E0010E0001F46F0001030E42
:102C4000F86F38D08150100B01E0010E0001F56FD4
:102C50000001F4050DE10001F5510AE10001F65112
:102C6000EA6A000FE96E010EEA22010EEF6E14D03F
:102C70000001F4510CE10001F50509E10001F651F4
:102C8000EA6A000FE96E010EEA22EF6A05D0000140
:102C9000F86BCA94F2860ED00001020EF86F0001A4
:102CA000F62B0D0E0001F65D04E10001040EF86F35
:102CB000CA9400D09E92E552E5CFEAFFE5CFE9FF46
:062CC000E5CFDAFF110070
:0A2CC6001201000202000008D80409
:102CD00008FD000101020001090243000201008019
:102CE0003209040000010202010005240010010461
:102CF00024020205240600010524010001070582C3
:102D00000308000209040100020A0000000705038D
:102D1000024000000705830240000004030904305C
:102D200003440061006E006700650072006F00756B
:102D3000007300500072006F0074006F007400791F
:102D4000007000650073002E0063006F006D0028A6
:102D5000035500530042004900520074006F00798F
:102D600000200028004300440043002D00320033BF
:0F2D700000320029000000D82C1B2D1F2D4F2DE5
:012D7F000053
:102D80002A0EF66E080EF76E000EF86E00010900AE
:102D9000F550EF6F0900F550F06F03E1EF6701D0D8
:102DA0003DD00900F550EA6F0900F550EB6F0900BE
:102DB000F550EC6F09000900F550E96E0900F55077
:102DC000EA6E090009000900F550ED6F0900F550A1
:102DD000EE6F09000900F6CFF1F0F7CFF2F0F8CF6F
:102DE000F3F0EAC0F6FFEBC0F7FFECC0F8FF00011C
:102DF000ED5302E1EE5307E00900F550EE6EED07EA
:102E0000F8E2EE07F9D7F1C0F6FFF2C0F7FFF3C022
:0E2E1000F8FF0001EF07000EF05BBFD71200C5
:022E1E000001B1
:102E2000B4510FE11E0EE66E960EE66E000EE66ED3
:102E300066EC0DF0E552E552E5520001B46F000179
:102E4000B56B1200D9CFE6FFE1CFD9FF0001B45135
:102E5000000818E20001B551EA6A960FE96E000E0B
:102E6000EA22EF50E66EFD0EDBCFE9FFFE0EDBCF70
:102E7000EAFFE552E750EF6E0001B4070001B52B01
:102E8000010E02D0000E00D0E552E7CFD9FF1200AC
:0A2E90000001B46B0001B56B1200E5
:062E9A000101FF5110E0F0
:102EA000010A0BE0020A06E0010A01E00CD075EF0E
:102EB00010F009D090EF13F006D0F1EF14F003D02A
:102EC000D7EF15F000D01200D8CFE4FFE0CFE4FF39
:102ED000E46EDACFE4FFE2CFDAFFE652E552E5CF67
:0E2EE000DAFFE550E5CFE0FFE5CFD8FF1000A8
:022EEE00FE0ED6
:102EF000E3CFE9FFFF0EE3CFEAFFE9CFF3FFEACF2D
:102F0000F4FFFB0EE35003E1FC0EE35009E0FB0E7F
:102F1000E30602E2FC0EE306FD0EE350EE6EF1D78F
:022F200012009D
:0E2F220013EE00F023EE00F0F86A0A9CC0ECFB
:0E2F300016F0A6EC17F0FCEC10F0FBD7120028
:022F3E0000EEA3
:0C2F400000F00F0EEE6AEA62FDD71200EE
:022F4C00120071
:022F4E00000081
:012F50000080
:012F5100007F
:012F5200007E
:020000040030CA
:0100000024DB
:010001000EF0
:010002003FBE
:010003001EDE
:010005008179
:010006008178
:010008000FE8
:01000900C036
:01000A000FE6
:01000B00E014
:01000C000FE4
:01000D0040B2
:00000001FF
