:020000040000FA
:100000000002040000000000946C0000946C0000EA
:100010002663000030630000946C0000946C0000C4
:10002000946C0000946C0000946C0000946C0000D0
:10003000946C0000FC6A0000946C0000946C00005A
:10004000946C0000946C0000946C0000946C0000B0
:10005000946C0000946C0000946C0000946C0000A0
:10006000946C0000946C0000946C0000946C000090
:10007000946C0000946C0000946C0000946C000080
:10008000946C0000946C0000946C0000946C000070
:10009000946C0000946C0000946C0000946C000060
:1000A000946C0000946C0000946C0000946C000050
:1000B000946C0000946C0000946C0000946C000040
:1000C000946C0000946C0000946C0000946C000030
:1000D000946C0000946C0000946C0000946C000020
:1000E000946C0000946C0000946C0000946C000010
:1000F000946C0000946C0000946C0000946C000000
:10010000946C0000946C0000946C0000946C0000EF
:10011000946C0000946C0000946C0000946C0000DF
:10012000946C0000946C0000946C0000946C0000CF
:10013000946C0000946C0000946C0000946C0000BF
:10014000946C0000946C0000946C0000946C0000AF
:10015000946C0000946C0000946C0000946C00009F
:10016000946C0000946C0000946C0000946C00008F
:10017000946C0000946C0000946C0000946C00007F
:10018000946C0000946C0000946C0000946C00006F
:10019000946C0000946C0000946C0000946C00005F
:1001A000946C0000946C0000946C0000946C00004F
:1001B000946C0000946C0000946C0000946C00003F
:1001C000946C0000946C0000946C0000946C00002F
:1001D000946C0000946C0000946C0000946C00001F
:1001E000946C0000946C0000946C0000946C00000F
:1001F000946C0000946C0000946C0000946C0000FF
:10020000FFFFFF00FFFFFF00946C0000946C0000F4
:100210002663000030630000946C0000946C0000C2
:10022000946C0000946C0000946C0000946C0000CE
:10023000946C0000FC6A0000946C0000946C000058
:10024000946C0000946C0000946C0000946C0000AE
:10025000946C0000946C0000946C0000946C00009E
:10026000946C0000946C0000946C0000946C00008E
:10027000946C0000946C0000946C0000946C00007E
:10028000946C0000946C0000946C0000946C00006E
:10029000946C0000946C0000946C0000946C00005E
:1002A000946C0000946C0000946C0000946C00004E
:1002B000946C0000946C0000946C0000946C00003E
:1002C000946C0000946C0000946C0000946C00002E
:1002D000946C0000946C0000946C0000946C00001E
:1002E000946C0000946C0000946C0000946C00000E
:1002F000946C0000946C0000946C0000946C0000FE
:10030000946C0000946C0000946C0000946C0000ED
:10031000946C0000946C0000946C0000946C0000DD
:10032000946C0000946C0000946C0000946C0000CD
:10033000946C0000946C0000946C0000946C0000BD
:10034000946C0000946C0000946C0000946C0000AD
:10035000946C0000946C0000946C0000946C00009D
:10036000946C0000946C0000946C0000946C00008D
:10037000946C0000946C0000946C0000946C00007D
:10038000946C0000946C0000946C0000946C00006D
:10039000946C0000946C0000946C0000946C00005D
:1003A000946C0000946C0000946C0000946C00004D
:1003B000946C0000946C0000946C0000946C00003D
:1003C000946C0000946C0000946C0000946C00002D
:1003D000946C0000946C0000946C0000946C00001D
:1003E000946C0000946C0000946C0000946C00000D
:1003F000946C0000946C0000946C0000946C0000FD
:100400008F782100007F220000018800000000009A
:100410000C00070040B12600010020001100070079
:10042000000020000000E000020032000000020096
:100430000000000050600200000000000040DA00F0
:100440000000FE004440A900600920000000E00018
:100450000300320000002000A00188004440A800F2
:100460000000060091018800800078000000EB0089
:1004700015003700E280400032A0B4009101BA00BC
:10048000E280400032A0B4009102BA00E280400055
:1004900032A0B4000002EB00472BDE00F507B200EB
:1004A000602CE10004003A000059EB008301E900F0
:1004B000FDFF3E00040037006128E100010032002A
:1004C0000082EB00040007001101BA000200E00006
:1004D000E8FF3A00000006003159BA008301E90044
:1004E0000C0032002159BA008301E90008003200F3
:1004F0000400E00003003A00E280400032A0B400B3
:10050000F5FF370011D9BA008301E900FAFF3A007C
:100510008100E800E180400032A0B4000000060045
:100520008001EB0002003700817178008301E80050
:10053000828F5100FCFF3A00000006008000780026
:10054000010037000000E8001004E000FDFF3A0061
:100550000100500000000600881F780020BC8000C9
:100560000000E0000100320000000100F0BB80004C
:100570000000E0000100320000000100E0B7800050
:100580000000E0000100320000000100B0B7800070
:100590000000E0000100320000000100607821004E
:1005A0001004E00026003A0000BC800011BC80006E
:1005B0000004EB00D26026009301200053000700E6
:1005C000F2352F00E3C6230000004100818049007E
:1005D0000804E800E80F5400F6FF3A0000BC880069
:1005E00011BC8800E86F2100D26026009301200032
:1005F00000BC800011BC800044000700F2352F00D1
:10060000E3C62300000041008180490000BC88004F
:1006100011BC8800009CBE00E0772100800F5400D0
:10062000F1FF3A00D0BB8000E1BB8000C0B788007A
:10063000D1B7880011C0B30060782100014878006C
:10064000D26026009301200000BC800011BC800015
:100650002E000700F2352F00E3C623000000410002
:100660008180490000BC880011BC8800826F210095
:10067000120178007F0161004211DD00E36F21006B
:10068000030141001202BE00C4B78800D5B788003C
:100690000089BE00C0B78000D1B780004008DE00EE
:1006A00000F0A1004F04780000000600881F7800C9
:1006B0000004780020BC80000000E000010032004F
:1006C00000000100607821000048EB00F0BB8000D2
:1006D0000000E00001003200000001006140B800AD
:1006E00000BC880011BC88004F04780000000600A0
:1006F0008001EB000200370061F079008301E8001F
:10070000828F5100FCFF3A0000000600020AB90087
:10071000001BB9000200B8008100420081004300C4
:1007200000000600881F7800000478005001BE0019
:100730004000BE00040040008580480006014900DA
:1007400087814900009CBE000294BE000400E100C5
:100750000588E1000690E1000798E1000200310001
:10076000680044001008E8004F047800000006000C
:10077000F4874700889FBE008A9FBE008C9FBE0002
:100780008E1F78000205BE000004BE00D4B79F0093
:10079000E5B79F00F6B79F0087BF9F000000EB0002
:1007A000C0B79F00B0B79F00A0B79F0090B79F0051
:1007B00080B79F000D042000BFB097004FB0970096
:1007C000000140000000E0000F003D004F08DE0087
:1007D00000007100C0B79F009E00070001003D00AF
:1007E00012002000A100070001003D0012002000BF
:1007F000A6000700B1000700B60007000F00400088
:10080000C8FF0700220037004F08DE000006710015
:10081000CCB79F008F00070001003D0012002000B0
:100820009200070001003D00120020009700070021
:10083000A20007000FB297009FB297002FB3970056
:10084000BFB39700A90007000000520081805A0042
:1008500002015B0083815B0080B79F0091B79F001E
:10086000A2B79F00B3B79F000007EB009F000700EF
:100870000020E10001A8E10002B0E10003B8E100BE
:10088000010031001E0020000E005600C0B79F007E
:100890004FB297000400E000070035001000200070
:1008A000010020006011B800080470008984700005
:1008B0000A0571008B8571008D06E900BEFF3A00C4
:1008C0000400E00003003D00820007000F0040002C
:1008D00094FF07004FA897000000E00004003A00D2
:1008E0000FB497009FB497002FB59700BFB597003E
:1008F000940007004F0778004F06BE004F05BE006A
:100900004F04BE004F01B10000000600881F7800B0
:1009100018002000881F780095FF07008F87E900E6
:100920004F04780000000600801FEB0090FF0700D6
:100930008F87E90000000600889FBE008A9FBE00E6
:100940008C1F78006E00070007003D007300070051
:10095000E00F5B00E08F5B0007003D003200070006
:100960000006EB00040037003400070002003D00E1
:100970002A0007001C00200072000700E3FF0700A8
:100980000203BE000002BE000C00E00001003200C5
:10099000220007000400BE000601BE004F067800DA
:1009A0004F05BE004F04BE0000000600889FBE0039
:1009B0008A9FBE008C1F78005100070005003D0093
:1009C00056000700E00F5B00E08F5B0006003D0073
:1009D000040037001900070003003D006000B80064
:1009E0006011B8001000070056000700CEFF070096
:1009F0000203BE000002BE000C00E0000100320055
:100A0000060007000400BE000601BE004F06780085
:100A10004F05BE004F04BE00000006006000B80095
:100A20006011B800000037000402500085825800B1
:100A30000603590087835900000006000006EB00FA
:100A4000E00F5200E08F5A00E00F5B00E08F5B0088
:100A5000000006000180400090B79F000001EB00FD
:100A60008FB097000100E000000006000200700057
:100A700090B79F000180400080B79F000001EB000D
:100A8000FFA897000100E0000000060002007000CF
:100A900080B79F00018040006FAA9700CF20DE0042
:100AA00001007000F0AF9F00040242002500070023
:100AB0004F18DE000002720000000600E4AF9F0045
:100AC0000804440089844C000A054D008B854D00C4
:100AD000000006003FB29700CFB297005FB39700C7
:100AE000EFB3970000FE2F00000006003FB0970014
:100AF000CFB097005FB19700EFB1970000000600FC
:100B00000205BE000004BE00E00F5000E08F580058
:100B1000E00F5900E08F5900000006006000B800A7
:100B20006011B80008045000898458000A05590073
:100B30008B8559001C002000E00F5200E08F5A0006
:100B4000000006000800BE000A01BE00000006000A
:100B50006022B800060220000000D0008180D20090
:100B60000482D2008582D2000000A000020252005E
:100B700083825A00030031000202420083824A004D
:100B80000000A1000603E900F3FF3A0000000600A0
:100B90002F7300006561000072630000682E000082
:100BA0006A7300006F6E00003F72000070700000FA
:100BB0003D35000030260000713D00002534000066
:100BC0003074000077650000657400005F740000F9
:100BD0007265000065260000736900006E63000006
:100BE000655F0000696400003D00000047450000AB
:100BF0005420000000200000485400005450000021
:100C00002F3100002E3000000D0A0000486F000058
:100C1000737400003A200000000D00000A43000039
:100C20006F6E00006E65000063740000696F000065
:100C30006E3A0000206300006C6F000073650000D6
:100C40000D0A00000D0A00000030000031320000E3
:100C500033340000353600003738000039410000D9
:100C60004243000044450000460000000D0A000019
:100C700044480000435000002F5000006F770000F0
:100C80006572000020650000766500006E7400004B
:100C9000206F000063630000757200007265000041
:100CA0006400000009000000C8000000C800000047
:100CB000000000007D000000640000000200FA0057
:100CC000004F7800F2D6BF009E4F50001C0032004B
:100CD000F2D6BF00E24F40000B0032000255210067
:100CE000F2D6BF000080FB007E00B90080007800D3
:100CF000004B2100008040001D00090032587800A0
:100D0000E001B100E201B1001E407800F2F6B70048
:100D1000E0CFB3009E4F1000090032001E80FB00A0
:100D20007E00B90080007800004B21000080400068
:100D3000015521001D000900B0587800E001B10004
:100D40000080FA00000006000000FA00316F210068
:100D500091407800F2D6BF0080CF500024003200CE
:100D6000F3D6BF00E24F400016003200C04E210013
:100D700000017800F3D6BF000080FB007E00B900C0
:100D8000FC004000004B21000080400090427800B1
:100D9000F3D6BF000080FB007E00B9008000780021
:100DA000004B2100008040009000780080FD2F0063
:100DB000008040008402200013C0B300854078000A
:100DC000B5100700F2D6BF00F3F6B700C3562100F6
:100DD0009341780081AA800080FD2F0000814000AF
:100DE000C04E21008402200011C0B300AA100700E9
:100DF0000080FA00000006000C00FA00000C210040
:100E0000000F7800A0B780000000E00008003A0062
:100E1000785002000000000080007800F07F200081
:100E2000808060000040200000804000A0B7880063
:100E300040512100C20320008000EB00900202001C
:100E4000000000000040EB00204F98000040EB0045
:100E5000304F98004A0037003E48900097FF070047
:100E60003E4890000080FB006600B90080007800DA
:100E700020652800008040009040900021479800A5
:100E80003E4890000080FB006600B9008080E800CA
:100E900020652800008040009000780041079800FD
:100EA0003E4890000080FB006600B900E40040006E
:100EB00020652800008040009000780031079800ED
:100EC0002E4090000080FB000000E0000100320096
:100ED0002A0037001E00780020079800CE009000FE
:100EE0003E009000008040001E004000A102200053
:100EF000010F4000C0FF21009E0F1000FDFF3E00CB
:100F00002E4090006CF5B7002E0090008002B000DB
:100F100080AA880081AA80004E00900000804000D6
:100F20000000E80090AA880091AA80003E0090008E
:100F300000804000A0AA8800D000200030AB8800CC
:100F40006875A90080FF07003E4890000080FB0004
:100F50006600B9008000780020652800008040000D
:100F60001040780013F5B700E00A07003E489000F3
:100F70000040E800304F980001003700FFFF3700C5
:100F80003E489000E14F5000B3FF36000080FA0069
:100F9000000006001200FA001007980021079800D0
:100FA0006247980043079800244F98000040EB00E8
:100FB000004F7800940037001E4078003FFF070084
:100FC00030AB8000ED0F50008E003A005EFF07004E
:100FD00031512100914078002E48900080CF500080
:100FE00088003A008021200080A888006E40900090
:100FF0000004E00008003A004E009000E0A78800DE
:101000006875A8004000200030AB8800CE0090003A
:1010100051AB880078003700A1B78000F03F200076
:10102000808F500004003600A1B780008038210076
:10103000808F50000200360000402000A0B78800DA
:10104000A0B78000E0A788000000E800A0B78800F3
:101050004E009000D0A78800966A020000000000B1
:10106000F0AA880001AB88006895A8006E40900047
:101070000080FB00000F98008E089000E38F500066
:10108000220032000E089000E30F500004003C00E4
:101090008E089000E18F50005700350004003700A3
:1010A0000E089000E40F50002F003200520037006D
:1010B0001E009000AE00900010A8880021A88800B3
:1010C0008040EB00614F98006E409000E24F50006E
:1010D00002003A0010C0B300604F9800EE48900044
:1010E0000180FB00610060004201DD0071A880000A
:1010F000B0FF2F00008060000200700070A8880020
:101100000000EB0030AB88003B0037000E80E800A9
:10111000900090000E80E800100078008080400071
:101120004E00900080804000E0A7800000806800B2
:1011300050AB88001E009000AE00900010A8880000
:1011400021A888000040EB0012F5B70080092000BC
:101150000100200060A7880071A7880020002000FF
:1011600030AB8800240037001E009000AE009000D5
:1011700080007800214090000081FB003140900009
:101180000080FB004800DD000200700000017800D4
:101190001E009000AE0090009080FB001040900078
:1011A0000080FB004800DD0001007000800041006D
:1011B0004E00900080804000E0A780000080680022
:1011C00050AB88001E009000AE00900080007800B8
:1011D000205021000900090031587800A000B1001A
:1011E000A100B1005000200030AB880011C0B30056
:1011F00020C0B3009A0607001E80FB00600798001D
:10120000060037001E4FE80011C0B3009ECF10004B
:1012100069FF3600E00F2000600798006E00900024
:101220000080FA00000006000400FA00004F780079
:101230001E407800A1FE070040AB800001002100A5
:10124000010060000000E000040032006995A90080
:101250001000200010079800020037000000EB008B
:10126000100798001E0090000080FA0000000600A1
:101270000400FA00004F78001E4078008FFE07003F
:1012800030AB80008000EB0011079800E70F5000A2
:1012900002003A0010002000100798001E00900085
:1012A0000080FA00000006000400FA00004F7800F9
:1012B0001E40780081FE0700D0AA8000E0AA8800C6
:1012C00030AB8000100798001E009000E50F500022
:1012D0001F0032001E009000E50F50000A003E0083
:1012E0001E009000E10F5000150032001E0090001B
:1012F000E10F5000160039001E009000E30F50006F
:1013000032003E00120037001E009000EB0F50002C
:101310001E0032001E009000EB0F500004003E0043
:101320001E009000E70F500028003E000A00370022
:101330001E009000EE0F5000210032002300370005
:101340003049020000000000E809070023003700D0
:10135000E60907002100370011C0B30010C1B30037
:101360003F060700F0A780000000E0000400320004
:10137000B1AA8000C0A78000808F5000F6FF3A001D
:101380008000200030AB88001400370011C0B3008B
:1013900010C1B30032060700F0A780000000E00093
:1013A00004003200B1AA8000C0A78000808F5000E6
:1013B000F6FF3A00C000200030AB8800070037007D
:1013C000D000200030AB8800040037008040EB00E4
:1013D00040C1B30022060700C40907000080FA00DC
:1013E000000006000200FA00004F78001E4078005E
:1013F00032FE07006875A9001E407800AAFF0700AA
:101400000080FA00000006000200FA00004F780099
:101410001E40780029FE07004BFE070020502100E7
:10142000414A210009000900B0587800A000B1002D
:10143000D0A7800070A58800404A21000080FA00F3
:10144000000006000200FA00004F78001E407800FD
:101450001AFE07003CFE0700B1AA8000C0A780006A
:10146000808F50000300320011C0B30000C1B300F0
:10147000FB0507000080FA00000006000600FA00E5
:10148000204798002E4090000CFE070030AB8000F3
:10149000004F780070C0B3009E4F1000060032006D
:1014A000B0C0B3009E4F1000030032000000EB00FC
:1014B0002007980013003700B1AA8000C0AA80005E
:1014C000808F50000A00390091AA800080AA800015
:1014D00000815000C1AA8000B0AA800000805000A6
:1014E000000041000000E9002007980005003700D7
:1014F000C0AA8000B1AA8000010050000000E900ED
:10150000200798002E0090000080FA0000000600DE
:101510000600FA0020479800314798002E409000BE
:10152000E6FD07002E409000D4FF0700000F780072
:101530001E00E00003003A000000EB0020079800C6
:1015400036003700100020009E0F100002003A0005
:101550002E409000BBFF070040AB80000110200030
:10156000010060000000E00009003A0091AA80003C
:1015700080AA8000008050000000D1009E0F500023
:10158000030039002E409000AEFF07006915A80047
:101590006300470000017800C156210091407800A7
:1015A000B0AA80001400200013C0B300BA0E0700D8
:1015B000B0AA80000000E800B0AA8800B1AA8000AC
:1015C00090AA8000808F50000200390080AA80001D
:1015D000B0AA8800100020009E0F100003003A00FF
:1015E0002E40900097FF07000A00370040AB8000B4
:1015F00001022000010060000000E00005003A0048
:1016000068B5A800A26A020000000000780040004F
:1016100010AB880010002000200798002E009000DA
:101620000080FA00000006000E00FA0060479800F3
:1016300041079800520798000000EB00000F780067
:101640006E4090009DFD07006E4090008BFF0700EC
:10165000100798001E0090000000E00005003A000E
:101660006E40900077FF07000000EB0060079800D5
:10167000510037001E009000200798009E00900047
:101680005E009000808F5000020036005E009000E7
:101690002007980040AB800001102000010060008E
:1016A0000000E0000A003A0091AA800080AA8000B1
:1016B000008050008000D1001E009000808F5000FC
:1016C000030039006E4090005EFF07006915A80016
:1016D000B1AA80002E0090008080400090AA800077
:1016E000808F50001400390091AA8000B0AA8000B9
:1016F000008F50004E00900000017800C15621007C
:1017000091407800B0AA80001E02780013C0B30098
:10171000610E07009E0078004E009000010040001E
:10172000400798002E0090001E00500020079800EF
:1017300080AA8000B0AA88004E00900000017800C6
:10174000C156210091407800B0AA80002E0290007E
:1017500013C0B300500E0700B1AA80002E00900005
:1017600000804000B0AA88009E0090005E009000BB
:10177000808F500003003E006E40900031FF070054
:101780000A00370040AB8000010220000100600029
:101790000000E00005003A0068B5A800A26A020057
:1017A000000000007800400010AB88002E00900080
:1017B0001E004000600798006E0090000080FA0054
:1017C000000006000400FA00004F7800110798009E
:1017D0001E0090009E020200000000000001780040
:1017E0009E0090001E4078008FFF07008000780068
:1017F0001E009000008040000080FA0000000600FB
:101800000600FA00404798004E4090002BFD07006C
:1018100091AA800080AA800000805000000FE9009B
:101820004E40900015FF0700100798001E00900022
:101830001E0010000080FA00000006000200FA00FE
:10184000004F78001E4078000B0007000000E00009
:10185000070032001E40780018FD0700D0AA800063
:10186000E0AA880011C0B30000C1B300FC04070067
:101870000080FA00000006000400FA00004F780023
:101880001E4078000DFD0700D1AA8000E0AA80006C
:10189000808F500005003900D1AA8000E0AA8000A6
:1018A000808050001107980009003700A1AA80002D
:1018B000E0AA800000815000D1AA800090AA800098
:1018C00000805000000041000000E8001007980070
:1018D0001E0090000080FA00000006000800FA00D8
:1018E00020479800210798002E409000E2FF070053
:1018F000000F78001E00E00003003A000000EB003B
:1019000030079800270037002E409000EBFC0700BE
:101910002E0090000000E00008003200C1562100B7
:1019200091407800E2AA80002E0090001400200070
:101930008141780011C0B300D70D0700E0AA8000F4
:101940000000E800E0AA8800E1AA8000A0AA8000C8
:10195000808F50000200360090AA8000E0AA880024
:10196000100020009E0F100002003A006955A800E8
:101970000A00370040AB8000010220000100600037
:101980000000E00005003A0068B5A800A26A020065
:1019900000000000A007B00010AB8800100020007D
:1019A000300798003E0090000080FA00000006001A
:1019B0000C00FA0040479800310798004207980051
:1019C0000000EB00000F78004E409000AAFF0700D7
:1019D000100798001E0090000000E00003003A008D
:1019E0000000EB00500798004C0037004E4090007C
:1019F000B2FC0700CE0090001E009000808F5000C7
:101A0000020036001E00900040079800E1AA800006
:101A10004E00900080804000A0AA8000808F50007F
:101A200018003600A1AA8000E0AA800000805000C3
:101A3000000FE8003E0090000000E0000C003200C3
:101A4000C156210091407800E2AA80003E0090003B
:101A50001E0278008141780011C0B3008E0D07008E
:101A60009E0078003E009000010040003007980082
:101A70004E0090001E0050004007980090AA800081
:101A8000E0AA88003E0090000000E000080032005C
:101A9000C156210091407800E2AA80003E009000EB
:101AA0004E0290008141780011C0B3007A0D07000A
:101AB000E1AA80004E00900000804000E0AA88006B
:101AC0004E0090001E004000400798009E009000CD
:101AD0004E009000808050004E009000808F50009B
:101AE00002003E006955A8000A00370040AB8000A4
:101AF00001022000010060000000E00005003A0043
:101B000068B5A800A26A020000000000A007B000AB
:101B100010AB88004E009000500798005E009000C7
:101B20000080FA00000006000600FA004047980016
:101B30004E40900061FC0700A1AA800090AA80009E
:101B4000008F50004E4090004BFF07001007980098
:101B50001E0090001E0010000080FA000000060029
:101B60001000FA006047980041079800520798005B
:101B7000630798005E0090000000E00003003A0058
:101B80000000EB0070079800450037006E409000A1
:101B90004AFC07006E40900037FF070010079800CE
:101BA000EE0090005E009000808040001E009000DB
:101BB000808F5000040036001E009000EE00900060
:101BC0000100500050079800E1AA80006E009000CC
:101BD0000080400020079800A1AA80002E009000FD
:101BE000808F50000700310091AA8000A0AA8000D9
:101BF000808050002E009000008040000000E9002E
:101C000020079800A1AA80002E00900000805000BC
:101C1000000FE8005E0090009E0F50000A003E009A
:101C20006CD5BF00CE009000810278005E0290006B
:101C3000804178002E01900011C0B30005007800AB
:101C4000150D070014003700C1562100914078009F
:101C50004E0090001E027800814178002E01900015
:101C600011C0B3000C0D07005E0090009E005000F4
:101C7000C25621001241780095AA80004E009000C3
:101C80001E004000010278008241780005017800C2
:101C900011C0B300000D07005E00900070079800AF
:101CA0007E0090000080FA00000006000600FA00A6
:101CB0002047980021079800AE01900012002000F4
:101CC0008E0078002E409000A5FF07001E4078008F
:101CD0000080FB000080FA00000006004000FA00CF
:101CE00020779800211F9800321F9800431F98000A
:101CF000541F9800651F98003E1890000000E000F7
:101D000003003A000000EB00701F98002C01370020
:101D10002E709000E9FB07002E709000D6FE0700A1
:101D2000800078004E1890000080500070079800E6
:101D3000FE0090003E189000808F5000030031009C
:101D40008080EB00711F98001D0137005E18900025
:101D50000000E00006003200FE0090005E189000D7
:101D6000808F5000020036005E18900070079800C7
:101D7000E1AA80004E1890000080400050079800B3
:101D8000A1AA80005E009000808F50000700310003
:101D900091AA8000A0AA8000808050005E00900080
:101DA000008040000000E90050079800DE0090002D
:101DB000010F9800A1AA80005E00900000805000F2
:101DC0000000E800600798004E1890005007980047
:101DD000BE189000410798002E1890003007980018
:101DE0002E18900090407800314798002E189000EF
:101DF0000000E800201F98000000EB00000F7800B2
:101E00006E1890000000E0000C003200BE40900010
:101E100000C6B30080CF500008003600BE409000DE
:101E2000A0C7B30080CF500004003E003E409000A9
:101E300001CEB300014040003047980000C2B3001B
:101E4000204798002E4090008080FB006E0090009C
:101E5000808F5000020036006E00900020479800EE
:101E60002E4090008080FB007E009000808F50000C
:101E7000020036007E009000204798002E4090001F
:101E80008080FB00C256210012417800720047009A
:101E900001027800824178000E09900011C0B30061
:101EA0007D0C07002E4090008080FB000E08900003
:101EB00001004000000F98002E4090008080FB0041
:101EC0006E00900001005000600798006E009000C6
:101ED0000000E00004003A0090AA8000000F980083
:101EE0000080EB00600798006E1890000000E00092
:101EF0006A0032000040EB00404798006200370063
:101F00004E4090008080FB0072004700E140780066
:101F100000C6B30080CF5000130036004E40900042
:101F20008080FB0072004700E1407800A0C7B3004A
:101F300080CF50000C003E004E4090000081FB001E
:101F40004E4090008080FB007200470061407800A6
:101F50008040780000CEB30000C040008040780090
:101F600072004700017178004E4090008080FB00B5
:101F700072004700E14078003E40900080CF500062
:101F800024003A003E1890000000E900301F98003D
:101F90003E1890000000E00009003A00DE009000CA
:101FA0004E009000808050004E4090000080FB006A
:101FB000008040000000E800701F9800800037009B
:101FC0002E18900090407800314798002E1890000D
:101FD0000000E800201F980010002000000F78008B
:101FE000BE40900000C6B30080CF500023003600F2
:101FF000BE409000A0C7B30080CF50001F003E003D
:102000003E40900001CEB3000140400030479800B0
:102010001A0037004E009000301F98001E00E000AC
:1020200016003200BE009000211F98002E1890006C
:1020300090407800314798002E1890000000E8008A
:10204000201F9800BE40900000C6B30080CF500013
:1020500008003600BE409000A0C7B30080CF5000FB
:1020600004003E003E40900001CEB300014040001D
:10207000304798000000EB00000F78004E409000C1
:102080000040E80040479800CE4090002E4090006D
:1020900080CF50009AFF3900370037000040EB0036
:1020A00040479800300037004E4090008080FB0091
:1020B00072004700E14078003E40900080CF500021
:1020C00018003A003E1890000000E900301F980008
:1020D0003E1890000000E00009003A00DE00900089
:1020E0004E009000808050004E4090000080FB0029
:1020F000008040000000E800701F980030003700AA
:102100002E18900090407800314798002E189000CB
:102110000000E800201F980010002000000F780049
:102120000E0037004E009000301F98001E00E000A7
:102130000A003200BE009000211F98002E18900067
:1021400090407800314798002E1890000000E80079
:10215000201F98000000EB00000F78004E40900018
:102160000040E80040479800CE4090002E4090008C
:1021700080CF5000CCFF39002E4090008080FB00C3
:102180007E0090000100500070079800FE00900053
:102190003E189000808F5000030031000080EB005B
:1021A000701F9800060037002E4090008080FB00D2
:1021B0005E00900001004000500798001FFF3700AC
:1021C0007E1890000080FA00000006000800FA0067
:1021D000004F7800114798001207980023079800D5
:1021E000340798008E00E800BE0290002E02900096
:1021F0009E019000120020001E407800B7FE0700EC
:102200000080FA00000006001400FA00881F780021
:102210000040EB00004F9800F60137000E48900098
:10222000A6FA07000040EB00204798000000EB00F2
:10223000300798000000EB002007980041AB8000B9
:1022400000202000008060000000E00005003A004F
:1022500040AB800001402000010060000000E00071
:102260000B003200282A0200000000000000E000FD
:102270000700320000C1B3002047980040AB800047
:102280004A00DE00614060000080FB0030079800DB
:1022900040AB800001022000010060000000E0006F
:1022A0000800320018AB8000A26A020000000000A3
:1022B000000054000000E00002003C0000C1B30038
:1022C0002047980040AB800001042000010060001E
:1022D0000000E0000800320028AB8000A26A020083
:1022E00000000000000054000000E00002003C007C
:1022F00000C1B3002047980030AB8000EB0F5000C6
:102300000A003A0028AB8000A26A02000000000028
:10231000000054000000E00004003C0010C1B300C5
:1023200020479800C000200030AB880030AB800010
:10233000E40F500056003A000000EB00000F780058
:10234000500037001E0078007400B900F000400013
:102350004051210000804000100078000000E000A3
:102360004B0032001E0078007400B900F0004000FD
:1023700040512100008040009000780050AB800068
:10238000808F50003E003A006FFA07001E00780070
:102390007400B900800078004051210000804000A6
:1023A0002150210009000900B0587800A000B100B8
:1023B0001E0078007400B900EA004000405121007E
:1023C0000080400010007800D0A788001E00780030
:1023D0007400B900EC004000405121000080400032
:1023E0001000BE0061004000E0804800A0A7880007
:1023F000B1A7880021A8800010A88000808040003C
:10240000D0A7800080804000E0A7800000806800A6
:1024100050AB880020C1B300204798006000200026
:1024200030AB8800220020001E0051007400B9006B
:10243000000178001E0078007400B9008000780068
:102440008052210000804000800278001E00780049
:102450007400B900800078004051210000804000E5
:102460000202780013C0B3000501780011C0B30068
:10247000090B07000000EB0060AA88000400370089
:102480001E0FE800230020009E8F1100ADFF3600D4
:102490002E4090000004E0000A0032000040EB00F3
:1024A000604F98003E0090000000E00002003A00FB
:1024B00011C0B300614F9800EE4890002E4090008C
:1024C000E701070040AB8000700060000000E00002
:1024D0002C003A0030AB8000E70F500042013A0078
:1024E000966A0200000000000001BE00F0AA800011
:1024F00001AB80000000510081805900E00F5000C6
:10250000E08F58003801350040AB80006700600064
:10251000E60F50000E003A0040AB80004300DE00A2
:1025200061406000204798000E4890005EFB070065
:102530000E4890005CFB07002E4090000004E00075
:1025400029013A00E000200030AB88002601370066
:10255000FDF9070021C0B30000C1B300C0010700AE
:10256000966A02000000000042782D0073012000EE
:102570000000410081804900F0AA880001AB88007A
:1025800019013700966A0200000000000001BE0039
:10259000F0AA800001AB800000005100818059004A
:1025A000E00F5000E08F58000F013500E6F90700FA
:1025B00030AB80006101B800020F9800130F980043
:1025C000C0002000010020000E0990009E0990002C
:1025D000800F5100818F5900CF003E000E089000FF
:1025E0009E089000006001000C00370021003700B9
:1025F0004A00370052003700C70037007500370027
:10260000790037008C00370098003700A4003700AD
:10261000A800370088003700B300370014490200D3
:10262000000000000000E000BB00320010002000AD
:1026300030AB880070A88000640060000000E000FB
:102640000600320010A8800021A8800011C0B3004D
:102650005649020000000000AF00370010A88000BB
:1026600021A8800011C0B3005649020000000000FC
:10267000A90037006A0047008649020000000000F8
:102680000000E000A4003200304902000000000019
:102690000000E000150032005E009000EE009000A7
:1026A00010A8880021A888002000200030AB8800F6
:1026B00021A8800010A8800080804000D0A7800062
:1026C00080804000E0A780000080680050AB880058
:1026D0000040EB0012F5B700800920000100200047
:1026E00060A7880071A788008B003700966A0200F7
:1026F000000000000001BE0040782D0071012000A4
:102700000200400083804800F0AA880001AB8800E6
:102710000000EB0030AB88007F003700A26A0200A7
:102720000000000010AB880020502100585E02001D
:10273000000000003000200030AB88007600370039
:102740006150210020502100245F020000000000A1
:102750000000E00018003A00A26A02000000000039
:102760008000780010AB80000081500060A78000DE
:1027700071A78000800F51006700360012D5BF009E
:10278000E54F500009003E0012D5BF000040E800B0
:1027900012F5B70060A7800071A78000000040001C
:1027A0008180480060A7880071A788002000200071
:1027B00030AB88005800370020C0B3002047980095
:1027C0000000EB00300798005000200030AB88007C
:1027D0005100370020C0B3002047980010002000AF
:1027E000300798004C00370012D5BF00E14F500071
:1027F00005003E0020C1B3002047980010002000D3
:10280000300798004400370040AB8000680060004B
:102810000000E0000500320040C1B30020479800EE
:1028200010002000200798003B00370020C0B300B4
:10283000204798003800370012D5BF00E44F500001
:1028400005003E0000C1B3002047980010002000A2
:1028500030079800300037008000200030AB88003F
:1028600010C1B300204798002B00370012D5BF00DD
:10287000E44F500005003E0010C1B300204798000F
:1028800010002000300798002300370040C1B3003B
:102890002047980010002000200798001E003700F5
:1028A00040C1B30020479800100020002007980086
:1028B0001900370012D5BF00E44F500005003E005C
:1028C00000C1B30020479800100020003007980096
:1028D0001100370040C1B3002047980010002000CD
:1028E000200798000C00370012D5BF00E44F5000BD
:1028F00005003E0010C1B3002047980010002000E2
:10290000300798000400370040C1B300204798000A
:1029100010002000200798002E4090000004E000E6
:102920002D0032003E0090000000E0002700320041
:1029300012D5BF000040E80012F5B70060A7800084
:1029400071A78000000040008180480060A78800D7
:1029500071A7880082A7800093A78000C1A780008C
:10296000C0AA800000805000CF80DE00000051002F
:102970008180590080A7880091A78800C1A78000A6
:10298000C0AA8000808F50000A00310082A780001A
:1029900093A7800091AA800080AA80000080500048
:1029A000CF80DE00000051008180590080A78800A0
:1029B00091A78800C0AA8000C0A788008040EB00D3
:1029C0002E409000A60007000300370011C0B3009E
:1029D0002E409000A20007002E0090000000E000B2
:1029E00001003200410407000E4890000040E8005A
:1029F000004F98000E489000E14F500007FE36004F
:102A00000000EB00000F78002D0037001E0078005A
:102A10007400B900F00040004051210000804000E7
:102A2000100078000000E00028003200A26A0200D6
:102A300000000000000178001E0078007400B9005A
:102A4000F20040004051210000804000100078005A
:102A50008000510070722000808F500017003600F7
:102A6000210020001E8050007400B9000001780091
:102A70001E0078007400B9008000780080522100A8
:102A800000804000800278001E0078007400B900C9
:102A90008000780040512100008040000202780050
:102AA00013C0B3000501780011C0B3007A09070014
:102AB0000000EB0060AA88001E0FE9001E0FE8006E
:102AC000220020009E0F1100D0FF36004F04780036
:102AD0000080FA00000006002E00FA00301798006F
:102AE0004117980052179800BE1090001182FB0009
:102AF000114090000080FB004800DD0004007000E1
:102B000000017800214090000082FB0031409000DD
:102B10000080FB004800DD000400700080017800A8
:102B2000760047000288BE004E1090001000BE00E4
:102B3000760147002001980031019800F600470017
:102B40000040EB0080489800F600470060C0B300EA
:102B50009048980076004700DE10900051009800E1
:102B60007600470050009000A055020000000000D1
:102B700080007800760047005100980076004700FA
:102B8000C10020001856020000000000000178007B
:102B9000020078000080EA008180EA0010179800A7
:102BA0005E109000322E02000000000020179800F6
:102BB0009E1090002E109000808F50000500320073
:102BC000402A02000000000010002000601798005A
:102BD000200037000000EB00FC660200000000004F
:102BE0000E80E80041012000E630020000000000F5
:102BF0000E80E800860307000E80E8006000900069
:102C00004400DE006F4060004200DD00744F500061
:102C10009E80FB005E109000010050007400500088
:102C2000501798000E80E800BE1090005C0207006C
:102C30000000E000030032000E80E800DE1090008B
:102C400046040700402A0200000000001100200096
:102C5000611798006E1090000080FA0000000600D6
:102C60002C00FA00206F9800316F980036F80700AA
:102C70002E6890000080FB00610060000004E0000E
:102C8000050032006975A8002E689000E1CFB300FE
:102C900001406000206F980068B5A90068D5A900C0
:102CA00068F5A9006935A9006955A9006915A90049
:102CB000282A0200000000000000E000FCFF3200B3
:102CC0002E6890000080FB00660060000000E000BD
:102CD000030032000000EB0010079800C600370028
:102CE000B1AA8000C0A78000808F50000E003A007B
:102CF0000000EB001007980041AB8000008020002E
:102D0000008060000000E000BB003200F0A78000FF
:102D10000000E000B80032002E6890000004A0001F
:102D2000206F9800B4003700B1AA8000C0A78000CF
:102D3000808F50003E003600B1AA8000C0A78000FE
:102D40000080500010079800F0A78000000F780066
:102D5000C1A78000C0AA8000808F50000500390004
:102D6000C0A78000C1AA8000010050001E0F100003
:102D70000800370091AA800080AA800000815000DE
:102D8000C1AA8000C0A78000008050000000510050
:102D90001E0F10001E0090009E0F50000200360013
:102DA0009E0078001107980081A880001E00900006
:102DB000808F50000300310080A880001007980029
:102DC0006955A80040AB8000018020000100600030
:102DD0000000E0000A0032001E0090009E0F50002C
:102DE0000700320081A880001E009000808F5000F4
:102DF000030032002E6890000004A000206F9800AD
:102E00006CD5BF00C2A780001E02900080417800F0
:102E10008040EB0050B020009F080700C1A7800051
:102E20001E00900000804000C0A78800720037009C
:102E300091AA8000C0A78000808050007E004700DB
:102E4000510098007E004700D0009000B0AA80009A
:102E50008080400080AA8000008050001007980009
:102E6000F1A78000010F7800C1A78000C0AA8000F0
:102E7000808F500005003900C0A78000C1AA8000E3
:102E8000010050001E0F10000800370091AA8000BA
:102E900080AA800000815000C1AA8000C0A78000E5
:102EA00000805000000051001E0F10001E00900016
:102EB0009E0F5000020036001E0078001007980098
:102EC00081A880001E009000808F50000300310018
:102ED00081A88000110798006955A80040AB8000C8
:102EE00001802000010060000000E0000A003200C4
:102EF0001E0090009E0F50000700320081A8800045
:102F00001E009000808F5000030032002E68900059
:102F10000004A000206F98007E004700D0009000C1
:102F20001E009000808F5000030036007E00470096
:102F30009E009000510098007E00470050009000D5
:102F4000C156210091407800C2A78000000278009D
:102F5000814178008040EB0050B020004E0807000F
:102F60007E004700D00090001E00900081005000BD
:102F70007E004700510098007E00470050009000FE
:102F80000000E0000E0032007E004700500190007B
:102F9000C35621009341780085AA800091AA800041
:102FA000C0A780008080500050B02000008040000A
:102FB00002027800050178008040EB003608070027
:102FC000C1A780001E00900000804000C0A78800BC
:102FD000C1A7800090AA8000808F500006003900B1
:102FE000C2A7800091AA800080AA800000805000C3
:102FF00000005100C0A788001E0090000000E00003
:1030000005003A002E6890000080FB00630060001D
:103010000000E0001B0032001E0090000000E000F5
:10302000030032002E6890000034A000206F98004A
:103030003E6890000080FB00610060000004E0003A
:10304000060032000040EB0012F5B700A025260074
:103050002100200060A7880071A78800966A0200FE
:103060000000000062A7800073A7800000004100FC
:1030700081804900F0AA880001AB88006895A8000B
:10308000370037003E6890000080FB000000D10050
:10309000610060000004E0001400320040AB8000DA
:1030A000674060000040E800674060000080FB006F
:1030B0006701600041AB800080FF2F00008060004E
:1030C0000200700040AB880080A7800091A78000BC
:1030D00061005000E080580080A7880091A7880018
:1030E00010002000100798001D00370040AB800042
:1030F000700060000000E000190032003E6890009F
:103100000080FB00610060000000E0000C003A005D
:1031100012D5BF000004E0000900320012D5BF0044
:103120000040E90012F5B70060A7800071A7800099
:103130008100D1000080D30060A7880071A78800BB
:10314000966A02000000000062A7800073A780005A
:103150000000410081804900F0AA880001AB88008E
:10316000E1A780006600470001087800D1A7800031
:10317000660047001100980080A7800091A780009A
:10318000660147002001980031019800A0A7800047
:10319000B1A78000660147004001980051019800E6
:1031A000E60047006100900000E0A10000F0A100EF
:1031B000E0009800E6004700610090000000A100D8
:1031C0000010A1000020A1000030A100E000980044
:1031D00066004700AE68900051489800E60047003E
:1031E0000000EB009008980082A7800093A7800061
:1031F0001E00900001002000020040008380480073
:1032000080A7880091A788002E6890000080FB00AE
:103210000000D100610060000004E0001E003200E8
:103220002E6890000080FB004400DE00610060001A
:103230000000E00004003A00660147006000B800AA
:10324000400198005101980070A880006200600061
:103250000000E0000900320066004700B000900066
:103260002000900061005000E08058006601470097
:1032700020019800310198000700370080A78000E6
:1032800091A7800061004000E080480080A788008E
:1032900091A788000E35A8002E6890000080FB00E2
:1032A000610060000004E0001400320070A880009B
:1032B000610060000000E000090032006600470085
:1032C000B00090002000900061005000E0805800A5
:1032D000660147002001980031019800070037007F
:1032E00080A7800091A7800061004000E080480036
:1032F00080A7880091A788000E15A800D1AA800099
:10330000E0AA8000808F50000A003900A1AA800046
:1033100090AA800000815000D1AA8000E0AA80001D
:103320000080500080005100660047007100980046
:1033300006003700E1AA8000D0AA8000008050007B
:103340008000E9006600470071009800742A0200BE
:10335000000000008000780000FC2F00008040008A
:10336000200798002E0090000000E00002003D00C1
:103370000000EB002007980066004700F000900076
:103380002E009000808F500003003600AE009000A9
:103390006600470071009800660047009C01070026
:1033A0001E0090007400400010079800E6004700DF
:1033B000610090000040A0000050A1000060A0004B
:1033C0000070A100E00098002E6890000080FB00D3
:1033D0000000D100610060000004E000180032002D
:1033E0001E009000640040001007980020C0B30049
:1033F000205F980040C0B300305F9800204021005B
:10340000600F980066004700600090004400DE00F6
:103410006F4060000040E8006F406000E601470038
:10342000E30090000080FB006F0060004401DD00BD
:10343000F0F02F008080600082807000E101980031
:103440000ED6BF008080FB000FD6BF000080FB00BF
:103450004800DD00010070000001780010D6BF00B8
:103460008080FB0011D6BF000080FB004800DD001B
:1034700001007000800178007E0047000288BE00D5
:1034800010A8800021A880007E014700200198003C
:1034900031019800FE0047000040EB008048980092
:1034A000FE00470060C0B300904898007E004700CF
:1034B0009E009000510098007E0047005000900050
:1034C000A055020000000000800078007E00470048
:1034D000510098007E004700C100200018560200ED
:1034E0000000000000017800020078000080EA007F
:1034F0008180EA008000780066004700010898009B
:10350000D0AD20007E2D0200000000001E019000C2
:1035100061C0B300205021005E6602000000000080
:103520006600470041012000F83102000000000061
:103530002E6890000080FB000000D1006100600058
:103540000004E000040032007A004700410020003F
:10355000F83102000000000010AF2000AC2D020086
:10356000000000001E009000322E0200000000004B
:103570002007980010B020007E2D020000000000FF
:103580006400470021002000F83102000000000024
:10359000342C0200000000000080FA000000060049
:1035A0000C00FA00881F7800300798004107980047
:1035B0003E009000100090000000E00003003A0080
:1035C0000000EB00500798000D013700E0CFB3007A
:1035D00040479800CE009000214090000081FB0001
:1035E000314090000080FB004800DD0002007000C8
:1035F000000178004E0090009080FB001040900089
:103600000080FB004800DD000100700080004100E8
:103610003E00900010007800808040003E00900046
:103620001000900000806800100798000040EB0038
:1036300050479800380037005E4090009FF5070023
:1036400030AB8000ED0F50003000320030AB800016
:10365000E40F500008003A0050AB8000BE0090001C
:1036600091009000810F500028003A00DE40900049
:10367000414798002500370051AB80001E009000A4
:10368000808F500021003A00AFF507003E00900007
:1036900090009000E0A78000808F50001B003A004F
:1036A0003E00900090007800D0A78000808F5000EE
:1036B00016003A00CE0090001182FB0011409000ED
:1036C0000080FB004800DD0004007000000178006D
:1036D000214090000082FB00314090000080FB0000
:1036E0004800DD00040070008001780010A8800010
:1036F00021A88000800F5100818F590003003A00FB
:103700001000200050079800BD0037005E40900078
:103710000040E800504798005E409000E14F5000A4
:10372000C5FF36004E409000E24F400018003200C6
:103730004E40900061F5070083F507004E40900071
:10374000E24F4000120032009E00900051AB880012
:103750004E0090002150210009000900B058780067
:10376000A000B1003E00900010007800D0A78800B3
:103770003E00900010009000E0A7880080AA800022
:10378000C0A7880010002000500798009C00370058
:103790003E009000E00090000020200000806000CB
:1037A0000000E00003003A008000EB0051079800A1
:1037B0009300370060AA80000000E00003003200A0
:1037C0000000EB00500798008D0037000000EB0070
:1037D000000F7800400037001E0078007400B90028
:1037E000F0004000405121000080400010007800AF
:1037F0000000E0003B0032001E0078007400B900B9
:10380000F00040004051210000804000900078000E
:103810003E00900010009000808F50002D003A0074
:103820001E0078007400B900EA00400040512100F9
:1038300000804000900078003E009000100078006A
:10384000808F500023003A001E0078007400B900F9
:103850008000780040512100008040001003BE002D
:10386000CE0090001182FB00114090000080FB0010
:103870004800DD0004007000000178002140900045
:103880000082FB00314090000080FB004800DD001A
:103890000400700080017800820F5300838F5B006A
:1038A0000C003A001E047800A26A0200000000002A
:1038B000000178007440B900F2004000405121003E
:1038C00000804000020878008000EB00510798005B
:1038D0004B0037001E0FE800200020009E0F100054
:1038E000BDFF36000040EB00504798003F00370016
:1038F0005E409000F1F4070040AB8000680060007B
:103900000000E000360032000FF50700E0A780005D
:10391000BE00900091009000810F500030003A00EE
:103920004E009000000178001E0078007400B9007D
:10393000800078004051210000804000090009000B
:1039400032587800A000B100A200B1009E007800BB
:103950003E009000100178007408B900EA004000B1
:103960004051210000804000020878009E0078004D
:103970003E00900020019000B00190007408B90052
:10398000EC00400040512100008040000288BE0051
:103990009E0078003E009000100190007408B9006D
:1039A000F0004000405121000080400002087800F3
:1039B0001E047800A26A02000000000000017800E6
:1039C0007440B900F20040004051210000804000E6
:1039D000020878008000EB005107980008003700CB
:1039E0005E4090000040E800504798005E40900024
:1039F000E14F5000BEFF36000000EB00500798007A
:103A00005E0090004F0478000080FA00000006007D
:103A10000200FA00000F78001E0078001000780005
:103A2000A055020000000000800078001E00780011
:103A3000010878001E00780010009000A0550200D8
:103A400000000000800078001E007800110098003F
:103A50001E007800B000900020009000BA550200CF
:103A6000000000001E01780020019800310198003C
:103A70001E007800D000900040009000BA5502006F
:103A8000000000001E0178004001980051019800DC
:103A90001E00780070009000A05502000000000099
:103AA000800078001E007800710098001E007800E9
:103AB00000089000A055020000000000800078007F
:103AC0001E007800010898001E0078001008900081
:103AD000A055020000000000800078001E00780061
:103AE000110898000080FA00000006000200FA00A9
:103AF000881F780094F40700E0A7800050AB88008E
:103B000080AA8000B0AA880080AA8000C0AA88008D
:103B100090AA8000D0AA880090AA8000E0AA88001D
:103B200040AB8000680060000000E000030032004D
:103B300040002000000F780002003700D000200075
:103B4000000F78001E00780030AB88006815A900CF
:103B50006835A9006855A9006895A90068B5A9004D
:103B600068D5A90068F5A9006915A9006935A900FB
:103B70006955A9006975A9006995A8000E15A900E5
:103B80000E35A9000E75A9000E95A90080AA800027
:103B9000C0A78800084F2100AC020200000000000E
:103BA000000C7800084F2100AC0202000000000069
:103BB000100498000080EB0060A88800100020002E
:103BC000F0A788004F0478000080FA00000006008B
:103BD0000600FA00881F7800C0002000FC66020082
:103BE00000000000B4300200000000001047980000
:103BF0001E4090008080FB00000F200000806000CD
:103C00004280DE0074405000104798001E40900033
:103C10000004E00003003A00802120002007980003
:103C20004A003700710020000000EB00E63002007F
:103C3000000000003D003700B4300200000000002A
:103C4000004F78001E04E0003E00320010C0B300B8
:103C50009E4F10003500320020C0B3009E4F100070
:103C600022003A001E409000E24F5000350036001E
:103C70000000EB0010079800B430020000000000C4
:103C8000004F780040C0B3009E4F100009003A007A
:103C90000E80E8000004E800B430020000000000DC
:103CA000004C78000E84E800B430020000000000F0
:103CB000004C78009E00900070212000808F500002
:103CC000200036009E009000405B2000808F500056
:103CD00003003600405B2000200798001B003700DF
:103CE0001E00900020079800180037001E4090002A
:103CF000E14F500013003600B43002000000000015
:103D0000004F78001E4090009E4F50000D0039007B
:103D10009E80FB000000EB00E63002000000000087
:103D20001E4090001E405000104798001E4090001A
:103D30000040E900104798001E409000E14F40000D
:103D4000BDFF3A0080212000200798002E0090003F
:103D50004F0478000080FA00000006002600FA00F8
:103D6000600F9800710F98006E089000D048900086
:103D7000414F98006E08900040019000D0019000E3
:103D800042079800530798006E08900020019000A9
:103D9000B001900022079800330798006815A90029
:103DA0006835A9006855A90040AB8000700060002C
:103DB0000000E00008003A00966A020000000000DF
:103DC00042782D00730120000000410081804900ED
:103DD000F0AA880001AB880033AB8000231798005D
:103DE0002E109000E40F500004003200AE1090003E
:103DF000E58F50002E003200740037004E489000CE
:103E00000080FB004200DE00610060000004E00072
:103E10000200320035FF0700E20337004E489000F1
:103E20000080FB004400DE00610060000004E00050
:103E3000090032004E019000DE01900082A7880048
:103E400093A788008040EB0040C0B30084FB0700CC
:103E500026FF0700D30337004E4890000080FB0088
:103E60000000D100610060000004E0000E0032009C
:103E70002E009000BE00900061004000E0804800ED
:103E8000A0A78800B1A7880051FF070080A888007C
:103E900011C0B30020C1B30071FB07006000200017
:103EA00030AB8800BF03370010FF0700BD033700A9
:103EB0004E4890000080FB004200DE006100600080
:103EC0000004E000B7033A004E4890000080FB0079
:103ED0004400DE00610060000004E00017003200D2
:103EE00082A7800093A780004E009000DE00900023
:103EF000800F5100818F59001000320080A7800090
:103F000091A7800020079800310798004E0190008B
:103F1000DE01900082A7880093A7880011C0B3003B
:103F200040C0B3004EFB07002E009000BE00900082
:103F300080A7880091A788009A0337004E48900018
:103F40000080FB000000D100610060000004E00080
:103F5000940332002E009000BE00900061004000EB
:103F6000E0804800A0A78800B1A788006E089000F4
:103F700070009000F0A7880015FF070080A8880057
:103F80004E4890000080FB004400DE0061006000AD
:103F90000004E0000700320011C0B30000C1B3000C
:103FA0002FFB07007000200030AB88006895A90047
:103FB0007C03370011C0B30020C1B30028FB070009
:103FC0006000200030AB880076033700FE089000C8
:103FD000110798004E4890000080FB0061006000CF
:103FE0000004E000030032001E0090000000E80022
:103FF000100798004E4890000080FB000000D100A0
:10400000610060000004E000030032001E00900028
:104010000000E80010079800D1AA8000E0AA800004
:10402000808F500009003900A1AA800090AA80006A
:1040300000815000D1AA8000E0AA800000805000DA
:10404000000051007007980005003700E1AA8000C9
:10405000D0AA8000008050000000E900700798009E
:10406000A2A78000B3A780002E009000BE009000A1
:104070000200500083805800100F9800210F980014
:104080001E099000020F98000000EB00000F78005E
:104090001E0090000000E000350032007E0090001D
:1040A0000000E000480032001E089000AE089000BA
:1040B000E00F5000E08F58000A0035007E009000AD
:1040C0006101B8001E089000AE089000800F5100FA
:1040D000818F59000300360010002000000F780087
:1040E000140037001E0090006101B8001E08900007
:1040F000AE0890000200400083804800E00F5000AE
:10410000E08F58000B003400FE0090001E0090006D
:10411000008050006101B9001E089000AE089000B8
:10412000800F5100818F59000200350010002000DF
:10413000000F78007E0090006101B8001E0890001A
:10414000AE089000800F5100818F59001E0034008E
:104150000E0890009E009000010040000000E0006A
:104160001900340010002000000F780016003700FE
:104170001E089000AE089000E00F5000E08F58003D
:1041800003003A0010002000000F78000E003700F6
:104190001E089000AE089000E00F5000E08F58001D
:1041A000090035007E0090006101B8001E089000F3
:1041B000AE089000800F5100818F59000200360038
:1041C00010002000000F78001E00E0000A003A00F6
:1041D0004E4890000080FB004200DE00610060005D
:1041E0000000E000EF023A0011C0B30000C1B300CC
:1041F0009BFA0700EB0237004E4890000080FB005E
:10420000660060000000E0000200320037FE070098
:10421000E40237004E4890000080FB004400DE00BE
:10422000610060000000E000DE02320033AB80007D
:10423000131798001E109000EB0F500007003E006F
:104240009E109000E78F5000210031001E11900059
:10425000E60F5100050032003C0137009E1190002E
:10426000EC8F5100300132003801370082A7800006
:1042700093A780004E009000DE009000800F510058
:10428000818F59001000320080A7800091A7800024
:1042900020079800310798004E019000DE01900041
:1042A00082A7880093A7880011C0B30040C0B30064
:1042B0006BFA07002E009000BE00900080A78800D7
:1042C00091A78800B70237007000200030AB88004B
:1042D000B1AA8000C0A7800000805000300F980075
:1042E0003E0890000000E00006003D0091AA80001A
:1042F00080AA8000808050003E08900001004000AD
:10430000300F980082A7800093A780003E0890009D
:10431000010020000200400083804800400F980008
:10432000510F98004E099000DE0990004E00900059
:10433000DE0090000000510081805900E00F500025
:10434000E08F580004003D008040EB0000C1B30046
:1043500043FA07009302370082A7800093A78000EA
:10436000C1A78000C0AA800000805000CF80DE007E
:104370000000510081805900400F9800510F9800B3
:10438000C1A78000C0AA8000808F50000A003100C1
:1043900091AA800080AA8000008050006101B800CE
:1043A0004E089000DE089000020050008380580004
:1043B000400F9800510F98004E019000DE019000D0
:1043C0004E089000DE0890000000510081805900E6
:1043D000400F9800510F98004E089000DE089000A2
:1043E000E00F5000E08F58005200340091AA800086
:1043F00080AA8000008050006101B8004E08900043
:10440000DE089000800F5100818F5900490039006B
:104410000E75A9000E95A9006915A900C1AA800012
:10442000310F9800C1AA80004E0890000080400023
:10443000C0AA8800C1A780003E089000808F50006D
:1044400011003900C1A78000C0AA8000808F5000F1
:104450002300310082A7800093A78000C1AA8000BA
:10446000C0A7800000805000010020000200400032
:104470008380480080A7880091A78800C0AA800098
:10448000C0A7880016003700C2A7800091AA80004C
:1044900080AA80000080500000004100300F98008A
:1044A000C1AA80003E089000808F50000C003600AA
:1044B00082A7800093A78000C1AA80003E089000D8
:1044C000008050000100200002004000838048006E
:1044D00080A7880091A78800C0AA8000C0A7880094
:1044E000C1AA800090AA8000808F50000600390089
:1044F000C2AA800091AA800080AA8000008050009B
:1045000000005100C0AA8800C1A7800090AA8000C6
:10451000808F500030003900C2A7800091AA80002F
:1045200080AA80000080500000005100C0A78800D1
:1045300029003700C1AA8000C0A78000808F5000EA
:104540002500320070A88000680060000000E000D4
:104550002000320070A88000700060000000E000C1
:104560001B00320082A7800093A78000C1A78000B3
:10457000C0AA800000805000CF80DE000000510003
:104580008180590080A7880091A78800C1A780007A
:10459000C0AA8000808F50000A00310082A78000EE
:1045A00093A7800091AA800080AA8000008050001C
:1045B000CF80DE00000051008180590080A7880074
:1045C00091A78800C0AA8000C0A788006955A800EC
:1045D0000E95A8000E75A800C1AA8000B0AA8000A0
:1045E000808F500011003A0040AB80000180200015
:1045F000010060000000E00002003A006895A90098
:104600000A00370082A7800093A780004E00900028
:10461000DE009000800F5100818F590003003A00A6
:104620006895A9006975A9000E15A900F0A780007A
:104630000000E00005003A006E0890007000900055
:104640000000E000010032006935A8006E0890000B
:1046500070009000F0A7880030AB8000E80F500099
:1046600014003A0082A7800093A780004E009000BB
:10467000DE009000800F5100818F590033003A0016
:10468000966A0200000000000001BE0020BC2E005F
:10469000B10020000200400083804800F0AA88009A
:1046A00001AB88006895A8009000200030AB88001E
:1046B0002600370030AB8000E90F50000E003A00B2
:1046C0004E4890000080FB00610060000000E000A8
:1046D0001E003A004E019000DE01900082A7880083
:1046E00093A788008040EB0040C1B3005CF907004D
:1046F000FEFC0700AB01370030AB8000EA0F500032
:1047000012003A0082A7800093A780004E0090001C
:10471000DE009000800F5100818F5900A1013A0006
:10472000F2FC07009F01370082A7800093A780005A
:104730004E009000DE009000800F5100818F5900E4
:1047400098013A00E9FC0700960137004E489000B6
:104750000080FB004500DE00610060000004E00016
:1047600090013A0030AB8000EB0F50008D01320019
:1047700030AB8000EA0F50008A01320030AB80007D
:10478000EC0F5000870132007E0890000000E0002E
:10479000180132000E0890000000E0007B003C0091
:1047A0006E089000600090004400DE006F406000E2
:1047B0000080FB004200DD00800078000E089000C1
:1047C00000805000FC66020000000000FE0890001F
:1047D0000E08900000804000700F9800FE089000C6
:1047E0007E009000808F500002003600FE01900095
:1047F000730F9800A2A78000B3A780007E089000E6
:10480000010020000200400083804800A0A788002B
:10481000B1A78800D1AA80007E0890008080400067
:10482000A0AA8000808F50001E003600A1AA800040
:10483000D0AA8000008050000000E800300F9800EF
:10484000C156210091407800D0AA80003E0A900015
:104850008041EB000081EB000F020700FE08900092
:104860003E08900000805000C15621009140780021
:1048700095AA8000000278008041EB000081EB00E7
:10488000050078000402070092AA8000FE0890004C
:104890003E0890000080500000004100D0AA88002F
:1048A0000B003700C156210091407800D0AA80004B
:1048B0007E0A90008041EB000081EB00F6010700CA
:1048C000D1AA80007E08900000804000D0AA880015
:1048D00060A88000E10F4000C600320060A88000A0
:1048E000800078007E0890000080500060A888005A
:1048F00001A8800060A8800000804000300F980070
:104900003E0890000000E00003003D000080EB0046
:1049100060A88800B700370060A880000000E000B1
:10492000B4003C00A2A78000B3A780003E0890001E
:10493000010020000200400083804800A0A78800FA
:10494000B1A78800D1AA80003E08900000804000F6
:10495000D0AA8800D1AA8000A0AA8000808F500031
:1049600007003600D2AA800091AA8000A0AA800089
:1049700000805000000041000000E900D0AA88003B
:104980000080EB0060A888009A0037000E089000B5
:104990000000E00097003400FE0890000E08900030
:1049A000808040007E009000808F50000400360020
:1049B0007E0090008E08900001005000700F98005B
:1049C0006E089000600090004400DE006F406000C0
:1049D0000080FB004200DD00FC66020000000000D9
:1049E000D1AA80000E089000808040007E089000D0
:1049F00080804000A0AA8000808F500030003600E8
:104A0000A1AA8000D0AA8000808050000E089000EB
:104A1000008050000000E800300F98003E08900031
:104A20000000E00016003500C556210095427800D0
:104A3000D1AA80000E089000008040003E0A90003D
:104A40008041EB000081EB00854078009201070077
:104A5000FE0890003E08900000805000C1562100E2
:104A60009140780095AA8000000278008041EB0018
:104A70000081EB0005007800870107001A0037006D
:104A8000C556210095427800D1AA80000E089000FA
:104A90000081400091AA8000A0AA80000080500000
:104AA000000041000000E9007E0A90008041EB0018
:104AB0000081EB0085407800770107000A0037008D
:104AC000C556210095427800D1AA80000E089000BA
:104AD000008040007E0A90008041EB000081EB00E6
:104AE000854078006C01070060A88000E10F40005D
:104AF00005003A000E08900060A888007E0890002B
:104B000000A888003B00370060A880008000780083
:104B10000E089000808F50001C0036008E08900018
:104B20007E0890000081400060A88000800078002E
:104B300000A8800000804000800F510006003E0069
:104B40008E0890007E0890008080400060A8800061
:104B5000808F500003003100FE08900001A88800FB
:104B60000700370060A880008000780000A880005F
:104B7000808040000E0890000080500000A888004F
:104B80000E08900060A888001A0037008E08900078
:104B90007E0890000081400060A8800080007800BE
:104BA00000A8800000804000800F510011003600F6
:104BB00060A880008000780000A88000808040000D
:104BC0000E089000808F50000A00390002A8800073
:104BD0008E0890007E0890008080400060A88000D1
:104BE0008080500000A8800000805000000041003C
:104BF00000A888001E0090000000E0001A003200AB
:104C000030AB8000E70F500002003200D0AA8000D5
:104C1000E0AA880040AB800001082000010060008D
:104C20000000E0000500320011C0B30000C1B30075
:104C30000BF8070044F007000B00370068F5A800E8
:104C400040AB800001042000010060000000E00093
:104C500005003A0068D5A800A26A02000000000022
:104C6000D003B00020AB88004E4890000080FB00CD
:104C7000610060000004E0004A003200A0A780004C
:104C8000B1A7800061024000E08248001E00900051
:104C90006101B8002E009000BE00900002004000AC
:104CA00083804800800F5200818F5A003D003A00F7
:104CB000A0A78000B1A7800061004000E08048000C
:104CC000A0A78800B1A7880032AB80000217980027
:104CD0008E119000E78F5100140032000E109000EA
:104CE000E70F500004003E008E109000E68F500049
:104CF00008003200280037000E119000E80F510024
:104D0000110032008E119000E98F51001D00320019
:104D100021003700C000200030AB880011C0B30074
:104D200010C1B300CEF707001E003700B00020000E
:104D300030AB8800A26A020000000000A007B000AB
:104D400020AB88001400370082A7800093A7800062
:104D50004E009000DE009000800F5100818F5900BE
:104D600005003A008040EB0000C1B300BCF707002B
:104D70005EFB07000B003700A000200030AB88006E
:104D8000050037008040EB0000C1B300B4F7070016
:104D900056FB07000300370011C0B30000C1B30089
:104DA000AFF707000080FA00000006001000FA00CC
:104DB000604798004107980052079800434F9800B9
:104DC0006E409000BDEF07004E0090000000E00034
:104DD00002003A001000200040079800A1AA8000BD
:104DE00080AA8000008050000000E90020079800A1
:104DF000CE0090005E009000808040002E00900069
:104E0000808F5000030036000000EB007007980010
:104E10009E003700CCEF07004E4890000080FB005A
:104E2000630060000000E00003003A004E4890007C
:104E30003040B300404F98005E009000000F7800B3
:104E4000CE0090005E009000808040002E00900018
:104E500001005000200798004E4890000080FB00A1
:104E60000000D100610060000004E0000B0032008F
:104E70004E4890000080FB00610060000004E000EC
:104E8000040032002E0090000000D1001E0F4000F0
:104E9000020037002E0090001E0F400080AA800004
:104EA0001E0040000000E80020079800D0AA800003
:104EB0001007980060A88000E10F40001200320047
:104EC00060A880008000780000A8800080804000FA
:104ED0001E0090000100400010079800A1AA800069
:104EE0001E009000808F50000700310091AA8000C2
:104EF000A0AA8000808050001E009000008040002A
:104F00000000E90010079800E1AA80001E00900050
:104F1000808F500012003100E1AA80002E00900026
:104F2000808F5000280031004E4890000080FB0028
:104F30004200DE00610060000004E0000300320077
:104F40000000EB0070079800500037002E00900022
:104F5000E0AA88002E009000D0AA88001A0037002E
:104F6000E1AA80001E009000808F500012003600E1
:104F700091AA80002E009000808F50001200310016
:104F80004E4890000080FB004200DE00610060009F
:104F90000004E000030032000000EB0070079800FE
:104FA0003A0037002E009000E0AA88002E00900002
:104FB000D0AA8800040037002E009000E0AA8800E4
:104FC0002E009000D0AA8800E1AA80001E00900068
:104FD000808F50001D0036004E4890000080FB007E
:104FE0004200DE00610060000004E00017003200B3
:104FF00091AA80001E00900001005000C1562100BF
:105000009140780092AA8000C55621009542780010
:105010000002780081417800854078002E009000E1
:105020001D000700D1AA8000E0AA8000808F5000F8
:1050300006003100D2AA800091AA80002E009000C4
:105040000080500000005100D0AA88002E0090007F
:1050500090AA880080AA8000C0A7880080AA80004B
:10506000C0AA880080AA8000B0AA880030AB800067
:10507000E70F500003003A0011C0B30000C1B300B5
:10508000F7F6070010002000700798007E009000DF
:105090000080FA00000006001000FA00000F7800FF
:1050A000214798002207980063479800440798001A
:1050B0006E4090000080FB00700798007E0090001A
:1050C0000000E000240032007E009000E10F50005C
:1050D000010032003E0037002E4090000080FB00AF
:1050E000600798006E0090000000E0000F003200A2
:1050F0006E009000E10F50000100320034003700D4
:105100002E009000800078001E007800800178005A
:10511000010078004E0190008000780003007800C4
:105120007803020000000000290037000080EB0037
:105130009E0F1000030032001E0078007E2D02003A
:10514000000000002E009000CE009000F831020018
:10515000000000001E0037002E4090000080FB0081
:10516000500798005E0090000000E0000F00320041
:105170005E009000E10F5000010032001400370083
:105180002E009000E10F4000030032002E0090003E
:10519000AC2D0200000000001E007800CE00900040
:1051A000E630020000000000090037004E019000C8
:1051B000AE0090001E007800EA2E02000000000001
:1051C0009C300200000000000000E000FCFF320004
:1051D0000080FA00000006000400FA00CA62A8007D
:1051E000C862A900CA42A800C842A9000000EB009A
:1051F00000128800F0002000101288000000EB0070
:10520000201288004302A80042A2A80041E2A800A0
:1052100000003700E20407000E80E800D1C1B300AF
:10522000FA0407002E409000004F78001E80FB001B
:105230004300DE00610060000004E000F5FF3A007A
:105240001E81FB00020078000080EA008180EA00F5
:10525000610060000004E000EEFF3A001000200052
:10526000D0B688000000EB00B0B688008040EB00AC
:1052700080C0B300660507008040EB0090C0B3001B
:1052800063050700D1CCB300C0C0B30060050700C0
:10529000A1C0B300D0C0B3005D050700D1CCB300FE
:1052A000A0C0B3005A050700A1C0B300B0C0B3004E
:1052B00057050700E1CCB30040C0B3005405070018
:1052C000A1C0B30050C0B30051050700E1CCB3004A
:1052D00020C0B3004E050700A1C0B30030C0B3002A
:1052E0004B0507000040EB002504070000202000CC
:1052F000D3050700D1C0B3000040EB004405070010
:1053000021C3B30020C0B3004105070021C1B30091
:1053100040C0B3003E05070001C4B30030C0B30075
:105320003B050700F1C3B30090C0B3003805070088
:1053300021C1B30060C0B30035050700C1C0B30090
:1053400070C0B30032050700E1CEB300A0C0B300C7
:105350002F05070051C0B300B0C0B3002C050700F3
:1053600040302000B6050700B1632100914078006D
:1053700040C0B30026050700C163210091407800BA
:1053800050C0B30022050700D1632100914078008E
:1053900020C0B3001E050700E163210091407800A2
:1053A00030C0B3001A050700F16321009140780076
:1053B0000040EB00160507000164210091407800D1
:1053C00010C0B300120507008040EB0050C1B300CD
:1053D0000F0507006300470021C1B3008B040700DD
:1053E0003E409000DCF6B7000110200000C1B30081
:1053F000760507002147230040C1B300730507006D
:105400008000EB000040EB00700507000000EB009F
:105410008B05070041C0B300F0C1B300460507008B
:105420000080FA00000006000200FA0011C0B3007C
:105430000E007800CC0407001E0078004200DE0059
:10544000614060000080FB000080FA000000060060
:105450000200FA00F1C1B3000E0078006B040700EF
:105460001E4078000080FB004300DE000004A20024
:105470000080FB00610060000080FA000000060070
:105480000200FA00D0B680000000E00014003A00EC
:1054900010002000D0B68800B0B680000000E900FF
:1054A000000F78009E007800D0AC2000808F500064
:1054B00002003600D0AC2000000F780001C4B30019
:1054C000E0C1B3001C0507009E407800C0C0B300D7
:1054D000CF0407009E409000D0C0B300CC0407006A
:1054E0000080FA00000006000C00FA009011200075
:1054F000530507006400470091C1B300430407004F
:105500004E409000004F7800E00020004C0507005E
:1055100065004700E1C0B3003C0407005E40900016
:105520002047980066004700F1C0B3003704070029
:105530006E40900030479800901120004005070011
:105540006700470091C1B300300407007E4090001F
:10555000804078001E40780080CF5000E5FF3A0080
:10556000C00020003605070068004700C1C0B30036
:10557000260407000E489000004F7800690047009D
:10558000D1C0B300210407001E48900010479800C6
:105590009E0090001E007800808F500007003600AB
:1055A0009E0090001E00780080805000D0AC20004B
:1055B00001005000500798000C0037009E0090003A
:1055C0001E007800808F500003003A00D0AC20000D
:1055D00050079800050037001E0078009E009000DC
:1055E000010050000000E900500798005E009000A4
:1055F0000080FA00000006001E00FA00300F98003C
:10560000410F9800901120000D0507007A00470017
:1056100091C1B300FD0307002E589000004F7800A1
:105620000000EB00060507001E04E00003003A003E
:105630000000EB00600F98005E003700D0B68000DD
:105640000000E00004003A008DFF07000000EB00BE
:10565000600F980057003700B0B68000C0B68800D1
:10566000816D2100914078000040EB006804070044
:10567000916D21009140780010C0B30064040700D0
:105680000E80E80041012000D00207000E80E800F3
:1056900010089000A0550200000000008000780073
:1056A0000E80E800110898000E80E8009000780055
:1056B000D0AC2000808F50001B003E000E80E80020
:1056C00010407800614060000004E00016003A00DD
:1056D0000E80E800A000900000002800008060001C
:1056E0000000E00010003A000E80E800200090006A
:1056F000700060000000E0000B003A000E80E8003F
:1057000090009000E05E2000808F500006003E0078
:105710000E80E800A00090000008200000806000DB
:105720000000E00001003A000000FE000E80E800EA
:1057300010007800B0B688000E80E8006C004000D1
:10574000800078003E08900005000900315878007C
:105750006000B1006100B100CE08900000C0EB0015
:10576000804878000E80E80030509000E84F5000EC
:105770000C003A000E80E800205090000004E00089
:10578000040032000E80E80020509000E64F5000E8
:1057900004003A000E80E800A05090004E089000EF
:1057A000014878000000EB00D0B68800100020000F
:1057B000600F98006E0890000080FA00000006005C
:1057C0000800FA00000F780021479800220798008F
:1057D000F1CCB30020C0B3000D040700A1C0B3009A
:1057E00030C0B3000A040700AE009000C0AD200036
:1057F0000080400020079800640047009040780037
:1058000060C0B300020407006400470090409000AD
:1058100070C0B300FE0307001E0078006100200086
:10582000F3020700B063210061002000F0020700CE
:1058300080C0B300D20207002E4090000004E000B8
:1058400003003A000040EB00604798000200370078
:1058500060C0B300604798006E409000C802070027
:105860000080FA00000006001800FA0001C8B3002A
:10587000F0C1B3003004070001C8B300F0C1B300A9
:1058800008040700A1C0B300C0C1B30005040700AD
:1058900081C0B300F0C1B30027040700DCD6BF000D
:1058A000E54F500003003200DCD6BF00E64F500049
:1058B00079003A000000EB001007980070004700E4
:1058C000C1C1B300510307000E5090000080FB00DF
:1058D0006A0060000000E00007003A001E0090002F
:1058E0000000E800100798009E009000703E200025
:1058F000808F5000F1FF360071004700C1C1B30036
:10590000420307001E509000624060000004E00067
:1059100004003A009E009000703E2000808F5000EE
:105920005D00360081C0B300F0C1B300DD030700A5
:10593000720047008040EB00340307002E509000B7
:10594000404798007300470011C0B3002F030700C1
:105950003E509000504798007400470061C0B3006B
:105960002A0307004E5090006047980075004700DA
:1059700071C0B300250307005E5090007047980087
:105980003E0090000000E80030079800EE409000D4
:105990000040EB009E030700FE40900010C0B300E3
:1059A0009B030700680047008100200007020700F2
:1059B0000040EB00004F78002E00370076004700D3
:1059C000C1C1B300110307006E5090006240600037
:1059D0000004E0002A0032006800470090009000B8
:1059E00000002200008060000000E000240032007F
:1059F00001C8B300F0C1B300CF03070001C8B30072
:105A0000F0C1B300A7030700A1C0B300C0C1B30039
:105A1000A403070081C0B300F0C1B300C6030700B0
:105A200077004700C1C1B300F80207007E50900024
:105A30000080FB006A0060000000E000F8FF320018
:105A400081C0B300F0C1B30096030700EE409000A0
:105A50000040EB006E030700FE40900010C0B30052
:105A60006B0307006800470081002000D701070092
:105A70001E4FE800F0C0B3009E4F1000CFFF36006D
:105A8000CE4090000040EB0061030700DE40900034
:105A900010C0B3005E0307000080FA00000006009B
:105AA0000400FA0010079800C1B680001E009000A4
:105AB0000080400074004000000F78009E007800D5
:105AC000D0AC2000808F5000040036001E0078000B
:105AD00021532F0001004000000F78009E40780005
