:020000040000FA
:06000000F86AF76A03D064
:0800080004EF04F00F0EC16EBD
:020010008FD28D
:02001600C0D058
:040018000CEF04F0F5
:02001C000000E2
:0800380012010002000000406B
:10004000D8040BFD22000102000109022200010177
:1000500000803209040000010300000009210101B1
:10006000000122170007058103400001050C09006B
:10007000A1020900954075088100090095407508A6
:100080009100C0040309040E03440069006F006C72
:050090000061006E009C
:0A009600A9D8A688B0D8400EF626BF
:1000A000000EF722232FF8D712009BD800EE64F041
:1000B0000900F5CFEEFF002FFBD793D800EE24F018
:1000C0000A00EECFF5FF0F00012B01BB97D8002FE0
:1000D000F8D7016793D8120015D800EE64F0090034
:1000E000F5CFEEFF002FFBD7F86A12000BD800EE19
:1000F00024F0A68883D8EECFF5FF0D00002FFBD7A4
:100100007DD8F2D7200EF86EF76AF66A080E006FF7
:10011000636F120015D800EE24F0EECFA8FF6FD861
:10012000A6B2FED7A92A002FF8D7120009D800EEF0
:1001300064F0A680A8CFEEFFA92A002FFAD71200FC
:100140002051A96E2351006F636FA66A12001E51E1
:100150001BE05E6F1FC05FF002A138D81E511E6BFE
:10016000E84EA3D7E84EA9D7E84E95D7E84E0DD074
:10017000E84E14D0E84EB0D7E84EB8D7E84ED6D700
:10018000E84EC8D7FF0E5E6F1200000E606F020EC1
:10019000616F020E626F120019D801D014D86D96EB
:1001A000006BE86AE82EFED7002FFBD7FF0032D89D
:1001B00000EE5EF015EE40F0400EEFCFE6FFEE6A87
:1001C000E82EFBD730D0A50E026B02D05A0E02816A
:1001D000A86E000EA96EA69E12D8A6B2FED7A6944F
:1001E000120023513C0B006F636F2151F76E616F5A
:1001F0002051F66E606F1F0B016F1200A68EA69C39
:10020000A684550EA76EAA0EA76EA682016B1200D9
:10021000FFFFFFFFE1CF10F2E2CF11F2D9CF12F2D0
:10022000DACF13F2120010C2E1FF11C2E2FF12C2D4
:10023000D9FF13C2DAFF1200140E6F6E696A080E3E
:100240006D6E6DBAFED7686A110E696E020E056F8B
:100250001200686A7B0E696E6E6A160E706E68A672
:1002600002D06896FCD76D9839EC01F0030E056F4B
:100270001200000E066F24EE00F0400EDC6E100E31
:10028000DC6E040EDC6EDD50DD50DD50880EDF6E5E
:10029000DE50DE50DE50DE50000EDF6E12006C507D
:1002A000780B1AE110EE12F024EE10F0080EDECFFB
:1002B000E6FFE82EFCD724EE00F0000E6C6208D0BA
:1002C000DF503C0B340802E167D8120006D8120058
:1002D000040E6C6212000CD81200020E066306D0E7
:1002E00021D8C80EDFAC880EDF6E1200C2DF12000C
:1002F00024EE04F0DFBEFED7040E056308D01451CF
:100300006E6EFF0BD8A4050ED8B4030E056F010E58
:10031000066306D019D8C80EDFAC880E046F120031
:10032000A8DF1200DC501A6F092714EE50F00BC042
:10033000EAFF0AC0E9FFE6CFEEFF1A2FFCD7E9CFAC
:100340000AF0EACF0BF01200400E096101D009510A
:100350001B6FDF92DF90DC6E095F04EE50F010B18E
:100360000FD01B5118E00DC0E2FF0CC0E1FFE6CF3B
:10037000EEFF1B2FFCD7E1CF0CF0E2CF0DF00BD03E
:10038000F86AF76A0C51F66E0900F5CFEEFF1B2FE5
:10039000FBD7F6CF0CF01200000E066F116B096B45
:1003A0001251600BD8B404D02008D8B477D078D0DC
:1003B000135117E0E84E22D0E806E84E1FD0E806B9
:1003C000E84E1DD0E84E1FD0E84E42D0E84E41D056
:1003D000E84E48D0E84E53D0E84E5AD0E84E5CD0B4
:1003E0005FD004EE50F0EE6AEE6A500E0C6F040E11
:1003F0000D6F000E020E096F11814FD04ED011818A
:10040000040E056F4AD011811551E84E0AD0E84E0E
:100410000CD0E84E0ED0E84E16D0E84E15D0116B39
:100420003CD0380E0C6F120E10D04A0E0C6F220EFC
:100430000CD0145104E1830E0C6F040E03D0870E10
:100440000C6F160E02D0EBD7EAD7096F108125D0BA
:1004500024D01181070E0C6F000E0D6F1091010E4C
:10046000096F1BD01181716A1451076FFF0B04E0F3
:10047000060E056FB3D802D0050E056F0ED01181A0
:10048000080E0C6F000E0D6F1091010E096F05D054
:10049000118114C008F001D000D003D0BBD804D023
:1004A00035D011B101D0FAD76D9811B101D02ED04D
:1004B00012AF1CD018510961096F24EE04F044DF1B
:1004C000010E066F24EE03F0040EDD6E100EDD6EDD
:1004D000400EDD6E800EDD6E24EE07F0040EDD6E44
:1004E000500EDD6EDD50C80EDD6E0FD0020E066FB1
:1004F00024EE05F0DD6AC80EDD6E040EDD6E500ED2
:10050000DD6E400EDD6EC80EDD6E120024EE03F0CF
:10051000040EDD6E100EDD6E400EDD6E840EDF6E9D
:10052000DE50DE50DE50DE50840EDF6E6D9812001D
:10053000000EA96E010EA66E5A0EA85C10E0816A2C
:10054000936AF19E8A8C0000000081BC04D0F18E79
:10055000936805D0FF00F18E936800EF04F092904D
:100560008980026B69DE04D8F2DD44D8FCD7FF0035
:1005700068A405D069A403D06D92699468946DB2A3
:10058000120068A003D069A001D063DE68A809D07A
:1005900069A807D0698468986D82A19AA08A03002F
:1005A000A09A68A203D069A201D0689C68AA07D06B
:1005B00069AA05D070A002D05CDE7090689A68A22B
:1005C00003D069A201D06892020E0565120068A6E8
:1005D00004D069A602D063DE689612001A0E716E0E
:1005E0000401400E0E6F050E0F6F400E0C6F0001E0
:1005F0005E6B12005E510DE024EE0CF0DEBE09D001
:10060000D6DD400EDD6E400EDF16400EDF1A880E7E
:10061000DF12120012511F0B0108D8A4120016514C
:100620000008D8A412001351060819E11551DF0F74
:1006300005E0E84E09D0E84E0DD011D05C0E0C6FED
:10064000000E0D6F090E07D06C0E0C6F000E0D6FB3
:10065000170E01D021D0096F118110811DD01251C8
:10066000600B200801E012001351E84E0BD0E84E59
:1006700013D0E84E11D0FA0F07E0E84E0DD0E84E47
:100680000BD00AD0000E05D01E0E0A6F000E0B6FA5
:0A06900002D0096F109111811200D1
:02080000FFD720
:020000040030CA
:0100000024DB
:010001004EB0
:0100020038C5
:010003001EDE
:010005008377
:010006008178
:010008000FE8
:01000900C036
:01000A000FE6
:01000B008074
:01000C000FE4
:01000D0040B2
:00000001FF
