:1000000009C00EC00DC00CC00BC00AC009C008C09A
:1000100007C006C011241FBECFE9CDBF02D049C022
:10002000EFCF87B317BA88B38FEF88BB30E05FEFAD
:100030004FEF2EC088B348BB80E002C000008F5F46
:100040008917E0F388B318BA292F209580E002C001
:1000500000008F5F8217E0F39F5F9F3F59F790E0AA
:1000600088B318BA80E002C000008F5F8917E0F300
:1000700088B358BB292F209580E002C000008F5F15
:100080008217E0F39F5F9F3F59F73F5F3A3011F0CF
:1000900090E0D0CF88B318BA80E385BF889580E020
:1000A00090E0089590E002C000009F5F9817E0F391
:0600B0000895F894FFCF53
:00000001FF
