:0400000080313C28E7
:10000800803120007F08F200911E0B280C28302830
:100018008E1523001D080639031D132814282C28C3
:100028000130F00070082000E7070730F000700882
:10003800E70523001908F000F10120006708090707
:10004800533E860087017008C03F7108C13F2C28C5
:10005800200091128E113028111E33283428392897
:10006800111239283928392839287208FF0009005F
:1000780088019531A72D2000C801C901CB01CA010B
:100088008731BC278031303024009A009D164C28D7
:100098002000141C502851284C28141024001C0837
:1000A8002539F90079082000C50024009C1D5D2829
:1000B8005E28BB2820008E16AB2824001908F900FA
:1000C80079082000C400DF28CA08031D6C286D28A1
:1000D800772824001908F90079082000CB00CA0104
:1000E8000314CA0DDF28CB08031D7B287C28892828
:1000F80024001908F90079082000C600CB01031470
:10010800CB0DC9010314C90DDF2824001908F90013
:1001180079082000C700CB01C8010314C80DDF28E7
:10012800DF28DF2824001908F90079082000C40016
:10013800640824009900DF2824001908F9007908C8
:100148002000C400630824009900DF28DF2820006D
:100158004508013A03196128043A03199628243AF4
:1001680003196828053A0319A028DF28DF281C1E70
:10017800BE28BF28DF2820008E12CA0100002000F8
:100188004908031DC828CD2846089631FD26803128
:10019800CD2820004808031DD228D72847088931D0
:1001A8000B218031D72800302000C900F9007908D8
:1001B800C800DF28DF2824001D164C284C284C28AE
:1001C8000800033403340334033411340D34093480
:1001D8000534013401340134013413340F340B3441
:1001E8000734F63482340134823468348334C534B5
:0601F80083347C348234E4
:100200008131820702298D31422D8131FF298931C7
:100210007D2980313F288B31B32B8631D82E963102
:10022000282E8B311F2B9731A32F8A318D2A033033
:100230002000CE004E08E80088319C20813120004B
:10024000D101D2015208803AFF0081307F02031DA4
:100250002B2900305102031C2E292F29312958291E
:100260005829200051089431DA2481312000CE0031
:100270005108F03ECF00223003182330D0004F0841
:100280008600500887004E0881000130D1070030F9
:10029000D23D5208803AFF0081307F02031D52296F
:1002A00000305102031C5529562931295829582953
:1002B0009431C1248131003A03195F296029AE29A4
:1002C0009631B4268131AE29AE2920006608CE00D1
:1002D0000130CE35FF3E031D69294E35203E860094
:1002E00087010108813100218131582920006608E9
:1002F000CE000130CE35FF3E031D7A294E35023E39
:10030000203E860087010108813100218131582972
:1003100020006608CE000130CE35FF3E031D8C293B
:100320004E35013E203E86008701010881310021C3
:100330008131582920006608CE000130CE35FF3EBD
:10034000031D9E294E35033E203E8600870101088D
:100350008131002181315829582958292000650808
:10036000003A03199A29013A03198829033A031913
:100370007629013A031965295829582958298031C5
:100380003C28F3297408840075088500000895311D
:100390001F2581310130F4070030F53DF601F701EA
:1003A0007708803AFF00A7307F02031DD92910305B
:1003B0007602031CDC29DD29DF29F329F32900005B
:1003C0000130F6070030F73D7708803AFF00A7308C
:1003D0007F02031DED2910307602031CF029F1295C
:1003E000DF29F329F32974088400750885000008C3
:1003F0000038031DFC29FD29C229FE290800080038
:1004000000340A340A3441344434433420344D3403
:1004100065346E3475340A342D342D342D342D3436
:100420002D342D342D342D342D342D342D340A34E7
:100430000A347234293452346534613464342034DB
:100440004134443443340A34313429344334683435
:1004500061346E346E3465346C3420346C340A3458
:10046000323429344334683461346E346E34653444
:100470006C34203432340A3433342934433468340D
:1004800061346E346E3465346C34203433340A3461
:1004900074342934543465346D34703465347234B2
:1004A0006134743475347234653420347334653493
:1004B0006E3473346F3472340A346D3429344234F8
:1004C000613463346B34203474346F3420346D34CD
:1004D000613469346E3420346D3465346E3475346F
:1004E0000A340A34433468346F346F3473346534F7
:1004F0003A342034003400340A340A344534453464
:10050000503452344F344D3420344D3465346E34CD
:1005100075340A342D342D342D342D342D342D34AE
:100520002D342D342D342D342D342D342D342D34C3
:100530000A340A34773429345734723469347434C1
:100540006534203461342034633468346134723467
:1005500061346334743465347234203474346F34E9
:10056000203445344534503452344F344D340A34F9
:100570007234293452346534613464342034613443
:1005800020346334683461347234613463347434D5
:10059000653472342034663472346F346D342034F0
:1005A00045344534503452344F344D340A346D346C
:1005B00029344234613463346B34203474346F34FE
:1005C00020346D34613469346E3420346D346534D4
:1005D0006E3475340A340A34433468346F346F34FB
:1005E000733465343A342034003400340A340A3425
:1005F0004234753473342034503469347234613485
:10060000743465342034443465346D346F342034AC
:1006100042346F3461347234643420347634353487
:100620000A344634573420347634653472346934AD
:1006300073346F346E342034763430342E3439349D
:1006400035340A340A34203420344D34613469346A
:100650006E3420344D3465346E3475340A342D34A0
:100660002D342D342D342D342D342D342D342D3482
:100670002D342D342D342D340A340A3431342934B8
:100680004134443443340A343234293450345734F6
:100690004D340A34333429344434413443340A3435
:1006A0003434293445344534503452344F344D3485
:1006B0000A340A34433468346F346F347334653425
:1006C000283431342D34343429343A34003400346D
:1006D0000A340A34503457344D3420344D346534A0
:1006E0006E3475340A342D342D342D342D342D349C
:1006F0002D342D342D342D342D342D340A340A3438
:1007000070342934533465347434203450345734BD
:100710004D34203450346534723469346F34643469
:100720000A346434293453346534743420345034F6
:1007300057344D342034443475347434793420348F
:100740004334793463346C3465340A346D34293479
:100750004234613463346B34203474346F34203465
:100760006D34613469346E3420346D3465346E34E4
:1007700075340A340A34433468346F346F34733454
:1007800065343A342034003400340A340A344434B2
:100790004134433420344D3465346E3475340A3476
:1007A0002D342D342D342D342D342D342D342D3441
:1007B0002D342D342D340A340A347634293453340C
:1007C00065347434203444344134433420346C343C
:1007D0006534763465346C34203430342D3433341D
:1007E00031340A346D3429344234613463346B3427
:1007F000203474346F3420346D34613469346E3491
:1008000020346D3465346E3475340A340A3443341C
:1008100068346F346F34733465343A3420340034C0
:1008200000340A340A3445346E3474346534723416
:10083000203474346834653420347634613472344E
:100840006934613462346C34653420342834303493
:100850002D343234353435342934203474346F3403
:10086000203462346534203465346E347434653435
:10087000723465346434203469346E3474346F34C3
:10088000203445344534503452344F344D343A34A6
:10089000203400340A340A3445346E3474346534F8
:1008A000723420346434653473346934723465349A
:1008B0006434203444344134433420346C3465345B
:1008C000763465346C342034663472346F346D346D
:1008D00020343034203474346F34203433343134A1
:1008E0003A34203400340A340A3445346E347434D3
:1008F000653472342034743468346534203461349F
:100900006434643472346534733473342034303472
:100910002D343234353435343A34203400346D34A7
:1009200061346434653420346D3465342034643487
:100930006F3420347734653469347234643420344D
:10094000733468346934743420346C3469346B34EF
:1009500065342034503457344D342C3420346D34C5
:1009600065346D346F347234793465346D34753474
:100970006C346134743469346F346E342C34203404
:1009800063346F346E3476346534723474342034A6
:100990006834693467346834203476346F346C34A6
:1009A000743461346734653473342E342E340D342A
:1009B0000A34003454346834653479342034703463
:1009C0007534743420346D346534203474346834B0
:1009D00072346F34753467346834203465346E345F
:1009E00064346C34653473347334203468346F3455
:1009F00075347234733420346F3466342034723476
:100A000065346734723465347334733469346F34E5
:100A10006E34203474346534733474342E342E348C
:100A20000D340A3400342E3463346F346E346E3433
:100A30006534633474346534643420346D3465341F
:100A4000203474346F34203477346534693472342C
:100A500064342034703472346F3474346F347434CA
:100A600079347034653473342E342E342E340D348E
:100A70000A34003443344F3455344C344434203435
:100A800059344F345534203450344C344534413487
:100A90005334453420344C34453441345634453491
:100AA00020344D344534203441344C344F344E34AA
:100AB00045343F3421343F3421343F342134003431
:100AC0002E342E34203463346F346E3464347534F1
:100AD0006334743465346434203473346534763468
:100AE0006534723461346C34203474346534733456
:100AF0007434733420346F346E3420346D34653480
:100B00002E342E340D340A3400340A340A34483476
:100B100069347434203461346E34793420346B3465
:100B200065347934203474346F342034723465344D
:100B3000613464342034663472346F346D3420345C
:100B400045344534503452344F344D342E340A3405
:100B50000A3400346C346534743420346D346534B4
:100B60002034743461346C346B342034493432347E
:100B700043342C3420345334503449342C3420340E
:100B800055344134523454342E342E342E342E34D1
:100B90002E342E340D340A340034493427346D3465
:100BA00020346834613470347034793420347434CF
:100BB0006F342034743465346C346C3420347934BC
:100BC0006F34753420346D34793420347334743494
:100BD0006F34723479340D340A3400344834653457
:100BE0006C346C346F342C3420346E346934633498
:100BF000653420346F346634203479346F3475347E
:100C0000203474346F342034643472346F3470346C
:100C10002034623479340D340A3400340A340A340E
:100C200045346E347434653472342034743468342A
:100C300065342034503457344D34203444347534C2
:100C40007434793420344334793463346C34653407
:100C50003A34203400340A340A3445346E3474345F
:100C6000653472342034743468346534203450343C
:100C700057344D34203450346534723469346F3411
:100C800064343A3420340034753473346534643455
:100C90002034483469345A3420346F346E3420346C
:100CA0006D3465342E342E342E342E342E342E34BE
:100CB0002E340D340A3400346134623475347334A4
:100CC0006534643420346D346534203477346934C9
:100CD000743468342034353456342E342E342E3463
:100CE0002E340D340A3400340A340A345434653452
:100CF0006D3470342034733465346E3473346F342F
:100D000072342034733465346C3465346334743431
:100D10006534643400340A340A346334683461342A
:100D20006E346E3465346C34203431342034733492
:100D300065346C346534633474346534643400343D
:100D40000A340A346334683461346E346E34653482
:100D50006C34203432342034733465346C3465346C
:100D6000633474346534643400340A340A346334CC
:100D7000683461346E346E3465346C34203433340A
:100D80002034733465346C346534633474346534BE
:100D9000643400340A340A34413444344334203453
:100DA000763461346C34753465343A34203400342C
:100DB0002000C201BD01BF01C001A03024009A0083
:100DC0009D16E22E2000141CE62EE72EE22E1410B3
:100DD00024001C0825392000BA003A08BE0024006F
:100DE0009C1DF32EF42E732F20008E16642F2400EA
:100DF00019082000BA003A08BD00B62FBF08031D2D
:100E0000022F032F0D2F240019082000BA003A08E2
:100E1000C200BF010314BF0DB62F24001908200023
:100E2000BA004208F03EBB00223003182330BC0059
:100E30003B0886003C0887003A0881000130BA0070
:100E40003A08C2070130BA003A08C007B62FB62FD9
:100E5000240019082000BA003A08BD004208F03EFC
:100E6000BA00223003182330BB003A0886003B0842
:100E7000870001082400990001302000BA003A08D8
:100E8000C207B62F240019082000BA003A08BD0096
:100E900024001E1B4C2F4D2FB62F20004208F03E81
:100EA000BA00223003182330BB003A0886003B0802
:100EB000870001082400990001302000BA003A0898
:100EC000C207B62FB62FB62F3E08013A0319F72EE8
:100ED000043A0319282F243A0319FE2E053A031960
:100EE000422FB62FB62F1C1E762F772FB62F20003D
:100EF0008E12BF014008031D7E2FB22F4003FF3A20
:100F00004207BA003A08C1009F2F20004108F03E76
:100F1000BA00223003182330BB003A0886003B0891
:100F200087000108BC003C08F700410895315325B3
:100F3000863101302000BA003A08C1079F2F4208CD
:100F4000FF3EBA00FF3003180030BB003B08803A78
:100F5000803C031DAD2F3A084102031CB02FB12F76
:100F6000852FB22F2000C0010000B62F24001D16CF
:100F7000E22EE22EE22E080021008C1622001E1422
:100F8000023020009B001B08BD003D08E4000C302F
:100F900025009A000130980018082000BD00BE010D
:100FA0003D08F3003E08F4006430F5000030F60020
:100FB00095318325873174082000C101C10773086A
:100FC000C001C0076408BD00BE013D08F3003E0833
:100FD000F4004108F601F6074008F501F5079631DF
:100FE0006D26873173082000BF003F08E30025000D
:100FF0009E01200091109C011C1521008C120800FC
:101000002200990108002000BA006430F800780836
:10101000BC000A283C08F8007808F3003A0895312B
:10102000F8258831F90079082000BB003B08303EE4
:1010300095311F25883120003C08F8007808F3001E
:101040003B0895316A258831F90079082000BA02F9
:101050000A30F8007808F3003C089531F82588310B
:10106000F90079082000BC00BC08031D3828392885
:101070000A283A2808002000BC00BD013C08D03EE8
:10108000BA003A08BE0094284528911E48284928ED
:1010900045284A2823001D080639031D50285128D9
:1010A000692801302000BA003A08E7070730BA0083
:1010B0003A08E705230019082000BA00BB016708B9
:1010C0000907533E860087013A08C03F3B08C13FED
:1010D00069282000911295313F2588312000BA00FF
:1010E0003A08BF003F0895311F25883120003F088E
:1010F0000D3A031D7C287D288128BD010314BD0DF8
:1011000094283E08BA003A08F3000A3095316A255F
:1011100088312000BB003B08BE003F08D03EBA002B
:101120003A08BE07942894283D08031D98284528AE
:1011300099283E089B28080021009917190887392B
:1011400070389900FC30990520008C0122008C0138
:1011500023008C01FF3021008C0024008C01200032
:101160008D0122008D0123008D01FF3021008D00B3
:10117000503024008D0020008E0122008E012300BB
:101180008E01D73021008E00053024008E00210012
:10119000951322009D019E0120008E168E15E501FB
:1011A000E60100300E190230F4007408E504003046
:1011B0000C190130F4007408E50400300D1B0230F6
:1011C000F4007408E60400300D1A0130F4007408CD
:1011D000E604F9289431E424883108299531122550
:1011E0008831082995312E258831082908290829B0
:1011F000082920006608003A03190829013A031952
:10120000EA28033A0319F228013A0319EE280829BB
:1012100020008E1208002000C10064304102031833
:101220001229132947294108BD003D08E30063083E
:10123000BD00BE013D08F3003E08F4006408BF0095
:10124000C0013F08F5004008F6009531832589313B
:1012500074082000C301C3077308C201C2076430C9
:10126000F3000030F4004308F601F6074208F501E8
:10127000F50796316D26893174082000C301C30734
:101280007308C201C2074208250098007C29633018
:101290002000BD003D08E3006308BD00BE013D081D
:1012A000F3003E08F4006408BF00C0013F08F500E9
:1012B0004008F60095318325893174082000C30168
:1012C000C3077308C201C2076430F3000030F400A2
:1012D0004308F601F6074208F501F50796316D2639
:1012E000893174082000C301C3077308C201C20713
:1012F0004208250098007C2908002000C801C6018A
:10130000C7019431E4248931FD30240099008731EC
:10131000BC278931F229F22924001C1C902991292B
:10132000F2292000C7010314C70DC608031D99291F
:101330009A29A62924001908F90079082000C40078
:101340004408F739F9007908C500A629C601031435
:10135000C60DE8294808031DAE29C0294808013AEE
:10136000031DB329B429BA29240019089631FD2692
:101370008931BA290130F90079082000C807C42949
:10138000C8010314C80DC429640824009900F22977
:1013900020004808031DCD29DF294808013A031D14
:1013A000D229D329D9292400190889310B2189315F
:1013B000D9290130F90079082000C807E329C801BC
:1013C0000314C80DE329630824009900F229F229C7
:1013D00020004508003A0319AA29013A0319C8292F
:1013E000F229F22920000E1CF629F7298C29F82968
:1013F0004708031DFC29F229C601C701C801F229CB
:10140000F229F22908002000BD001F2A0330F50050
:101410007508BD002D2A0830F5007508BD002D2A7D
:101420000930F5007508BD002D2A1D30F50075083E
:10143000BD002D2AF301F4018C2A8C2A2D2A3D08A7
:10144000003A0319062A013A03190B2A033A031931
:10145000102A013A0319152A1A2AC03021009E00C9
:101460001F30F50075082000BD053D08F50001306E
:10147000F535FF3E031D382A7535013821009D00E2
:101480002000BB01BC013C08803AFF0080307F0295
:10149000031D4C2A04303B02031C4F2A502A522AB7
:1014A000652A652A000001302000BB070030BC3DE2
:1014B0003C08803AFF0080307F02031D612A04301F
:1014C0003B02031C642A652A522A21009D14682AC3
:1014D0009D186B2A6C2A682A6D2AFE30F500750863
:1014E0009D051B08F5000230F536890B742A1C088F
:1014F000F6000530F635FF3E031D7A2A7635750471
:10150000F70077082000BA003A08F500F6017508E0
:10151000F3007608F4008C2A08002000BF01BA010D
:10152000BE01BD019431D3248A31683024009A0071
:10153000992A2000141C9D2A9E2A992A24001C08FE
:101540002539F70077082000BC0024009C1DA92A3B
:10155000AA2AFD2A20008E16ED2A24001908F70079
:1015600077082000BB00142B24001908F700770827
:101570002000BF00142B24001908F7007708200072
:10158000BB0021001C089431EF248A31142B240065
:101590001908F70077082000BB00BE08031DD12AF8
:1015A000D22ADB2ABE010314BE0D21001B08943190
:1015B000EF248A31142B21001D0C0139F70006306D
:1015C000F735FF3E031DE02A773520003F059431B3
:1015D000EF248A31142B142B142B20003C08013AE1
:1015E0000319AD2A043A0319BB2A243A0319B42A71
:1015F000053A0319C72A142B142B1C1E002B012B90
:10160000142B2000BE018E123F086039F7007708C6
:10161000BD00BD0EBD0C0730BD053D089731472705
:101620008A310000142B142B2000141021009D146B
:1016300024009D161D16992A992A992A0800F80156
:10164000F601F9019431C4248B315C3024009A00F6
:10165000292B2000141C2D2B2E2B292B24001C0899
:101660002539F4007408F7009C1D372B382BA12B6B
:1016700020008E16922B24001908F4007408F5003F
:10168000AA2BF6014C2B24001908F4007408F8006A
:10169000F6010314F60DAA2BF808031D502B512B4D
:1016A0005D2B24001908F4007408F9000310F90CEC
:1016B00079089431CD248B31AA2B24001908F40029
:1016C0007408F500AA2BAA2BAA2B24001908F400F1
:1016D0007408F500F808031D6E2B6F2B752B790825
:1016E00009079431EF248B31AA2B00309431EF2479
:1016F0008B31AA2BAA2B24001908F4007408F500DA
:10170000F808031D842B852B8B2B7908090794314E
:10171000EF248B31AA2B00309431EF248B31AA2B8C
:10172000AA2BAA2B7708013A03193B2B043A031979
:10173000652B243A0319412B053A03197B2BAA2B5D
:10174000AA2B1C1EA42BA52BAA2BF60120008E125F
:101750000000AA2B2000141024009D161D16292B12
:10176000292B292B08002000C801CA01C501C90185
:10177000C101BD01C201BE01C301BF01C601943157
:10178000E4248B31FD3024009900F82CF82C24003F
:101790001C1CCB2BCC2BF82C2000C2010314C20D37
:1017A000C108031DD42BD52BE12B240019082000E0
:1017B000BA003A08C4004408F739BA003A08C00031
:1017C000E12BC1010314C10DE32C4808031DE92BD3
:1017D000202CC508031DED2BEE2B0B2C2400190823
:1017E0002000BA003A08CA00C5010314C50D4A0812
:1017F000F03EBA00223003182330BB003A088600BE
:101800003B08870001082400990001302000BA003D
:101810003A08CA07F82C4A08F03EBA0022300318EA
:101820002330BB003A0886003B08870001082400EB
:10183000990001302000BA003A08CA07F82CF82CA9
:10184000C8010314C80D490824009900F82CF82C8D
:1018500020004308031D2D2CBB2C4808031D312CF0
:10186000B62C4508031D352CAB2C0C304902031C4B
:101870003A2C3B2C3D2CBB2CBB2C08304902031CC2
:10188000422C432C652C80304A020318482C492CEA
:10189000BB2C240019082000BA004A08F03EBB0007
:1018A000223003182330BC003B0886003C08870028
:1018B0003A0881000130BA003A08CA0749140130D9
:1018C000BA003A08C607BB2CBB2C04304902031CE3
:1018D0006A2C6B2C8D2CC0304A020318702C712C92
:1018E000BB2C240019082000BA004A08F03EBB00B7
:1018F000223003182330BC003B0886003C088700D8
:101900003A0881000130BA003A08CA074914013088
:10191000BA003A08C607BB2CBB2C240019082000CB
:10192000BA004A08F03EBB00223003182330BC0046
:101930003B0886003C0887003A0881000130BA0065
:101940003A08CA070130BA003A08C6074914BB2C46
:10195000BB2CBB2CBB2C240019082000BA003A0871
:10196000CA00C5010314C50DBB2CBB2CC801031450
:10197000C80DBB2CBB2C490824009900F82CC301CE
:10198000FD30BA003A08C905F82CC3010314C30D91
:10199000C914490824009900F82C200049082400A3
:1019A0009900F82C20004808031DD72CDE2C2400B9
:1019B00019082000BA003A08C900DE2CC801031437
:1019C000C80DF82CF82C4008013A0319D22C033A20
:1019D0000319282C013A0319E52B073A0319BF2CE8
:1019E000013A0319CD2C033A0319C52CF82CF82C15
:1019F00020000E1CFC2CFD2CC72BFE2C4208031DC6
:101A0000022DF82CC5014408023A031D082D092DAA
:101A10000F2DC301FC30BA003A08C9050F2D460846
:101A2000031D132D3A2D4603FF3A4A07BA003A0820
:101A3000C700332D4708F03EBA0022300318233088
:101A4000BB003A0886003B0887000108BC003C0840
:101A5000F7004708953153258B3101302000BA003B
:101A60003A08C707332D4A084702031C382D392D81
:101A70001A2D3A2DC601C101C801C201F82CF82C5B
:101A8000F82C08002000CB01C601CD01C801CA0115
:101A9000C90195312E258D3120003108F501F5075A
:101AA0003008F401F4079531CF258D310A30953196
:101AB0001F258D315B2D2000911E5F2D602D5B2D2C
:101AC00091128E1523001D080639031D682D692DFE
:101AD000812D01302000C4004408E7070730C4000E
:101AE0004408E705230019082000C400C501670861
:101AF0000907533E860087014408C03F4508C13F9F
:101B0000812D20008E1195313F258D312000C4009C
:101B10004408CC004C0895311F258D31F12F200051
:101B20004C08D03EC4004408CB004C080907A03E36
:101B3000303E86008701403FF400413FF50095317B
:101B4000CF258D3120004B08023A031DA82DA92D69
:101B5000AD2D8731BC278D315B2D20004B08033A1A
:101B6000031DB32DB42D5B2D9431C4248D315B2D19
:101B70005B2D5B2D3C2ECA30F4008630F50095318C
:101B8000CF258D31200049088A3103228D31730819
:101B90002000C4004408C7004708883103208D3165
:101BA00020003308F501F5073208F401F4079531F8
:101BB000CF258D315B2D8B30F4008630F5009531CB
:101BC000CF258D312000C9013308F501F507320812
:101BD000F401F4079531CF258D315B2DA030F40051
:101BE0008630F5009531CF258D312000C9010314D1
:101BF000C90D3308F501F5073208F401F4079531F2
:101C0000CF258D315B2DB530F4008630F500953150
:101C1000CF258D3102302000C4004408C9003308AC
:101C2000F501F5073208F401F4079531CF258D3120
:101C30005B2D7430F4008630F5009531CF258D3161
:101C400003302000C4004408C9003308F501F5073B
:101C50003208F401F4079531CF258D315B2DCB018E
:101C60003108F501F5073008F401F4079531CF2567
:101C70008D315B2D5B2D5B2D20004C08313A031913
:101C8000DB2D033A0319EE2D013A0319032E5E3AB8
:101C900003192F2E1F3A0319BB2D063A0319192ECB
:101CA0005B2D5B2D4D08031D562E992E8A2E8A2EF4
:101CB0004C0888313B208D319631FD268D31200036
:101CC0003508F501F5073408F401F4079531CF25FF
:101CD0008D31962E20004C0888313B208D31893182
:101CE0000B218D3120003508F501F5073408F4018A
:101CF000F4079531CF258D31962ECB013108F501B2
:101D0000F5073008F401F4079531CF258D31962E73
:101D1000962E962E20004D08643A03196A2E093A31
:101D200003197D2E1D3A0319582E962E2000CD0141
:101D30005B2D4C08C4004408CD004D08703A031DCB
:101D4000A22EA32EAB2E2B30F4008630F500953159
:101D5000CF258D315B2D20004D08643A031DB12E37
:101D6000B22EBA2E0E30F4008630F5009531CF2514
:101D70008D315B2D20004D086D3A031DC02EC12E04
:101D80005B2DCB01CD019431C8248D312000310869
:101D9000F501F5073008F401F4079531CF258D31B1
:101DA0005B2D5B2D5B2D5B2D5B2D20004D08031DF6
:101DB000DA2E072FFB2EFB2E4C0888313B208D316D
:101DC0009431CD248D3120003708F501F507360810
:101DD000F401F4079531CF258D31042FCB01310863
:101DE000F501F5073008F401F4079531CF258D3161
:101DF000042F042F042F20004D086D3A0319EE2EF6
:101E00001B3A0319DC2E042F2000CD015B2D4C085A
:101E1000C4004408CD004D08763A031D102F112F41
:101E2000192F4A30F4008430F5009531CF258D31DB
:101E30005B2D20004D086D3A031D1F2F202F5B2DB9
:101E4000CB01CD01883100208D3120003108F50112
:101E5000F5073008F401F4079531CF258D315B2D5E
:101E60005B2D5B2D5B2D20004D08031D382FB52FFA
:101E70004808031D3C2F8A2F4D08773A031D412F38
:101E8000422F592F4C0888313B208D312000C4004F
:101E90004408F7004A08953153258D312000390850
:101EA000F501F5073808F401F4079531CF258D3198
:101EB000862F20004D08723A031D5F2F602F722F6E
:101EC0004A089431DA248D31883103208D31200085
:101ED0003908F501F5073808F401F4079531CF25E5
:101EE0008D31862F20004D086D3A031D782F792FF4
:101EF000862FCB013108F501F5073008F401F4070E
:101F00009531CF258D31862F862F862F2000C80151
:101F1000CD015B2DC8010314C80D4C0888313B204E
:101F20008D312000C4004408CA004D08773A031DD3
:101F30009A2F9B2FA32F1130F4008430F500953198
:101F4000CF258D315B2D20004D08723A031DA92F3E
:101F5000AA2F5B2D8530F4008530F5009531CF2513
:101F60008D315B2D5B2D5B2D5B2D20004C08C4005B
:101F70004408CD004D08773A0319BF2FC02FC72F53
:101F80004D08723A031DC52FC62FCF2FC72F7330B0
:101F9000F4008430F5009531CF258D315B2D200084
:101FA0004D086D3A031DD52FD62F5B2DCB01CD01EA
:101FB0003108F501F5073008F401F4079531CF2514
:101FC0008D315B2D5B2D5B2D5B2DCB013108F50138
:101FD000F5073008F401F4079531CF258D315B2DDD
:101FE0005B2D20004B088400053004020318E52F08
:101FF00090310435003E82005B2D5B2D5B2D080087
:102000008D318F2D8E313C2E8E31522E8E31D52E2C
:042010008F31332FAA
:102982000030C32C0800E03022009800080021002B
:102992008C1620001C110800F30073081F39220056
:1029A2009900080022009716EF30F300730897058C
:1029B2000800F300730823009100151395131514F2
:1029C2001308E32C080021008E10403024009C00E4
:1029D20024309D009F01AA3099000800F3002400D2
:1029E2009D13730899009D1BF72CF82CF02C1D16D3
:1029F2000800FE0012001E000130FE020030FF3B04
:102A02007F087E04031DFB2C003464008001013129
:102A12000130FE020030FF3B7F087E04031D072DBC
:102A220000342400990180309C00FE309B00363037
:102A32009D00C030F30073089F040800F3002000DB
:102A42008E15232D23009E1C272D282D232D292D65
:102A520073089A0020008E11080022001D15210023
:102A62008D160E1223001E159C01CF309B001E12E4
:102A72009D179E161D1620008E1608000130F300C9
:102A82007308FA070730F3007308FA057A08090792
:102A9200533E860087010108F3007308F4007408AE
:102AA200522D0800F800780823009100770893005F
:102AB2001513951315158B1355309600AA309600F1
:102AC20095148B17642D9518672D682D642D692D2B
:102AD2000800F600F5016D2D761C702D712D762DF6
:102AE2007308F4007408F507762D0310F30D031034
:102AF200F60CF608031D7E2D7F2D6D2D802D750899
:102B0200822D0800F701F801862D731C892D8A2D6C
:102B12008E2D7508F7077608F83D0130F535F60D6C
:102B2200890B8F2D0130F436F30C890B942D740828
:102B32007304031D9D2D9E2D862D9F2D7808F40173
:102B4200F4077708F301F307A62D0800F03084009C
:102B5200223085000030FE000130FF00953106254D
:102B62009531FA0153308400003085001530FE00A3
:102B72000030FF00953106259531E5308400803024
:102B8200850020308600003087000030FF001A30B8
:102B92009431FA249531200081311729F801E52D6D
:102BA2007508F7007408F60078087607840077083D
:102BB2000318770A8500000895311F2595310130E9
:102BC200F6007608F807E52D7508F7007408F60098
:102BD20078087607840077080318770A85000008CA
:102BE2000038031DF52DF62DD12DF72D0800F50027
:102BF200F7017308031DFE2D252EF6010314F60DB1
:102C0200092E0310F30D0130F4007408F607092EA3
:102C1200F31F0C2E0D2E022E0F2E0F2E0310F70D6A
:102C220073087502031C162E172E1B2E7308F5024D
:102C320077141B2E0310F30C0130F602031D222E13
:102C4200232E0F2E252E252E7708272E0800F4017D
:102C5200F501F6019431E4249631FD302400990007
:102C62009431C42496315D2E5D2E24001C1C3A2E14
:102C72003B2E5D2EF6010314F60D7508031D422E40
:102C8200472E19089431CD249631562EF50103149E
:102C9200F50D2400191E4E2E4F2E522E220098168C
:102CA200562E22009812562E562E220019081F392F
:102CB200240099005D2E5D2E20000E1C612E622ED6
:102CC200362E632E7608031D672E5D2EF501F60162
:102CD2005D2E5D2E5D2E08002000BB01BC01740834
:102CE20073040319752E762EAC2EBA010314BA0D95
:102CF200842E0130F335F40D890B7B2E0130F70061
:102D02007708BA07842EF41F872E882E7A2E8A2EF1
:102D12008A2E0130BB35BC0D890B8B2E74087602CE
:102D2200031D952E73087502031C982E992E9F2E53
:102D32007308F5027408F63B3B149F2E0130F436FB
:102D4200F30C890BA02E0130BA02031DA92EAA2E64
:102D52008A2EAC2EAC2E3C08F401F4073B08F3019A
:102D6200F307B32E0800EE30F4008530F500813110
:102D7200C1219631CD30F4008530F5008131C12179
:102D82009631DA30F4008430F5008131C121963178
:102D92006030F4008530F5008131C1219631133065
:102DA200F4008530F5008131C12196315C30F400A8
:102DB2008630F5008131C12196314430F4008630ED
:102DC200F5008131C1219631AA30F4008530F50039
:102DD2008131C12196318F30F4008430F500813188
:102DE200C12196313A30F4008530F5008131C1219C
:102DF2009631FB2EFB2E08002000C3000230430256
:102E0200031C042F052F3C2F4308BD00BE013D08C3
:102E1200F3003E08F4006308BF00C0013F08F5005C
:102E22004008F60095318325963174082000C201CE
:102E3200C2077308C101C1076430F3000030F40017
:102E42004208F601F6074108F501F50796316D26AD
:102E5200963174082000C201C2077308C101C1077C
:102E620041082500980020004308BD003D08E40009
:102E720043089B00462F0230BD003D08E4000230AB
:102E82009B00013025009800462F0800F6005F2FB6
:102E92000330F3007308F6006D2F0830F300730857
:102EA200F6006D2F0930F3007308F6006D2F1D3008
:102EB200F3007308F6006D2FA22F6D2F7608003AEB
:102EC2000319492F013A03194E2F033A0319532FBD
:102ED200013A0319582FA22FC03021009E001F3043
:102EE200F3007308F6057608F3000130F335FF3E70
:102EF200031D772F733501389D00F401F501750824
:102F0200803AFF0080307F02031D892F0430740253
:102F1200031C8C2F8D2F8F2FA22FA22F0000013088
:102F2200F4070030F53D7508803AFF0080307F02DB
:102F3200031D9D2F04307402031CA02FA12F8F2F7D
:102F4200A22F08002000BE01C101BF019431E42478
:102F52009731FD3024009900F02FF02F24001C1C23
:102F6200B32FB42FF02F1C102000BF010314BF0D8C
:102F7200C108031DBD2FBE2FCD2F24001908013A11
:102F8200031DC42FC52FCA2F2000C1010314C10D78
:102F9200CA2F24009901F02F20004108013A031D95
:102FA200D32FD42FF02F240019083039F8007808D5
:102FB2002000C0004008F8000430F836890BDE2FEC
:102FC2007808F9007908C00040088A310322973155
:102FD200730824009900F02FF02FF02FF02F20001B
:102FE2000E1CF42FF52FAF2FF62F3F08031DFA2FDB
:0E2FF200F02FC101BF01F02FF02FF02F0800CB
:020000040001F9
:04000E00A4EFFFDE7E
:00000001FF
