:020000040000fa
:08000000004c040001000000a7
:020000040000fa
:0200000401f009
:04000c0078ff000079
:020000040000fa
:0200000401f009
:0400100059ff000094
:020000040000fa
:10000800824d0100824d0100824d0100824d0100a8
:10001800824d0100824d0100824d0100824d010098
:10002800824d0100824d0100824d0100824d010088
:10003800824d0100824d0100824d0100824d010078
:020000040000fa
:020000040000fa
:020000040002f8
:109800002f8c2000f0012000403a880044c7a900b6
:1098100044e7a9004407a8004447a8004627ef00f2
:109820004627a8004647a80046e7a80010002000e9
:109830003174200082072000a309200082487800ac
:10984000834878008048780021742000620420005a
:109850007305200082487800834878004207a800fa
:109860004207af00feff370042a7ae00feff370001
:1098700026358000773680002d23a8002d43a800d0
:10988000c9c2a800a406a900a426a800a446a8004e
:10989000a466a800a486a900cf06a800cf26a80029
:1098a000cf46a900cf66a900cf86a900c102a900b2
:1098b000c122a900c502a900c522a8008000eb00b2
:1098c00060052000401188002062a80020a2a800a6
:1098d00021e2a8005a1020008005eb000060fe0085
:1098e00020a2ae00050037008b05e900fbff3a001f
:1098f0000a05e900f8ff3a00750037002342a80086
:10990000b0042000201188005a1020008005eb00d0
:109910000060fe002202ae0004003700301180001b
:1099200000074700100cb100060032008b05e9006b
:10993000f7ff3a000a05e900f4ff3a002f8c2000f7
:109940006300370000000000b00a200020118800ea
:109950001000200020118800200020002011880025
:10996000b0042000201188000007eb004b00070026
:10997000900188004900070003e1b7004700070095
:1099800002e1b7000281bf00800278000002780087
:109990004200070080067800400007008001780040
:1099a000028020003d000700005978008301e90093
:1099b000fcff3a000e04e00003003200e004200047
:1099c00020118800e8ff3700028020000d10a7005a
:1099d000040037000d30a70021003700f1ff2f00f1
:1099e000dfff37000100a60004003700850abb0036
:1099f000200424001e0007008000eb000304200068
:109a0000b2cabb00b25abb00b25abb008301e90024
:109a1000fbff3a001000240015000700030420009b
:109a20000280200014c0ba003204e10009003a00ac
:109a30003440ba003204e10006003a003440ba0073
:109a40003204e10003003a008301e900f5ff3a0027
:109a5000c3ff37006005200020118800c2ff3700d7
:109a6000924abb000000240001000700bcff370041
:109a7000003b880050052000303b8800a00a2000f1
:109a8000303b880061e7a8000000000000000000f3
:109a900061e7af00feff3700000006005a1020000b
:109aa0008005eb000060fe002202ae0003003700dc
:109ab0003011800000074700000006008b05e90018
:109ac000f8ff3a000a05e900f5ff3a002f8c200064
:109ad0008560a9008580a9002342a90021e2a90090
:109ae0000221ef00c522a9002635880077368800bc
:049af00041ff3700fb
:020000040000fa
:020000040002f8
:0897f8000000ff000000ff006b
:020000040000fa
:020000040002f8
:109af40000080000c2000000000000000000000098
:020000040000fa
:020000040002f8
:049b04000000fe005f
:00000001FF
