:020000040000FA
:1000000081EF1DF01200FFFF04EF04F01200FFFF6C
:10001000FFFFFFFFFFFFFFFF0CEF04F01200FFFFE9
:10002000FFFFFFFFFFFFFFFFFFFFFFFFFFFFFFFFE0
:10003000FFFFFFFFFFFFFFFFFFFFFFFFFFFFFFFFD0
:10004000FFFFFFFFFFFFFFFFFFFFFFFFFFFFFFFFC0
:10005000FFFFFFFFFFFFFFFFFFFFFFFFFFFFFFFFB0
:1008000081EF1DF01200FFFFF0EF1CF01200FFFF60
:10081000FFFFFFFFFFFFFFFF12EF1DF01200FFFFC2
:10082000FFFFFFFFFFFFFFFFFFFF07003F3B000051
:1008300038020000010000003D3B000032020000D1
:10084000020000003A3B00002F02000003000000FD
:10085000393B00003702000001000000373B000078
:10086000FE00000002000000363B000036020000DF
:1008700001000000C5380000350200000100000042
:10088000D9CFE6FFE1CFD9FFE6526A6A686A160E51
:100890006F6E9F0E6B6E7B0E696E6D8C6E6A020EB4
:1008A000E66EE66AE66A710EE66E0F0EE66E67ECBD
:1008B0001DF0146E050EE15E14506D9CDF6ADF5072
:1008C000146E156A100E145C000E155810E2DF50FD
:1008D000040DF3CFE9FFF4CFEAFF000EE926040E82
:1008E000EA22EE6AEE6AEE6AEE6ADF2AE8D7160EB0
:1008F000706E68A602D06896FCD700017B6B000181
:10090000806B0001816B826B6D980001080E6F6F28
:10091000040E706F0001616B0001606BE552E552DF
:10092000E7CFD9FF1200D9CFE6FFE1CFD9FFE652DA
:1009300006D06D6A696A0001606BA19AAFD00001B0
:1009400060510FE16D6A696A160E6F6E9F0E6B6ED5
:100950007B0E696E6DB602D06D86FCD70001010E6C
:10096000606F0001600509E16DBA07D0686A696AC5
:10097000698069880001020E606F6850040B05E011
:100980006950040B02E06894BAD86DA202D0A19A13
:1009900085D06850010B15E06950010B12E070DF43
:1009A0000001040E606F0401400E026F040E036F1D
:1009B0000401080E016F0401006B8C0E040100138A
:1009C00068906850100B05E06950100B02E084D865
:1009D00068986850400B13E06950400B10E0010E1E
:1009E000E66EE66A000EE66EE66A730EE66EE66A8C
:1009F000E4EC12F0146E060EE15E1450689C685030
:100A0000200B04E06950200B01E04DD86850020B28
:100A100012E06950020B0FE0010EE66EE66A000E6E
:100A2000E66EE66AE668E668E4EC12F0146E060E1E
:100A3000E15E14506A6A040E0001E76E6019E8AEC8
:100A400002D0E73402D0E750605D02E2A19A26D0DE
:100A500069A623D0DF6A040EDF5C1FE268A61AD005
:100A60006CCF88F06896780E0001881502E15DD899
:100A700010D0000EE66EE66A880EE66E000EE66E98
:100A8000720EE66EE66AE4EC12F0146E060EE15E9B
:100A9000145001D002D0DF2ADED7A19AE552E552E8
:100AA000E7CFD9FF120070A015D063C0E9FF64C082
:100AB000EAFFEF5080080DE16FC0E9FF70C0EAFF68
:100AC000EF50840806E163C0E9FF64C0EAFF8C0EC2
:100AD000EF6E7090689A1200698468986D82000EBB
:100AE000E66EE66A000EE66EE66A750EE66EE66A89
:100AF000E4EC12F0146E060EE15E14501200000ECB
:100B0000E66EE66A000EE66EE66A740EE66EE66A69
:100B1000E4EC12F0146E060EE15E14506D926994CE
:100B200068A402D06894FCD71200D9CFE6FFE1CFC9
:100B3000D9FFE652FD0E000188155EE17E0E000130
:100B40008815E8407F0B040DF3CF63F0F4CF64F019
:100B5000000E00016327040E0001642363C065F0EA
:100B600064C066F00001657563C0E9FF64C0EAFF18
:100B7000EF503C0BE842E8420D083CE163C0E9FF5E
:100B800064C0EAFF020EE926000EEA22EECF14F05E
:100B9000EFCF15F0480E141802E1040E151828E1E5
:100BA00063C0E9FF64C0EAFF020EE926000EEA22F4
:100BB000400EEE6E040EED6EDF6ADF50146E156AA5
:100BC000080E145C000E155813E2DF50EA6A480F55
:100BD000E96E040EEA22EF50E66EDF50EA6A400F3B
:100BE000E96E040EEA22E552E750EF6EDF2AE5D700
:100BF0000ED801D033D806D0FD0E000188150408A8
:100C000001E153D8E552E552E7CFD9FF12006FC09A
:100C1000E9FF70C0EAFFEF50800B05E06FC0E9FF0D
:100C200070C0EAFFEF6A0001776B0001786B00018A
:100C30007C6B7D6B00017B6BBFD8000EE66EE66AB5
:100C4000000EE66EE66A030EE66EE66AE4EC12F06B
:100C5000146E060EE15E1450A9EF08F0020E0001BA
:100C6000785D02E1E7DB20D071D8000189511AE1FB
:100C700065C0E9FF66C0EAFFEE52080EEF6E65C080
:100C8000E9FF66C0EAFF020EE926000EEA22400EE6
:100C9000EE6E040EED6E65C0E9FF66C0EAFF8C0ED5
:100CA000EF6E02D00001896B1200D9CFE6FFE1CFD1
:100CB000D9FFE6526FC0E9FF70C0EAFFEF50400B6A
:100CC00001E0010EDF6E00016F75080E0001605D2E
:100CD0000CE142C46EFF6E50000804E20001100EE9
:100CE000606F03D00001040E606F0001780528E1F9
:100CF0006FC0E9FF70C0EAFF020EE926000EEA228B
:100D0000480EEE6E040EED6EFEDA020E0001775D07
:100D100007E16FC0E9FF70C0EAFF840EEF6E0FD0ED
:100D2000DF5007E16FC0E9FF70C0EAFFC80EEF6E49
:100D300006D06FC0E9FF70C0EAFF880EEF6E01D0E9
:100D400005D8E552E552E7CFD9FF1200D9CFE6FF2B
:100D5000E1CFD9FF020EE1260001786B6FC0E9FFF9
:100D600070C0EAFFEF6A040E00016F19146E70C0C4
:100D700015F014C0DEFF15C0DDFFDECFE9FFDDCFCB
:100D8000EAFFEF6A000180AF0DD0000183518411AA
:100D900007E005D084C0FAFF00018351F96EFADF45
:100DA0000001809F020EE15C02E2E16AE552E16E21
:100DB000E552E7CFD9FF120004014051600BE84231
:100DC000E842E842E842E842000901E064D0040158
:100DD00041510C0A5FE00B0A4DE00C0A3FE0010AAA
:100DE0002AE00B0A26E0020A24E0030A20E0080AAF
:100DF00011E0010A0DE00F0A09E0030A01E04AD000
:100E000000017B8F0001080E606F45D0DAD843D017
:100E1000B6DB41D00001610E796F000E7A6F0001E0
:100E20007B810001010E7C6F00017B8F34D028D9BB
:100E300032D032D830D0040144510001796F7A6B3E
:100E4000620E00017927000E00017A2300017B81E8
:100E50000001010E7C6F00017B8F1DD000017B8F94
:100E600004014451EA6A620FE96E000EEA2242C4AC
:100E7000EFFF11D0000EE66EE66A000EE66EE66A3F
:100E8000020EE66EE66AE4EC12F0146E060EE15E07
:100E9000145001D000D01200D9CFE6FFE1CFD9FF26
:100EA000040EE1260401420511E1040140511F0B2B
:100EB00000090CE100017B8F030E0401415D04E198
:100EC0000001010E876F02D00001876B04014251BF
:100ED0006EE1040140511F0B020869E10401445115
:100EE0000F0B000964E000017B8F040144BF11D0A7
:100EF000040144510F0BE96EEA6AD890E936EA36EC
:100F0000670EE926000EEA22EECFDEFFEDCFDDFF11
:100F100010D0040144510F0BE96EEA6AD890E9360B
:100F2000EA366F0EE926000EEA22EECFDEFFEDCFA5
:100F3000DDFF030E0401415D07E1DECFE9FFDDCFF8
:100F4000EAFF840EEF6E33D0040144510F0B156A93
:100F5000700F146E0F0E1522020E14C0DBFF030E6D
:100F600015C0DBFF020EDBCFE9FF030EDBCFEAFF8C
:100F7000EE90ED52040144AF0DD0DECFE9FFDDCF9E
:100F8000EAFFEF6ADF74DECFE9FFDDCFEAFF400E54
:100F9000EF6E0DD0DECFE9FFDDCFEAFF880EEF6EFA
:100FA000DF74DECFE9FFDDCFEAFFC80EEF6E040E7F
:100FB000E15C02E2E16AE552E16EE552E7CFD9FF7A
:100FC0001200800E0401405D5AE10001C00E7B6FEB
:100FD00004014351030A2EE0010A0DE0030A01E077
:100FE0004BD000010C0E796F380E7A6F120E000193
:100FF0007C6F7D6B44D004014251F66EF76AD89045
:10100000F636F736BD0EF626380EF7220900F5CF74
:1010100079F00A00F5CF7AF0020E0001F76A79251F
:10102000F66E7A51F7220900F5CF7CF00A00F5CF71
:101030007DF025D0030E0401425D1BE20401425104
:10104000F66EF76AD890F636F736BF0EF626380EEB
:10105000F7220900F5CF79F00A00F5CF7AF079C0D0
:10106000F6FF7AC0F7FF0800F55000017C6F7D6B3A
:1010700002D000017B6B03D000017B6B00D012001B
:10108000D9CFE6FFE1CFD9FF020EE1260401486B7C
:101090000401496B040140511F0B020A12E0030ACC
:1010A0000DE0010A01E03ED000017B8F0401488180
:1010B0000001870502E10401488334D000017B8FE1
:1010C00031D000017B8F040144BF11D00401445191
:1010D0000F0BE96EEA6AD890E936EA36670EE92620
:1010E000000EEA22EECFDEFFEDCFDDFF10D00401CF
:1010F00044510F0BE96EEA6AD890E936EA366F0E72
:10110000E926000EEA22EECFDEFFEDCFDDFFDECFD7
:10111000E9FFDDCFEAFFEF50040B03E00401010E0D
:10112000486F00D000017BAF0AD00001480E796FF4
:10113000040E7A6F00017B810001020E7C6F020EAB
:10114000E15C02E2E16AE552E16EE552E7CFD9FFE8
:1011500012006D9800017BBF4CD0000180AF29D0F8
:101160000001020E786F6FC0E9FF70C0EAFFEE5217
:10117000EF6A6FC0E9FF70C0EAFFC80EEF6E65C08E
:10118000E9FF66C0EAFFEE52080EEF6E65C0E9FFA8
:1011900066C0EAFF020EE926000EEA22480EEE6E55
:1011A000040EED6E65C0E9FF66C0EAFFC80EEF6E83
:1011B0001FD065C0E9FF66C0EAFFEE52080EEF6E71
:1011C00065C0E9FF66C0EAFF020EE926000EEA22CA
:1011D000400EEE6E040EED6E65C0E9FF66C0EAFFDC
:1011E0008C0EEF6E6FC0E9FF70C0EAFF840EEF6EE9
:1011F00089D0000180BF86D0040140AF5BD00001E0
:101200007C510401465D00017D510401475904E20F
:1012100046C47CF047C47DF076D80001010E786F9B
:1012200065C0E9FF66C0EAFFEE52080EEF6E65C0CA
:10123000E9FF66C0EAFF020EE926000EEA22400E30
:10124000EE6E040EED6E65C0E9FF66C0EAFF800E2B
:10125000EF6E0001896B63C0E9FF64C0EAFFEE52E4
:10126000080EEF6E63C0E9FF64C0EAFF020EE926D4
:10127000000EEA22400EEE6E040EED6E63C0E9FF32
:1012800064C0EAFF840EEF6E0001010E896F6FC02B
:10129000E9FF70C0EAFF020EE926000EEA22480EBE
:1012A000EE6E040EED6E6FC0E9FF70C0EAFFC80E6F
:1012B000EF6E28D00001020E786F6FC0E9FF70C09A
:1012C000EAFFEE52EF6A6FC0E9FF70C0EAFFC80E96
:1012D000EF6E65C0E9FF66C0EAFFEE52080EEF6EE2
:1012E00065C0E9FF66C0EAFF020EE926000EEA22A9
:1012F000480EEE6E040EED6E65C0E9FF66C0EAFFB3
:10130000C80EEF6E1200D9CFE6FFE1CFD9FF020E73
:10131000E1260001080E7C5D000E7D5912E27CC0C2
:10132000DEFF7DC0DDFF0001775104E10001010E09
:10133000776F06D00001770503E10001020E776F99
:1013400003D0080EDE6EDD6A6FC0E9FF70C0EAFFF1
:10135000EF926FC0E9FF70C0EAFFEF906FC0E9FF46
:1013600070C0EAFF010EDB50EF126FC0E9FF70C0E2
:10137000EAFFEE52DFCFEFFF000EDB5000017C5F93
:10138000010EDB5000017D5B0001480E856F040EED
:10139000866F00017BB123D0D9CFE9FFDACFEAFF16
:1013A000EE50ED101BE0000179C0F6FF7AC0F7FFA8
:1013B000792B000E7A230800F550E66E000185C0F7
:1013C000E9FF86C0EAFF852B000E8623E552E75031
:1013D000EF6EDF06010E01E2DB06DED721D0D9CFAA
:1013E000E9FFDACFEAFFEE50ED101AE0000179C014
:1013F000E9FF7AC0EAFF792B000E7A23EF50E66E00
:10140000000185C0E9FF86C0EAFF852B000E862318
:10141000E552E750EF6EDF06010E01E2DB06DFD793
:10142000020EE15C02E2E16AE552E16EE552E7CFCD
:10143000D9FF1200D9CFE6FFE1CFD9FF020EE12696
:1014400063C0E9FF64C0EAFFEE52EFCFDFFFDFCFFA
:1014500014F014500001815D000E825903E281C036
:10146000DFFF0DD0DF50146E156A14500001815D4E
:101470000001816F1550000182590001826F010E39
:10148000DB6ADF50F36E010EDBCFF4FFF350F45C48
:1014900017E2010EDB50EA6A480FE96E040EEA22F9
:1014A000EF50E66E00017EC0E9FF7FC0EAFF7E2BB1
:1014B000000E7F23E552E750EF6E010EDB2AE1D7E5
:1014C0000001000ED8808155000E825528E265C0CB
:1014D000E9FF66C0EAFFEE52080EEF6E65C0E9FF55
:1014E00066C0EAFF020EE926000EEA22480EEE6E02
:1014F000040EED6E63C0E9FF64C0EAFFEF50400BDD
:1015000007E165C0E9FF66C0EAFFC80EEF6E06D0CE
:1015100065C0E9FF66C0EAFF880EEF6E26D065C0A1
:10152000E9FF66C0EAFFEE52080EEF6E65C0E9FF04
:1015300066C0EAFF020EE926000EEA22400EEE6EB9
:10154000040EED6E65C0E9FF66C0EAFF840EEF6E23
:1015500000018351841107E005D084C0FAFF000127
:101560008351F96EFADF0001809F020EE15C02E216
:10157000E16AE552E16EE552E7CFD9FF12000001C2
:101580007B8F020EE66EE66AE66A710EE66E0F0E5D
:10159000E66E67EC1DF0146E050EE15E1450010E50
:1015A000E66EE66AE66A620EE66E000EE66E67ECCE
:1015B0001DF0146E050EE15E145042C461F000018E
:1015C000615104E10001100E606F13D00001200E84
:1015D000606F010EE66EE66A610EE66E000EE66E64
:1015E000010EE66EE66AE4EC12F0146E060EE15EA1
:1015F00014501200D9CFE6FFE1CFD9FF020EE12649
:10160000000EDE6E040EDD6EFD0EDB50E824166E5D
:10161000FE0EDB50040DF3501624040DF350146E2F
:10162000156A020E0F0B05E0D89015321432E80649
:10163000FBE1D89014361536D89014361536D9CF2C
:10164000E9FFDACFEAFF1450EE261550ED22DECF87
:10165000E9FFDDCFEAFFEF9EFD0EDB500FE1FE0E4E
:10166000EA6ADB34FE0BEA36E96E670EE926000E05
:10167000EA22DECFEEFFDDCFEDFF0ED0FE0EEA6AEE
:10168000DB34FE0BEA36E96E6F0EE926000EEA2225
:10169000DECFEEFFDDCFEDFFDECFE9FFDDCFEAFFEE
:1016A000EF9CDECFE9FFDDCFEAFF040EE926000E56
:1016B000EA22EF8C020EE15C02E2E16AE552E16EA1
:1016C000E552E7CFD9FF1200D9CFE6FFE1CFD9FF2E
:1016D000020EE126FE0EDB50156A700F146E0F0E1F
:1016E000152214C0DEFF15C0DDFFDECFE9FFDDCF20
:1016F000EAFFFD0EDBCFEFFFFD0EDBA407D0E66AAD
:10170000FE0EDBCFE6FF76DFE552E552FD0EDBA2F3
:1017100008D0010EE66EFE0EDBCFE6FF6BDFE55272
:10172000E552020EE15C02E2E16AE552E16EE55249
:10173000E7CFD9FF1200D9CFE6FFE1CFD9FF020EE4
:10174000E126FE0EDB5020E165C0E9FF66C0EAFF3E
:10175000EE52080EEF6E65C0E9FF66C0EAFF020EAA
:10176000E926000EEA22400EEE6E040EED6E65C014
:10177000E9FF66C0EAFF8C0EEF6E6FC0E9FF70C034
:10178000EAFF840EEF6E3DD0FD0EDB50E824166EAE
:10179000FE0EDB50040DF3501624040DF3CF14F0AD
:1017A000F4CF15F0000E1426040E152214C0DEFF2F
:1017B00015C0DDFF840E146EDECFE9FFDDCFEAFF3A
:1017C0001450EF12FD0EDB50E824166EFE0EDB50B7
:1017D000040DF3501624010F040DF3CF14F0F4CFD1
:1017E00015F0000E1426040E152214C0DEFF15C0DD
:1017F000DDFF840E146EDECFE9FFDDCFEAFF14506B
:10180000EF12020EE15C02E2E16AE552E16EE5529E
:10181000E7CFD9FF1200D9CFE6FFE1CFD9FF020E03
:10182000E126FD0EDB500FE0FE0EEA6ADB34FE0B14
:10183000EA36E96E6F0EE926000EEA22EECFDEFFF1
:10184000EDCFDDFF0ED0FE0EEA6ADB34FE0BEA368A
:10185000E96E670EE926000EEA22EECFDEFFEDCF3D
:10186000DDFFDECFE9FFDDCFEAFF020EE926000E45
:10187000EA22FB0EDBCFEEFFFC0EDBCFEDFFDECF6F
:10188000E9FFDDCFEAFFEE52FA0EDBCFEFFF400EAD
:10189000146EDECFE9FFDDCFEAFF1450EF16880E9D
:1018A000146EDECFE9FFDDCFEAFF1450EF12FD0E1C
:1018B000DB500CE0FE0EEA6ADB34FE0BEA36E96E22
:1018C0006F0EE926000EEA22EF740BD0FE0EEA6AD4
:1018D000DB34FE0BEA36E96E670EE926000EEA22DB
:1018E000EF74DECF14F0DDCF15F014C0F3FF15C098
:1018F000F4FF00D0020EE15C02E2E16AE552E16E23
:10190000E552E7CFD9FF1200D9CFE6FFE1CFD9FFEB
:101910006DA84ED0FE0EEA6ADB34FE0BEA36E96EA5
:101920006F0EE926000EEA22EE50EFCFEAFFE96ED5
:10193000400EEE16EE6AEE6AEE6AFE0EEA6ADB34DE
:10194000FE0BEA36E96E6F0EE926000EEA22EE5033
:10195000EFCFEAFFE96EEE7CFE0EEA6ADB34FE0BA7
:10196000EA36E96E6F0EE926000EEA22EF74400EA9
:10197000146EFE0EEA6ADB34FE0BEA36E96E6F0E79
:10198000E926000EEA22EE50EFCFEAFFE96E14508E
:10199000EF16FE0EEA6ADB34FE0BEA36E96E6F0ED6
:1019A000E926000EEA22EE50EFCFEAFFE96EEF7C67
:1019B000E552E7CFD9FF1200D9CFE6FFE1CFD9FF3B
:1019C000020E0101DE5D09E2FD0EDB50C00B146E5C
:1019D0003F0E8B1414108B6E10D0FD0EDB503C0BA1
:1019E000146EC30E89141410896EFE0EDB50290B81
:1019F000146ED60E8A1414108A6EE552E7CFD9FF02
:101A00001200D9CFE6FFE1CFD9FF020E0101DE5D62
:101A100009E2FD0EDB50C00B146E3F0E941414103F
:101A2000946E10D0FD0EDB503C0B146EC30E92145E
:101A30001410926EFE0EDB50290B146ED60E93140A
:101A40001410936EE552E7CFD9FF1200020E010188
:101A5000DE5D04E2C00E82141DD01CD08150200B2C
:101A600001E0010E400DF3CF16F08150080B01E0AC
:101A7000010E200DF3CF15F08150010B100DF3CFA7
:101A800014F08050E840E8403F0B0F0B1410151085
:101A9000161000D012000101E45114E10101530EAF
:101AA0009E6F0101300E9F6F0101310EA06F030E7A
:101AB000E66E9E0EE66E010EE66E2EEC14F0E5521A
:101AC000E552E55294948B949E929D92520ECB6E69
:101AD000050ECA6E290EBE6E100EBD6E94829382E4
:101AE00094800001E5930001E5950001E597000170
:101AF000E46B0001E26B0001E36B0001E591000182
:101B0000E5990001E59FD56A070ED56ED596CD6A99
:101B1000F286F29012000001E3510FE1400EE66EF2
:101B2000000EE66E010EE66EC7EC13F0E552E552CC
:101B3000E5520001E36F0001E66B0001E35100088C
:101B400001E3D1D102013351030A01E15DD1070A5A
:101B500001E146D1060A01E1FCD0030A01E1DAD035
:101B6000010A01E0C0D10001E651EA6A000FE96E06
:101B7000010EEA22EF50420A01E1B3D0030A01E16B
:101B8000ADD0010A01E1A5D0720A01E18DD0020AAF
:101B900001E177D0010A75E0340A63E0030A51E0FD
:101BA000240A4BE0030A46E0010A41E0330A3DE023
:101BB000010A39E0030A35E0010A31E0140A18E0AD
:101BC000070A09E0030A01E09FD00FDA899092909A
:101BD000010E0AD29AD0F29A9D90F2960001E59DEC
:101BE0000001E5910001E5950201040E336F8DD0EF
:101BF0000101DE51010812E20101E4510FE1B2CF0F
:101C0000E0F0B3CFDFF0080EE66ED90EE66E000E00
:101C1000E66E2EEC14F0E552E552E55276D0928055
:101C200074D0929072D0898070D089906ED000016B
:101C3000E59F6BD00001E58F68D00201010E326F85
:101C400064D00001E651EA6A000FE96E010EEA2253
:101C5000EFCFE9F00001020EEE6F0201010E336FCB
:101C600054D00001E651EA6A000FE96E010EEA2243
:101C7000EFCFE9F00001010EEE6F0201010E336FAC
:101C800044D00001E651EA6A000FE96E010EEA2233
:101C9000EFCFE9F00001020EEE6F0001010EEF6FD1
:101CA0000201010E336F31D00101E45111E1CEDEAA
:101CB00001019E6F0001010EE26FE2C0E6FF9E0E81
:101CC000E66E010EE66E2EEC14F0E552E552E5529A
:101CD0001CD0E66A27EC19F0E55217D046EC19F053
:101CE00014D00001E651EA6A000FE96E010EEA2203
:101CF000EFCFE9F00001010EEE6F0001010EEF6F72
:101D00000201010E336F01D000D00001E307000192
:101D1000E62BE9D00001E651EA6A000FE96E010EF8
:101D2000EA22EF50E66E0001EF51EA6AE90FE96E30
:101D3000000EEA22E552E750EF6E0001E3070001D2
:101D4000E62B0001EF2B0001EE290001EF5D01E21F
:101D5000CAD00001E951420A3BE0730A31E0010AAE
:101D600027E0350A1BE0030A01E037D0CA6AEAC05F
:101D7000CBFF0001EB51000802E2EBC0EAF00001EA
:101D8000EA417F0BBE6E0001EAA103D02C0EBD6EAE
:101D900002D00C0EBD6E050ECA6E1FD0D56AF2962B
:101DA000070E0001EA15D512F290F286F29015D0D6
:101DB000EBC0E6FFEAC0E6FFFFDDE552E5520DD0DD
:101DC000EBC0E6FFEAC0E6FF1CDEE552E55205D0B7
:101DD0009EA802D0EAC0ADFF00D00201336B83D0D1
:101DE0000001E5B510D00001E651EA6A000FE96E86
:101DF000010EEA22EFCFD7F00201030E336F00018C
:101E0000E3070001E62B6FD00001E5AF0CD0D7C08F
:101E1000D8F00001E651EA6A000FE96E010EEA22ED
:101E2000EFCFD7F009D00001E651EA6A000FE96E62
:101E3000010EEA22EFCFD8F0FF0E0001D75D0CE1D2
:101E4000FF0E0001D85D08E10001D76B0001140E00
:101E5000D86F0201336B03D00201040E336F00010F
:101E6000D7510001E76FE86BE7C0E8F00001E76BCE
:101E70000001D851146E156A14500001E713155073
:101E80000001E81308680968E7C00DF0E8C00EF02B
:101E900049EC1DF006C0E7F007C0E8F00001E7518B
:101EA0000001D86FE8C014F0156A14500001D76F14
:101EB0000001E5850001E5B111D0D7C0D7FFD8C03A
:101EC000D6FFF294F28AD58ECC6A0C0EBD120001B8
:101ED000E58B0001E5950001E58189800001E307BC
:101EE0000001E62B00D00001E5B953D00001E5A3C5
:101EF00034D00001E2513E0830E30001E5AF15D0D7
:101F00000001E251EA6A9E0FE96E010EEA22D6C094
:101F1000EFFF0001E22B0001E251EA6A9E0FE96E39
:101F2000010EEA22D5C0EFFF14D00001E251EA6AA7
:101F30009E0FE96E010EEA22D5C0EFFF0001E22BF1
:101F40000001E251EA6A9E0FE96E010EEA22D6C054
:101F5000EFFF0001E22B0001E593400E0001E25D7E
:101F600005E000010001E551080B12E00101E45118
:101F70000FE1E2C0E6FF9E0EE66E010EE66E2EEC6D
:101F800014F0E552E552E5520001E26B0001E597DD
:101F900029D00101E45126E101019E6901019F69F7
:101FA0000101A0690101A1690101A2690101A369FF
:101FB0000001060EE26FE2C0E6FF9E0EE66E010E25
:101FC000E66E2EEC14F0E552E552E552CD90D59E2A
:101FD000F294F286F2900001E26B0001E5970001B5
:101FE000E5998990000E00D01200BD6AD59EF29A44
:101FF000D56ACA94B16ABA6ACD909D90F2969484DB
:102000008B941200DACFE4FFE2CFDAFFE9CFE4FFEE
:10201000EACFE4FFE652F250080B3FE0F250010B2A
:102020003CE081CFD6F0D5BE21D00001D6B91DD07D
:102030008980D76AD66AF28AF294D58ECF6ACE6A40
:102040009E909D80CD800101DE5101080EE2A0909E
:10205000B16A050EBA6EA190A080060EB16EB36A89
:10206000010EB26EB1800001E16B15D0D59ED6CFC6
:10207000D6F0D7CFD5F0D76AD66AF294D58ECD9068
:10208000CF6ACE6ACD800001E5B303D00001E583BD
:1020900002D00001E589F2907ED0A150010B25E02D
:1020A000A050010B22E0060E0001E15D1DE20001DF
:1020B000E151EA6AD90FE96E000EEA22BCCFEFFFC8
:1020C0000001E12B0001E151EA6AD90FE96E000E2F
:1020D000EA22BBCFEFFF0001E12BA190060E000129
:1020E000E15D02E1A090BA6A56D0F250200B4AE0BE
:1020F000F250040B47E0CD90B190D59EF2940001D0
:10210000E5A12BD0F29A00010001E551040B05E096
:1021100000010001E551400B09E0F30EBD16899066
:102120000001E591F290F286F29035D00001E5BB16
:1021300006D0CC6A0C0EBD120001E58B04D0F30E64
:10214000BD160001E59BD7C0D7FFD8C0D6FFF294DB
:10215000F28AD58E0001E59514D00001E5B30CD0CC
:102160000001D5690001D6690201325102E1000186
:10217000E5830001E58702D00001E589F286F2904F
:10218000899009D09D50010B06E09E50010B03E0A1
:102190000001E5879E90E552E5CFEAFFE5CFE9FF34
:1021A000E5CFDAFF11009AD9EBEC1CF0E6EC19F060
:1021B00040EC04F093EC04F0010E0001E76E6019AE
:1021C000E8AE02D0E73402D0E750605D03E36D5023
:1021D000020B03E08990EED717D0200E0001E76EC6
:1021E0006019E8AE02D0E73402D0E750605D06E245
:1021F00089800101010EE06FDDD706D00101E051B9
:1022000003E089900101E06B02013551050A3EE0CF
:10221000010A33E0070A28E0010A1DE0030A01E091
:102220003ED0B2EC1CF0DF0EE66E010EE66EC5ECA1
:102230001CF0E552E552010805E1DFC1E6FF5DEC67
:1022400017F0E552C8EC17F0FF0804E1E6EC19F0CE
:102250000201356BC4D0C7EC15F0000904E0E6ECD0
:1022600019F00201356BBBD08BEC0DF0000904E0D6
:10227000E6EC19F00201356BB2D00EEC1BF0000950
:1022800004E0E6EC19F00201356BA9D049EC19F035
:10229000000904E0E6EC19F00201356BA0D004EC73
:1022A0001AF0B2EC1CF0DF0EE66E010EE66EC5EC25
:1022B0001CF0E552E552000901E191D00101DF5126
:1022C000240A01E188D0720A01E180D0200A01E1EC
:1022D0007DD0220A4BE0200A49E0210A41E0200A91
:1022E0003FE0300A37E0200A35E03D0A2BE0200AC3
:1022F00029E02B0A1FE0200A1DE0010A14E0200A51
:1023000012E0520A05E0010A03E0030A01E066D088
:10231000F2969D920201010E356FDFC1E6FF5DEC82
:1023200017F0E5525BD0E6EC19F00201356BEFECEB
:1023300019F054D09D92F2960201030E356F4BECCA
:102340000DF04CD09D92F2960201020E356F89EC91
:1023500015F044D00201040E356FEEEC1AF03ED0B9
:102360000201050E356FA9EC18F038D0F2969D9257
:102370003AD80101DF6F0101E45127E10101DF518A
:10238000300817E289900101460E9E6F0101410E4F
:102390009F6F0C0E0101DF15E840E8403F0B300F46
:1023A0000101A06F030E0101DF15300F0101A16FC4
:1023B00001D0E7D8040EE66E9E0EE66E010EE66EC4
:1023C0002EEC14F0E552E552E55208D00101E4513B
:1023D00001E1D7D803D00BEF00F000D000D0D0EC53
:1023E00014F0E8D61200D9CFE6FFE1CFD9FF030EF3
:1023F000E126300EDF6E93888B949494BD6ACA6A8E
:10240000100EF36E010EF3CFDBFF270EF36E020EFC
:10241000F3CFDBFF010EDBCF14F0DB06020EDBCFC8
:1024200015F001E2DB061450151001E0F3D781B876
:1024300002D0000EDB80020E0101DE5D1EE182A2F1
:10244000DF8494948B84E80EF36E010EF3CFDBFFF0
:10245000030EF36E020EF3CFDBFF010EDBCF14F0A1
:10246000DB06020EDBCF15F001E2DB06145015107F
:1024700001E0F3D782B2DF868B949E929D92520E3A
:10248000CB6E050ECA6E290EBE6E1C0EBD6E400EC2
:10249000F36E010EF3CFDBFF9C0EF36E020EF3CF53
:1024A000DBFF010EDBCF14F0DB06020EDBCF15F0F5
:1024B00001E2DB061450151001E0F3D781B8DF828A
:1024C000DF5000D0146E030EE15C02E2E16AE552D7
:1024D000E16E1450E552E7CFD9FF1200D9CFE6FFE5
:1024E000E1CFD9FF030EE1260F0EC112B56A40EC11
:1024F00004F08B928B9094929490816AEB0E936E81
:10250000F19E0A0EF36E010EF3CFDBFF020EDB6AC3
:10251000010EDBCF14F0DB06020EDBCF15F001E27B
:10252000DB061450151001E0F3D781A204D001019D
:10253000010EDE6F03D00101020EDE6FF18E936893
:1025400094829382948094948B9489809290BD6AB3
:10255000BA6ACD6A9F80CA6A9F82F18E8A6A936A3C
:102560009388F290F296F1809384F28CF28E030EAF
:10257000E15C02E2E16AE552E16EE552E7CFD9FFA4
:1025800012000101560E9E6F300E0101DE25010181
:102590009F6F0101300EA06F0101390EA16F040E73
:1025A000E66E9E0EE66E010EE66E2EEC14F0E5521F
:1025B000E552E552120012001200120012002FEF35
:1025C00013F012008FEF13F0D9CFE6FFE1CFD9FF60
:1025D000FD0EDBCF08F0FE0EDBCF09F0720E0818FF
:1025E00001E1095033E0E868081802E1E8680918D9
:1025F0002BE0740E081801E1095024E0750E08184C
:1026000001E109501DE0730E081801E1095016E0C0
:10261000030E081801E109500FE0020E081801E14D
:10262000095008E0010E081801E1095001E010D03E
:10263000C9DF0FD0C6DF0DD0C2DF0BD0BEDF09D09F
:10264000BADF07D0B9DF05D0B9DF03D0000001D071
:1026500000D0010E00D0E552E7CFD9FF12000401EF
:1026600040511F0B010801E059D004014051600B9B
:10267000E842E842E842E842E842010801E04ED080
:102680000401445104E00401440501E047D0040181
:102690004151220A3DE0030A2EE0010A1BE0210A13
:1026A00011E0010A01E039D00001F40E796F010E4A
:1026B0007A6F080E00017C6F7D6B00017B81000149
:1026C0007B8F2CD00001F40E796F010E7A6F000120
:1026D0007B8F24D046C481F047C482F00001000EF5
:1026E0007E6F050E7F6F00018A0E836F310E846F3F
:1026F0000001808F13D00001880E796F050E7A6F6C
:10270000070E00017C6F7D6B0001C10E7B6F06D050
:1027100042C4EFF100017B8F01D000D0120005010F
:10272000886B4B0E896F8A6B8B6B05018C6B050177
:102730008D6B0501080E8E6F0101E46B0101E36BE7
:102740001A0EE66E020EE66E64EC0BF0E552E552F0
:102750001E0EE66E030EE66E64EC0BF0E552E552DB
:10276000400EE66E080EE66E050EE66EE66A030E95
:10277000E66E0BEC0CF0146E050EE15E1450F3CF18
:10278000EBF1F4CFECF10101ED6BEE6B1200D9CF60
:10279000E6FFE1CFD9FF0101E36B0101EB51EC1141
:1027A00002E1000E08D0EBC1E9FFECC1EAFFEF50F7
:1027B000800B01E0010E00094AE1FC0EDBCF14F0B2
:1027C000EBC1E9FFECC1EAFFEE52EF50D8801454A0
:1027D00008E2EBC1E9FFECC1EAFFEE52FC0EEFCFDD
:1027E000DBFF0101E36BFC0EDB500101E35D1CE24A
:1027F0000101E351EA6A080FE96E050EEA22EF5083
:10280000E66E0101E351E76EFD0EDBCFE9FFFE0E40
:10281000DBCFEAFFE750E926000EEA22E552E75057
:10282000EF6E0101E32BDFD7400EE66E080EE66E79
:10283000050EE66EE66A030EE66E0BEC0CF0146E07
:10284000050EE15E1450F3CFEBF1F4CFECF1010192
:10285000E35100D0E552E7CFD9FF1200D9CFE6FF10
:10286000E1CFD9FF0101E4510FE1FD0EDBCFE5F12E
:10287000FE0EDBCFE6F1FC0EDBCFE9F10101010E2C
:10288000EA6F0101010EE46FE552E7CFD9FF1200B4
:10289000D9CFE6FFE1CFD9FF030EE1260101E451D4
:1028A00001E030D0DF6AFD0EDBCF08F0FE0EDBCF9B
:1028B00009F0DE5208C0DEFF09C0DDFFDD52DF2A6D
:1028C000DF50146E156AFF0E141801E1155001E176
:1028D0000BD0010EDBCFE9FFDB2A020EDBCFEAFFD4
:1028E00001E3DB2AEF50EBE1FD0EDBCFE5F1FE0E5D
:1028F000DBCFE6F1DFCFE9F10101010EEA6F010163
:10290000010EE46F030EE15C02E2E16AE552E16E62
:10291000E552E7CFD9FF1200D9CFE6FFE1CFD9FFCB
:10292000030EE1260101E45101E030D0DF6AFD0E23
:10293000DBCF08F0FE0EDBCF09F0DE5208C0DEFF71
:1029400009C0DDFFDD52DF2ADF50146E156AFF0E6D
:10295000141801E1155001E10CD0010EDBCFF6FF98
:10296000DB2A020EDBCFF7FF01E3DB2A0800F5507C
:10297000EAE1FD0EDBCFE5F1FE0EDBCFE6F1DFCFC6
:10298000E9F10101EA6B0101010EE46F030EE15C64
:1029900002E2E16AE552E16EE552E7CFD9FF1200AB
:1029A000D9CFE6FFE1CFD9FF020EE1260101ED51BB
:1029B000EE1102E1000E08D0EDC1E9FFEEC1EAFF21
:1029C000EF50800B01E0010E000901E098D0030EEA
:1029D0000101E45D02E10101E46B0101E45101E167
:1029E0008ED0020E0101E45D16E1E66A000EE66E8D
:1029F000E66A010EE66E030EE66E0BEC0CF0146E4A
:102A0000050EE15E1450F3CFEDF1F4CFEEF10101CC
:102A1000030EE46F74D00101E40571E1400E146E01
:102A2000156A0101E951145C000E155803E2400ECD
:102A3000DF6E02D0E9C1DFFFDF500101E95D010176
:102A4000E96F0101480EE76F050EE86F010EDFCF59
:102A5000DBFF0101EA511AE1010EDB5016E0E5C18E
:102A6000F6FFE6C1F7FF0800F550E7C1E9FFE8C14E
:102A7000EAFFEF6E0101E72B000EE8230101E52BD1
:102A8000000EE623010EDB06E7D718D0010EDB505F
:102A900015E0E5C1E9FFE6C1EAFFEF50E7C1E9FF54
:102AA000E8C1EAFFEF6E0101E72B000EE823010108
:102AB000E52B000EE623010EDB06E8D70101E95104
:102AC0000AE1400EDF5C04E10101020EE46F03D075
:102AD0000101030EE46FDFCFE6FF480EE66E050E40
:102AE000E66E010EE66E030EE66E0BEC0CF0146E55
:102AF000050EE15E1450F3CFEDF1F4CFEEF1020ECE
:102B0000E15C02E2E16AE552E16EE552E7CFD9FF0E
:102B100012000101E45114E10101580E9E6F010100
:102B2000300E9F6F0101310EA06F030EE66E9E0EF8
:102B3000E66E010EE66E2EEC14F0E552E552E5521B
:102B400094848B949E929D92520ECB6E050ECA6E0B
:102B5000290EBE6E1C0EBD6E0201056B02010A93AA
:102B600002010A9502010A970201046B0201026B3D
:102B70000201036B02010A910201FB0E006F0201C8
:102B80004B0E016F0201400E066FF2861200020129
:102B900003510FE1400EE66E000EE66E010EE66E8A
:102BA000C7EC13F0E552E552E5520201036F020152
:102BB0000B6B02010351000801E3C4D0020138513C
:102BC000020A01E19ED0030A01E17CD0010A01E082
:102BD000B9D0800E0201065D0AE002010B51EA6ADB
:102BE000000FE96E010EEA22EF50800B34E0020183
:102BF0000AB11ED0898002010A81F296CD6A0201D3
:102C00000A8702010B51EA6A000FE96E010EEA22FF
:102C1000EFCF09F202010A850201030702010B2B23
:102C200000C2CFFF01C2CEFF9E909D80CD8012D00A
:102C300002010AB50FD002010B51EA6A000FE96EDA
:102C4000010EEA22EFCF09F202010B2B02010A85E5
:102C50000201030736D002010B51EA6A000FE96E48
:102C6000010EEA22EF50030A23E0020A11E0030AF0
:102C70000FE0020A01E020D0BD6ACA94CD909D9079
:102C8000F29694848B9489909290010E8ED015D0F8
:102C900002010B51EA6A000FE96E010EEA22EFCF42
:102CA0000CF20201020E116F0201010E386F05D005
:102CB0000201800E066F01D000D00201030702015D
:102CC0000B2B40D002010B51EA6A000FE96E010E96
:102CD000EA22EF50E66E02011251EA6A0C0FE96E29
:102CE000020EEA22E552E750EF6E020103070201ED
:102CF0000B2B0201122B020111510201125D01E2A4
:102D000021D002010C51020A08E0030A01E017D0A9
:102D10000DC200F20EC201F212D0CA6A0DC2CBFF80
:102D200002010D417F0BBE6E02010DA103D02C0EDE
:102D3000BD6E02D00C0EBD6E050ECA6E00D0020133
:102D4000386B00D002010AA313D0400E0201025DCD
:102D50000EE202010251EA6A9E0FE96E010EEA22BA
:102D600008C2EFFF0201022B02010A9301D09280F8
:102D7000400E0201025D05E0020102010A51080B4A
:102D800012E00101E4510FE102C2E6FF9E0EE66E81
:102D9000010EE66E2EEC14F0E552E552E55202010A
:102DA000026B02010A97000E00D01200DACFE4FF96
:102DB000E2CFDAFFE652F250080B1BE0F250010BB3
:102DC00018E081B814D0F2968980CD6A00C2CFFF96
:102DD00001C2CEFF9E909D80CD800201400E076F04
:102DE0000201200E056F02010A930201046BF290AA
:102DF00060D09D50010B5DE09E50010B5AE0CD90DC
:102E000000C2CFFF01C2CEFFCD8002010AA125D0B2
:102E1000020105510BE1020102010A51040B06E017
:102E200009C207F202010A9506C205F20201055124
:102E30000CE0020107510201051502E1948401D062
:102E4000949402010591054307D09484899002016E
:102E50000A919D90CD90F2862BD081B804D00201CA
:102E600005510201071302010591054302010551B5
:102E70001FE10201075103E10201042B02D002010C
:102E8000046B050E0201045D05E1CD9089900201FD
:102E90000A87F28602010AB305D007C208F20201CE
:102EA0000A8301D092800201076B0201800E056F38
:102EB0009E90E552E5CFDAFF1100D9CFE6FFE1CFD2
:102EC000D9FF0001FF51020A5CE0030A48E0010A51
:102ED00001E05AD0FE0EDB50130A33E0020A30E064
:102EE000100A27E0030A0AE0020A01E02BD09D92B3
:102EF000CA94F2960001030EFE6F30D00101E45136
:102F000017E10101310E9E6F0101410E9F6F01011A
:102F10004C0EA06F0101530EA16F040EE66E9E0EC3
:102F2000E66E010EE66E2EEC14F0E552E552E55227
:102F300015D089800001010EFE6FF290F2860ED04E
:102F40000DD00CD0FE0EDBCF26F20201040E2B6F4B
:102F500002012C6B0001010EFF6F00D015D00201A1
:102F60002C51EA6A260FE96E020EEA22FE0EDBCF32
:102F7000EFFF02012C2B02012B5102012C5D01E21B
:102F800003D00001FF6B00D0E552E7CFD9FF12005C
:102F90000001FE51030A5DE0010A01E05FD001017A
:102FA000E45156E102012E6B02012D6B080E020165
:102FB0002D5D43E20201259F2547020125510EE1C7
:102FC0000201000ED8802355000E245507E20201AD
:102FD000010E256F02012307000E245B000E020183
:102FE0002325E96E010E02012421EA6EEF50020151
:102FF000251509E002012E51EA6A9E0FE96E010EC5
:10300000EA22EF6A09D002012E51EA6A9E0FE96EA8
:10301000010EEA22010EEF6E02012E2B02012107A2
:10302000000E225B02012151221104E10001030E76
:10303000FE6F03D002012D2BB9D72EC2E6FF9E0EE4
:10304000E66E010EE66E2EEC14F0E552E552E55206
:1030500005D00001FE6BFF0E03D000D0000E00D0A3
:103060001200DACFE4FFE2CFDAFFE9CFE4FFEACFE4
:10307000E4FFE652F250080B1DE0F250010B1AE09B
:1030800081B816D0F2968980960ECB6E090ECA6E64
:103090009E929D82CA840101800E006F020E020181
:1030A000216F226B0201236B246B0201200E256F1E
:1030B000F29047D09D50020B44E09E50020B41E03D
:1030C000100E811411E00201800E235D000E2459C0
:1030D0000BE2000E02012325E96E010E02012421FC
:1030E000EA6E02012551EF120201259125430201EA
:1030F000255116E10201800E256F0201232B000EDF
:1031000024230201800E235D000E245909E2000EE3
:1031100002012325E96E010E02012421EA6EEF6A05
:103120000201212B000E22230201215102E1040E93
:10313000221906E10001020EFE6FCA949D92899049
:103140009E92E552E5CFEAFFE5CFE9FFE5CFDAFF52
:1031500011000101E45114E10101550E9E6F0101BE
:10316000300E9F6F0101310EA06F030EE66E9E0EB2
:10317000E66E010EE66E2EEC14F0E552E552E552D5
:103180000001B66B0001B76B1200D9CFE6FFE1CFAB
:10319000D9FF040EE126D880000E05010055C20EAD
:1031A0000155010E0255000E035508E2010EE66EB0
:1031B000E66A9BEC0BF0E552E5523FD000C588F57E
:1031C00001C589F502C58AF503C58BF5186A1B0E82
:1031D000196EB70E1A6E1B6A18C006F019C007F0F8
:1031E0001AC008F01BC009F088C50BF089C50CF0A7
:1031F0008AC50DF08BC50EF025EC1DF006C014F04D
:1032000007C015F008C016F009C017F01406000E2C
:10321000155A000E165A000E175A14C0DFFF010E81
:1032200015C0DBFF020E16C0DBFF030E17C0DBFF6D
:10323000DF50AF6E010EDB50B06E040EE15C02E2B7
:10324000E16AE552E16EE552E7CFD9FF1200D9CF2E
:10325000E6FFE1CFD9FFC00E9412240EAC6EFE0E35
:10326000DB0402E1900E01D0000EAB6E080EB86ECA
:10327000200E9D6E0001C26B0001C36B0001CE6B7E
:103280000001CF6BE552E7CFD9FF1200AC6AAB6A01
:1032900012000001B651020A1CE0030A16E0010AFE
:1032A00001E055D0400EE66E000EE66E010EE66EB1
:1032B000C7EC13F0E552E552E552010EE66EC7DFAA
:1032C000E5520001010EB66F42D00001020EB66F4A
:1032D0003ED0010EE66E000EE66E010EE66EC7EC05
:1032E00013F0E552E552E55200090EE00001C2512B
:1032F000EA6AB80FE96E000EEA2200C1EFFF000192
:10330000C22B070E0001C2170001CF510001CE5D94
:103310001DE00101E4511AE189700001CF51EA6A10
:10332000C40FE96E000EEA22EFCF9EF1010EE66EA9
:103330009E0EE66E010EE66E2EEC14F0E552E5529E
:10334000E5520001CF2B070E0001CF1700D09E5091
:10335000100B13E00001C3510001C25D0EE000013B
:10336000C351EA6AB80FE96E000EEA22EF50AD6E63
:103370000001C32B070E0001C317060EAB1402E0B9
:10338000AB98AB88000E00D01200DACFE4FFE2CF9A
:10339000DAFFE9CFE4FFEACFE4FFE6529EAA0ED0BF
:1033A0000001CE51EA6AC40FE96E000EEA22AECFE8
:1033B000EFFF0001CE2B070E0001CE17E552E5CF3F
:1033C000EAFFE5CFE9FFE5CFDAFF11000201376B35
:1033D000BD6ACA6A9D929E92F290F2861200010125
:1033E000E45111E101014F0E9E6F01014B0E9F6FE1
:1033F000020EE66E9E0EE66E010EE66E2EEC14F0E8
:10340000E552E552E5521200040E0201375D4BE130
:103410000101E45148E101019E6B0101020EFF6FC1
:10342000070E0101FF5D10E201019E9F9E47010111
:10343000FF51EA6A000FE96E010EEA22EF50010126
:103440009E130101FF2BECD700C19FF10101070E74
:10345000FF6F0D0E0101FF5D10E201019F9F9F476D
:103460000101FF51EA6A000FE96E010EEA22EF50F6
:1034700001019F130101FF2BECD70101A06B01019A
:10348000A16B0101A26B0101A36B060EE66E9E0EFD
:10349000E66E010EE66E2EEC14F0E552E552E552B2
:1034A0000201376BF2861200DACFE4FFE2CFDAFFD7
:1034B000E9CFE4FFEACFE4FFE652F250080B17E051
:1034C000F250010B14E0020137510FE1100E81148C
:1034D0000CE1F2968980DD0ECB6E290ECA6E9E92AB
:1034E0009D82CA840201010E376FF29061D09D5017
:1034F000020B5EE09E50020B5BE002013751030AB3
:103500001EE0010A12E0030A01E051D0CA94DD0E68
:10351000CB6E590ECA6E0101FE6B0201020E376FAF
:103520009E929D82CA84899042D08150100B01E006
:10353000010E0101FC6F0201030E376F38D081507C
:10354000100B01E0010E0101FD6F0101FC050DE111
:103550000101FD510AE10101FE51EA6A000FE96E25
:10356000010EEA22010EEF6E14D00101FC510CE1B4
:103570000101FD0509E10101FE51EA6A000FE96E52
:10358000010EEA22EF6A05D00201376BCA94F28677
:103590000ED00201020E376F0101FE2B0D0E01014C
:1035A000FE5D04E10201040E376FCA9400D09E92C2
:1035B000E552E5CFEAFFE5CFE9FFE5CFDAFF1100FD
:1035C0009484BD6ACA6A9E929D92520ECB6E050E7D
:1035D000CA6E290EBE6E1C0EBD6E12000101E451B2
:1035E00014E10101450E9E6F0101300E9F6F010134
:1035F000310EA06F030EE66E9E0EE66E010EE66EB5
:103600002EEC14F0E552E552E552DADFF290F28644
:1036100002012F6B0201346B89901200D9CFE6FFB3
:10362000E1CFD9FF020EE126010EE66ED9CFE6FF0B
:10363000DACFE6FFC7EC13F0E552E552E552000998
:103640000AE0300EDF5C02E0DF5005E19484F29680
:103650008990010E41D00201880ED8803055130E9A
:10366000315534E2010EDB6A02013471010E0201B0
:10367000341702013451010A0CE0010A01E00DD0B7
:1036800002012F510A0803E2DE52010EDD6E94841E
:1036900004D0010EDB68949400D0010EDB040DE130
:1036A00089800101E45108E12C0EE66E3B0EE66EC6
:1036B0008CEC14F0E552E55204D0010EDB5001E130
:1036C000899002012F6B0201306B316B0201302BAC
:1036D000000E3123000E00D0146E020EE15C02E2F7
:1036E000E16AE552E16E1450E552E7CFD9FF1200CE
:1036F000DACFE4FFE2CFDAFFE652F250080B08E03F
:10370000F250010B05E002012F2B02012F9FF290D6
:10371000E552E5CFDAFF1100240EAC6E800EAB6EE1
:10372000080EB86EB06AAF6A1200D9CFE6FFE1CFDB
:10373000D9FFAC8AAC866A0EAD6EACB6FED7550E1C
:10374000AD6E9EB8FED702011F6B0201206BFE0E0C
:10375000DB50AD6E9EB8FED7E552E7CFD9FF120021
:10376000D9CFE6FFE1CFD9FFE652DF6AFC0EDB508E
:10377000DF5C12E2DF50E76EFD0EDBCFE9FFFE0EED
:10378000DBCFEAFFE750E926000EEA22EF50AD6EEC
:103790009EB8FED7DF2AEAD7E552E552E7CFD9FF38
:1037A0001200D9CFE6FFE1CFD9FFFE0EDB500201B8
:1037B000205D02E1010E01D0000E00D0E552E7CFFE
:1037C000D9FF1200DACFE4FFE2CFDAFFE9CFE4FF5E
:1037D000EACFE4FFE6529EAA11D002012051EA6A24
:1037E000130FE96E020EEA22AECFEFFF0201202B8B
:1037F000020120510A0802E20201206BE552E5CFE6
:10380000EAFFE5CFE9FFE5CFDAFF11001201000280
:1038100002000008D80408FD0001010200010902AD
:10382000430002010080320904000001020201008D
:1038300005240010010424020205240600010524C9
:103840000100010705820308000209040100020AC1
:103850000000000705030240000007058302400046
:1038600000040309043003440061006E0067006532
:103870000072006F0075007300500072006F0074DA
:10388000006F00740079007000650073002E006303
:10389000006F006D0028035500530042004900529C
:1038A0000074006F007900200028004300440043AA
:1038B000002D00320033003200290000001E386164
:1038C0003865389538002A0EF66E080EF76E000E31
:1038D000F86E00010900F550F96F0900F550FA6F14
:1038E00003E1F96701D03DD00900F550F46F0900FC
:1038F000F550F56F0900F550F66F09000900F55015
:10390000E96E0900F550EA6E090009000900F5505A
:10391000F76F0900F550F86F09000900F6CFFBF0CA
:10392000F7CFFCF0F8CFFDF0F4C0F6FFF5C0F7FFDD
:10393000F6C0F8FF0001F75302E1F85307E0090071
:10394000F550EE6EF707F8E2F807F9D7FBC0F6FF7F
:10395000FCC0F7FFFDC0F8FF0001F907000EFA5B9D
:10396000BFD712000001B4510FE11E0EE66E960E95
:10397000E66E000EE66EC7EC13F0E552E552E55236
:103980000001B46F0001B56B1200D9CFE6FFE1CFA3
:10399000D9FF0001B451000818E20001B551EA6AEC
:1039A000960FE96E000EEA22EF50E66EFD0EDBCFB9
:1039B000E9FFFE0EDBCFEAFFE552E750EF6E0001B4
:1039C000B4070001B52B010E02D0000E00D0E55265
:1039D000E7CFD9FF12000001B46B0001B56B1200F4
:1039E00002013551050A1AE0010A15E0040A10E047
:1039F000010A0BE0020A06E0010A01E012D0D6EF4C
:103A000016F00FD002EF10F00CD031EF18F009D003
:103A100054EF1AF006D078EF1BF003D0C5EF19F081
:103A200000D01200D8CFE4FFE0CFE4FFE46EDACF9D
:103A3000E4FFE2CFDAFFE652E552E5CFDAFFE550E8
:103A4000E5CFE0FFE5CFD8FF1000056A046A036AFE
:103A5000026A200EE76ED890063607360836093619
:103A600002360336043605360B50025C0C50035800
:103A70000D5004580E50055809E30B50025E0C50CF
:103A8000035A0D50045A0E50055A062AE72EE4D761
:103A9000120008C012F008500D02F4CF07F0F3CF67
:103AA00006F009500E02F4CF09F0F3CF08F00D0232
:103AB000F3500726F4500822E86A092212500E0239
:103AC000F3500726F4500822E86A0922000CFE0E83
:103AD000E3CFE9FFFF0EE3CFEAFFE9CFF3FFEACF41
:103AE000F4FFFB0EE35003E1FC0EE35009E0FB0E94
:103AF000E30602E2FC0EE306FD0EE350EE6EF1D7A4
:103B0000120013EE00F023EE00F0F86A019C63EC63
:103B10001CF09AEC1DF0D3EC10F0FBD7120000EE75
:103B200000F00F0EEE6AEA62FDD7120044455445DC
:103B3000435421001200FF000000000000000000BC
:103B4000FFFFFFFFFFFFFFFFFFFFFFFFFFFFFFFF85
:103B5000FFFFFFFFFFFFFFFFFFFFFFFFFFFFFFFF75
:103B6000FFFFFFFFFFFFFFFFFFFFFFFFFFFFFFFF65
:103B7000FFFFFFFFFFFFFFFFFFFFFFFFFFFFFFFF55
:020000040030CA
:0E000000240E3F1E008181000FC00FE00F4054
:020000040020DA
:08000000FFFFFFFFFFFFFFFF00
:00000001FF
