:020000040000FA
:1000000049EF14F01200FFFF04EF04F01200FFFFAD
:10001000FFFFFFFFFFFFFFFF0CEF04F01200FFFFE9
:10002000FFFFFFFFFFFFFFFFFFFFFFFFFFFFFFFFE0
:10003000FFFFFFFFFFFFFFFFFFFFFFFFFFFFFFFFD0
:10004000FFFFFFFFFFFFFFFFFFFFFFFFFFFFFFFFC0
:10005000FFFFFFFFFFFFFFFFFFFFFFFFFFFFFFFFB0
:1008000049EF14F01200FFFF42EF11F01200FFFF5A
:10081000FFFFFFFFFFFFFFFF2FEF11F01200FFFFB1
:10082000FFFFFFFFFFFFFFFFFFFF0200CC280000DC
:10083000FD000000010000009F270000FC000000F8
:1008400001000000D9CFE6FFE1CFD9FFE6526A6A86
:10085000686A160E6F6E9F0E6B6E7B0E696E6D8CE6
:100860006E6A020EE66EE66AE66A710EE66E0F0EBC
:10087000E66E1FEC14F0106E050EE15E10506D9CDC
:10088000DF6ADF50106E116A100E105C000E1158F6
:1008900010E2DF50040DF3CFE9FFF4CFEAFF000EC2
:1008A000E926040EEA22EE6AEE6AEE6AEE6ADF2AB2
:1008B000E8D7160E706E68A602D06896FCD70101C4
:1008C0001B6B206B216B226B6D98080E0F6F040E53
:1008D000106F016B006BE552E552E7CFD9FF1200B4
:1008E000D9CFE6FFE1CFD9FFE6520101005116E171
:1008F00006D06D6A696A0101006BA19AA7D06D6A82
:10090000696A160E6F6E9F0E6B6E7B0E696E6DB60A
:1009100002D06D86FCD70101010E006F000508E1D1
:100920006DBA06D0686A696A69806988020E006FCC
:100930006850040B05E06950040B02E06894B6D8D7
:100940006DA202D0A19A82D06850010B12E06950CA
:10095000010B0FE077DF0101040E006F0401400E70
:10096000026F040E036F080E016F006B8C0E0013F4
:1009700068906850100B05E06950100B02E084D8B5
:1009800068986850400B13E06950400B10E0010E6E
:10099000E66EE66A000EE66EE66A730EE66EE66ADC
:1009A000E4EC10F0106E060EE15E1050689C68508A
:1009B000200B04E06950200B01E04DD86850020B79
:1009C00012E06950020B0FE0010EE66EE66A000EBF
:1009D000E66EE66AE668E668E4EC10F0106E060E75
:1009E000E15E10506A6A040E0101E76E0019E8AE7C
:1009F00002D0E73402D0E750005D02E2A19A26D08F
:100A000069A623D0DF6A040EDF5C1FE268A61AD055
:100A10006CCF28F16896780E0101281502E15BD8A9
:100A200010D0000EE66EE66A280EE66E010EE66E47
:100A3000720EE66EE66AE4EC10F0106E060EE15EF1
:100A4000105001D002D0DF2ADED7A19AE552E5523C
:100A5000E7CFD9FF120070A015D003C1E9FF04C190
:100A6000EAFFEF5080080DE10FC1E9FF10C1EAFF76
:100A7000EF50840806E103C1E9FF04C1EAFF8C0ED0
:100A8000EF6E7090689A1200698468986D82000E0B
:100A9000E66EE66AE66EE66A750EE66EE66AE4EC17
:100AA00010F0106E060EE15E10501200000EE66EA1
:100AB000E66AE66EE66A740EE66EE66AE4EC10F04C
:100AC000106E060EE15E10506D92699468A402D01B
:100AD0006894FCD71200D9CFE6FFE1CFD9FFE652E8
:100AE000FD0E010128155AE17E0E2815E8407F0B06
:100AF000040DF3CF03F1F4CF04F1000E0327040E2D
:100B0000042303C105F104C106F1057503C1E9FF22
:100B100004C1EAFFEF503C0BE842E8420D083CE11B
:100B200003C1E9FF04C1EAFF020EE926000EEA2232
:100B3000EECF10F0EFCF11F0480E101802E1040EC6
:100B4000111828E103C1E9FF04C1EAFF020EE926FA
:100B5000000EEA22400EEE6E040EED6EDF6ADF50EC
:100B6000106E116A080E105C000E115813E2DF506F
:100B7000EA6A480FE96E040EEA22EF50E66EDF5093
:100B8000EA6A400FE96E040EEA22E552E750EF6E82
:100B9000DF2AE5D70DD801D02ED805D0FD0E2815B7
:100BA000040801E14ED8E552E552E7CFD9FF120023
:100BB0000FC1E9FF10C1EAFFEF50800B05E00FC144
:100BC000E9FF10C1EAFFEF6A0101176B186B1C6B9C
:100BD0001D6B1B6BB6D8000EE66EE66AE66EE66A23
:100BE000030EE66EE66AE4EC10F0106E060EE15EAF
:100BF00010504DEF08F0020E0101185D02E1ADDB6F
:100C00001FD06CD8010129511AE105C1E9FF06C1C5
:100C1000EAFFEE52080EEF6E05C1E9FF06C1EAFFDA
:100C2000020EE926000EEA22400EEE6E040EED6E74
:100C300005C1E9FF06C1EAFF8C0EEF6E01D0296BFA
:100C40001200D9CFE6FFE1CFD9FFE6520FC1E9FF8D
:100C500010C1EAFFEF50400B01E0010EDF6E010111
:100C60000F75080E005D0AE142C46EFF6E50000869
:100C700003E2100E006F02D0040E006F180528E189
:100C80000FC1E9FF10C1EAFF020EE926000EEA22B9
:100C9000480EEE6E040EED6ED5DA020E0101175D00
:100CA00007E10FC1E9FF10C1EAFF840EEF6E0FD01C
:100CB000DF5007E10FC1E9FF10C1EAFFC80EEF6E78
:100CC00006D00FC1E9FF10C1EAFF880EEF6E01D018
:100CD00005D8E552E552E7CFD9FF1200D9CFE6FF9C
:100CE000E1CFD9FF020EE1260101186B0FC1E9FF28
:100CF00010C1EAFFEF6A040E0F19106E10C111F057
:100D000010C0DEFF11C0DDFFDECFE9FFDDCFEAFF5F
:100D1000EF6A20AF0CD02351241107E005D024C185
:100D2000FAFF01012351F96EFADF0101209F020E43
:100D3000E15C02E2E16AE552E16EE552E7CFD9FFFC
:100D4000120004014051600BE842E842E842E842E8
:100D5000E842000901E058D041510C0A54E00B0A66
:100D600043E00C0A35E0010A26E00B0A22E0020A01
:100D700020E0030A1CE0080A10E0010A0CE00F0A58
:100D800008E0030A01E03FD001011B8F080E006F4D
:100D90003BD0C8D839D07FDB37D00101010E196FA5
:100DA000010E1A6F1B81010E1C6F1B8F2DD014D9E1
:100DB0002BD02BD829D044510101196F1A6B020E88
:100DC0001927010E1A231B81010E1C6F1B8F1CD0CB
:100DD00001011B8F04014451EA6A020FE96E010E02
:100DE000EA2242C4EFFF10D0000EE66EE66AE66E1D
:100DF000E66A020EE66EE66AE4EC10F0106E060E8D
:100E0000E15E105001D000D01200D9CFE6FFE1CF53
:100E1000D9FF040EE1260401420510E140511F0BE9
:100E200000090CE101011B8F030E0401415D04E187
:100E30000101010E276F02D00101276B040142510D
:100E400067E140511F0B020863E144510F0B000999
:100E50005FE001011B8F040144BF10D044510F0B10
:100E6000E96EEA6AD890E936EA36070EE926010EFD
:100E7000EA22EECFDEFFEDCFDDFF0FD044510F0BA6
:100E8000E96EEA6AD890E936EA360F0EE926010ED5
:100E9000EA22EECFDEFFEDCFDDFF030E415D07E17D
:100EA000DECFE9FFDDCFEAFF840EEF6E31D0445193
:100EB0000F0B116A700F106E0F0E1122020E10C070
:100EC000DBFF030E11C0DBFF020EDBCFE9FF030ED9
:100ED000DBCFEAFFEE90ED5244AF0DD0DECFE9FF5D
:100EE000DDCFEAFFEF6ADF74DECFE9FFDDCFEAFF97
:100EF000400EEF6E0DD0DECFE9FFDDCFEAFF880EAA
:100F0000EF6EDF74DECFE9FFDDCFEAFFC80EEF6ED4
:100F1000040EE15C02E2E16AE552E16EE552E7CFE0
:100F2000D9FF1200800E0401405D55E10101C00EA1
:100F30001B6F04014351030A2EE0010A0EE0030A6D
:100F400003E001011B6B47D00101E60E196F260E6D
:100F50001A6F120E1C6F1D6B3ED04251F66EF76A6F
:100F6000D890F636F736970EF626270EF7220900A8
:100F7000F5CF19F10A00F5CF1AF1020E0101F76A57
:100F80001925F66E1A51F7220900F5CF1CF10A0057
:100F9000F5CF1DF120D0030E425D1AE24251F66EEC
:100FA000F76AD890F636F736990EF626270EF7220E
:100FB0000900F5CF19F10A00F5CF1AF119C1F6FFB2
:100FC0001AC1F7FF0800F55001011C6F1D6B02D01C
:100FD00001011B6B00D01200D9CFE6FFE1CFD9FF92
:100FE000020EE1260401486B496B40511F0B020AB7
:100FF00012E0030A0DE0010A01E03BD001011B8F62
:10100000040148810101270502E10401488331D030
:1010100001011B8F2ED001011B8F040144BF10D092
:1010200044510F0BE96EEA6AD890E936EA36070EAA
:10103000E926010EEA22EECFDEFFEDCFDDFF0FD075
:1010400044510F0BE96EEA6AD890E936EA360F0E82
:10105000E926010EEA22EECFDEFFEDCFDDFFDECF87
:10106000E9FFDDCFEAFFEF50040B02E0010E486F0D
:1010700000D001011BAF07D0480E196F040E1A6F84
:101080001B81020E1C6F020EE15C02E2E16AE55276
:10109000E16EE552E7CFD9FF12006D9801011BBF49
:1010A0004AD020AF28D0020E186F0FC1E9FF10C13F
:1010B000EAFFEE52EF6A0FC1E9FF10C1EAFFC80E66
:1010C000EF6E05C1E9FF06C1EAFFEE52080EEF6EB2
:1010D00005C1E9FF06C1EAFF020EE926000EEA2279
:1010E000480EEE6E040EED6E05C1E9FF06C1EAFF83
:1010F000C80EEF6E1FD005C1E9FF06C1EAFFEE5230
:10110000080EEF6E05C1E9FF06C1EAFF020EE926EF
:10111000000EEA22400EEE6E040EED6E05C1E9FFF0
:1011200006C1EAFF8C0EEF6E0FC1E9FF10C1EAFFA6
:10113000840EEF6E86D020BF84D0040140AF59D01A
:1011400001011C510401465D01011D510401475973
:1011500004E246C41CF147C41DF174D80101010E1C
:10116000186F05C1E9FF06C1EAFFEE52080EEF6EE7
:1011700005C1E9FF06C1EAFF020EE926000EEA22D8
:10118000400EEE6E040EED6E05C1E9FF06C1EAFFEA
:10119000800EEF6E296B03C1E9FF04C1EAFFEE5236
:1011A000080EEF6E03C1E9FF04C1EAFF020EE92653
:1011B000000EEA22400EEE6E040EED6E03C1E9FF52
:1011C00004C1EAFF840EEF6E010E296F0FC1E9FF23
:1011D00010C1EAFF020EE926000EEA22480EEE6E6A
:1011E000040EED6E0FC1E9FF10C1EAFFC80EEF6EED
:1011F00028D00101020E186F0FC1E9FF10C1EAFFEC
:10120000EE52EF6A0FC1E9FF10C1EAFFC80EEF6EA0
:1012100005C1E9FF06C1EAFFEE52080EEF6E05C1F7
:10122000E9FF06C1EAFF020EE926000EEA22480E97
:10123000EE6E040EED6E05C1E9FF06C1EAFFC80EB1
:10124000EF6E1200D9CFE6FFE1CFD9FF020EE12603
:101250000101080E1C5D000E1D590EE21CC1DEFFCF
:101260001DC1DDFF175103E1010E176F04D01705F3
:1012700002E1020E176F03D0080EDE6EDD6A0FC1A9
:10128000E9FF10C1EAFFEF920FC1E9FF10C1EAFFC9
:10129000EF900FC1E9FF10C1EAFF010EDB50EF1222
:1012A0000FC1E9FF10C1EAFFEE52DFCFEFFF000EE2
:1012B000DB501C5F010EDB501D5B480E256F040EDA
:1012C000266F1BB121D0D9CFE9FFDACFEAFFEE506C
:1012D000ED1019E019C1F6FF1AC1F7FF192B000E26
:1012E0001A230800F550E66E25C1E9FF26C1EAFF82
:1012F000252B000E2623E552E750EF6EDF06010E88
:1013000001E2DB06E0D71FD0D9CFE9FFDACFEAFF51
:10131000EE50ED1018E019C1E9FF1AC1EAFF192BD0
:10132000000E1A23EF50E66E25C1E9FF26C1EAFF41
:10133000252B000E2623E552E750EF6EDF06010E47
:1013400001E2DB06E1D7020EE15C02E2E16AE5526E
:10135000E16EE552E7CFD9FF1200D9CFE6FFE1CF2A
:10136000D9FF020EE12603C1E9FF04C1EAFFEE52F4
:10137000EFCFDFFFDFCF10F010500101215D000E35
:10138000225903E221C1DFFF09D0DF50106E116A3C
:101390001050215D216F11502259226F010EDB6A1E
:1013A000DF50F36E010EDBCFF4FFF350F45C16E276
:1013B000010EDB50EA6A480FE96E040EEA22EF5094
:1013C000E66E1EC1E9FF1FC1EAFF1E2B000E1F23A0
:1013D000E552E750EF6E010EDB2AE2D7000ED8800F
:1013E0002155000E225528E205C1E9FF06C1EAFF9A
:1013F000EE52080EEF6E05C1E9FF06C1EAFF020ECC
:10140000E926000EEA22480EEE6E040EED6E03C1D0
:10141000E9FF04C1EAFFEF50400B07E105C1E9FF16
:1014200006C1EAFFC80EEF6E06D005C1E9FF06C18E
:10143000EAFF880EEF6E25D005C1E9FF06C1EAFF7D
:10144000EE52080EEF6E05C1E9FF06C1EAFF020E7B
:10145000E926000EEA22400EEE6E040EED6E05C186
:10146000E9FF06C1EAFF840EEF6E2351241107E065
:1014700005D024C1FAFF01012351F96EFADF010101
:10148000209F020EE15C02E2E16AE552E16EE55264
:10149000E7CFD9FF120001011B8F020EE66EE66A4C
:1014A000E66A710EE66E0F0EE66E1FEC14F0106E1B
:1014B000050EE15E1050010EE66EE66AE66A020E67
:1014C000E66E010EE66E1FEC14F0106E050EE15E86
:1014D000105042C401F10101015103E1100E006FEF
:1014E00012D0200E006F010EE66EE66A010EE66E67
:1014F000010EE66E010EE66EE66AE4EC10F0106E88
:10150000060EE15E10501200D9CFE6FFE1CFD9FF01
:10151000020EE126000EDE6E040EDD6EFD0EDB50C7
:10152000E824126EFE0EDB50040DF3501224040D5D
:10153000F350106E116A020E0F0B05E0D8901132B5
:101540001032E806FBE1D89010361136D8901036EC
:101550001136D9CFE9FFDACFEAFF1050EE2611504D
:10156000ED22DECFE9FFDDCFEAFFEF9EFD0EDB507F
:101570000FE1FE0EEA6ADB34FE0BEA36E96E070E77
:10158000E926010EEA22DECFEEFFDDCFEDFF0ED021
:10159000FE0EEA6ADB34FE0BEA36E96E0F0EE92630
:1015A000010EEA22DECFEEFFDDCFEDFFDECFE9FF59
:1015B000DDCFEAFFEF9CDECFE9FFDDCFEAFF040ECF
:1015C000E926000EEA22EF8C020EE15C02E2E16AFB
:1015D000E552E16EE552E7CFD9FF1200D9CFE6FF21
:1015E000E1CFD9FF020EE126FE0EDB50116A700F2B
:1015F000106E0F0E112210C0DEFF11C0DDFFDECF16
:10160000E9FFDDCFEAFFFD0EDBCFEFFFDBA407D064
:10161000E66AFE0EDBCFE6FF77DFE552E552FD0E10
:10162000DBA208D0010EE66EFE0EDBCFE6FF6CDF1C
:10163000E552E552020EE15C02E2E16AE552E16E3A
:10164000E552E7CFD9FF1200D9CFE6FFE1CFD9FFAE
:10165000020EE126FE0EDB5020E105C1E9FF06C1C6
:10166000EAFFEE52080EEF6E05C1E9FF06C1EAFF80
:10167000020EE926000EEA22400EEE6E040EED6E1A
:1016800005C1E9FF06C1EAFF8C0EEF6E0FC1E9FF4D
:1016900010C1EAFF840EEF6E3DD0FD0EDB50E82452
:1016A000126EFE0EDB50040DF3501224040DF3CF26
:1016B00010F0F4CF11F0000E1026040E112210C00D
:1016C000DEFF11C0DDFF840E106EDECFE9FFDDCF3F
:1016D000EAFF1050EF12FD0EDB50E824126EFE0EF2
:1016E000DB50040DF3501224010F040DF3CF10F062
:1016F000F4CF11F0000E1026040E112210C0DEFFF0
:1017000011C0DDFF840E106EDECFE9FFDDCFEAFFF2
:101710001050EF12020EE15C02E2E16AE552E16E66
:10172000E552E7CFD9FF1200D9CFE6FFE1CFD9FFCD
:10173000020EE126FD0EDB500FE0FE0EEA6ADB34FE
:10174000FE0BEA36E96E0F0EE926010EEA22EECF15
:10175000DEFFEDCFDDFF0ED0FE0EEA6ADB34FE0BBE
:10176000EA36E96E070EE926010EEA22EECFDEFF29
:10177000EDCFDDFFDECFE9FFDDCFEAFF020EE92688
:10178000000EEA22FB0EDBCFEEFFFC0EDBCFEDFFFF
:10179000DECFE9FFDDCFEAFFEE52FA0EDBCFEFFF3F
:1017A000400E106EDECFE9FFDDCFEAFF1050EF16DE
:1017B000880E106EDECFE9FFDDCFEAFF1050EF128A
:1017C000FD0EDB500CE0FE0EEA6ADB34FE0BEA365F
:1017D000E96E0F0EE926010EEA22EF740BD0FE0E21
:1017E000EA6ADB34FE0BEA36E96E070EE926010EE3
:1017F000EA22EF74DECF10F0DDCF11F010C0F3FF5E
:1018000011C0F4FF020EE15C03E200D0E16AE55290
:10181000E16EE552E7CFD9FF1200D9CFE6FFE1CF65
:10182000D9FF6DA84ED0FE0EEA6ADB34FE0BEA3615
:10183000E96E0F0EE926010EEA22EE50EFCFEAFF25
:10184000E96E400EEE16EE6AEE6AEE6AFE0EEA6A87
:10185000DB34FE0BEA36E96E0F0EE926010EEA22B2
:10186000EE50EFCFEAFFE96EEE7CFE0EEA6ADB3463
:10187000FE0BEA36E96E0F0EE926010EEA22EF743E
:10188000400E106EFE0EEA6ADB34FE0BEA36E96E9D
:101890000F0EE926010EEA22EE50EFCFEAFFE96EC5
:1018A0001050EF16FE0EEA6ADB34FE0BEA36E96EE4
:1018B0000F0EE926010EEA22EE50EFCFEAFFE96EA5
:1018C000EF7CE552E7CFD9FF1200F00E93168A168F
:1018D000C00E92168916FA0E94168B160F0EE66E2F
:1018E00079DAE552300EE66EE66A1BD8E552E5522B
:1018F000050EE66E6FDAE552300EE66EE66A11D836
:10190000E552E552A00EE66E39D8E552300EE66E8D
:10191000E66A07D8E552E552A00EE66E2FD8E552EA
:101920001200D9CFE6FFE1CFD9FF020EE126FE0E6D
:10193000DB0402E18B8001D08B90F00E8A16FD0E45
:10194000DB500F0B8A12F00E8916FD0EDB380F0BE1
:101950000F0B8912050EE66E11D8E5528988100E1C
:10196000E66E0CD8E5528998020EE15C02E2E16A6B
:10197000E552E16EE552E7CFD9FF1200D9CFE6FF7D
:10198000E1CFD9FFE652DF6AFE0EDB50DF5C12E2E8
:101990000000000000000000000000000000000047
:1019A0000000000000000000000000000000000037
:1019B000DF2AEAD7E552E552E7CFD9FF1200D9CFA7
:1019C000E6FFE1CFD9FFE652FE0EDB5022E0DF6AF0
:1019D000DF50106E116AD890115004E6FF0E105CB3
:1019E000000E115814E28B84DFCFE6FFC7DFE5520B
:1019F0008B94DF50106E116AFF0ED8801056000EC7
:101A000011561050E66EBADFE552DF2AE1D78B841B
:101A100001D08B94E552E552E7CFD9FF1200380E82
:101A2000E66EE66A7EDFE552E5520F0EE66ED2D92B
:101A3000E552080EE66EE66A74DFE552E5520F0ED7
:101A4000E66EC8D9E552010EE66EE66A6ADFE55237
:101A5000E5520F0EE66EBED9E5520C0EE66EE66A52
:101A600060DFE552E5520F0EE66EB4D9E552000193
:101A7000FB91FB931200D9CFE6FFE1CFD9FFFE0E19
:101A8000DBCFE7FFE738E842F80BE76EFE0EE7CF63
:101A9000DBFFDB50400FE66EE66A43DFE552E552BE
:101AA0002E0EE66E6BDFE552E552E7CFD9FF12004E
:101AB000D9CFE6FFE1CFD9FFFE0EDBCFE6FF010E67
:101AC000E66E2FDFE552E5522E0EE66E57DFE55249
:101AD000E552E7CFD9FF1200D9CFE6FFE1CFD9FF1A
:101AE000FE0EDB500001FB93E8B0FB830C0EF36E9F
:101AF000FE0EF3CFDBFFFBA10AD0020E106EFE0E2E
:101B0000DBCFE7FF1050E726FE0EE7CFDBFFFBB38E
:101B1000DB2AFE0EDBCFE6FFE66A03DFE552E55285
:101B2000280EE66E2BDFE552E552E7CFD9FF120013
:101B3000D9CFE6FFE1CFD9FFFE0EDB500001FB91CC
:101B4000E8B0FB810C0EF36EFE0EF3CFDBFFFBA1C2
:101B50000AD0020E106EFE0EDBCFE7FF1050E72614
:101B6000FE0EE7CFDBFFFBB3DB2AFE0EDBCFE6FF8B
:101B7000E66AD7DEE552E552280EE66EFFDEE55254
:101B8000E552E7CFD9FF1200010EE66EE66AC9DE24
:101B9000E552E5520001010EFD6F0F0EE66E1AD9F7
:101BA000E5521200020EE66EE66ABBDEE552E55231
:101BB0000001010EFD6F020EE66E0CD9E552120017
:101BC000D9CFE6FFE1CFD9FFFE0EDBCFFDF0010E4E
:101BD000F36EFE0EDBCFF4FFF350F45C07E3FE0E72
:101BE000DB50140803E3FE0EDB0640D0150EF36E47
:101BF000FE0EDBCFF4FFF350F45C0FE3FE0EDB5080
:101C000028080BE32B0E106EFE0EDBCFE7FF105003
:101C1000E726FE0EE7CFDBFF29D0290EF36EFE0E7E
:101C2000DBCFF4FFF350F45C0FE3FE0EDB503C0817
:101C30000BE3150E106EFE0EDBCFE7FF1050E75ED4
:101C4000FE0EE7CFDBFF12D03D0EF36EFE0EDBCFB4
:101C5000F4FFF350F45C0AE3170E106EFE0EDBCFB8
:101C6000E7FF1050E726FE0EE7CFDBFFFE0EDB504E
:101C70008009E66EE66A55DEE552E552E552E7CFA9
:101C8000D9FF1200D9CFE6FFE1CFD9FFFE0EDBCF9F
:101C9000E6FF010EE66E45DEE552E5520001FD2B42
:101CA000150EFD5D06E0290EFD5D03E03D0EFD5DB8
:101CB00005E1FDC0E6FF84DFE55208D0510EFD5D71
:101CC00005E1FD6BFDC0E6FF7BDFE552E552E7CFA6
:101CD000D9FF1200D9CFE6FFE1CFD9FFE652FD0EC2
:101CE000DBCFE9FFDB2AFE0EDBCFEAFF01E3DB2AD5
:101CF000EFCFDFFFDF5008E0DFCFE6FF010EE66E3B
:101D000010DEE552E552EBD7E552E552E7CFD9FFB9
:101D10001200D9CFE6FFE1CFD9FF040EE126030E72
:101D2000DB6A640EDF6E010EDB6A020EF36E010EDB
:101D3000DBCFF4FFF350F45C3AE2FE0EDBCF10F0A1
:101D400010C007F0DFCF0CF057EC14F0020E07C004
:101D5000DBFF030EDB5003E1020EDB501BE0020E43
:101D6000DB50300FE66E010EE66EDBDDE552E5522C
:101D7000FE0EDBCFE6FF020EDB50DF02F350E55232
:101D8000E75CE76EFE0EE7CFDBFF010EF36E030E9E
:101D9000F3CFDBFF0A0E106E10C00CF0DFCF07F0A0
:101DA00057EC14F007C0DFFF010EDB2ABED7FE0E92
:101DB000DB50300FE66E010EE66EB3DDE552E55204
:101DC000040EE15C02E2E16AE552E16EE552E7CF22
:101DD000D9FF1200D9CFE6FFE1CFD9FF030EE126EC
:101DE000020EDB6AFE0EDB50F36E020EDBCFF4FF59
:101DF000F350F45C17E2DE6ADD6ADECF10F0DDCF6F
:101E000011F0040E105C000E115809E2FA0EE66E95
:101E1000B5DDE552DF2A010E01E3DB2AEED7020E23
:101E2000DB2AE0D7030EE15C02E2E16AE552E16EF3
:101E3000E552E7CFD9FF1200D9CFE6FFE1CFD9FFB6
:101E40000B0EE12666D9B3D90A0EE66EEAEC0EF067
:101E5000E55265EC0CF00FEC0DF022EC04F070ECA8
:101E600004F0200E0101E76E0019E8AE02D0E7345D
:101E700002D0E750005D03E36D50020B01E0EFD7A5
:101E800061D9DAD8E76E010EE7CFDBFFDB50106EC9
:101E9000116AFE0E101801E1115007E0010EDBCFB0
:101EA000E6FF42EC0EF0E55279D0C6D84E0A64E067
:101EB000D60A5CE0CC0A55E0070A4DE0180A46E075
:101EC000010A3EE00D0A1FE00F0A1AE0100A15E0B1
:101ED0001E0A0EE0040A01E061D0AED8E76E020EE1
:101EE000E7CFDBFF010EE66EDFEC0CF0E55256D0DB
:101EF000E66ADFEC0CF0E55251D0C4EC0DF04ED0A8
:101F0000D2EC0DF04BD098D8E76E020EE7CFDBFF96
:101F100093D8E76E030EE7CFDBFF020EDBCFE6FFC1
:101F2000030EDB04140DF350E552E724E76E010EB7
:101F3000E7CFDBFFDBCFE6FFE0EC0DF0E5522ED084
:101F4000010EE66E98EC0DF0E55228D0E66A98ECAA
:101F50000DF0E55223D0010EE66E6CEC0DF0E5526B
:101F60001DD0E66A6CEC0DF0E55218D065D8E76E2E
:101F7000020EE7CFDBFF12D05FD8E66E3BEC0DF030
:101F8000E552010EDF6E090EDF5C07E255D8E66E02
:101F900058EC0DF0E552DF2AF6D700D0CDEC12F068
:101FA0005ED70B0EE15C02E2E16AE552E16EE552BA
:101FB000E7CFD9FF1200D9CFE6FFE1CFD9FF020E5C
:101FC000E1260001E3510EE1FE0EDB50DF6E010E53
:101FD000E66ED9CFE6FFDACFE6FF31EC12F0E5523C
:101FE000E552E552020EE15C02E2E16AE552E16E81
:101FF000E552E7CFD9FF1200D9CFE6FFE1CFD9FFF5
:10200000020EE1260001E3510DE1310EDF6E010EFB
:10201000E66ED9CFE6FFDACFE6FF31EC12F0E552FB
:10202000E552E552020EE15C02E2E16AE552E16E40
:10203000E552E7CFD9FF1200D9CFE6FFE1CFD9FFB4
:10204000E652D9CFE6FFDACFE6FF8ED8E552E55269
:10205000000902E0DF5021D070EC04F0200E0101F5
:10206000E76E0019E8AE02D0E73402D0E750005D19
:1020700003E36D50020B02E0000E0FD063D8D9CFFE
:10208000E6FFDACFE6FF70D8E552E552000902E03C
:10209000DF5003D0CDEC12F0DFD7E552E552E7CFA9
:1020A000D9FF1200D9CFE6FFE1CFD9FFE652D9CF51
:1020B000E6FFDACFE6FF58D8E552E552000902E024
:1020C000010E22D070EC04F0200E0101E76E001921
:1020D000E8AE02D0E73402D0E750005D03E36D5074
:1020E000020B02E0010E10D02DD8D9CFE6FFDACFD7
:1020F000E6FF3AD8E552E552000902E0010E04D0AD
:10210000CDEC12F0000E00D0E552E552E7CFD9FF3A
:102110001200D9CFE6FFE1CFD9FF020EE126DE6A39
:10212000080EDD6E0F0EC112B56A9268936894684E
:10213000020EE15C02E2E16AE552E16EE552E7CFB0
:10214000D9FF12000001A0510EE1400EE66E600EB4
:10215000E66E000EE66ED0EC11F0E552E552E55267
:102160000001A06FA16B1200D9CFE6FFE1CFD9FF2C
:102170000001A051000815E2A151EA6A600FE96E62
:10218000000EEA22EF50E66EFD0EDBCFE9FFFE0EF9
:10219000DBCFEAFFE552E750EF6EA007A12B010E5F
:1021A00002D0000E00D0E552E7CFD9FF12000001A7
:1021B000A06BA16B120012001200120012004BEF74
:1021C00011F012009CEF11F0D9CFE6FFE1CFD9FF5B
:1021D000FD0EDBCF06F0FE0EDBCF07F0720E061809
:1021E00001E1075033E0E868061802E1E8680718E3
:1021F0002BE0740E061801E1075024E0750E061856
:1022000001E107501DE0730E061801E1075016E0CA
:10221000030E061801E107500FE0020E061801E157
:10222000075008E0010E061801E1075001E010D048
:10223000C9DF0FD0C6DF0DD0C2DF0BD0BEDF09D0A3
:10224000BADF07D0B9DF05D0B9DF03D0000001D075
:1022500000D0010E00D0E552E7CFD9FF1200D8CF51
:10226000E4FFE0CFE4FFE46EDACFE4FFE2CFDAFF91
:10227000E652E552E5CFDAFFE550E5CFE0FFE5CFE6
:10228000D8FF1000DACFE4FFE2CFDAFFE652E552E2
:10229000E5CFDAFF1100040140511F0B010801E0F6
:1022A0004AD04051600BE842E842E842E842E84246
:1022B000010801E040D0445103E0440501E03BD077
:1022C0004151220A33E0030A26E0010A17E0210AFD
:1022D0000EE0010A01E02FD00101F30E196F000E8C
:1022E0001A6F080E1C6F1D6B1B811B8F24D0010100
:1022F000F30E196F000E1A6F1B8F1DD046C421F10B
:1023000047C422F10101880E1E6F050E1F6F236B5B
:10231000246B208F10D00101880E196F050E1A6FE3
:10232000070E1C6F1D6BC10E1B6F05D042C4EEF073
:1023300001011B8F00D012000501886B4B0E896FC5
:102340008A6B8B6B8C6B8D6B080E8E6F0001E36B51
:10235000E26B1A0EE66E020EE66EEEEC0AF0E55245
:10236000E5521E0EE66E030EE66EEEEC0AF0E55246
:10237000E552400EE66E080EE66E050EE66EE66A63
:10238000030EE66E94EC0BF0106E050EE15E10503D
:10239000F3CFEAF0F4CFEBF00001EC6BED6B120041
:1023A000D9CFE6FFE1CFD9FF0001E26BEA51EB1193
:1023B00002E1000E08D0EAC0E9FFEBC0EAFFEF50EF
:1023C000800B01E0010E000945E1FC0EDBCF10F0AF
:1023D000EAC0E9FFEBC0EAFFEE52EF50D88010549C
:1023E00008E2EAC0E9FFEBC0EAFFEE52FC0EEFCFD5
:1023F000DBFFE26BFC0EDB50E25D19E2E251EA6AC0
:10240000080FE96E050EEA22EF50E66EE251E76E24
:10241000FD0EDBCFE9FFFE0EDBCFEAFFE750E9263A
:10242000000EEA22E552E750EF6EE22BE3D7400EB2
:10243000E66E080EE66E050EE66EE66A030EE66EC2
:1024400094EC0BF0106E050EE15E1050F3CFEAF045
:10245000F4CFEBF00001E25100D0E552E7CFD9FF15
:102460001200D9CFE6FFE1CFD9FF0001E3510CE123
:10247000FD0EDBCFE4F0FE0EDBCFE5F0FC0EDBCF94
:10248000E8F0010EE96FE36FE552E7CFD9FF1200E4
:10249000D9CFE6FFE1CFD9FF030EE1260001E351DA
:1024A00001E02ED0DF6AFD0EDBCF06F0FE0EDBCFA3
:1024B00007F0DE5206C0DEFF07C0DDFFDD52DF2A77
:1024C000DF50106E116AFF0E101801E1115001E18A
:1024D0000BD0010EDBCFE9FFDB2A020EDBCFEAFFD8
:1024E00001E3DB2AEF50EBE1FD0EDBCFE4F0FE0E63
:1024F000DBCFE5F0DFCFE8F00001010EE96FE36F1D
:10250000030EE15C02E2E16AE552E16EE552E7CFDB
:10251000D9FF1200D9CFE6FFE1CFD9FF030EE126A4
:102520000001E35101E02FD0DF6AFD0EDBCF06F0A2
:10253000FE0EDBCF07F0DE5206C0DEFF07C0DDFF78
:10254000DD52DF2ADF50106E116AFF0E101801E114
:10255000115001E10CD0010EDBCFF6FFDB2A020E99
:10256000DBCFF7FF01E3DB2A0800F550EAE1FD0EBF
:10257000DBCFE4F0FE0EDBCFE5F0DFCFE8F00001CB
:10258000E96B010EE36F030EE15C02E2E16AE552E2
:10259000E16EE552E7CFD9FF1200D9CFE6FFE1CFD8
:1025A000D9FF020EE1260001EC51ED1102E1000E0F
:1025B00008D0ECC0E9FFEDC0EAFFEF50800B01E06E
:1025C000010E000901E085D0030EE35D01E1E36B3C
:1025D000E35101E17ED0020EE35D16E1E66A000EF2
:1025E000E66EE66A010EE66E030EE66E94EC0BF004
:1025F000106E050EE15E1050F3CFECF0F4CFEDF06D
:102600000001030EE36F65D0E30563E1400E106E39
:10261000116AE851105C000E115803E2400EDF6EA3
:1026200002D0E8C0DFFFDF50E85DE86F480EE66FDC
:10263000050EE76F010EDFCFDBFFE95117E1010E59
:10264000DB5013E0E4C0F6FFE5C0F7FF0800F550EB
:10265000E6C0E9FFE7C0EAFFEF6EE62B000EE723D6
:10266000E42BE523010EDB06EAD715D0010EDB5083
:1026700012E0E4C0E9FFE5C0EAFFEF50E6C0E9FF81
:10268000E7C0EAFFEF6EE62B000EE723E42BE5231D
:10269000010EDB06EBD7E85108E1400EDF5C03E1F9
:1026A000020EE36F02D0030EE36FDFCFE6FF480EAA
:1026B000E66E050EE66E010EE66E030EE66E94EC17
:1026C0000BF0106E050EE15E1050F3CFECF0F4CF7E
:1026D000EDF0020EE15C02E2E16AE552E16EE552E4
:1026E000E7CFD9FF12001201000202000008D8044F
:1026F00097FA000101020001090243000201008073
:102700006409040000010202010005240010010414
:1027100024020205240600010524010001070582A8
:102720000308000209040100020A00000007050373
:102730000240000007058302400000040309043042
:1027400003440061006E006700650072006F007551
:10275000007300500072006F0074006F0074007905
:10276000007000650073002E0063006F006D00288C
:1027700003480044003400340037003800300020A3
:10278000004C004300440020004300440043002D5F
:1027900000320033003200F8263B273F276F270026
:1027A0002A0EF66E080EF76E000EF86E0101090093
:1027B000F5503B6F0900F5503C6F03E13B6701D0DA
:1027C0003DD00900F550366F0900F550376F09000C
:1027D000F550386F09000900F550E96E0900F55011
:1027E000EA6E090009000900F550396F0900F5503B
:1027F0003A6F09000900F6CF3DF1F7CF3EF1F8CF6F
:102800003FF136C1F6FF37C1F7FF38C1F8FF0101CC
:10281000395302E13A5307E00900F550EE6E3907EB
:10282000F8E23A07F9D73DC1F6FF3EC1F7FF3FC1D5
:10283000F8FF01013B07000E3C5BBFD71200FE0E04
:10284000E3CFE9FFFF0EE3CFEAFFE9CFF3FFEACFE3
:10285000F4FFFB0EE35003E1FC0EE35009E0FB0E36
:10286000E30602E2FC0EE306FD0EE350EE6EF1D746
:102870001200000EF36E00EE00F0040E01D81200FC
:10288000EA6002D0EE6AFCD7F350E9601200EE6A0B
:10289000FCD713EE00F023EE00F0F86A0F9CD0ECAA
:1028A00013F065EC14F01CEC0FF0FBD71200036A78
:1028B000080EE76ED890073603360C50035C02E32F
:1028C000036E072AE72EF7D71200120001FFFFFF61
:1028D000FFFFFFFFFFFFFFFFFFFFFFFFFFFFFFFF08
:1028E000FFFFFFFFFFFFFFFFFFFFFFFFFFFFFFFFF8
:1028F000FFFFFFFFFFFFFFFFFFFFFFFFFFFFFFFFE8
:10290000FFFFFFFFFFFFFFFFFFFFFFFFFFFFFFFFD7
:0200000400F00A
:020000040030CA
:0E000000240E3F1E008181000FC00FE00F4054
:020000040020DA
:08000000FFFFFFFFFFFFFFFF00
:00000001FF
