:020000040000FA
:06000000D4EF13F0120022
:06082A000100C6270000DA
:08083000CB00000006000000EF
:08083800D9CFE6FFE1CFD9FFA3
:10084000020EE126FC0EDBCF60F0FD0EDBCF61F087
:10085000FE0EDBCF62F0F90EDBCF63F0FA0EDBCFDA
:1008600064F0FB0EDBCF65F0F60EDBCF66F0F70E23
:10087000DBCF67F0F80EDBCF68F0F40EDBCF69F06A
:10088000F50EDBCF6AF06E6A6D8C6D9CA09A696A7A
:100890006A6A686A140E6F6E00016B6B6C6B6D6B2D
:1008A0006E6B6F6B706BDE6ADD6ADECF10F0DDCFD2
:1008B00011F0D890115004E6100E105C000E115883
:1008C00029E2DECFE9FFDDCFEAFFD890E936EA364C
:1008D000D890E936EA36710EE926000EEA22020EB9
:1008E000E926000EEA22EE6AED6ADECFE9FFDDCFEF
:1008F000EAFFD890E936EA36D890E936EA36710E42
:10090000E926000EEA22EE6AED6ADF2A010E01E313
:10091000DB2ACBD7000EE66EE66AE66EE66A0CECE2
:100920000CF0E552E552E552E552000EE66EE66A3D
:10093000E66EE66A2AEC0CF0E552E552E552E55225
:10094000160E706E0001B16BB26BB56BB36BB46B0E
:10095000B66B0401080E016F800E026F040E036F68
:10096000880E006F056B880E066F040E076F400E31
:10097000046F020EE15C02E2E16AE552E16EE552CB
:10098000E7CFD9FF12006D860001010EB56F6DBA79
:10099000FED70001040EB56F1200CFEF04F068A27D
:1009A00003D022D868921FD068A003D01FD86890C7
:1009B0001AD068A407D06D9268A402D06894FCD7BE
:1009C000689411D068A802D068980DD068AA02D0A7
:1009D000689A09D068AC02D0689C05D068A603D09C
:1009E00069D86896FBD712006A6A1200D9CFE6FF71
:1009F000E1CFD9FF020EE1260001B16BB26B689620
:100A0000B36BB46B040EB56FB66B68B6F8D7706A8B
:100A1000716A726A736A746A756A766A776A786AE2
:100A2000796A7A6A7B6A7C6A7D6A7E6A7F6A6E6AA4
:100A3000686A6A6ADE6ADD6ADECF10F0DDCF11F027
:100A4000D890115004E6060E105C000E115814E206
:100A5000DECFE9FFDDCFEAFFD890E936EA36D8905D
:100A6000E936EA36000EE926040EEA22EF6A040EA1
:100A7000DE26000EDD22E0D7160E706E0401080E91
:100A8000016F800E026F040E036F880E006F056BFE
:100A9000880E066F040E076F400E046F6B686D982A
:100AA000020EE15C02E2E16AE552E16EE552E7CF57
:100AB000D9FF12006CCFB7F00001B751FC0BE84230
:100AC000E842040DF3CFB8F0F4CFB9F0000EB82728
:100AD000040EB923040EB711FC0BE842E842040DE2
:100AE000F3CFBAF0F4CFBBF0000EBA27040EBB234D
:100AF000B8C0E9FFB9C0EAFFEF503C0B240A0AE096
:100B0000200A05E0300A01E008D008D806D0ADEC94
:100B10000BF003D080EC0BF000D01200BAC0E9FF5C
:100B2000BBC0EAFF080EEF6E6D98B8C0E9FFB9C010
:100B3000EAFF020EE926000EEA22EE50EFCFEAFFAE
:100B4000E96EEF50600B400A42E0600A34E0200A90
:100B500001E049D0B8C0E9FFB9C0EAFF020EE926BA
:100B6000000EEA22EE50EFCFEAFFE96EEF50030BE2
:100B7000020A15E0030A0BE0010A01E019D0B8C02F
:100B8000E6FFB9C0E6FF7DD8E552E55213D0B8C004
:100B9000E6FFB9C0E6FF9BDBE552E5520BD0B8C0DB
:100BA000E6FFB9C0E6FF18EC0AF0E552E55202D0C4
:100BB000B2EC0CF01AD000016D516E1107E005D0B7
:100BC0006EC0FAFF00016D51F96EFADF0ED0000120
:100BD0006F51701107E005D06EC0FAFF00016D5132
:100BE000F96EFADF02D0B2EC0CF0B8C0E9FFB9C080
:100BF000EAFFEE52080EEF6EB8C0E9FFB9C0EAFF97
:100C0000020EE926000EEA22EE50EFCFEAFFE96E6F
:100C1000EF50800B24E1B8C0E9FFB9C0EAFF020E33
:100C2000E926000EEA22EE50EFCFEAFFE96E060E4B
:100C3000E926000EEA22EF5014E1B8C0E9FFB9C07E
:100C4000EAFF020EE926000EEA22EE50EFCFEAFF9D
:100C5000E96E070EE926000EEA22EF5002E1000ECF
:100C600001D0010E000902E0C80E01D0880EE66E28
:100C7000B8C0E9FFB9C0EAFFE552E750EF6E6D98E2
:100C80001200D9CFE6FFE1CFD9FF040EE126FD0E19
:100C9000DBCFE9FFFE0EDBCFEAFF020EE926000EF6
:100CA000EA22EECFDEFFEDCFDDFFDECFE9FFDDCFC5
:100CB000EAFF010EE926000EEA22EF50070A01E1E1
:100CC000FBD20E0A01E1C6D2010A01E1A8D20E0A46
:100CD00001E1B6D0030A76E0060A57E0020A38E0DE
:100CE000010A01E0E9D20001B151E66EBAC0E9FFA4
:100CF000BBC0EAFF020EE926000EEA22EE50EFCF5B
:100D0000EAFFE96EE552E750EF6EB2C010F0116AEB
:100D1000BAC0E9FFBBC0EAFF020EE926000EEA22D4
:100D2000EE50EFCFEAFFE96E010EE926000EEA224F
:100D300010C0EFFF020EE66EE66ABAC0E6FFBBC067
:100D4000E6FF8EEC0CF0E552E552E552E552B5D2E5
:100D5000DECFE9FFDDCFEAFF020EE926000EEA2230
:100D6000EF0410E10001B193000EE66EE66ABAC02E
:100D7000E6FFBBC0E6FF8EEC0CF0E552E552E55213
:100D8000E55202D0B2EC0CF098D2DECFE9FFDDCF15
:100D9000EAFF020EE926000EEA22EF0410E100014C
:100DA000B183000EE66EE66ABAC0E6FFBBC0E6FF9E
:100DB0008EEC0CF0E552E552E552E55202D0B2EC71
:100DC0000CF07BD2DECFE9FFDDCFEAFF030EE92690
:100DD000000EEA22EF5031E17F0E106EDECFE9FF08
:100DE000DDCFEAFF020EE926000EEA22EF50105C8A
:100DF00024E3DECFE9FFDDCFEAFF020EE926000E95
:100E0000EA22EFCFB6F0E66EE66ABAC0E6FFBBC0F4
:100E1000E6FF8EEC0CF0E552E552E552E552720E1B
:100E2000E66E190EE66E000EE66EE66A0CEC0CF04D
:100E3000E552E552E552E55202D0B2EC0CF03DD25B
:100E4000DECFE9FFDDCFEAFF030EE926000EEA223E
:100E5000EF50040A01E1D4D1010A01E1D1D1060A1F
:100E600001E141D1010A3EE0030A01E0C9D160C0BD
:100E7000BCF061C0BDF062C0BEF060C0F6FF61C0F2
:100E8000F7FF62C0F8FF0800F5500001BF6FC06BAC
:100E9000DECFE9FFDDCFEAFF070EE926000EEA22EA
:100EA000EF501FE1DECFE9FFDDCFEAFF060EE926B6
:100EB000000EEA22EFCF10F0BCC0F6FFBDC0F7FF76
:100EC000BEC0F8FF0800F550105C0BE2DECFE9FF72
:100ED000DDCFEAFF060EE926000EEA22EF50BF6FD3
:100EE000C06B8FD1DECFE9FFDDCFEAFF020EE9262E
:100EF000000EEA22EFCF10F060C0F6FF61C0F7FFEE
:100F000062C0F8FF110EF626000EF722F822080044
:100F1000F550105C02E3B2EC0CF063C0BCF064C0AE
:100F2000BDF065C0BEF0BCC0F6FFBDC0F7FFBEC0DF
:100F3000F8FF030EF626000EF722F8220800F550FF
:100F4000106E116A10C011F0106ABCC0F6FFBDC06F
:100F5000F7FFBEC0F8FF020EF626000EF722F822B9
:100F60000800F55000011024BF6F000E1120C06F63
:100F7000020EDB6A030EDB6A020EDBCF10F0030EFB
:100F8000DBCF11F0DECFE9FFDDCFEAFF020EE9266D
:100F9000000EEA22EF50000111AE02D0D89003D02B
:100FA000105C000E115836E2BFC010F0C0C011F046
:100FB000126A10500001BC271150BD231250BE23ED
:100FC000BCC0F6FFBDC0F7FFBEC0F8FF030EF6269B
:100FD000000EF722F8220800F550106E116A10C0BA
:100FE00011F0106ABCC0F6FFBDC0F7FFBEC0F8FF2D
:100FF000020EF626000EF722F8220800F550102403
:10100000BF6F000E1120C06F020EDB2A030E01E33A
:10101000DB2AB2D7DECFE9FFDDCFEAFF070EE926F4
:10102000000EEA22EFCF10F0BCC0F6FFBDC0F7FF04
:10103000BEC0F8FF030EF626000EF722F8220800C5
:10104000F550105C32E3DECFE9FFDDCFEAFF070E9B
:10105000E926000EEA22EFCF11F0BCC0F6FFBDC0BA
:10106000F7FFBEC0F8FF030EF626000EF722F822A7
:101070000800F550115C36E1DECFE9FFDDCFEAFF75
:10108000060EE926000EEA22EFCF12F0BCC0F6FFF2
:10109000BDC0F7FFBEC0F8FF020EF626000EF72215
:1010A000F8220800F550125C1DE2DECFE9FFDDCF2B
:1010B000EAFF070EE926000EEA22EF50106E116AD1
:1010C00010C011F0106ADECFE9FFDDCFEAFF060E97
:1010D000E926000EEA22EF5000011024BF6F000E37
:1010E0001120C06F8ED0DECFE9FFDDCFEAFF020E08
:1010F000E926000EEA22EF50106E116A000111502D
:101100006A19E8AE02D06A3504D06951105C6A51A0
:10111000115802E3B2EC0CF066C0BCF067C0BDF041
:1011200068C0BEF0BCC0F6FFBDC0F7FFBEC0F8FF90
:101130000800F5500001BF6FC06B020EDB6A030EA2
:10114000DB6A020EDBCF10F0030EDBCF11F0DECF37
:10115000E9FFDDCFEAFF020EE926000EEA22EF509A
:10116000000111AE02D0D89003D0105C000E1158CF
:101170001CE2BFC010F0C0C011F0126A1050000194
:10118000BC271150BD231250BE23BCC0F6FFBDC00A
:10119000F7FFBEC0F8FF0800F550BF6FC06B020E2E
:1011A000DB2A030E01E3DB2ACCD7DECFE9FFDDCF5C
:1011B000EAFF070EE926000EEA22EF5020E1DECF1B
:1011C000E9FFDDCFEAFF060EE926000EEA22EFCFA7
:1011D00010F0BCC0F6FFBDC0F7FFBEC0F8FF0800AE
:1011E000F550105C0CE2DECFE9FFDDCFEAFF060E22
:1011F000E926000EEA22EF500001BF6FC06B01D05C
:10120000B1DBCDDB9E0EE66E190EE66E000EE66ECD
:10121000E66A02DBE552E552E552E5524ED0BAC02D
:10122000E9FFBBC0EAFF020EE926000EEA22EE50FB
:10123000EFCFEAFFE96EB3C0EFFF010EE66EE66A9C
:10124000BAC0E6FFBBC0E6FF69DBE552E552E552F6
:10125000E55233D0010E106EDECFE9FFDDCFEAFF9D
:10126000020EE926000EEA22EF50105C23E3DECFE7
:10127000E9FFDDCFEAFF020EE926000EEA22EF5079
:101280000001B36FB46BB351B41105E0200EB56F1C
:101290008EEC0DF002D0100EB56F000EE66EE66A11
:1012A000BAC0E6FFBBC0E6FF39DBE552E552E552C6
:1012B000E55201D057DB01D055DB040EE15C02E2C0
:1012C000E16AE552E16EE552E7CFD9FF1200D9CFCE
:1012D000E6FFE1CFD9FF020EE126FD0EDBCFE9FFED
:1012E000FE0EDBCFEAFF020EE926000EEA22EECF69
:1012F000DEFFEDCFDDFFDECFE9FFDDCFEAFF010E40
:10130000E926000EEA22EF50010A01E186D0020A26
:1013100001E183D0080A5AE0010A2EE00A0A01E03E
:101320007CD0BAC0E9FFBBC0EAFF020EE926000E7E
:10133000EA22EE50EFCFEAFFE96EEF6ABAC0E9FFAA
:10134000BBC0EAFF020EE926000EEA22EE50EFCF04
:10135000EAFFE96E010EE926000EEA22EF6A020EAC
:10136000E66EE66ABAC0E6FFBBC0E6FFD7DAE55232
:10137000E552E552E55252D0020E106EDECFE9FF83
:10138000DDCFEAFF040EE926000EEA22EF50D880F6
:1013900010541AE2BAC0E9FFBBC0EAFF020EE92608
:1013A000000EEA22EE50EFCFEAFFE96EEF6A010E7F
:1013B000E66EE66ABAC0E6FFBBC0E6FFAFDAE5520A
:1013C000E552E552E55201D0CDDA28D0020E106E7A
:1013D000DECFE9FFDDCFEAFF040EE926000EEA22A8
:1013E000EF50D880105417E2DECFE9FFDDCFEAFFDF
:1013F000020EE926000EEA22EF500DE1000EE66E25
:10140000E66ABAC0E6FFBBC0E6FF88DAE552E552FD
:10141000E552E55201D0A6DA01D0A4DA020EE15C71
:1014200002E2E16AE552E16EE552E7CFD9FF120030
:10143000D9CFE6FFE1CFD9FF060EE126FD0EDBCFC7
:10144000E9FFFE0EDBCFEAFF020EE926000EEA22DC
:10145000EECFDEFFEDCFDDFFDECFE9FFDDCFEAFF30
:10146000010EE926000EEA22EF500C0A01E120D11C
:101470000F0A01E1D6D0020A01E178D0010A01E0A9
:1014800017D1BAC0E9FFBBC0EAFF020EE926000E81
:10149000EA22EE50EFCFEAFFE96EEF6ABAC0E9FF49
:1014A000BBC0EAFF020EE926000EEA22EE50EFCFA3
:1014B000EAFFE96E010EE926000EEA22EF6ADECFAE
:1014C000E9FFDDCFEAFF040EE926000EEA22EF5025
:1014D0000F0BE76E020EE7CFDBFFDECFE9FFDDCFBC
:1014E000EAFF040EE926000EEA22EF50E844010B61
:1014F000E76E030EE7CFDBFFDBCFE6FF020EDB502C
:10150000E824E552E724040DF3CF10F0F4CF11F0F6
:10151000000E1026040E1122040E10C0DBFF050E73
:1015200011C0DBFF040EDBCFE9FF050EDBCFEAFFC6
:10153000EF94EF500EE0BAC0E9FFBBC0EAFF020E25
:10154000E926000EEA22EE50EFCFEAFFE96E010E27
:10155000EF6E020EE66EE66ABAC0E6FFBBC0E6FFBB
:10156000DDD9E552E552E552E552A3D0DECFE9FFE1
:10157000DDCFEAFF040EE926000EEA22EF500F0B42
:10158000E76E020EE7CFDBFFDECFE9FFDDCFEAFF3C
:10159000040EE926000EEA22EF50E844010BE76E44
:1015A000030EE7CFDBFFDBCFE6FF020EDB50E824C4
:1015B000E552E724040DF3CF10F0F4CF11F0000E44
:1015C0001026040E1122040E10C0DBFF050E11C000
:1015D000DBFF040EDBCFE9FF050EDBCFEAFFEF9464
:1015E000030EDB5007E0040EDBCFE9FF050EDBCF77
:1015F000EAFFEF8C030EDB5007E1040EDBCFE9FFBF
:10160000050EDBCFEAFFEF9C000EE66EE66ABAC07D
:10161000E6FFBBC0E6FF82D9E552E552E552E5524E
:1016200048D0DECFE9FFDDCFEAFF040EE926000E49
:10163000EA22EF500F0BE76E020EE7CFDBFFDECFA3
:10164000E9FFDDCFEAFF040EE926000EEA22EF50A3
:10165000E844010BE76E030EE7CFDBFFDBCFE6FFCD
:10166000020EDB50E824E552E724040DF3CF10F01E
:10167000F4CF11F0000E1026040E1122040E10C03B
:10168000DBFF050E11C0DBFF040EDBCFE9FF050E0B
:10169000DBCFEAFFEF84000EE66EE66ABAC0E6FF33
:1016A000BBC0E6FF3BD9E552E552E552E55201D019
:1016B00059D9060EE15C02E2E16AE552E16EE552BB
:1016C000E7CFD9FF120068A005D0F6EC04F06890CF
:1016D000FF0E15D068A613D06CCFB7F00001B7513C
:1016E000E840E840E8401F0B0F0B06E05AEC05F01D
:1016F0006896000E04D003D06896000E00D0120049
:101700000001B751E840E840E8401F0B0F0B040D03
:10171000F3CFE9FFF4CFEAFF710EE926000EEA22CB
:10172000EE50ED1019E0B751E840E840E8401F0BDB
:101730000F0B040DF3CFE9FFF4CFEAFF710EE9269A
:10174000000EEA22EECF10F0EFCF11F004D011C05E
:10175000FAFF1050F96EFBDF12000001B751E840AC
:10176000E840E8401F0B0F0B040DF3CFE9FFF4CF67
:10177000EAFF710EE926000EEA22020EE926000EAB
:10178000EA22EE50ED101DE0B751E840E840E84095
:101790001F0B0F0B040DF3CFE9FFF4CFEAFF710E1F
:1017A000E926000EEA22020EE926000EEA22EECF1A
:1017B00010F0EFCF11F004D011C0FAFF1050F96E05
:1017C000FBDF1200D9CFE6FFE1CFD9FFFD0EDBCF63
:1017D0006BF0FE0EDBCF6CF0E552E7CFD9FF1200C5
:1017E000D9CFE6FFE1CFD9FFFD0EDBCF6DF0FE0EC6
:1017F000DBCF6EF0E552E7CFD9FF1200D9CFE6FF7D
:10180000E1CFD9FFFD0EDBCF6FF0FE0EDBCF70F026
:10181000E552E7CFD9FF1200D9CFE6FFE1CFD9FFDC
:10182000FD0EDBCFE9FFFE0EDBCFEAFFD890E936F5
:10183000EA36D890E936EA36710EE926000EEA2239
:10184000FB0EDBCFEEFFFC0EDBCFEDFFE552E7CF6B
:10185000D9FF1200D9CFE6FFE1CFD9FFFD0EDBCFD4
:10186000E9FFFE0EDBCFEAFFD890E936EA36D890E2
:10187000E936EA36710EE926000EEA22020EE92662
:10188000000EEA22FB0EDBCFEEFFFC0EDBCFEDFFFE
:10189000E552E7CFD9FF1200D9CFE6FFE1CFD9FF5C
:1018A000FD0EDBCFE9FFFE0EDBCFEAFFEF50400A73
:1018B000400B80090809E66EFD0EDBCFE9FFFE0E46
:1018C000DBCFEAFFE552E750EF6EE552E7CFD9FFF5
:1018D0001200D9CFE6FFE1CFD9FFFD0EDBCFE9FF44
:1018E000FE0EDBCFEAFFEE52EF6AFD0EDBCFE9FF23
:1018F000FE0EDBCFEAFFEF50400A400B80090809DB
:10190000E66EFD0EDBCFE9FFFE0EDBCFEAFFE55210
:10191000E750EF6EE552E7CFD9FF1200D9CFE6FFCF
:10192000E1CFD9FFFF0EE76EFB0EDBCF10F0FC0E10
:10193000DBCF11F0E7501016116AFD0EDBCFE9FF87
:10194000FE0EDBCFEAFFEE5210C0EFFFFD0EDBCF45
:10195000E9FFFE0EDBCFEAFFC80EEF6EE552E7CFE0
:10196000D9FF12000401080E016F840E046F006F8E
:1019700012000001B65103E1040EB56F02D0100E43
:10198000B56FB6C06EFFB669000EE66EE66AE66E2B
:10199000E66A42DFE552E552E552E5521200D9CF40
:1019A000E6FFE1CFD9FF040EE1260001BF51C011CF
:1019B00056E0080EBF5D000EC05905E2BFC010F032
:1019C000C0C011F003D0080E106E116A020E10C0D4
:1019D000DBFF030E11C0DBFFDE6ADD6ADECF10F035
:1019E000DDCF11F0020EDBCF12F0030EDBCF13F0D0
:1019F0001250105C1350115831E2DECF12F0DDCFDF
:101A000013F0146ABC511224F36EBD511320F46E0E
:101A1000BE511420F86EF4CFF7FFF3CFF6FF0800A5
:101A2000F550E66EDECF10F0DDCF11F0BAC0E9FF61
:101A3000BBC0EAFF020EE926000EEA221050EE2497
:101A4000E76E1150EE20EA6EE7CFE9FFE552E7506E
:101A5000EF6EDF2A010E01E3DB2AC0D70ED0020EA3
:101A6000DB6A030EDB6A000EE66EE66AE66EE66A85
:101A7000D3DEE552E552E552E552BAC0E9FFBBC0FC
:101A8000EAFFEE52020EDBCFEFFFBAC0E9FFBBC0A8
:101A9000EAFFEF50400A400B80090809E66EBAC021
:101AA000E9FFBBC0EAFFE552E750EF6E020EDBCF65
:101AB00010F0030EDBCF11F0126A10500001BC27AA
:101AC0001150BD231250BE23020EDBCF06F0030ED1
:101AD000DBCF07F00650BF5F0750C05B040EE15C30
:101AE00002E2E16AE552E16EE552E7CFD9FF12006A
:101AF0000101006BC20E016F010E026F036B046BDC
:101B0000056B080E066F49914993C00EE66E1B0ED9
:101B1000E66EF0EC0BF0E552E5521200000EE66EB8
:101B2000E66A010EE66EE66A0CEC0CF0E552E55250
:101B3000E552E552000EE66EE66A020EE66EE66AD1
:101B40000CEC0CF0E552E552E552E552000EE66E63
:101B5000E66A020EE66EE66A2AEC0CF0E552E55201
:101B6000E552E5521A0E716E1E0E726E04010D6B77
:101B7000900E0E6F040E0F6F480E0C6F400E116F1B
:101B8000400E126F050E136F880E106F156B000E4E
:101B9000166F050E176F480E146FC00EE66E1B0E03
:101BA000E66EF0EC0BF0E552E5520101586B100EB9
:101BB000536F040E546F140E556F040E566F1200BF
:101BC000D9CFE6FFE1CFD9FF040EE126B8C0E9FF87
:101BD000B9C0EAFF020EE926000EEA22EECFDEFFD0
:101BE000EDCFDDFFDECFE9FFDDCFEAFFEF50630B86
:101BF000210A01E0D3D0DECFE9FFDDCFEAFF010EFD
:101C0000E926000EEA22EF50230A01E1C4D0010ABE
:101C100001E197D0030A3AE0010A2AE0220A25E00E
:101C2000010A23E0070A21E0050A11E0010A01E0A8
:101C3000B2D0000EE66EE66ABAC0E6FFBBC0E6FFB1
:101C40008EEC0CF0E552E552E552E552A6D0000EBE
:101C5000E66EE66ABAC0E6FFBBC0E6FF8EEC0CF0AB
:101C6000E552E552E552E55298D0B2EC0CF095D031
:101C7000CC0EE66E1D0EE66E000EE66EE66A2AECEF
:101C80000CF0E552E552E552E55287D0DECFE9FF90
:101C9000DDCFEAFF060EE926000EEA22020EEECFA5
:101CA000DBFF030EEDCFDBFF020EDBCF10F0030EE8
:101CB000DBCF11F0070ED8801054000E115407E24C
:101CC000070EF36E020EF3CFDBFF030EDB6A020E8C
:101CD000DBCFE6FF030EDBCFE6FF000EE66E010E64
:101CE000E66EBAC0E9FFBBC0EAFF020EE926000EAD
:101CF000EA22EECFE6FFEFCFE6FF75EC13F0106EB1
:101D0000060EE15E1050020EDBCFE6FF030EDBCFC6
:101D1000E6FFBAC0E6FFBBC0E6FF8EEC0CF0E55272
:101D2000E552E552E552B40EE66E1D0EE66E000E6B
:101D3000E66EE66A0CEC0CF0E552E552E552E5522F
:101D40002CD0DECFE9FFDDCFEAFF020EE926000E40
:101D5000EA22EECF49F1EDCF4AF1420EE66E1F0EB8
:101D6000E66E000EE66EE66A0CEC0CF0E552E5520B
:101D7000E552E552000EE66EE66ABAC0E6FFBBC069
:101D8000E6FF8EEC0CF0E552E552E552E55200011B
:101D9000010ED06F02D0B2EC0CF002D0B2EC0CF01D
:101DA000040EE15C02E2E16AE552E16EE552E7CF42
:101DB000D9FF1200000EE66EE66AE66EE66A0CECEB
:101DC0000CF0E552E552E552E5521200D9CFE6FF9C
:101DD000E1CFD9FF040EE126070EE66EE66AB8C031
:101DE000E9FFB9C0EAFF020EE926000EEA22EECFB3
:101DF000E6FFEFCFE6FF000EE66E010EE66E75EC35
:101E000013F0106E060EE15E1050146A1B0E156E74
:101E1000B70E166E176A14C004F015C005F016C090
:101E200006F017C007F000C109F001C10AF002C1B5
:101E30000BF003C10CF0A0EC13F004C010F005C0CF
:101E400011F006C012F007C013F01006000E115A70
:101E5000125A135A10C0DFFF010E11C0DBFF020E31
:101E600012C0DBFF030E13C0DBFFD9CFE9FFDACFCF
:101E7000EAFFEECF10F0EECF11F0EECF12F0EFCF81
:101E800013F01050AF6ED9CFE9FFDACFEAFFEECFF3
:101E900010F0EECF11F0EECF12F0EFCF13F0080EEE
:101EA000D8901332123211321032E806F9E1105094
:101EB000B06E000EE66EE66AE66EE66A2AEC0CF09C
:101EC000E552E552E552E5522A0EE66E1F0EE66E29
:101ED000000EE66EE66A0CEC0CF0E552E552E552B7
:101EE000E552000EE66EE66ABAC0E6FFBBC0E6FF4A
:101EF0008EEC0CF0E552E552E552E552B8C0E9FF30
:101F0000B9C0EAFFEE52080EEF6EB8C0E9FFB9C0E3
:101F1000EAFF880EEF6E040EE15C02E2E16AE55230
:101F2000E16EE552E7CFD9FF1200000EE66EE66AD9
:101F3000E66EE66A0CEC0CF0E552E552E552E5522D
:101F40001200000EE66EE66AE66EE66A0CEC0CF035
:101F5000E552E552E552E5521200D9CFE6FFE1CF56
:101F6000D9FFE652DF6A53C1E9FF54C1EAFFEF50DF
:101F7000800B08E0A0BA05D063EC0BF0000901E08B
:101F8000DF6AF1D7DF5000D0E552E552E7CFD9FF45
:101F90001200D9CFE6FFE1CFD9FFE652DF6A55C183
:101FA000E9FF56C1EAFFEF50800B08E0A0BA05D068
:101FB00063EC0BF0000901E0DF6AF1D7DF5000D0DD
:101FC000E552E552E7CFD9FF1200D9CFE6FFE1CFC6
:101FD000D9FF55C1E9FF56C1EAFFEF50800B05E07C
:101FE000A0BA02D063EC0BF0F4D755C1E9FF56C19B
:101FF000EAFF020EE926000EEA22FD0EDBCFEEFF1D
:10200000FE0EDBCFEDFF55C1E9FF56C1EAFFEE52F0
:10201000FC0EDBCFEFFF55C1E9FF56C1EAFFEF50E1
:10202000400A400B80090809E66E55C1E9FF56C118
:10203000EAFFE552E750EF6EFC0EDB5000D0E552B0
:10204000E7CFD9FF120055C1E9FF56C1EAFFEF50B3
:10205000800B03E0000E1BD018D055C1E9FF56C11C
:10206000EAFFEE52400EEF6E55C1E9FF56C1EAFF9E
:10207000EF50400A400B80090809E66E55C1E9FFA0
:1020800056C1EAFFE552E750EF6E400E00D0120055
:102090000101576B62DF01014EA111D0000E516F9B
:1020A000060E526F53C1E9FF54C1EAFF020EE92642
:1020B000000EEA22400EEE6E060EED6E10D0400EBF
:1020C000516F060E526F53C1E9FF54C1EAFF020E71
:1020D000E926000EEA22000EEE6E060EED6E4E1F91
:1020E00053C1E9FF54C1EAFFEE52EFCF4CF153C1A7
:1020F000E9FF54C1EAFFEE52400EEF6E53C1E9FF13
:1021000054C1EAFFEF50400A400B80090809E66E0F
:1021100053C1E9FF54C1EAFFE552E750EF6E4C515D
:1021200000D01200D9CFE6FFE1CFD9FF0101576BF4
:1021300030DF01014D5111E055C1E9FF56C1EAFF01
:10214000020EE926000EEA22800EEE6E050EED6EFE
:10215000C00E4F6F050E506F10D055C1E9FF56C12C
:10216000EAFF020EE926000EEA22C00EEE6E050E10
:10217000ED6E800E4F6F050E506F55C1E9FF56C1D1
:10218000EAFFEE52FE0EDBCFEFFF55C1E9FF56C16D
:10219000EAFFEF50400A400B80090809E66E55C17E
:1021A000E9FF56C1EAFFE552E750EF6E4D1F575168
:1021B00000D0E552E7CFD9FF1200EBDE55C1E9FFB1
:1021C00056C1EAFF020EE926000EEA22800EEE6EEC
:1021D000050EED6E55C1E9FF56C1EAFFEE52400E05
:1021E000EF6E01014D69800E4F6F050E506F1200AA
:1021F000D0DE55C1E9FF56C1EAFF020EE926000E06
:10220000EA22000EEE6E050EED6E55C1E9FF56C1D5
:10221000EAFFEE52400EEF6E1200D9CFE6FFE1CF9B
:10222000D9FFE65201014E69000E516F060E526F42
:1022300053C1E9FF54C1EAFFEFCFDFFF400EDF16C5
:1022400053C1E9FF54C1EAFFDFCFEFFF53C1E9FFFC
:1022500054C1EAFF020EE926000EEA22000EEE6EDD
:10226000060EED6E000EDF86DF8E53C1E9FF54C10E
:10227000EAFFDFCFEFFFE552E552E7CFD9FF1200CB
:10228000D9CFE6FFE1CFD9FFE65253C1E9FF54C1F0
:10229000EAFFEFCFDFFF400EDF1653C1E9FF54C165
:1022A000EAFFDFCFEFFF53C1E9FF54C1EAFF020E9F
:1022B000E926000EEA22400EEE6E050EED6E000ECF
:1022C000DF86DF8E53C1E9FF54C1EAFFDFCFEFFFA6
:1022D000E552E552E7CFD9FF12005BDE55C1E9FFB9
:1022E00056C1EAFFEE52EF6A55C1E9FF56C1EAFF57
:1022F000EF50400A400B80090809E66E55C1E9FF1E
:1023000056C1EAFFE552E750EF6E120053C1E9FFF4
:1023100054C1EAFFEF50800B02E0000E01D0010E25
:1023200000D0120055C1E9FF56C1EAFFEF50800B03
:1023300002E0000E01D0010E00D01200D9CFE6FF5E
:10234000E1CFD9FF01014C6B53C1E9FF54C1EAFF52
:10235000EF50800B4EE1FC0EDBCF10F053C1E9FFD4
:1023600054C1EAFFEE52EF50D880105408E253C136
:10237000E9FF54C1EAFFEE52FC0EEFCFDBFF4C6BDE
:10238000FC0EDB504C5D19E24C51EA6A400FE96EDD
:10239000050EEA22EF50E66E4C51E76EFD0EDBCFE4
:1023A000E9FFFE0EDBCFEAFFE750E926000EEA2246
:1023B000E552E750EF6E4C2BE3D7A0BA02D063ECA6
:1023C0000BF053C1E9FF54C1EAFFEE52400EEF6E2D
:1023D00053C1E9FF54C1EAFFEF50400A400B8009A6
:1023E0000809E66E53C1E9FF54C1EAFFE552E75020
:1023F000EF6E01014C5100D0E552E7CFD9FF12003A
:102400000101475112E1400EE66E070EE66E010E25
:10241000E66E94DFE552E552E5520101476F475100
:1024200002E0CDEC04F00101486B1200D9CFE6FFC9
:10243000E1CFD9FF01014751000815E24851EA6A8E
:10244000070FE96E010EEA22EF50E66EFD0EDBCFBC
:10245000E9FFFE0EDBCFEAFFE552E750EF6E4707DC
:10246000482B010E02D0000E00D0E552E7CFD9FF75
:102470001200D9CFE6FFE1CFD9FF01014751000893
:1024800013E24851EA6A070FE96E010EEA22EF50A3
:10249000E66EFD0EDBCFE9FFFE0EDBCFEAFFE55275
:1024A000E750EF6E010E02D0000E00D0E552E7CFEC
:0C24B000D9FF12000101476B486B1200BD
:0424BC0078EC0DF0BB
:1024C0005CD8040EE66EE66AF90EE66E250EE66E40
:1024D000000EE66EB60EE66E250EE66E000EE66E99
:1024E000A40EE66E250EE66E000EE66E1CEC04F001
:1024F000106E0B0EE15E1050C3EC04F05AEC12F0BB
:102500000001010ED26FA0BA02D0CDEC04F0040E8F
:102510000001B55D02E289900FD0200EB55D02E2A8
:1025200089800AD00001D20507E1200E0001B55DC7
:1025300003E189900001D26B200E0001B55DE3E359
:1025400000EC12F0D10EE66E000EE66E16EC12F004
:10255000E552E55201080FE1C9EC0FF0D1C000F5DA
:10256000010EE66E000EE66E050EE66EE5EC0FF06F
:10257000E552E552E552C7D71200D9CFE6FFE1CFC9
:10258000D9FF020EE1260F0EC112B56A8980929022
:10259000020EE15C02E2E16AE552E16EE552E7CF4C
:0425A000D9FF12004D
:0C25A4001201000202000008D80408FD2B
:1025B00002000102030109024300020100806409D4
:1025C000040000010202010005240010010424029D
:1025D0000205240600010524010101070581030A03
:1025E000000209040100020A00000007050202407F
:1025F000000007058202400000040309042A034486
:102600000061006E006700650072006F0075007366
:10261000002000500072006F0074006F0074007999
:102620000070006500730012034300440043002063
:102630000054006500730074001203300030003055
:0B26400000300030003000300031009E
:04264C002A0EF66EEE
:10265000080EF76E000EF86E00010900F550C66F07
:102660000900F550C76F03E1C66701D03DD00900EE
:10267000F550C16F0900F550C26F0900F550C36FE6
:1026800009000900F550E96E0900F550EA6E0900ED
:1026900009000900F550C46F0900F550C56F090025
:1026A0000900F6CFC8F0F7CFC9F0F8CFCAF0C1C023
:1026B000F6FFC2C0F7FFC3C0F8FF0001C45302E138
:1026C000C55307E00900F550EE6EC407F8E2C507F0
:1026D000F9D7C8C0F6FFC9C0F7FFCAC0F8FF0001AC
:0A26E000C607000EC75BBFD712004B
:0626EA00D9CFE6FFDACFB4
:1026F000E6FFFA0EE3CFD9FFFB0EE3CFDAFFFC0EC5
:10270000E3CFE9FFFD0EE3CFEAFFE9CFF3FFEACF26
:10271000F4FFF80EE35003E1F90EE35008E0F80E81
:10272000E30602E2F90EE306DECFEEFFF2D7FF0E7C
:10273000E3CFDAFFE552FF0EE3CFD9FFE5521200F7
:10274000036A026A016A006A200EE76ED8900436B6
:10275000053606360736003601360236033609508E
:10276000005C0A5001580B5002580C50035809E302
:102770000950005E0A50015A0B50025A0C50035A7D
:08278000042AE72EE4D7120041
:08278800000EF36E00EE00F0FC
:10279000040E01D81200EA6002D0EE6AFCD7F350B2
:0827A000E9601200EE6AFCD7AB
:0827A80013EE00F023EE00F037
:1027B000F86A0F9C26EC13F0E2EC13F05EEC12F0DA
:0427C000FBD7120031
:0227C400120001
:0627C6004E4F454D53008B
:020000040030CA
:0100000024DB
:010001000EF0
:010002003FBE
:010003001EDE
:010005008179
:010006008178
:010008000FE8
:01000900C036
:01000A000FE6
:01000B00E014
:01000C000FE4
:01000D0040B2
:00000001FF
