:020000040000FA
:06000000B5EF12F0120042
:0600080004EF04F01200F9
:060018000CEF04F01200E1
:06080000B5EF12F012003A
:060808009DEF11F012004B
:060818007DEF11F012005B
:06082A0003008A25000016
:10083000E30000000900000088250000F00000002F
:10084000020000000D240000F20000000100000082
:10085000D9CFE6FFE1CFD9FFFC0EDBCF60F0FD0E74
:10086000DBCF61F0FE0EDBCF62F0F90EDBCF63F081
:10087000FA0EDBCF64F0FB0EDBCF65F0F60EDBCFBC
:1008800066F0F70EDBCF67F0F80EDBCF68F0F40E02
:10089000DBCF69F0F50EDBCF6AF000016B6B6C6BA0
:1008A0006D6B6E6B6F6B706B000EE66EE66AE66EDC
:1008B000E66ABAEC0BF0E552E552E552E552000E5D
:1008C000E66EE66AE66EE66AD8EC0BF0E552E552B3
:1008D000E552E5521FD8140E6F6E6D98E552E7CFC2
:1008E000D9FF12006D860001010EB56F6DBAFED7FB
:1008F0000001040EB56F12006A6A120068960001CA
:10090000B36BB46B040EB56FB66B68B6F7D702D88D
:100910006D981200D9CFE6FFE1CFD9FF020EE12694
:1009200000016B6B6C6B6D6B6E6B6F6B706B6E6ADB
:100930006D8C6D9C6A6ADE6ADD6ADECF10F0DDCFF9
:1009400011F0D890115004E6100E105C000E1158F2
:1009500032E2DECFE9FFDDCFEAFFD890E936EA36B2
:10096000D890E936EA36710EE926000EEA22020E28
:10097000E926000EEA22EE6AED6ADECFE9FFDDCF5E
:10098000EAFFD890E936EA36D890E936EA36710EB1
:10099000E926000EEA22EE6AED6ADECFE9FFDDCF3E
:1009A000EAFF700EE9260F0EEA22EF6ADF2A010E37
:1009B00001E3DB2AC2D7DE6ADD6ADECF10F0DDCFCD
:1009C00011F0D890115004E6060E105C000E11587C
:1009D00014E2DECFE9FFDDCFEAFFD890E936EA3650
:1009E000D890E936EA36000EE926040EEA22EF6ACC
:1009F000DF2A010E01E3DB2AE0D7160E706E00013C
:100A0000B16BB26BB56BB36BB46BB66B0401080E14
:100A1000016F8A0E026F040E036F880E006F056B64
:100A2000920E066F040E076F480E046F020EE15C13
:100A300002E2E16AE552E16EE552E7CFD9FF12002A
:100A400068A803D07CEC11F0689868A002D056DF4B
:100A5000689068A202D06A6A689268BA689A68ACBC
:100A60000CD000016B516C1107E005D06CC0FAFF8F
:100A700000016B51F96EFADF689C68A609D06C50D2
:100A8000E840E840E8401F0B0F0B01E102D86896F0
:100A900012000001C16B6CCFB7F0B751FC0BE842FC
:100AA000E842040DF3CFB8F0F4CFB9F0000EB82748
:100AB000040EB923040EB711FC0BE842E842040D02
:100AC000F3CFBAF0F4CFBBF0000EBA27040EBB236D
:100AD000B8C0E9FFB9C0EAFFEF503C0B240A0AE0B6
:100AE000200A05E0300A01E008D008D806D05BEC07
:100AF0000BF003D02EEC0BF000D01200BAC0E9FFCF
:100B0000BBC0EAFF080EEF6E6D98B8C0E9FFB9C030
:100B1000EAFF020EE926000EEA22EE50EFCFEAFFCE
:100B2000E96EEF50600B400A42E0600A34E0200AB0
:100B300001E049D0B8C0E9FFB9C0EAFF020EE926DA
:100B4000000EEA22EE50EFCFEAFFE96EEF50030B02
:100B5000020A15E0030A0BE0010A01E019D0B8C04F
:100B6000E6FFB9C0E6FF7CD8E552E55213D0B8C025
:100B7000E6FFB9C0E6FF80DBE552E5520BD0B8C016
:100B8000E6FFB9C0E6FFD9EC09F0E552E55202D024
:100B90001AEC0CF01AD000016D516E1107E005D06F
:100BA0006EC0FAFF00016D51F96EFADF0ED0000140
:100BB0006F51701107E005D070C0FAFF00016F514E
:100BC000F96EFADF02D01AEC0CF0B8C0E9FFB9C038
:100BD000EAFFEE52080EEF6EB8C0E9FFB9C0EAFFB7
:100BE000020EE926000EEA22EE50EFCFEAFFE96E90
:100BF000EF50800B24E1B8C0E9FFB9C0EAFF020E54
:100C0000E926000EEA22EE50EFCFEAFFE96E060E6B
:100C1000E926000EEA22EF5014E1B8C0E9FFB9C09E
:100C2000EAFF020EE926000EEA22EE50EFCFEAFFBD
:100C3000E96E070EE926000EEA22EF5002E1000EEF
:100C400001D0010E000902E0C80E01D0880EE66E48
:100C5000B8C0E9FFB9C0EAFFE552E750EF6E1200F5
:100C6000D9CFE6FFE1CFD9FF040EE126FD0EDBCFA1
:100C7000E9FFFE0EDBCFEAFF020EE926000EEA22B4
:100C8000EECFDEFFEDCFDDFFDECFE9FFDDCFEAFF08
:100C9000010EE926000EEA22EF50070A01E1E1D237
:100CA0000E0A01E1B2D2010A01E19AD20E0A01E173
:100CB0009FD0030A64E0060A4BE0020A32E0010A10
:100CC00001E0CFD20001B151E66EBAC0E9FFBBC06E
:100CD000EAFF020EE926000EEA22EE50EFCFEAFF0D
:100CE000E96EE552E750EF6EB2C010F0116ABAC07B
:100CF000E9FFBBC0EAFF020EE926000EEA22EE5031
:100D0000EFCFEAFFE96E010EE926000EEA2210C0DD
:100D1000EFFF020EE66EE66AFAEC0BF0E552E552E2
:100D2000A1D2DECFE9FFDDCFEAFF020EE926000EF9
:100D3000EA22EF040AE10001B193000EE66EE66AD2
:100D4000FAEC0BF0E552E55202D01AEC0CF08AD224
:100D5000DECFE9FFDDCFEAFF020EE926000EEA2230
:100D6000EF040AE10001B183000EE66EE66AFAECD8
:100D70000BF0E552E55202D01AEC0CF073D2DECF44
:100D8000E9FFDDCFEAFF030EE926000EEA22EF506D
:100D90002CE17F0E106EDECFE9FFDDCFEAFF020E01
:100DA000E926000EEA22EF50105C1FE3DECFE9FFD8
:100DB000DDCFEAFF020EE926000EEA22EFCFB6F001
:100DC000420EE66E180EE66E000EE66EE66ABAECAD
:100DD0000BF0E552E552E552E552000EE66EE66A8A
:100DE000FAEC0BF0E552E55202D01AEC0CF03AD2D4
:100DF000DECFE9FFDDCFEAFF030EE926000EEA228F
:100E0000EF50040A01E1D6D1010A01E1D3D1060A6B
:100E100001E143D1010A3EE0030A01E0CBD160C009
:100E2000BCF061C0BDF062C0BEF060C0F6FF61C042
:100E3000F7FF62C0F8FF0800F5500001BF6FC06BFC
:100E4000DECFE9FFDDCFEAFF070EE926000EEA223A
:100E5000EF501FE1DECFE9FFDDCFEAFF060EE92606
:100E6000000EEA22EFCF10F0BCC0F6FFBDC0F7FFC6
:100E7000BEC0F8FF0800F550105C0BE2DECFE9FFC2
:100E8000DDCFEAFF060EE926000EEA22EF50BF6F23
:100E9000C06B93D1DECFE9FFDDCFEAFF020EE9267A
:100EA000000EEA22EFCF10F060C0F6FF61C0F7FF3E
:100EB00062C0F8FF110EF626000EF722F822080095
:100EC000F550105C04E30001010EC16F76D163C0E0
:100ED000BCF064C0BDF065C0BEF0BCC0F6FFBDC0D4
:100EE000F7FFBEC0F8FF030EF626000EF722F82229
:100EF0000800F550106E116A10C011F0106ABCC0E5
:100F0000F6FFBDC0F7FFBEC0F8FF020EF626000ECA
:100F1000F722F8220800F55000011024BF6F000EE0
:100F20001120C06F020EDB6A030EDB6A020EDBCFFC
:100F300010F0030EDBCF11F0DECFE9FFDDCFEAFFCB
:100F4000020EE926000EEA22EF50000111AE02D097
:100F5000D89003D0105C000E115836E2BFC010F0DC
:100F6000C0C011F0126A10500001BC271150BD23FF
:100F70001250BE23BCC0F6FFBDC0F7FFBEC0F8FFD5
:100F8000030EF626000EF722F8220800F550106E28
:100F9000116A10C011F0106ABCC0F6FFBDC0F7FFA7
:100FA000BEC0F8FF020EF626000EF722F822080057
:100FB000F5501024BF6F000E1120C06F020EDB2A07
:100FC000030E01E3DB2AB2D7DECFE9FFDDCFEAFF74
:100FD000070EE926000EEA22EFCF10F0BCC0F6FFA4
:100FE000BDC0F7FFBEC0F8FF030EF626000EF722C5
:100FF000F8220800F550105C32E3DECFE9FFDDCFC8
:10100000EAFF070EE926000EEA22EFCF11F0BCC07E
:10101000F6FFBDC0F7FFBEC0F8FF030EF626000EB8
:10102000F722F8220800F550115C36E1DECFE9FF27
:10103000DDCFEAFF060EE926000EEA22EFCF12F01E
:10104000BCC0F6FFBDC0F7FFBEC0F8FF020EF6261B
:10105000000EF722F8220800F550125C1DE2DECFE8
:10106000E9FFDDCFEAFF070EE926000EEA22EF5086
:10107000106E116A10C011F0106ADECFE9FFDDCFEB
:10108000EAFF060EE926000EEA22EF5000011024C6
:10109000BF6F000E1120C06F90D0DECFE9FFDDCF13
:1010A000EAFF020EE926000EEA22EF50106E116AE6
:1010B000000111506A19E8AE02D06A3504D06951B6
:1010C000105C6A51115803E3010EC16F76D066C0FF
:1010D000BCF067C0BDF068C0BEF0BCC0F6FFBDC0CC
:1010E000F7FFBEC0F8FF0800F550BF6FC06B020EDF
:1010F000DB6A030EDB6A020EDBCF10F0030EDBCFE0
:1011000011F0DECFE9FFDDCFEAFF020EE926000E87
:10111000EA22EF50000111AE02D0D89003D0105C4B
:10112000000E11581CE2BFC010F0C0C011F0126ACE
:1011300010500001BC271150BD231250BE23BCC06B
:10114000F6FFBDC0F7FFBEC0F8FF0800F550BF6F47
:10115000C06B020EDB2A030E01E3DB2ACCD7DECF05
:10116000E9FFDDCFEAFF070EE926000EEA22EF5085
:1011700020E1DECFE9FFDDCFEAFF060EE926000E13
:10118000EA22EFCF10F0BCC0F6FFBDC0F7FFBEC033
:10119000F8FF0800F550105C0CE2DECFE9FFDDCF70
:1011A000EAFF060EE926000EEA22EF500001BF6FAB
:1011B000C06B03D00001010EC16F0001C1510EE1EF
:1011C00056DB6E0EE66E180EE66E000EE66EE66AF2
:1011D000D1DAE552E552E552E55201D02BDB42D09F
:1011E000BAC0E9FFBBC0EAFF020EE926000EEA2200
:1011F000EE50EFCFEAFFE96EB3C0EFFF010EE66EEF
:10120000E66AF8DAE552E5522DD0010E106EDECF17
:10121000E9FFDDCFEAFF020EE926000EEA22EF50D9
:10122000105C1DE3DECFE9FFDDCFEAFF020EE92609
:10123000000EEA22EF500001B36FB46BB351B4114A
:1012400005E0200EB56FF6EC0CF002D0100EB56F75
:10125000000EE66EE66ACEDAE552E55201D0EADA31
:1012600001D0E8DA040EE15C02E2E16AE552E16EE7
:10127000E552E7CFD9FF1200D9CFE6FFE1CFD9FF82
:10128000020EE126FD0EDBCFE9FFFE0EDBCFEAFF0B
:10129000020EE926000EEA22EECFDEFFEDCFDDFFE3
:1012A000DECFE9FFDDCFEAFF010EE926000EEA22DC
:1012B000EF50010A73E0020A71E0080A4EE0010AE9
:1012C00028E00A0A01E06AD0BAC0E9FFBBC0EAFF21
:1012D000020EE926000EEA22EE50EFCFEAFFE96E99
:1012E000EF6ABAC0E9FFBBC0EAFF020EE926000EB2
:1012F000EA22EE50EFCFEAFFE96E010EE926000E7A
:10130000EA22EF6A020EE66EE66A74DAE552E55208
:1013100046D0020E106EDECFE9FFDDCFEAFF040EED
:10132000E926000EEA22EF50D880105414E2BAC029
:10133000E9FFBBC0EAFF020EE926000EEA22EE50EA
:10134000EFCFEAFFE96EEF6A010EE66EE66A52DA67
:10135000E552E55201D06EDA22D0020E106EDECFD9
:10136000E9FFDDCFEAFF040EE926000EEA22EF5086
:10137000D880105411E2DECFE9FFDDCFEAFF020E84
:10138000E926000EEA22EF5007E1000EE66EE66A5B
:1013900031DAE552E55201D04DDA01D04BDA020ED6
:1013A000E15C02E2E16AE552E16EE552E7CFD9FF86
:1013B0001200D9CFE6FFE1CFD9FF080EE126FD0EDE
:1013C000DBCFE9FFFE0EDBCFEAFF020EE926000EBF
:1013D000EA22EECFDEFFEDCFDDFFDECFE9FFDDCF8E
:1013E000EAFF010EE926000EEA22EF500C0A01E1A5
:1013F0002AD10F0A01E1E6D0020A72E0010A01E0F7
:1014000022D1BAC0E9FFBBC0EAFF020EE926000EF6
:10141000EA22EE50EFCFEAFFE96EEF6ABAC0E9FFC9
:10142000BBC0EAFF020EE926000EEA22EE50EFCF23
:10143000EAFFE96E010EE926000EEA22EF6ADECF2E
:10144000E9FFDDCFEAFF040EE926000EEA22EF50A5
:101450000F0BE76E020EE7CFDBFFDECFE9FFDDCF3C
:10146000EAFF040EE926000EEA22EF50E844010BE1
:10147000E76E030EE7CFDBFFDBCFE6FF020EDB50AC
:10148000E824E552E724040DF3CF10F0F4CF11F077
:10149000000E1026040E1122040E10C0DBFF050EF4
:1014A00011C0DBFF040EDBCFE9FF050EDBCFEAFF47
:1014B000EF94EF500EE0BAC0E9FFBBC0EAFF020EA6
:1014C000E926000EEA22EE50EFCFEAFFE96E010EA8
:1014D000EF6E020EE66EE66A8DD9E552E552B4D0A3
:1014E000DECFE9FFDDCFEAFF040EE926000EEA2297
:1014F000EF500F0BE76E020EE7CFDBFFD950060F60
:10150000E96EDACFEAFF700EEE6E0F0EED6E020E90
:10151000DB50106E116AD950060FE96EDACFEAFF80
:101520001050EE261150ED22060EDBCFE9FF070E1C
:10153000DBCFEAFFEF90DECFE9FFDDCFEAFF040E5D
:10154000E926000EEA22EF50E844010BE76E030E95
:10155000E7CFDBFFDBCFE6FF020EDB50E824E552EE
:10156000E724040DF3CF10F0F4CF11F0000E102695
:10157000040E1122040E10C0DBFF050E11C0DBFFAC
:10158000040EDBCFE9FF050EDBCFEAFFEF94030E7D
:10159000DB5007E0040EDBCFE9FF050EDBCFEAFFEF
:1015A000EF8C030EDB5007E1040EDBCFE9FF050EE5
:1015B000DBCFEAFFEF9C000EE66EE66A1BD9E55230
:1015C000E55242D0DECFE9FFDDCFEAFF040EE92687
:1015D000000EEA22EF500F0BE76E020EE7CFDBFFA3
:1015E000DECFE9FFDDCFEAFF040EE926000EEA2296
:1015F000EF50E844010BE76E030EE7CFDBFFDBCFD4
:10160000E6FF020EDB50E824E552E724040DF3CF99
:1016100010F0F4CF11F0000E1026040E1122040E6B
:1016200010C0DBFF050E11C0DBFF040EDBCFE9FFAE
:10163000050EDBCFEAFFEF84000EE66EE66ADAD82D
:10164000E552E55201D0F6D8080EE15C02E2E16A0B
:10165000E552E16EE552E7CFD9FF12000001B75124
:10166000E840E840E8401F0B0F0B040DF3CFE9FF03
:10167000F4CFEAFF710EE926000EEA22EE50ED10DB
:1016800019E0B751E840E840E8401F0B0F0B040D8C
:10169000F3CFE9FFF4CFEAFF710EE926000EEA224C
:1016A000EECF10F0EFCF11F004D011C0FAFF1050C0
:1016B000F96EFBDF12000001B751E840E840E84056
:1016C0001F0B0F0B040DF3CFE9FFF4CFEAFF710EF0
:1016D000E926000EEA22020EE926000EEA22EE506A
:1016E000ED101DE0B751E840E840E8401F0B0F0B3C
:1016F000040DF3CFE9FFF4CFEAFF710EE926000EE7
:10170000EA22020EE926000EEA22EECF10F0EFCF19
:1017100011F004D011C0FAFF1050F96EFBDF120077
:10172000D9CFE6FFE1CFD9FFFD0EDBCF6BF0FE0E88
:10173000DBCF6CF0E552E7CFD9FF1200D9CFE6FF3F
:10174000E1CFD9FFFD0EDBCF6DF0FE0EDBCF6EF0EB
:10175000E552E7CFD9FF1200D9CFE6FFE1CFD9FF9D
:10176000FD0EDBCF6FF0FE0EDBCF70F0E552E7CF62
:10177000D9FF1200D9CFE6FFE1CFD9FFFD0EDBCFB5
:10178000E9FFFE0EDBCFEAFFD890E936EA36D890C3
:10179000E936EA36710EE926000EEA22FB0EDBCFAF
:1017A000EEFFFC0EDBCFEDFFE552E7CFD9FF1200D5
:1017B000D9CFE6FFE1CFD9FFFD0EDBCFE9FFFE0E6B
:1017C000DBCFEAFFD890E936EA36D890E936EA3638
:1017D000710EE926000EEA22020EE926000EEA2228
:1017E000FB0EDBCFEEFFFC0EDBCFEDFFE552E7CFCC
:1017F000D9FF1200D9CFE6FFE1CFD9FFFF0EE76E88
:10180000FD0EDBCF10F0FE0EDBCF11F0E75010160F
:10181000116ABAC0E9FFBBC0EAFFEE5210C0EFFF89
:10182000BAC0E9FFBBC0EAFFC80EEF6EE552E7CFD2
:10183000D9FF12000401080E016F840E046F006FBF
:1018400012000001B65103E1040EB56F02D0100E74
:10185000B56FB6C06EFFB669000EE66EE66AE66E5C
:10186000E66A88DFE552E552E552E5521200D9CF2B
:10187000E6FFE1CFD9FF040EE1260001BF51C01100
:1018800056E0080EBF5D000EC05905E2BFC010F063
:10189000C0C011F003D0080E106E116A020E10C005
:1018A000DBFF030E11C0DBFFDE6ADD6ADECF10F066
:1018B000DDCF11F0020EDBCF12F0030EDBCF13F001
:1018C0001250105C1350115831E2DECF12F0DDCF10
:1018D00013F0146ABC511224F36EBD511320F46E40
:1018E000BE511420F86EF4CFF7FFF3CFF6FF0800D7
:1018F000F550E66EDECF10F0DDCF11F0BAC0E9FF93
:10190000BBC0EAFF020EE926000EEA221050EE24C8
:10191000E76E1150EE20EA6EE7CFE9FFE552E7509F
:10192000EF6EDF2A010E01E3DB2AC0D70ED0020ED4
:10193000DB6A030EDB6A000EE66EE66AE66EE66AB6
:1019400019DFE552E552E552E552BAC0E9FFBBC0E6
:10195000EAFFEE52020EDBCFEFFFBAC0E9FFBBC0D9
:10196000EAFFEF50400A400B80090809E66EBAC052
:10197000E9FFBBC0EAFFE552E750EF6E020EDBCF96
:1019800010F0030EDBCF11F0126A10500001BC27DB
:101990001150BD231250BE23020EDBCF06F0030E02
:1019A000DBCF07F00650BF5F0750C05B040EE15C61
:1019B00002E2E16AE552E16EE552E7CFD9FF12009B
:1019C0000001C26BC20EC36F010EC46FC56BC66B44
:1019D000C76B080EC86FC991C993EC0EE66E1A0E5C
:1019E000E66E9EEC0BF0E552E5521200000EE66E3C
:1019F000E66A010EE66EE66ABAEC0BF0E552E552D5
:101A0000E552E552000EE66EE66A020EE66EE66A02
:101A1000BAEC0BF0E552E552E552E552000EE66EE7
:101A2000E66A020EE66EE66AD8EC0BF0E552E55285
:101A3000E552E5521A0E716E1E0E726E04010D6BA8
:101A4000800E0E6F040E0F6F480E0C6FEC0EE66EDC
:101A50001A0EE66E9EEC0BF0E552E5520001D86BD3
:101A6000100ED36F040ED46F140ED56F040ED66F04
:101A7000CD69800ECF6F050ED06FCB6BD5C0E9FF5F
:101A8000D6C0EAFF020EE926000EEA22800EEE6EB4
:101A9000050EED6ED5C0E9FFD6C0EAFFEE52EF6A43
:101AA000D5C0E9FFD6C0EAFF480EEF6ECC6BCE6919
:101AB000000ED16F060ED26FD3C0E9FFD4C0EAFF8B
:101AC000EE52400EEF6ED3C0E9FFD4C0EAFF020E23
:101AD000E926000EEA22000EEE6E060EED6ED3C071
:101AE000E9FFD4C0EAFF880EEF6E1200D9CFE6FFFF
:101AF000E1CFD9FF040EE126B8C0E9FFB9C0EAFF83
:101B0000020EE926000EEA22EECFDEFFEDCFDDFF6A
:101B1000DECFE9FFDDCFEAFFEF50630B210A01E0E2
:101B2000BBD0DECFE9FFDDCFEAFF010EE926000ED4
:101B3000EA22EF50230A01E1ACD0010A01E185D08D
:101B4000030A2EE0010A1EE0220A19E0010A17E04A
:101B5000070A15E0050A0BE0010A01E09AD0000E21
:101B6000E66EE66AFAEC0BF0E552E55294D0000E10
:101B7000E66EE66AFAEC0BF0E552E5528CD01AEC10
:101B80000CF089D0C80EE66E1C0EE66E000EE66EF6
:101B9000E66AD8EC0BF0E552E552E552E5527BD00F
:101BA000DECFE9FFDDCFEAFF060EE926000EEA22CE
:101BB000020EEECFDBFF030EEDCFDBFF020EDBCF1D
:101BC00010F0030EDBCF11F0070ED8801054000E7A
:101BD000115407E2070EF36E020EF3CFDBFF030E84
:101BE000DB6A020EDBCFE6FF030EDBCFE6FFC20EA1
:101BF000E66E000EE66EBAC0E9FFBBC0EAFF020E59
:101C0000E926000EEA22EECFE6FFEFCFE6FF56EC24
:101C100012F0106E060EE15E1050020EDBCFE6FFF2
:101C2000030EDBCFE6FFFAEC0BF0E552E552B00E07
:101C3000E66E1C0EE66E000EE66EE66ABAEC0BF07F
:101C4000E552E552E552E55226D0DECFE9FFDDCF81
:101C5000EAFF020EE926000EEA22EECFC9F0EDCF30
:101C6000CAF0A00EE66E1E0EE66E000EE66EE66A86
:101C7000BAEC0BF0E552E552E552E552000EE66E85
:101C8000E66AFAEC0BF0E552E5520001010EE86F4E
:101C900002D01AEC0CF002D01AEC0CF0040EE15C4D
:101CA00002E2E16AE552E16EE552E7CFD9FF1200A8
:101CB000000EE66EE66AE66EE66ABAEC0BF0E552F6
:101CC000E552E552E5521200D9CFE6FFE1CFD9FF48
:101CD000080EE126070EE66EE66AB8C0E9FFB9C055
:101CE000EAFF020EE926000EEA22EECFE6FFEFCF72
:101CF000E6FFC20EE66E000EE66E56EC12F0106EB7
:101D0000060EE15E1050106A1B0E116EB70E126EB9
:101D1000136A10C004F011C005F012C006F013C021
:101D200007F0C2C009F0C3C00AF0C4C00BF0C5C0C0
:101D30000CF081EC12F004C0DEFF05C0DEFF06C02F
:101D4000DEFF07C0DDFFDD52DD52C2C009F0C3C0B7
:101D50000AF0C4C00BF0C5C00CF0046A1B0E056E7F
:101D6000B70E066E076A81EC12F0040E00C0DBFFAE
:101D7000050E01C0DBFF060E02C0DBFF070E03C02D
:101D8000DBFF040EDBCF10F0050EDBCF11F0060EEB
:101D9000DBCF12F0070EDBCF13F0010E1F0B07E0B5
:101DA000D8901036113612361336E806F9E10001E4
:101DB000C251105CC3511158C4511258C551135827
:101DC00009E2D9CFE9FFDACFEAFFEE06000EEE5ABC
:101DD000EE5AEE5AD9CFE9FFDACFEAFFEECF10F094
:101DE000EECF11F0EECF12F0EFCF13F01050AF6E38
:101DF000D9CFE9FFDACFEAFFEECF10F0EECF11F046
:101E0000EECF12F0EFCF13F0080ED890133212324B
:101E100011321032E806F9E11050B06E000EE66E95
:101E2000E66AE66EE66AD8EC0BF0E552E552E5525A
:101E3000E552880EE66E1E0EE66E000EE66EE66A4F
:101E4000BAEC0BF0E552E552E552E552000EE66EB3
:101E5000E66AFAEC0BF0E552E552B8C0E9FFB9C00A
:101E6000EAFFEE52080EEF6EB8C0E9FFB9C0EAFF14
:101E7000880EEF6E080EE15C02E2E16AE552E16E67
:101E8000E552E7CFD9FF1200000EE66EE66AE66E75
:101E9000E66ABAEC0BF0E552E552E552E552120063
:101EA000000EE66EE66AE66EE66ABAEC0BF0E55204
:101EB000E552E552E5521200D3C0E9FFD4C0EAFF73
:101EC000EF50800B01E0F8D71200D5C0E9FFD6C073
:101ED000EAFFEF50800B01E0F8D71200D3C0E9FF12
:101EE000D4C0EAFFEF50800B02E0000E01D0010EDB
:101EF00000D01200D5C0E9FFD6C0EAFFEF50800B3A
:101F000002E0000E01D0010E00D012000001D76BDC
:101F1000D3DF0001CEA111D0000ED16F060ED26F1B
:101F2000D3C0E9FFD4C0EAFF020EE926000EEA2280
:101F3000400EEE6E060EED6E10D0400ED16F060E06
:101F4000D26FD3C0E9FFD4C0EAFF020EE926000E2B
:101F5000EA22000EEE6E060EED6ECE1FD3C0E9FF34
:101F6000D4C0EAFFEE52EFCFCCF0D3C0E9FFD4C02B
:101F7000EAFFEE52400EEF6ED3C0E9FFD4C0EAFF95
:101F8000EF50400A400B80090809E66ED3C0E9FF14
:101F9000D4C0EAFFE552E750EF6ECC5100D01200FA
:101FA000D9CFE6FFE1CFD9FFD5C0E9FFD6C0EAFF20
:101FB000EF50800B01E0F8D70001CD5111E0D5C002
:101FC000E9FFD6C0EAFF020EE926000EEA22800EE3
:101FD000EE6E050EED6EC00ECF6F050ED06F10D0F9
:101FE000D5C0E9FFD6C0EAFF020EE926000EEA22BC
:101FF000C00EEE6E050EED6E800ECF6F050ED06F2B
:10200000D5C0E9FFD6C0EAFFEE52FE0EDBCFEFFFF0
:10201000D5C0E9FFD6C0EAFFEF50400A400B800967
:102020000809E66ED5C0E9FFD6C0EAFFE552E750E1
:10203000EF6ECD1F000E00D0E552E7CFD9FF1200A2
:10204000E66AAEDFE55212000001CB51000816E24D
:1020500051DF000901E1FCD7CBC0E6FFA1DFE5526B
:10206000400E0001CB5D04E10001010EEA6F02D0D9
:102070000001EA6B0001CB6B0001E96B1200040E5A
:102080000001E95D27E30001CB51000819E20001DE
:10209000EB5115E12FDF000912E0CBC0E6FF80DF36
:1020A000E552400E0001CB5D04E10001010EEA6F34
:1020B00002D00001EA6B0001CB6B0001E96B09D093
:1020C0000001EA5106E0E66A6BDFE5520001EA6BC7
:1020D000E96B01D0E92B1200D9CFE6FFE1CFD9FFA0
:1020E0000001010EEB6FFE0EDB50CFC0E9FFD0C048
:1020F000EAFFEF6E0001CF2B000ED023CB2B0001A7
:10210000EA6B400E0001CB5D09E1CBC0E6FF48DF82
:10211000E5520001CB6B0001010EEA6F0001EB6B91
:10212000E96BE552E7CFD9FF1200D9CFE6FFE1CF47
:10213000D9FFE652DF6A0001CC5105E1E7DE00017C
:10214000CC6FCC51FBE0D1C0E9FFD2C0EAFFEFCFAA
:10215000DFFFD12B000ED223CC07DF5000D0E55299
:10216000E552E7CFD9FF1200D9CFE6FFE1CFD9FF83
:102170000001CC5115E0D1C0E9FFD2C0EAFFEF5019
:10218000E66EFD0EDBCFE9FFFE0EDBCFEAFFE55288
:10219000E750EF6ED12B000ED223CC07010E1FD0DB
:1021A0009DDE00091AE0B2DE0001CC6FCC5115E0D3
:1021B000D1C0E9FFD2C0EAFFEF50E66EFD0EDBCFE3
:1021C000E9FFFE0EDBCFEAFFE552E750EF6ED12BC1
:1021D000000ED223CC07010E02D0000E00D0E55233
:1021E000E7CFD9FF1200D9CFE6FFE1CFD9FF000139
:1021F000CC5111E0D1C0E9FFD2C0EAFFEF50E66E4A
:10220000FD0EDBCFE9FFFE0EDBCFEAFFE552E75024
:10221000EF6E010E1BD062DE000916E077DE0001D2
:10222000CC6FCC5111E0D1C0E9FFD2C0EAFFEF5032
:10223000E66EFD0EDBCFE9FFFE0EDBCFEAFFE552D7
:10224000E750EF6E010E02D0000E00D0E552E7CF4E
:04225000D9FF1200A0
:0C225400D9CFE6FFE1CFD9FFE652E0EC65
:102260000CF046D8040EE66EE66ABB0EE66E230E50
:10227000E66E000EE66E780EE66E230EE66E000E3B
:10228000E66E660EE66E230EE66E000EE66E28EC37
:1022900004F0106E0B0EE15E105072EC04F04B0E69
:1022A0006912F28CF28EA08A200E0001B55DFCE36B
:1022B0007E0EE66E200EE66E90EC0BF0E552E552D7
:1022C000D9CFE6FFDACFE6FFF3EC10F0E552E552A6
:1022D000000908E095EC10F0DF6EDF28E66E6CEC8C
:1022E00010F0E552EDD7E552E552E7CFD9FF1200E5
:1022F0000F0EC112B56A12001200D8CFE4FFE0CF72
:10230000E4FFE46EDACFE4FFE2CFDAFFE9CFE4FFE7
:10231000EACFE4FFE652A1AA03D020EC05F0A19A8F
:10232000E552E5CFEAFFE5CFE9FFE5CFDAFFE5507B
:10233000E5CFE0FFE5CFD8FF1000DACFE4FFE2CF32
:10234000DAFFE9CFE4FFEACFE4FFE652A1AA03D027
:1023500020EC05F0A19AE552E5CFEAFFE5CFE9FFD1
:06236000E5CFDAFF1100D9
:0A2366001201000202000008D80472
:102370000A00020001020301090243000201008079
:102380006409040000010202010005240010010498
:10239000240202052406000105240101010705812C
:1023A000030A004009040100020A000000070502B8
:1023B0000240000007058202400000040309042ACD
:1023C00003440061006E006700650072006F0075D5
:1023D0000073002000500072006F0074006F0074E2
:1023E000007900700065007300120343004400434D
:1023F00000200054006500730074001203300030A8
:0D24000000300030003000300030003100AE
:01240D0000CE
:02240E002A0E94
:10241000F66E080EF76E000EF86E00010900F5501A
:10242000DE6F0900F550DF6F03E1DE6701D03DD0BC
:102430000900F550D96F0900F550DA6F0900F55021
:10244000DB6F09000900F550E96E0900F550EA6EEE
:10245000090009000900F550DC6F0900F550DD6F37
:1024600009000900F6CFE0F0F7CFE1F0F8CFE2F095
:10247000D9C0F6FFDAC0F7FFDBC0F8FF0001DC537C
:1024800002E1DD5307E00900F550EE6EDC07F8E2EB
:10249000DD07F9D7E0C0F6FFE1C0F7FFE2C0F8FFC3
:0C24A0000001DE07000EDF5BBFD712005A
:0424AC00D9CFE6FF9F
:1024B000DACFE6FFFA0EE3CFD9FFFB0EE3CFDAFF68
:1024C000FC0EE3CFE9FFFD0EE3CFEAFFE9CFF3FF18
:1024D000EACFF4FFF80EE35003E1F90EE35008E011
:1024E000F80EE30602E2F90EE306DECFEEFFF2D7C6
:1024F000FF0EE3CFDAFFE552FF0EE3CFD9FFE5523F
:022500001200C7
:0E250200036A026A016A006A200EE76ED89032
:1025100004360536063607360036013602360336EF
:102520000950005C0A5001580B5002580C500358D7
:1025300009E30950005E0A50015A0B50025A0C5030
:0A254000035A042AE72EE4D7120024
:06254A00000EF36E00EE2E
:1025500000F0080E01D81200EA6002D0EE6AFCD743
:0A256000F350E9601200EE6AFCD7A8
:06256A0013EE00F023EE69
:1025700000F0F86A0F9C07EC12F0C3EC12F02AECA2
:0625800011F0FBD7120070
:02258600120041
:02258800000051
:06258A004E4F454D5300C9
:0325900000000048
:020000040030CA
:0100000022DD
:010001000EF0
:010002003FBE
:010003001EDE
:010005008179
:010006008178
:010008000FE8
:01000900C036
:01000A000FE6
:01000B00E014
:01000C000FE4
:01000D0040B2
:00000001FF
