:020000040000FA
:0600000083EF18F012006E
:0600080004EF04F01200F9
:060018000CEF04F01200E1
:0608000083EF18F0120066
:060808003FEF18F01200A2
:0608180056EF18F012007B
:06082A000500363100005C
:10083000FC0000000100000035310000FB0000005A
:100840000100000034310000FA0000000100000047
:1008500032310000F700000002000000632F0000AA
:08086000F90000000100000096
:08086800D9CFE6FFE1CFD9FF73
:10087000E6526A6A686A160E6F6E9F0E6B6E7B0E8A
:10088000696E6D8C6E6A020EE66EE66AE66A710E3D
:10089000E66E0F0EE66E69EC18F00B6E050EE15E6B
:1008A0000B506D9CDF6ADF500B6E0C6A100E0B5CF8
:1008B000000E0C5810E2DF50040DF3CFE9FFF4CF27
:1008C000EAFF000EE926040EEA22EE6AEE6AEE6AFC
:1008D000EE6ADF2AE8D7160E706E68A602D0689618
:1008E000FCD700017B6B0001806B0001816B826B88
:1008F0006D980001080E6F6F040E706F0001616B40
:100900000001606BE552E552E7CFD9FF1200D9CF65
:10091000E6FFE1CFD9FFE65206D06D6A696A0001B1
:10092000606BA19AAFD0000160510FE16D6A696AF6
:10093000160E6F6E9F0E6B6E7B0E696E6DB602D0DB
:100940006D86FCD70001010E606F0001600509E1B2
:100950006DBA07D0686A696A698069880001020E09
:10096000606F6850040B05E06950040B02E0689466
:10097000BAD86DA202D0A19A85D06850010B15E0BB
:100980006950010B12E070DF0001040E606F04017A
:10099000400E026F040E036F0401080E016F040184
:1009A000006B8C0E0401001368906850100B05E07A
:1009B0006950100B02E084D868986850400B13E02F
:1009C0006950400B10E0010EE66EE66A000EE66E1E
:1009D000E66A730EE66EE66A0EEC11F00B6E060E1A
:1009E000E15E0B50689C6850200B04E06950200BBE
:1009F00001E04DD86850020B12E06950020B0FE085
:100A0000010EE66EE66A000EE66EE66AE668E668E5
:100A10000EEC11F00B6E060EE15E0B506A6A040ECE
:100A20000001E76E6019E8AE02D0E73402D0E7506B
:100A3000605D02E2A19A26D069A623D0DF6A040E87
:100A4000DF5C1FE268A61AD06CCF88F06896780E3B
:100A50000001881502E15DD810D0000EE66EE66A4E
:100A6000880EE66E000EE66E720EE66EE66A0EEC1C
:100A700011F00B6E060EE15E0B5001D002D0DF2AA2
:100A8000DED7A19AE552E552E7CFD9FF120070A058
:100A900015D063C0E9FF64C0EAFFEF5080080DE1A4
:100AA0006FC0E9FF70C0EAFFEF50840806E163C041
:100AB000E9FF64C0EAFF8C0EEF6E7090689A120036
:100AC000698468986D82000EE66EE66A000EE66E36
:100AD000E66A750EE66EE66A0EEC11F00B6E060E17
:100AE000E15E0B501200000EE66EE66A000EE66E46
:100AF000E66A740EE66EE66A0EEC11F00B6E060EF8
:100B0000E15E0B506D92699468A402D06894FCD7A2
:100B10001200D9CFE6FFE1CFD9FFE652FD0E00016A
:100B200088155EE17E0E00018815E8407F0B040DFC
:100B3000F3CF63F0F4CF64F0000E00016327040EDE
:100B40000001642363C065F064C066F00001657550
:100B500063C0E9FF64C0EAFFEF503C0BE842E842A3
:100B60000D083CE163C0E9FF64C0EAFF020EE9261C
:100B7000000EEA22EECF0BF0EFCF0CF0480E0B1870
:100B800002E1040E0C1828E163C0E9FF64C0EAFF2B
:100B9000020EE926000EEA22400EEE6E040EED6E05
:100BA000DF6ADF500B6E0C6A080E0B5C000E0C58EF
:100BB00013E2DF50EA6A480FE96E040EEA22EF50B2
:100BC000E66EDF50EA6A400FE96E040EEA22E55253
:100BD000E750EF6EDF2AE5D70ED801D033D806D024
:100BE000FD0E00018815040801E153D8E552E552D5
:100BF000E7CFD9FF12006FC0E9FF70C0EAFFEF50E6
:100C0000800B05E06FC0E9FF70C0EAFFEF6A0001EA
:100C1000776B0001786B00017C6B7D6B00017B6B57
:100C2000BFD8000EE66EE66A000EE66EE66A030EB8
:100C3000E66EE66A0EEC11F00B6E060EE15E0B50EE
:100C40009DEF08F0020E0001785D02E1E7DB20D0A5
:100C500071D8000189511AE165C0E9FF66C0EAFF59
:100C6000EE52080EEF6E65C0E9FF66C0EAFF020EA5
:100C7000E926000EEA22400EEE6E040EED6E65C00F
:100C8000E9FF66C0EAFF8C0EEF6E02D00001896BAF
:100C90001200D9CFE6FFE1CFD9FFE6526FC0E9FFDE
:100CA00070C0EAFFEF50400B01E0010EDF6E000163
:100CB0006F75080E0001605D0CE142C46EFF6E505E
:100CC000000804E20001100E606F03D00001040E62
:100CD000606F0001780528E16FC0E9FF70C0EAFF8E
:100CE000020EE926000EEA22480EEE6E040EED6EAC
:100CF000FEDA020E0001775D07E16FC0E9FF70C008
:100D0000EAFF840EEF6E0FD0DF5007E16FC0E9FFFE
:100D100070C0EAFFC80EEF6E06D06FC0E9FF70C06A
:100D2000EAFF880EEF6E01D005D8E552E552E7CF15
:100D3000D9FF1200D9CFE6FFE1CFD9FF020EE1269D
:100D40000001786B6FC0E9FF70C0EAFFEF6A040E24
:100D500000016F190B6E70C00CF00BC0DEFF0CC0F1
:100D6000DDFFDECFE9FFDDCFEAFFEF6A000180AFF4
:100D70000DD000018351841107E005D084C0FAFF33
:100D800000018351F96EFADF0001809F020EE15CE1
:100D900002E2E16AE552E16EE552E7CFD9FF1200C7
:100DA00004014051600BE842E842E842E842E84270
:100DB000000901E064D0040141510C0A5FE00B0A14
:100DC0004DE00C0A3FE0010A2AE00B0A26E0020A85
:100DD00024E0030A20E0080A11E0010A0DE00F0AEE
:100DE00009E0030A01E04AD000017B8F0001080EF0
:100DF000606F45D0DAD843D0B6DB41D00001610E38
:100E0000796F000E7A6F00017B810001010E7C6F0B
:100E100000017B8F34D028D932D032D830D00401B1
:100E200044510001796F7A6B620E00017927000E40
:100E300000017A2300017B810001010E7C6F00011B
:100E40007B8F1DD000017B8F04014451EA6A620F41
:100E5000E96E000EEA2242C4EFFF11D0000EE66EEA
:100E6000E66A000EE66EE66A020EE66EE66A0EECD2
:100E700011F00B6E060EE15E0B5001D000D0120097
:100E8000D9CFE6FFE1CFD9FF040EE12604014205E8
:100E900011E1040140511F0B00090CE100017B8F9F
:100EA000030E0401415D04E10001010E876F02D0D1
:100EB0000001876B040142516EE1040140511F0B98
:100EC000020869E1040144510F0B000964E00001CC
:100ED0007B8F040144BF11D0040144510F0BE96E14
:100EE000EA6AD890E936EA36670EE926000EEA2269
:100EF000EECFDEFFEDCFDDFF10D0040144510F0B2C
:100F0000E96EEA6AD890E936EA366F0EE926000EF5
:100F1000EA22EECFDEFFEDCFDDFF030E0401415DDF
:100F200007E1DECFE9FFDDCFEAFF840EEF6E33D0BD
:100F3000040144510F0B0C6A700F0B6E0F0E0C2244
:100F4000020E0BC0DBFF030E0CC0DBFF020EDBCF7B
:100F5000E9FF030EDBCFEAFFEE90ED52040144AF50
:100F60000DD0DECFE9FFDDCFEAFFEF6ADF74DECF21
:100F7000E9FFDDCFEAFF400EEF6E0DD0DECFE9FFD7
:100F8000DDCFEAFF880EEF6EDF74DECFE9FFDDCF45
:100F9000EAFFC80EEF6E040EE15C02E2E16AE55280
:100FA000E16EE552E7CFD9FF1200800E0401405DEB
:100FB0005AE10001C00E7B6F04014351030A2EE089
:100FC000010A0DE0030A01E04BD00001AA0E796F7F
:100FD0002E0E7A6F120E00017C6F7D6B44D00401DF
:100FE0004251F66EF76AD890F636F7365B0EF62663
:100FF0002F0EF7220900F5CF79F00A00F5CF7AF02D
:10100000020E0001F76A7925F66E7A51F72209007F
:10101000F5CF7CF00A00F5CF7DF025D0030E04015A
:10102000425D1BE204014251F66EF76AD890F63633
:10103000F7365D0EF6262F0EF7220900F5CF79F070
:101040000A00F5CF7AF079C0F6FF7AC0F7FF080002
:10105000F55000017C6F7D6B02D000017B6B03D0EB
:1010600000017B6B00D01200D9CFE6FFE1CFD9FFA2
:10107000020EE1260401486B0401496B0401405152
:101080001F0B020A12E0030A0DE0010A01E03ED044
:1010900000017B8F040148810001870502E1040102
:1010A000488334D000017B8F31D000017B8F040155
:1010B00044BF11D0040144510F0BE96EEA6AD89085
:1010C000E936EA36670EE926000EEA22EECFDEFFA9
:1010D000EDCFDDFF10D0040144510F0BE96EEA6A39
:1010E000D890E936EA366F0EE926000EEA22EECFF6
:1010F000DEFFEDCFDDFFDECFE9FFDDCFEAFFEF5012
:10110000040B03E00401010E486F00D000017BAF27
:101110000AD00001480E796F040E7A6F00017B81BE
:101120000001020E7C6F020EE15C02E2E16AE55210
:10113000E16EE552E7CFD9FF12006D9800017BBF49
:101140004CD0000180AF29D00001020E786F6FC033
:10115000E9FF70C0EAFFEE52EF6A6FC0E9FF70C0AE
:10116000EAFFC80EEF6E65C0E9FF66C0EAFFEE5207
:10117000080EEF6E65C0E9FF66C0EAFF020EE926C1
:10118000000EEA22480EEE6E040EED6E65C0E9FF19
:1011900066C0EAFFC80EEF6E1FD065C0E9FF66C0EB
:1011A000EAFFEE52080EEF6E65C0E9FF66C0EAFF87
:1011B000020EE926000EEA22400EEE6E040EED6EDF
:1011C00065C0E9FF66C0EAFF8C0EEF6E6FC0E9FFF5
:1011D00070C0EAFF840EEF6E89D0000180BF86D018
:1011E000040140AF5BD000017C510401465D000169
:1011F0007D510401475904E246C47CF047C47DF0A8
:1012000076D80001010E786F65C0E9FF66C0EAFF7D
:10121000EE52080EEF6E65C0E9FF66C0EAFF020EEF
:10122000E926000EEA22400EEE6E040EED6E65C059
:10123000E9FF66C0EAFF800EEF6E0001896B63C0B4
:10124000E9FF64C0EAFFEE52080EEF6E63C0E9FFEB
:1012500064C0EAFF020EE926000EEA22400EEE6E9E
:10126000040EED6E63C0E9FF64C0EAFF840EEF6E0A
:101270000001010E896F6FC0E9FF70C0EAFF020E26
:10128000E926000EEA22480EEE6E040EED6E6FC0E7
:10129000E9FF70C0EAFFC80EEF6E28D00001020E11
:1012A000786F6FC0E9FF70C0EAFFEE52EF6A6FC05F
:1012B000E9FF70C0EAFFC80EEF6E65C0E9FF66C0C7
:1012C000EAFFEE52080EEF6E65C0E9FF66C0EAFF66
:1012D000020EE926000EEA22480EEE6E040EED6EB6
:1012E00065C0E9FF66C0EAFFC80EEF6E1200D9CFF5
:1012F000E6FFE1CFD9FF020EE1260001080E7C5D7A
:10130000000E7D5912E27CC0DEFF7DC0DDFF0001D2
:10131000775104E10001010E776F06D000017705D7
:1013200003E10001020E776F03D0080EDE6EDD6A66
:101330006FC0E9FF70C0EAFFEF926FC0E9FF70C0B5
:10134000EAFFEF906FC0E9FF70C0EAFF010EDB50CB
:10135000EF126FC0E9FF70C0EAFFEE52DFCFEFFF80
:10136000000EDB5000017C5F010EDB5000017D5B55
:101370000001480E856F040E866F00017BB123D0FB
:10138000D9CFE9FFDACFEAFFEE50ED101BE0000104
:1013900079C0F6FF7AC0F7FF792B000E7A23080098
:1013A000F550E66E000185C0E9FF86C0EAFF852B97
:1013B000000E8623E552E750EF6EDF06010E01E2D4
:1013C000DB06DED721D0D9CFE9FFDACFEAFFEE5036
:1013D000ED101AE0000179C0E9FF7AC0EAFF792B2D
:1013E000000E7A23EF50E66E000185C0E9FF86C04B
:1013F000EAFF852B000E8623E552E750EF6EDF06ED
:10140000010E01E2DB06DFD7020EE15C02E2E16AD7
:10141000E552E16EE552E7CFD9FF1200D9CFE6FFE2
:10142000E1CFD9FF020EE12663C0E9FF64C0EAFF05
:10143000EE52EFCFDFFFDFCF0BF00B500001815DED
:10144000000E825903E281C0DFFF0DD0DF500B6E2A
:101450000C6A0B500001815D0001816F0C5000018E
:1014600082590001826F010EDB6ADF50F36E010EBC
:10147000DBCFF4FFF350F45C17E2010EDB50EA6AB5
:10148000480FE96E040EEA22EF50E66E00017EC0BE
:10149000E9FF7FC0EAFF7E2B000E7F23E552E75075
:1014A000EF6E010EDB2AE1D70001000ED8808155D6
:1014B000000E825528E265C0E9FF66C0EAFFEE52E1
:1014C000080EEF6E65C0E9FF66C0EAFF020EE9266E
:1014D000000EEA22480EEE6E040EED6E63C0E9FFC8
:1014E00064C0EAFFEF50400B07E165C0E9FF66C04A
:1014F000EAFFC80EEF6E06D065C0E9FF66C0EAFFDE
:10150000880EEF6E26D065C0E9FF66C0EAFFEE5296
:10151000080EEF6E65C0E9FF66C0EAFF020EE9261D
:10152000000EEA22400EEE6E040EED6E65C0E9FF7D
:1015300066C0EAFF840EEF6E00018351841107E05C
:1015400005D084C0FAFF00018351F96EFADF000173
:10155000809F020EE15C02E2E16AE552E16EE55233
:10156000E7CFD9FF120000017B8F020EE66EE66A1C
:10157000E66A710EE66E0F0EE66E69EC18F00B6E01
:10158000050EE15E0B50010EE66EE66AE66A620E3B
:10159000E66E000EE66E69EC18F00B6E050EE15E6D
:1015A0000B5042C461F00001615104E10001100ED2
:1015B000606F13D00001200E606F010EE66EE66AC8
:1015C000610EE66E000EE66E010EE66EE66A0EEC49
:1015D00011F00B6E060EE15E0B501200D9CFE6FF44
:1015E000E1CFD9FF020EE126000EDE6E040EDD6EA5
:1015F000FD0EDB50E8240D6EFE0EDB50040DF350A3
:101600000D24040DF3500B6E0C6A020E0F0B05E057
:10161000D8900C320B32E806FBE1D8900B360C3632
:10162000D8900B360C36D9CFE9FFDACFEAFF0B5052
:10163000EE260C50ED22DECFE9FFDDCFEAFFEF9E74
:10164000FD0EDB500FE1FE0EEA6ADB34FE0BEA36DC
:10165000E96E670EE926000EEA22DECFEEFFDDCF4F
:10166000EDFF0ED0FE0EEA6ADB34FE0BEA36E96EC1
:101670006F0EE926000EEA22DECFEEFFDDCFEDFF92
:10168000DECFE9FFDDCFEAFFEF9CDECFE9FFDDCF64
:10169000EAFF040EE926000EEA22EF8C020EE15C5E
:1016A00002E2E16AE552E16EE552E7CFD9FF1200AE
:1016B000D9CFE6FFE1CFD9FF020EE126FE0EDB50C7
:1016C0000C6A700F0B6E0F0E0C220BC0DEFF0CC0ED
:1016D000DDFFDECFE9FFDDCFEAFFFD0EDBCFEFFF61
:1016E000FD0EDBA407D0E66AFE0EDBCFE6FF76DF59
:1016F000E552E552FD0EDBA208D0010EE66EFE0EAD
:10170000DBCFE6FF6BDFE552E552020EE15C02E261
:10171000E16AE552E16EE552E7CFD9FF1200D9CF79
:10172000E6FFE1CFD9FF020EE126FE0EDB5020E1FD
:1017300065C0E9FF66C0EAFFEE52080EEF6E65C0B5
:10174000E9FF66C0EAFF020EE926000EEA22400E1B
:10175000EE6E040EED6E65C0E9FF66C0EAFF8C0E0A
:10176000EF6E6FC0E9FF70C0EAFF840EEF6E3DD0F0
:10177000FD0EDB50E8240D6EFE0EDB50040DF35021
:101780000D24040DF3CF0BF0F4CF0CF0000E0B265C
:10179000040E0C220BC0DEFF0CC0DDFF840E0B6EAE
:1017A000DECFE9FFDDCFEAFF0B50EF12FD0EDB507D
:1017B000E8240D6EFE0EDB50040DF3500D24010FD6
:1017C000040DF3CF0BF0F4CF0CF0000E0B26040E3B
:1017D0000C220BC0DEFF0CC0DDFF840E0B6EDECFD3
:1017E000E9FFDDCFEAFF0B50EF12020EE15C02E2EF
:1017F000E16AE552E16EE552E7CFD9FF1200D9CF99
:10180000E6FFE1CFD9FF020EE126FD0EDB500FE02F
:10181000FE0EEA6ADB34FE0BEA36E96E6F0EE9264D
:10182000000EEA22EECFDEFFEDCFDDFF0ED0FE0E82
:10183000EA6ADB34FE0BEA36E96E670EE926000E33
:10184000EA22EECFDEFFEDCFDDFFDECFE9FFDDCF19
:10185000EAFF020EE926000EEA22FB0EDBCFEEFFC6
:10186000FC0EDBCFEDFFDECFE9FFDDCFEAFFEE526E
:10187000FA0EDBCFEFFF400E0B6EDECFE9FFDDCFC0
:10188000EAFF0B50EF16880E0B6EDECFE9FFDDCFBF
:10189000EAFF0B50EF12FD0EDB500CE0FE0EEA6A81
:1018A000DB34FE0BEA36E96E6F0EE926000EEA2203
:1018B000EF740BD0FE0EEA6ADB34FE0BEA36E96EFB
:1018C000670EE926000EEA22EF74DECF0BF0DDCFC3
:1018D0000CF00BC0F3FF0CC0F4FF00D0020EE15C73
:1018E00002E2E16AE552E16EE552E7CFD9FF12006C
:1018F000D9CFE6FFE1CFD9FF6DA84ED0FE0EEA6A40
:10190000DB34FE0BEA36E96E6F0EE926000EEA22A2
:10191000EE50EFCFEAFFE96E400EEE16EE6AEE6A89
:10192000EE6AFE0EEA6ADB34FE0BEA36E96E6F0EF3
:10193000E926000EEA22EE50EFCFEAFFE96EEE7CD8
:10194000FE0EEA6ADB34FE0BEA36E96E6F0EE9261C
:10195000000EEA22EF74400E0B6EFE0EEA6ADB34D4
:10196000FE0BEA36E96E6F0EE926000EEA22EE5013
:10197000EFCFEAFFE96E0B50EF16FE0EEA6ADB349A
:10198000FE0BEA36E96E6F0EE926000EEA22EE50F3
:10199000EFCFEAFFE96EEF7CE552E7CFD9FF120007
:1019A000040140511F0B010801E057D004014051D0
:1019B000600BE842E842E842E842E842010801E000
:1019C0004CD00401445104E00401440501E045D039
:1019D00004014151220A3BE0030A2CE0010A1BE00A
:1019E000210A11E0010A01E037D00001F40E796FFD
:1019F000010E7A6F080E00017C6F7D6B00017B8108
:101A000000017B8F2AD00001F40E796F010E7A6FEE
:101A100000017B8F22D046C481F047C482F00001D0
:101A2000880E7E6F050E7F6F0001836B846B000153
:101A3000808F13D00001880E796F050E7A6F070E24
:101A400000017C6F7D6B0001C10E7B6F06D042C42C
:101A5000EFF100017B8F01D000D012000501886BEF
:101A60004B0E896F8A6B8B6B05018C6B05018D6B3F
:101A70000501080E8E6F0101E46B0101E36B1A0E84
:101A8000E66E020EE66E58EC0BF0E552E5521E0EC5
:101A9000E66E030EE66E58EC0BF0E552E552400E92
:101AA000E66E080EE66E050EE66EE66A030EE66E5C
:101AB000FFEC0BF00B6E050EE15E0B50F3CFEBF17C
:101AC000F4CFECF10101ED6BEE6B1200D9CFE6FF24
:101AD000E1CFD9FF0101E36B0101EB51EC1102E110
:101AE000000E08D0EBC1E9FFECC1EAFFEF50800B1C
:101AF00001E0010E00094AE1FC0EDBCF0BF0EBC167
:101B0000E9FFECC1EAFFEE52EF50D8800B5408E237
:101B1000EBC1E9FFECC1EAFFEE52FC0EEFCFDBFFB9
:101B20000101E36BFC0EDB500101E35D1CE20101EE
:101B3000E351EA6A080FE96E050EEA22EF50E66EFD
:101B40000101E351E76EFD0EDBCFE9FFFE0EDBCFB7
:101B5000EAFFE750E926000EEA22E552E750EF6E71
:101B60000101E32BDFD7400EE66E080EE66E050E90
:101B7000E66EE66A030EE66EFFEC0BF00B6E050EEA
:101B8000E15E0B50F3CFEBF1F4CFECF10101E35147
:101B900000D0E552E7CFD9FF1200D9CFE6FFE1CF61
:101BA000D9FF0101E4510FE1FD0EDBCFE5F1FE0E9F
:101BB000DBCFE6F1FC0EDBCFE9F10101010EEA6FAC
:101BC0000101010EE46FE552E7CFD9FF1200D9CF32
:101BD000E6FFE1CFD9FF030EE1260101E45101E068
:101BE00030D0DF6AFD0EDBCF06F0FE0EDBCF07F054
:101BF000DE5206C0DEFF07C0DDFFDD52DF2ADF5008
:101C00000B6E0C6AFF0E0B1801E10C5001E10BD0BA
:101C1000010EDBCFE9FFDB2A020EDBCFEAFF01E397
:101C2000DB2AEF50EBE1FD0EDBCFE5F1FE0EDBCF63
:101C3000E6F1DFCFE9F10101010EEA6F0101010ECA
:101C4000E46F030EE15C02E2E16AE552E16EE55207
:101C5000E7CFD9FF1200D9CFE6FFE1CFD9FF030EBE
:101C6000E1260101E45101E030D0DF6AFD0EDBCF57
:101C700006F0FE0EDBCF07F0DE5206C0DEFF07C027
:101C8000DDFFDD52DF2ADF500B6E0C6AFF0E0B18F2
:101C900001E10C5001E10CD0010EDBCFF6FFDB2A95
:101CA000020EDBCFF7FF01E3DB2A0800F550EAE183
:101CB000FD0EDBCFE5F1FE0EDBCFE6F1DFCFE9F184
:101CC0000101EA6B0101010EE46F030EE15C02E227
:101CD000E16AE552E16EE552E7CFD9FF1200D9CFB4
:101CE000E6FFE1CFD9FF020EE1260101ED51EE1131
:101CF00002E1000E08D0EDC1E9FFEEC1EAFFEF50AE
:101D0000800B01E0010E000901E098D0030E0101F3
:101D1000E45D02E10101E46B0101E45101E18ED0D7
:101D2000020E0101E45D16E1E66A000EE66EE66A67
:101D3000010EE66E030EE66EFFEC0BF00B6E050E69
:101D4000E15E0B50F3CFEDF1F4CFEEF10101030EA4
:101D5000E46F74D00101E40571E1400E0B6E0C6A72
:101D60000101E9510B5C000E0C5803E2400EDF6EDE
:101D700002D0E9C1DFFFDF500101E95D0101E96F38
:101D80000101480EE76F050EE86F010EDFCFDBFFA4
:101D90000101EA511AE1010EDB5016E0E5C1F6FF40
:101DA000E6C1F7FF0800F550E7C1E9FFE8C1EAFF27
:101DB000EF6E0101E72B000EE8230101E52B000E79
:101DC000E623010EDB06E7D718D0010EDB5015E045
:101DD000E5C1E9FFE6C1EAFFEF50E7C1E9FFE8C16D
:101DE000EAFFEF6E0101E72B000EE8230101E52B6E
:101DF000000EE623010EDB06E8D70101E9510AE1F6
:101E0000400EDF5C04E10101020EE46F03D001012A
:101E1000030EE46FDFCFE6FF480EE66E050EE66EBA
:101E2000010EE66E030EE66EFFEC0BF00B6E050E78
:101E3000E15E0B50F3CFEDF1F4CFEEF1020EE15C79
:101E400002E2E16AE552E16EE552E7CFD9FF120006
:101E50008AD93AEC18F05BEC16F034EC04F087EC1D
:101E600004F0010E0001E76E6019E8AE02D0E7341D
:101E700002D0E750605D03E36D50020B03E08990F0
:101E8000EED717D0200E0001E76E6019E8AE02D041
:101E9000E73402D0E750605D06E289800101010E5F
:101EA000E06FDDD706D00101E05103E08990010128
:101EB000E06B0001F951030A28E0010A1DE0030A62
:101EC00001E02CD001EC18F0DF0EE66E010EE66E9C
:101ED00014EC18F0E552E552010805E1DFC1E6FF18
:101EE0000FEC15F0E5527AEC15F0FF0804E15BEC1D
:101EF00016F00001F96BB8D079EC13F0000904E09A
:101F00005BEC16F00001F96BAFD088EC11F0000922
:101F100004E05BEC16F00001F96BA6D079EC16F04A
:101F200001EC18F0DF0EE66E010EE66E14EC18F010
:101F3000E552E552000901E197D00101DF51240A81
:101F400001E18ED0720A6FE0200A6DE0220A37E0CC
:101F5000200A35E02C0A2BE0200A29E02B0A1FE09A
:101F6000200A1DE0010A14E0200A12E0520A05E0EE
:101F7000010A03E0030A01E076D0F2969D92000187
:101F8000010EF96FDFC1E6FF0FEC15F0E5526BD0E3
:101F90005BEC16F00001F96B64EC16F064D09D92D6
:101FA000F2960001030EF96F59EC11F05CD09D928E
:101FB000F2960001020EF96F3BEC13F054D0F2964A
:101FC0009D9256D80101DF6F0101E4512BE101011F
:101FD000DF5130080DE289900101460E9E6F01012C
:101FE000410E9F6F0101490EA06FDFC1A1F10FD01B
:101FF00089800101560E9E6F300E0101DE25010120
:102000009F6F0101300EA06F0101360EA16F040E0B
:10201000E66E9E0EE66E010EE66ECDEC0DF0E5521C
:10202000E552E55220D00101E45119E10101560EBB
:102030009E6F300E0101DE2501019F6F0101300E00
:10204000A06F0101360EA16F040EE66E9E0EE66EC5
:10205000010EE66ECDEC0DF0E552E552E55203D0EF
:102060000BEF00F000D000D06FEC0EF0F8D61200AD
:10207000D9CFE6FFE1CFD9FF030EE126300EDF6EA8
:1020800093888B949494BD6ACA6A100EF36E010E05
:10209000F3CFDBFF270EF36E020EF3CFDBFF010E53
:1020A000DBCF0BF0DB06020EDBCF0CF001E2DB0630
:1020B0000B500C1001E0F3D781B802D0000EDB808A
:1020C000020E0101DE5D1EE182A2DF8494948B8406
:1020D000E80EF36E010EF3CFDBFF030EF36E020E7C
:1020E000F3CFDBFF010EDBCF0BF0DB06020EDBCF05
:1020F0000CF001E2DB060B500C1001E0F3D782B2CA
:10210000DF848B949E929D92520ECB6E050ECA6E0A
:10211000290EBE6E1C0EBD6E400EF36E010EF3CF87
:10212000DBFF9C0EF36E020EF3CFDBFF010EDBCF65
:102130000BF0DB06020EDBCF0CF001E2DB060B50EE
:102140000C1001E0F3D781B8DF82DF5000D00B6EB6
:10215000030EE15C02E2E16AE552E16E0B50E552EA
:10216000E7CFD9FF1200D9CFE6FFE1CFD9FF030EA9
:10217000E1260F0EC112B56A34EC04F094948B94EE
:1021800089809290BD6ABA6ACD6A9F80CA6A9F822E
:10219000F18E8A6A936A9388F290F296F180938422
:1021A0009482938294800101020EDE6FE80EF36E3A
:1021B000010EF3CFDBFF030EF36E020EF3CFDBFF56
:1021C000010EDBCF0BF0DB06020EDBCF0CF001E2E1
:1021D000DB060B500C1001E0F3D7DF6A640EDF5C06
:1021E00008E282B204D00101010EDE6F02D0DF2AC4
:1021F000F5D7F28CF28E030EE15C02E2E16AE55261
:10220000E16EE552E7CFD9FF120012001200120072
:102210001200D0EF0CF012002EEF0DF0D9CFE6FF38
:10222000E1CFD9FFFD0EDBCF06F0FE0EDBCF07F0CE
:10223000720E061801E1075033E0E868061802E163
:10224000E86807182BE0740E061801E1075024E037
:10225000750E061801E107501DE0730E061801E126
:10226000075016E0030E061801E107500FE0020EBA
:10227000061801E1075008E0010E061801E10750B9
:1022800001E010D0C9DF0FD0C6DF0DD0C2DF0BD008
:10229000BEDF09D0BADF07D0B9DF05D0B9DF03D080
:1022A000000001D000D0010E00D0E552E7CFD9FFE9
:0222B00012001A
:0E22B2000101E45114E10101530E9E6F010180
:1022C000300E9F6F0101310EA06F030EE66E9E0E61
:1022D000E66E010EE66ECDEC0DF0E552E552E552EC
:1022E0000001CD930001CD950001CD970001C76B92
:1022F0000001C56B0001C66B0001CD910001CD99B5
:10230000D56A070ED56ED596CD6AF286F290120088
:102310000001C6510FE1400EE66E000EE66E010EA2
:10232000E66E66EC0DF0E552E552E5520001C66F2F
:102330000001CE6B0001C651000801E38FD00001FF
:10234000FB51020A71E0030A50E0010A01E086D065
:102350000001CE51EA6A000FE96E010EEA22EF5049
:10236000040A26E0060A14E0020A01E038D0BD6A39
:10237000D59EF29AD56ACA94B16ABA6ACD909D90F8
:10238000F29694848B9489909290010ED0D028D0AC
:102390000001CE51EA6A000FE96E010EEA22EFCF8A
:1023A000CFF00001020ED46F0001010EFB6F18D0B8
:1023B0000101DE51010812E20101E4510FE1B2CF47
:1023C000C1F0B3CFC0F0080EE66EBA0EE66E000E96
:1023D000E66ECDEC0DF0E552E552E55201D000D0AD
:1023E0000001C6070001CE2B39D00001CE51EA6AA8
:1023F000000FE96E010EEA22EF50E66E0001D551A2
:10240000EA6ACF0FE96E000EEA22E552E750EF6E5E
:102410000001C6070001CE2B0001D52B0001D451CD
:102420000001D55D01E21AD00001CF51020A01E09E
:1024300012D0CA6AD0C0CBFF0001D0417F0BBE6E64
:102440000001D0A103D02C0EBD6E02D00C0EBD6ECB
:10245000050ECA6E00D00001FB6B00D00001CDB9A3
:102460003BD00001CDA31CD00001C5513E0818E3AC
:102470000001C551EA6A9E0FE96E010EEA22B6C05C
:10248000EFFF0001C52B0001C551EA6A9E0FE96EFE
:10249000010EEA22B7C0EFFF0001C52B0001CD936A
:1024A000400E0001C55D05E000010001CD51080BA3
:1024B00012E00101E4510FE1C5C0E6FF9E0EE66E99
:1024C000010EE66ECDEC0DF0E552E552E55200014D
:1024D000C56B0001CD9729D00101E45126E101012E
:1024E0009E6901019F690101A0690101A1690101C2
:1024F000A2690101A3690001060EC56FC5C0E6FF10
:102500009E0EE66E010EE66ECDEC0DF0E552E55244
:10251000E552CD90D59EF294F286F2900001C56B03
:102520000001CD970001CD998990000E00D01200D6
:10253000DACFE4FFE2CFDAFFE9CFE4FFEACFE4FF4E
:10254000E652F250080B42E0F250010B3FE081CF1F
:10255000B7F0D5BE24D00001B7B920D08980D76AA2
:10256000D66AF28AF294D58ECF6ACE6A9E909D800A
:10257000CD800101DE51010811E2948293829480A2
:10258000A090B16A050EBA6EA190A080060EB16E41
:10259000B36A010EB26EB1800001C26B15D0D59E38
:1025A000D6CFB7F0D7CFB6F0D76AD66AF294D58E29
:1025B000CD90CF6ACE6ACD800001CDB303D00001AB
:1025C000CD8302D00001CD89F2904DD0A150010BF6
:1025D00025E0A050010B22E0060E0001C25D1DE2C5
:1025E0000001C251EA6ABA0FE96E000EEA22BCCFBE
:1025F000EFFF0001C22B0001C251EA6ABA0FE96E77
:10260000000EEA22BBCFEFFF0001C22BA190060E05
:102610000001C25D02E1A090BA6A25D0F250200B01
:1026200019E0F250040B16E0CD90B190D59EF294D3
:102630000001CDB309D00001B6690001B7690001FE
:10264000CD830001CD8702D00001CD89F286F290C2
:10265000899009D09D50010B06E09E50010B03E0CC
:102660000001CD879E90E552E5CFEAFFE5CFE9FF77
:06267000E5CFDAFF1100C6
:0A2676000101E45114E10101580EC6
:102680009E6F0101300E9F6F0101310EA06F030E8E
:10269000E66E9E0EE66E010EE66ECDEC0DF0E55296
:1026A000E552E55294848B949E929D92520ECB6E8D
:1026B000050ECA6E290EBE6E1C0EBD6E0001DB6BD0
:1026C0000001E0930001E0950001E0970001DA6B62
:1026D0000001D86B0001D96B0001E0910001FB0EF5
:1026E000D66F00014B0ED76F0001400EDC6FF286F3
:1026F00012000001D9510FE1400EE66E000EE66EA9
:10270000010EE66E66EC0DF0E552E552E552000171
:10271000D96F0001E16B0001D951000801E3C4D079
:102720000001FC51020A01E19ED0030A01E17CD0C4
:10273000010A01E0B9D0800E0001DC5D0AE0000171
:10274000E151EA6A000FE96E010EEA22EF50800BB8
:1027500034E00001E0B11ED089800001E081F296F2
:10276000CD6A0001E0870001E151EA6A000FE96EDD
:10277000010EEA22EFCFDFF00001E0850001D9076A
:102780000001E12BD6C0CFFFD7C0CEFF9E909D8029
:10279000CD8012D00001E0B50FD00001E151EA6A0E
:1027A000000FE96E010EEA22EFCFDFF00001E12B0E
:1027B0000001E0850001D90736D00001E151EA6A45
:1027C000000FE96E010EEA22EF50030A23E0020A2D
:1027D00011E0030A0FE0020A01E020D0BD6ACA94AA
:1027E000CD909D90F29694848B9489909290010E56
:1027F0008ED015D00001E151EA6A000FE96E010E9A
:10280000EA22EFCFE2F00001020EE76F0001010EB5
:10281000FC6F05D00001800EDC6F01D000D00001FC
:10282000D9070001E12B40D00001E151EA6A000F15
:10283000E96E010EEA22EF50E66E0001E851EA6A05
:10284000E20FE96E000EEA22E552E750EF6E00015A
:10285000D9070001E12B0001E82B0001E75100013D
:10286000E85D01E221D00001E251020A08E0030A1A
:1028700001E017D0E3C0D6F0E4C0D7F012D0CA6AA6
:10288000E3C0CBFF0001E3417F0BBE6E0001E3A17B
:1028900003D02C0EBD6E02D00C0EBD6E050ECA6E9E
:1028A00000D00001FC6B00D00001E0A313D0400E6B
:1028B0000001D85D0EE20001D851EA6A9E0FE96E70
:1028C000010EEA22DEC0EFFF0001D82B0001E093E9
:1028D00001D09280400E0001D85D05E000010001AA
:1028E000E051080B12E00101E4510FE1D8C0E6FF0E
:1028F0009E0EE66E010EE66ECDEC0DF0E552E55251
:10290000E5520001D86B0001E097000E00D01200E4
:10291000DACFE4FFE2CFDAFFE652F250080B1BE019
:10292000F250010B18E081B814D0F2968980CD6A7C
:10293000D6C0CFFFD7C0CEFF9E909D80CD80000136
:10294000400EDD6F0001200EDB6F0001E0930001FF
:10295000DA6BF29060D09D50010B5DE09E50010B50
:102960005AE0CD90D6C0CFFFD7C0CEFFCD800001BA
:10297000E0A125D00001DB510BE100010001E05195
:10298000040B06E0DFC0DDF00001E095DCC0DBF009
:102990000001DB510CE00001DD510001DB1502E11B
:1029A000948401D094940001DB91DB4307D094849C
:1029B00089900001E0919D90CD90F2862BD081B856
:1029C00004D00001DB510001DD130001DB91DB438A
:1029D0000001DB511FE10001DD5103E10001DA2BB1
:1029E00002D00001DA6B050E0001DA5D05E1CD9041
:1029F00089900001E087F2860001E0B305D0DDC0D8
:102A0000DEF00001E08301D092800001DD6B000167
:0E2A1000800EDB6F9E90E552E5CFDAFF1100DD
:022A1E00D9CF0E
:102A2000E6FFE1CFD9FF0001F851020A5CE0030A9A
:102A300048E0010A01E05AD0FE0EDB50130A33E0F1
:102A4000020A30E0100A27E0030A0AE0020A01E065
:102A50002BD09D92CA94F2960001030EF76F30D0EE
:102A60000101E45117E10101310E9E6F0101410E98
:102A70009F6F01014C0EA06F0101530EA16F040E58
:102A8000E66E9E0EE66E010EE66ECDEC0DF0E552A2
:102A9000E552E55215D089800001010EF76FF290E2
:102AA000F2860ED00DD00CD0FE0EDBCFEEF0000182
:102AB000040EF36F0001F46B0001010EF86F00D0FB
:102AC00015D00001F451EA6AEE0FE96E000EEA2219
:102AD000FE0EDBCFEFFF0001F42B0001F3510001EC
:102AE000F45D01E203D00001F86B00D0E552E7CFBE
:102AF000D9FF12000001F751030A5DE0010A01E06D
:102B00005FD00101E45156E10001F66B0001F56B65
:102B1000080E0001F55D43E20001ED9FED47000165
:102B2000ED510EE10001000ED880EB55000EEC5582
:102B300007E20001010EED6F0001EB07000EEC5BF8
:102B4000000E0001EB25E96E010E0001EC21EA6E9A
:102B5000EF500001ED1509E00001F651EA6A9E0F01
:102B6000E96E010EEA22EF6A09D00001F651EA6A25
:102B70009E0FE96E010EEA22010EEF6E0001F62BA8
:102B80000001E907000EEA5B0001E951EA1104E1E6
:102B90000001030EF76F03D00001F52BB9D7F6C083
:102BA000E6FF9E0EE66E010EE66ECDEC0DF0E552F0
:102BB000E552E55205D00001F76BFF0E03D000D0BF
:102BC000000E00D01200DACFE4FFE2CFDAFFE9CF47
:102BD000E4FFEACFE4FFE652F250080B1DE0F250AA
:102BE000010B1AE081B816D0F2968980960ECB6E52
:102BF000090ECA6E9E929D82CA840101800E006FEA
:102C0000020E0001E96FEA6B0001EB6BEC6B000157
:102C1000200EED6FF29047D09D50020B44E09E5085
:102C2000020B41E0100E811411E00001800EEB5DFB
:102C3000000EEC590BE2000E0001EB25E96E010ECF
:102C40000001EC21EA6E0001ED51EF120001ED915F
:102C5000ED430001ED5116E10001800EED6F000122
:102C6000EB2B000EEC230001800EEB5D000EEC5907
:102C700009E2000E0001EB25E96E010E0001EC21D6
:102C8000EA6EEF6A0001E92B000EEA230001E95128
:102C900002E1040EEA1906E10001020EF76FCA9480
:102CA0009D9289909E92E552E5CFEAFFE5CFE9FF3C
:062CB000E5CFDAFF110080
:0A2CB6000001FA6BBD6ACA6A9D9224
:102CC0009E92F290F28612000101E45111E101019D
:102CD0004F0E9E6F01014B0E9F6F020EE66E9E0E11
:102CE000E66E010EE66ECDEC0DF0E552E552E552D2
:102CF0001200040E0001FA5D4BE10101E45148E1CC
:102D000001019E6B0101020EFF6F070E0101FF5DC5
:102D100010E201019E9F9E470101FF51EA6A000FE8
:102D2000E96E010EEA22EF5001019E130101FF2B13
:102D3000ECD700C19FF10101070EFF6F0D0E0101DD
:102D4000FF5D10E201019F9F9F470101FF51EA6A69
:102D5000000FE96E010EEA22EF5001019F130101FD
:102D6000FF2BECD70101A06B0101A16B0101A26B4C
:102D70000101A36B060EE66E9E0EE66E010EE66E78
:102D8000CDEC0DF0E552E552E5520001FA6BF2860A
:102D90001200DACFE4FFE2CFDAFFE9CFE4FFEACFB7
:102DA000E4FFE652F250080B17E0F250010B14E07A
:102DB0000001FA510FE1100E81140CE1F2968980A6
:102DC000DD0ECB6E290ECA6E9E929D82CA840001D2
:102DD000010EFA6FF29061D09D50020B5EE09E50A2
:102DE000020B5BE00001FA51030A1EE0010A12E047
:102DF000030A01E051D0CA94DD0ECB6E590ECA6EA3
:102E00000101FE6B0001020EFA6F9E929D82CA8440
:102E1000899042D08150100B01E0010E0101FC6F3E
:102E20000001030EFA6F38D08150100B01E0010E43
:102E30000101FD6F0101FC050DE10101FD510AE1F8
:102E40000101FE51EA6A000FE96E010EEA22010E4D
:102E5000EF6E14D00101FC510CE10101FD0509E107
:102E60000101FE51EA6A000FE96E010EEA22EF6AE3
:102E700005D00001FA6BCA94F2860ED00001020E52
:102E8000FA6F0101FE2B0D0E0101FE5D04E1000150
:102E9000040EFA6FCA9400D09E92E552E5CFEAFF85
:0A2EA000E5CFE9FFE5CFDAFF1100EE
:062EAA001201000202000B
:102EB0000008D80408FD00010102000109024300D6
:102EC0000201008032090400000102020100052411
:102ED000001001042402020524060001052401005B
:102EE000010705820308000209040100020A00002C
:102EF00000070503024000000705830240000004AC
:102F00000309043003440061006E0067006500722D
:102F1000006F0075007300500072006F0074006F46
:102F200000740079007000650073002E0063006F6C
:102F3000006D002803550053004200490052007400
:102F4000006F007900200028004300440043002D5A
:102F50000032003300320029000000BC2EFF2E0397
:032F60002F332FDD
:012F6300006D
:0C2F64002A0EF66E080EF76E000EF86ED6
:102F700002010900F550056F0900F550066F03E1E5
:102F8000056701D03DD00900F550006F0900F550EC
:102F9000016F0900F550026F09000900F550E96E54
:102FA0000900F550EA6E090009000900F550036FA9
:102FB0000900F550046F09000900F6CF07F2F7CFBA
:102FC00008F2F8CF09F200C2F6FF01C2F7FF02C211
:102FD000F8FF0201035302E1045307E00900F55032
:102FE000EE6E0307F8E20407F9D707C2F6FF08C23E
:102FF000F7FF09C2F8FF02010507000E065BBFD705
:023000001200BC
:0E3002000001B4510FE11E0EE66E960EE66E52
:10301000000EE66E66EC0DF0E552E552E552000159
:10302000B46F0001B56B1200D9CFE6FFE1CFD9FF35
:103030000001B451000818E20001B551EA6A960F88
:10304000E96E000EEA22EF50E66EFD0EDBCFE9FFDF
:10305000FE0EDBCFEAFFE552E750EF6E0001B4074A
:103060000001B52B010E02D0000E00D0E552E7CFD3
:0E307000D9FF12000001B46B0001B56B120015
:02307E0000014F
:10308000F95110E0010A0BE0020A06E0010A01E032
:103090000CD088EF14F009D098EF12F006D0E3EFCF
:1030A00015F003D0C9EF16F000D01200D8CFE4FF1E
:1030B000E0CFE4FFE46EDACFE4FFE2CFDAFFE652DE
:1030C000E552E5CFDAFFE550E5CFE0FFE5CFD8FFE9
:0230D0001000EE
:0E30D200FE0EE3CFE9FFFF0EE3CFEAFFE9CFEA
:1030E000F3FFEACFF4FFFB0EE35003E1FC0EE350E5
:1030F00009E0FB0EE30602E2FC0EE306FD0EE350E0
:06310000EE6EF1D7120093
:0A31060013EE00F023EE00F0F86A6B
:103110000A9CB2EC17F098EC18F028EC0FF0FBD7F3
:0231200012009B
:0E31220000EE00F00F0EEE6AEA62FDD712001A
:0231300012008B
:0231320000009B
:01313400009A
:013135000099
:013136000098
:020000040030CA
:0100000024DB
:010001000EF0
:010002003FBE
:010003001EDE
:010005008179
:010006008178
:010008000FE8
:01000900C036
:01000A000FE6
:01000B00E014
:01000C000FE4
:01000D0040B2
:00000001FF
