:020000040000FA
:100000000002040000000000D29C0000D29C00000E
:10001000D29C0000D29C0000D29C0000D29C000028
:10002000D29C0000D29C0000D29C0000D29C000018
:10003000D29C0000D29C0000D29C0000D29C000008
:10004000D29C0000D29C0000D29C0000D29C0000F8
:10005000D29C0000A6680000CC680000D29C000082
:10006000D29C0000D29C0000D29C0000D29C0000D8
:10007000D29C0000D29C0000D29C0000D29C0000C8
:10008000D29C0000D29C0000D29C0000D29C0000B8
:10009000D29C0000D29C0000D29C0000D29C0000A8
:1000A000D29C0000D29C0000D29C0000D29C000098
:1000B000D29C0000D29C0000D29C0000D29C000088
:1000C000D29C0000D29C0000D29C0000D29C000078
:1000D000D29C0000D29C0000D29C0000D29C000068
:1000E000D29C0000D29C0000D29C0000D29C000058
:1000F000D29C0000D29C0000D29C0000D29C000048
:10010000D29C0000D29C0000D29C0000D29C000037
:10011000D29C0000D29C0000D29C0000D29C000027
:10012000D29C0000D29C0000D29C0000D29C000017
:10013000D29C0000D29C0000D29C0000D29C000007
:10014000D29C0000D29C0000D29C0000D29C0000F7
:10015000D29C0000D29C0000D29C0000D29C0000E7
:10016000D29C0000D29C0000D29C0000D29C0000D7
:10017000D29C0000D29C0000D29C0000D29C0000C7
:10018000D29C0000D29C0000D29C0000D29C0000B7
:10019000D29C0000D29C0000D29C0000D29C0000A7
:1001A000D29C0000D29C0000D29C0000D29C000097
:1001B000D29C0000D29C0000D29C0000D29C000087
:1001C000D29C0000D29C0000D29C0000D29C000077
:1001D000D29C0000D29C0000D29C0000D29C000067
:1001E000D29C0000D29C0000D29C0000D29C000057
:1001F000D29C0000D29C0000D29C0000D29C000047
:10020000FFFFFF00FFFFFF00D29C0000D29C000018
:10021000D29C0000D29C0000D29C0000D29C000026
:10022000D29C0000D29C0000D29C0000D29C000016
:10023000D29C0000D29C0000D29C0000D29C000006
:10024000D29C0000D29C0000D29C0000D29C0000F6
:10025000D29C0000A6680000CC680000D29C000080
:10026000D29C0000D29C0000D29C0000D29C0000D6
:10027000D29C0000D29C0000D29C0000D29C0000C6
:10028000D29C0000D29C0000D29C0000D29C0000B6
:10029000D29C0000D29C0000D29C0000D29C0000A6
:1002A000D29C0000D29C0000D29C0000D29C000096
:1002B000D29C0000D29C0000D29C0000D29C000086
:1002C000D29C0000D29C0000D29C0000D29C000076
:1002D000D29C0000D29C0000D29C0000D29C000066
:1002E000D29C0000D29C0000D29C0000D29C000056
:1002F000D29C0000D29C0000D29C0000D29C000046
:10030000D29C0000D29C0000D29C0000D29C000035
:10031000D29C0000D29C0000D29C0000D29C000025
:10032000D29C0000D29C0000D29C0000D29C000015
:10033000D29C0000D29C0000D29C0000D29C000005
:10034000D29C0000D29C0000D29C0000D29C0000F5
:10035000D29C0000D29C0000D29C0000D29C0000E5
:10036000D29C0000D29C0000D29C0000D29C0000D5
:10037000D29C0000D29C0000D29C0000D29C0000C5
:10038000D29C0000D29C0000D29C0000D29C0000B5
:10039000D29C0000D29C0000D29C0000D29C0000A5
:1003A000D29C0000D29C0000D29C0000D29C000095
:1003B000D29C0000D29C0000D29C0000D29C000085
:1003C000D29C0000D29C0000D29C0000D29C000075
:1003D000D29C0000D29C0000D29C0000D29C000065
:1003E000D29C0000D29C0000D29C0000D29C000055
:1003F000D29C0000D29C0000D29C0000D29C000045
:100400006F252200007F220000018800000000000C
:100410000C000700A0DD28000100200011000700EB
:10042000000020000000E000020032000000020096
:1004300000000000FA9B0200000000000040DA000B
:100440000000FE004440A900E02F20000000E00072
:100450000300320000002000A00188004440A800F2
:100460000000060091018800800078000000EB0089
:1004700015003700E280400032A0B4009101BA00BC
:10048000E280400032A0B4009102BA00E280400055
:1004900032A0B4000002EB00472BDE00F507B200EB
:1004A000602CE10004003A000059EB008301E900F0
:1004B000FDFF3E00040037006128E100010032002A
:1004C0000082EB00040007001101BA000200E00006
:1004D000E8FF3A00000006003159BA008301E90044
:1004E0000C0032002159BA008301E90008003200F3
:1004F0000400E00003003A00E280400032A0B400B3
:10050000F5FF370011D9BA008301E900FAFF3A007C
:100510008100E800E180400032A0B4000000060045
:1005200000000000000000000000000000000000CB
:1005300000000000000000000000000000000000BB
:1005400000000000000000000000000000000000AB
:10055000000000000000000000000000000000009B
:1007B0000000000000000000889FBE008A9FBE006D
:1007C000010578000100E0000400350008003C004D
:1007D0000000E0002000320005003700600010003B
:1007E000E080180002003B0001F02C001A003700E6
:1007F0000004BE006011B8006B0920000982CF0020
:10080000020039000882CF000441B0006942520062
:100810000E00320008003B0082817100610164001B
:100820008904D1000884D3008B05E8000442E80065
:10083000F9FF3A00050037000804440089844C00A1
:100840008B05E9000442E900FBFF3A002C01070098
:100850000AF0A70001F0A0004F05BE004F04BE0043
:1008600000000600F4FF2F004B01370014002000A9
:1008700049013700889FBE008A9FBE008C1F780008
:10088000600107006701330003866C006450E100DB
:100890002E0032006420E100330032006150E1009C
:1008A0002F0032006120E1003100320085855500C3
:1008B000EB07B00009002000080420000500370005
:1008C0000804440089844C000A00310006034300F8
:1008D00087834B000001530081815B00F8FF3300E8
:1008E0000203BE000800A0000804440089844C00F4
:1008F000F6FF3900C639DD008301730001003200C4
:10090000130020008904D1000884D3000998A300B3
:10091000050032000800A7000300A0008904D100F0
:100920000884D3008B05E8008904D1000884D30033
:100930000001EB000281D200F100070001F0A100EC
:100940000CF0A70001F0A0003F0137006420E10097
:10095000410132000801BE000200BE00F7FF37006F
:100960006120E1003C0132006000B800F3FF370075
:100970000000200001F82700F0FF370003F0A2007C
:10098000889FBE008A9FBE008C1F78001D01070053
:10099000240133006450E1004F0032006420E10084
:1009A0005200320003826C0007003B000905D000B2
:1009B0000306D000820F54000C065D0002003900CF
:1009C0000200320089017800030678008582550014
:1009D00004003D000003FD008103FD008502EA00E4
:1009E0008B854200840F720002003B006000100003
:1009F000E08018006011B8000005EB007A28E100E3
:100A00000A00390006007800C75DDD00F707B20074
:100A1000878075002D003700828171000A017800FF
:100A2000610560008180D1000080D3008502E9006B
:100A3000F9FF3B00060440008784480002003B00A9
:100A400060041400E0841C000988A3000700320041
:100A50008A81710082817100610164008904D10082
:100A60000884D3008B05E800170037000978A3003D
:100A700013003A000B00E000130034008B05E9007E
:100A80000804440089844C000A4474000978A300D7
:100A90000D003A000B00E000070034008B05E90070
:100AA0000804440089844C0001003A000B00200037
:100AB0000978A300F7FF32000001EB0002003700C5
:100AC000828171000A0178008D0007000CF0A700F8
:100AD00001F0A000DC0037006420E10002003A00D1
:100AE000838F6C00DC0033000801BE000200BE00F2
:100AF000D5003700889FBE008A9FBE008C1F7800FB
:100B0000C0000700C700330003866C006450E1009A
:100B1000240032006420E100270032006150E1002F
:100B2000220032006120E100210032008B8542006A
:100B3000EB07B1000134B800003AB80008044200E5
:100B400089844A00013AB8000030B800888040002B
:100B500009014A0004003300000040008180480081
:100B6000020149008B05E900C909DD00830170001D
:100B70000100320013002000C814DE004814DD001C
:100B80004709DE001200B200C808DE0008847000C9
:100B90005B00070001F0A1000CF0A70001F0A0002D
:100BA000A90037006120E100AB0032000801BE005F
:100BB0000200BE00F7FF37006150E100FCFF3A0081
:100BC000A50037000001BE00A60007000470A700C2
:100BD00003F0A10003F8A30013003A006509B10077
:100BE00010003200090035006928E10002003500DC
:100BF000010028000000050000004000818048003E
:100C00008502E900FCFF3A0000000600F88F420070
:100C1000050035008100D1000080D3008502E80086
:100C2000FCFF3A00000006008000EB000000050019
:100C30006022B800060220000000D0008180D200AF
:100C40000482D2008582D2000000A000020252007D
:100C500083825A00030031000202420083824A006C
:100C60000000A1000603E900F3FF3A0000000600BF
:100C7000EFFF07000400BE00000006000001BE00F8
:100C8000780007000470A70003F0A1006509B10017
:100C9000160032000D0035006828E100060035001E
:100CA000F0FF2F00F1FF27000300E00013003B00DE
:100CB000010028000000050000004000818048007D
:100CC0008502E900FCFF3A0008003700F88F420077
:100CD00002003C008000EB00000005008100D10014
:100CE0000080D3008502E800FCFF3A000300E0002A
:100CF00002003B0060001000E080180000000600C9
:100D000081002000618055000B003D000B00200099
:100D100061FE2F000100E1001D003400828171009E
:100D2000610164008904D1000884D3000000E80058
:100D3000FAFF3A00710020006100640003007000B7
:100D4000020060000900320061044400E0844C00AD
:100D50000988A500050032008B05E8006808E1005D
:100D600002003A008904D1000884D300F20F200069
:100D70000258E10005003D00C75DDD00F907B20043
:100D80008980750008007800000006000BF8270035
:100D90008B00780000000500889FBE008A9FBE007F
:100DA000841F7800170007004F00780011003300FF
:100DB000F0FF2F00838F6C0006003B0004056500E8
:100DC0000A00A7000800370009F0A6001000200064
:100DD00008003700820F5400838F5C000300390045
:100DE0001000200001003E000000200009F0A700D4
:100DF0000000EA004F05BE004F04BE000000E00006
:100E0000000006000004BE00160007000003BE003C
:100E10000405BE000200BE0012000700844F7500EA
:100E2000000006000200BE006450E100050036002C
:100E30006420E100020036000968A30001003A00C6
:100E40000800BE000160A0004F0678004F05BE00FC
:100E50004F04BE0000000600F0FF2F00F1FF270046
:100E6000F9FF3700C70ADE00F107B200F50FB20044
:100E700008003200E1CF4200020032000170A00001
:100E800024000500810F70000100320004080500F5
:100E900044000500810F700002003A0014000500B4
:100EA0008502E9000000400081C04800FCFF3B00D3
:100EB0000170A00024000500005E0000BCE20000FC
:100EC000613F0000DD830000C29C00007E20000026
:100ED000A3FD00001F4100009DC30000217F000012
:100EE000FCA20000401E00005F010000E3BD000006
:100EF0003E60000082DC0000237D00009FC10000F6
:100F0000421C0000FEA00000E1BF00005D030000E5
:100F100080DE00003C620000BEE00000025C0000D9
:100F2000DF810000633D00007C220000C09E0000C5
:100F30001D430000A1FF000046180000FAA40000B5
:100F4000277900009BC5000084DA000038660000A5
:100F5000E5BB000059070000DB8500006739000091
:100F6000BAE400000658000019470000A5FB000085
:100F700078260000C49A0000653B0000D987000075
:100F8000045A0000B8E60000A7F900001B45000065
:100F9000C69800007A240000F8A60000441A000059
:100FA00099C70000257B00003A64000086D8000045
:100FB0005B050000E7B900008CD20000306E000035
:100FC000EDB30000510F00004E100000F2AC000025
:100FD0002F71000093CD0000114F0000ADF3000011
:100FE000702E0000CC920000D38D00006F31000005
:100FF000B2EC00000E500000AFF10000134D0000F5
:10100000CE900000722C00006D330000D18F0000E4
:101010000C520000B0EE0000326C00008ED00000D8
:10102000530D0000EFB10000F0AE00004C120000C4
:1010300091CF00002D730000CA94000076280000B4
:10104000ABF500001749000008560000B4EA0000A4
:1010500069370000D58B000057090000EBB5000090
:10106000366800008AD4000095CB00002977000084
:10107000F4AA000048160000E9B70000550B000074
:1010800088D60000346A00002B75000097C9000064
:101090004A140000F6A80000742A0000C896000058
:1010A000154B0000A9F70000B6E800000A54000044
:1010B000D78900006B3500004C450000540000004B
:1010C0004946000000540000484500004E00000062
:1010D000454C000053450000004700004F540000FD
:1010E0004F000000474F0000535500004200000031
:1010F0005245000054550000524E000000520000BE
:10110000454D000000500000524900004E540000C0
:10111000004900004E5000005554000000460000F9
:101120004F520000005400004F0000004E450000E8
:1011300058540000005200004541000044000000E7
:10114000444100005441000000530000544100009D
:10115000525400000053000054410000525400005B
:1011600052000000535400004F5000000053000094
:10117000544F00005052000000530000454E000044
:10118000440000005245000043450000495600005D
:1011900045000000434C00004B00000044410000AB
:1011A0005400000042490000545200004541000034
:1011B000440000004144000043000000415500008D
:1011C000580000005053000055000000505500002A
:1011D0004C4C0000555000000041000055580000E4
:1011E000504900004E0000004652000045510000EA
:1011F0000044000055540000590000004445000020
:101200004C410000590000004D41000043520000D5
:101210004F000000454E0000440000000052000056
:10122000554E0000004C00004953000054000000DF
:1012300045580000495400000044000045420000A9
:1012400055470000004E0000455700000000000018
:101250003E20000000080000200800000000000000
:10126000203D0000200000002E2000003C00000077
:101270003E0000002E200000000D00000A280000A3
:10128000002900003E2000000042000075730000AD
:1012900020500000697200006174000065200000A9
:1012A0007633000000460000697200006D77000090
:1012B0006172000065200000763500002E300000CD
:1012C0002D5200004334000020280000723300003B
:1012D00037380000290000002028000000410000ED
:1012E00033000000423400000042000035000000DE
:1012F00042380000005500004E4B0000002900005D
:1013000000490000090000004F09000000480000EB
:10131000090000004C0900000000000049530000D3
:101320004F20000037380000313600002D33000018
:1013300020720000657000006C7900002028000019
:101340007573000065730000206300007572000073
:10135000726500006E740000204C000053420000D3
:101360002073000065740000746900006E6700005F
:10137000293A0000200000000052000065610000D2
:101380006420000074790000706500003A200000BD
:10139000004400006174000061200000756E0000D0
:1013A00069740000206C0000656E00006774000026
:1013B00068200000286200006974000073290000A2
:1013C0003A20000000000000306200000030000001
:1013D000303000002C0000003030000000300000F1
:1013E0003132000033340000353600003738000059
:1013F00039410000424300004445000046300000EF
:10140000780000003A200000000000002E000000DC
:101410002800000029000000315700003031000092
:10142000000000000029000000200000570000001C
:10143000205200000049000032430000310000004B
:101440000808000008080000080000000000000074
:101450000053000050490000310000002048000007
:101460007A0000000000000000410000525400001B
:101470003100000042420000494F000031000000EE
:1014800052410000573100000000000031410000CF
:101490004C530000000000004F43000044310000A6
:1014A0000000000000000000290000000000000013
:1014B000000000000000FA000080FA0000000600B2
:1014C0001800FA000000EB00000F98000000EB008D
:1014D000D0F988000000EB00C0F988000000EB00A4
:1014E00020C088000000EB00E0F988000000EB005D
:1014F000000F78000000EB00300798001400370060
:101500000000EB00100798000B0037003E00900031
:101510009E0090004500DD0081004000E0F32100C6
:10152000808040000040EB00804878001E00900062
:101530000000E800100798001E009000FF0F500008
:10154000F2FF34003E0090000000E80030079800F1
:101550003E009000E40F5000E9FF34000000EB0073
:10156000F0FE880021C08000C00220000088B90081
:10157000410220008080400000C82100008040001F
:10158000F66302000000000050C0800062006000AE
:101590000000E0000400320071002000706C2000A8
:1015A0006A9902000000000080922800F6630200A1
:1015B00000000000EB003700F0FE80000000E000BB
:1015C00063003200F0FE80000000E900F0FE8800B9
:1015D0000000EB00100798001E003700C2F98000E1
:1015E000F0FE80009E0090004500DD00810040007C
:1015F000E0F32100008040009040780080E321006B
:101600000000410001487800F0FE80009E0090003C
:101610004500DD0081004000E0F321000080400033
:10162000104078005268020000000000C0F98000FD
:101630000000E800C0F988001E0090000000E800EB
:1016400010079800C1F98000F00F200000806000B2
:10165000C0F98800F0FE80009E0090004500DD008B
:1016600081004000E0F3210000804000104078003D
:101670000004E000D9FF3A000000EB00F0FE880013
:1016800033003700D08021001040780062406000B5
:101690000004E0002E00320021C08000C0022000C3
:1016A0000088B900FA00400000C821000080400016
:1016B00010007800000001000000E000240032006B
:1016C00021C08000C00220000088B9004102200033
:1016D0008080400000C8210000804000F6630200C6
:1016E0000000000080922800F66302000000000065
:1016F000D1F98000C0F98000808F500014003200C2
:10170000D0F98000100798000D0037009E0090006F
:1017100080E3210000804000104078005268020001
:10172000000000009E009000F00F2000008060008C
:10173000100798001E0090000000E80010079800B5
:101740009E009000C0F98000808F5000EFFF3A00AB
:1017500034680200000000000004E000C9FF32000D
:101760004068020000000000404798004E40900092
:101770000080FB00100F98001E089000E80F50003A
:10178000110032009E089000E88F500007003C00D6
:101790001E0990000200E0003C0032009E0990000B
:1017A000E28F510042003200490037001E089000CD
:1017B000EA0F5000130032009E089000ED8F500099
:1017C0001000320042003700C1F98000D0F98000DB
:1017D000808F500063003200C0F980000000E900F3
:1017E000C0F98800C1F98000F00F2000008060007F
:1017F000C0F98800B0922800F663020000000000E3
:101800005800370010002000000F9800C0F9800039
:101810008000E800F00F200080806000D0F9800098
:10182000808F50000D003200C1F9800080E321005C
:10183000808040000040EB0080487800C0F98000C4
:101840000000E800C0F98800C1F98000F00F200016
:1018500000806000C0F988000800370070C0B30045
:101860005268020000000000C1F9800080E32100FE
:10187000808040000040EB0080487800F092280013
:101880002264020000000000360037001E0FE8004E
:10189000420120009E0F110032003A008C690200C4
:1018A000000000000000EB00000F78002D00370062
:1018B000430020009E8F11002A003400C88A0200D5
:1018C000000000000000EB00000F7800250037004A
:1018D000C0F980008000E800F00F200080806000E8
:1018E000D0F98000808F5000160032004E409000EA
:1018F000FF4F50001B0036004E4090000004E000F7
:10190000180035004E4090005268020000000000B0
:10191000C1F980004E41900080E32100008040002A
:1019200002487800C0F980000000E800C0F9880093
:10193000C1F98000F00F200000806000C0F988002D
:101940000800370070C0B3005268020000000000B9
:10195000C1F9800080E32100808040000040EB005E
:10196000804878000E0890000000E00012FF32006E
:10197000C0F9800060079800D0F9800050079800F7
:101980000000EB00000F98000000EB0070079800CB
:101990000000EB00E0F9880050C0800062006000A9
:1019A0000000E0006E0432007E2F02000000000004
:1019B00061002000E06C2000F499020000000000AB
:1019C000100020007007980065043700D1F98000EE
:1019D00080E32100008040001040780040479800DC
:1019E0004E4090000080FB006101B900220F98007A
:1019F000330F9800E0072000010020002E0990001E
:101A0000BE099000800F5100818F590026043E00CE
:101A10002E089000BE0890000060010024043700EA
:101A200021043700200437001F0437001E0437004C
:101A30001D0437001C0437001B0437001A0437004C
:101A4000190437001A04370017043700160437004A
:101A5000170437001404370013043700120437004A
:101A600011043700100437000F0437000E0437004C
:101A70000D0437000C0437000B0437000A0437004C
:101A8000090437000804370007043700060437004C
:101A9000050437000404370003043700040437004A
:101AA000E4033700830237001501370021013700B6
:101AB0009D0137008B013700FB0337005A023700C6
:101AC000F9033700F8033700F9033700F80337004C
:101AD0007A033700A70337004A033700F1023700C3
:101AE000F0023700EF023700EE023700ED02370058
:101AF000EC023700EB023700EA023700E902370058
:101B0000E8023700E8033700E70337009B0137009E
:101B1000D1003700E40337004700370032013700B7
:101B200024013700E0033700640037006A01370002
:101B3000DD033700DC033700DB033700DA0337004F
:101B4000D9033700D8033700D703370079003700AF
:101B5000D5033700D4033700D30337009F00370085
:101B6000D1033700D0033700CF033700CE0337004F
:101B7000CD033700CC03370031013700CA033700EB
:101B8000C9033700C8033700A20237003403370007
:101B9000B2023700900337005F033700C2033700FB
:101BA000F70037002F0037003A0037003C013700BC
:101BB000BD0337003100370033003700160037000F
:101BC00020003700B8033700B7033700450037005F
:101BD00022003700B40337002400370069003700C3
:101BE000B1033700E802370060013700AE03370069
:101BF000AD0337001F0037001D013700AA0337006F
:101C0000A9033700A80337008B023700A60337006B
:101C10009B023700AD0037003D0607000000E000E2
:101C2000A3033A00D0F9800050079800C0F9800063
:101C3000600798009E0337000A9A02000000000027
:101C40009B0337009207070020C080000000E000DF
:101C500097033200F007070095033700A40507003B
:101C6000930337001909070091033700F2080700B2
:101C70008F033700660807008D033700BE8102001E
:101C8000000000008A0337002280020000000000EC
:101C900087033700D0802100104078000000A100A9
:101CA000D18021008048780061012000406D200033
:101CB000F4990200000000007D033700D08021006D
:101CC000104078000000A000D180210080487800FA
:101CD00091012000A06E2000F49902000000000095
:101CE00073033700D080210010407800644060000A
:101CF0000004E00005003A00D1012000307020000F
:101D0000F49902000000000069033700D080210030
:101D1000104078000030A100D18021008048780078
:101D2000C101200040952000F4990200000000004D
:101D30005F033700D08021001040780064406000CD
:101D40000004E00005003A00D101200030702000BE
:101D5000F49902000000000055033700D0802100F4
:101D6000104078000030A000D18021008048780029
:101D7000B101200090932000F499020000000000BF
:101D80004B033700D0802100104078007040600085
:101D90000004E00005003A00D1012000307020006E
:101DA000F49902000000000041033700CB62A90053
:101DB000C962A900D0802100104078000050A10025
:101DC000D18021008048780051012000007220005D
:101DD000F49902000000000035033700D080210094
:101DE00010407800704060000004E00005003A00F8
:101DF000D101200030702000F499020000000000A2
:101E00002B033700D0802100104078000044B2003E
:101E10000004E00004003A0021022000C00A210072
:101E2000F499020000000000C962A800CB62A9007A
:101E3000D0802100104078000050A000D180210007
:101E40008048780041012000E0752000F4990200EC
:101E50000000000016033700D0F980000000E80001
:101E6000D0F98800D1F98000F00F200000806000D8
:101E7000D0F988000C0507004303070010079800FD
:101E80001E009000F0660200000000000093280091
:101E9000F6630200000000001E0090008E66020043
:101EA0000000000000932800F6630200000000001C
:101EB0001E0090005664020000000000F09228000E
:101EC0002264020000000000F902370020C08000F8
:101ED0000000E00005003A0011C0B30010C0B300DC
:101EE000AA90020000000000F1023700B1012000BA
:101EF000207720006A99020000000000EC02370001
:101F0000AD0807000000E000E902320051002000A7
:101F1000D0782000F49902000000000023C2BF0026
:101F2000614060000004E000FCFF32000000FE00A1
:101F3000DF023700A00807000000E000DC023200EA
:101F4000A100200020792000F49902000000000088
:101F5000400620000E950200000000009893020049
:101F60000000000023C2BF00614060000004E000E8
:101F7000FCFF320081BF2A0001400100CC02370083
:101F8000A60407000000E8003007980002003700B0
:101F9000FC820200000000003E0090000000E9000A
:101FA000300798003E0090000000E000F8FF3A0083
:101FB000BF023700990407000000E80030079800CE
:101FC00002003700DA820200000000003E009000AC
:101FD0000000E900300798003E0090000000E0009B
:101FE000F8FF3A00B20237008C0407000000E80056
:101FF000300798000B00370061012000C0792000F5
:102000006A990200000000001E8302000000000028
:10201000E863020000000000F09228002264020041
:10202000000000003E0090000000E900300798002A
:102030003E0090000000E000EFFF3A009C023700F5
:10204000C002A900C202A80011012000207B2000CC
:10205000F499020000000000D080210010407800B8
:102060000070A000D18021008048780090023700E5
:10207000C002A900C202A90021012000307C20007A
:10208000F499020000000000D08021001040780088
:102090000070A100D18021008048780084023700C0
:1020A000F1002000C03F20006A99020000000000FB
:1020B000F29302000000000011002000B040200058
:1020C0006A99020000000000F092280022640200D9
:1020D00000000000760237000494020000000000B7
:1020E000730237004D04070030079800610020009C
:1020F000507D20006A990200000000003E00900020
:10210000306602000000000021002000B07D2000A9
:10211000F4990200000000003E0090003A95020091
:1021200000000000620237003C04070030079800FE
:1021300061002000507D20006A990200000000002C
:102140003E009000306602000000000021002000E8
:10215000000F2100F4990200000000003E009000F2
:102160000E950200000000005102370050C08000B0
:102170000010A00050C088004D0237001000200061
:10218000E0F98800100020001007980010003700C8
:10219000D1F980001E00900080804000F00F2000E8
:1021A0008080600080E32100008040009040780043
:1021B000E0C3B30080CF500002003A000000EB0003
:1021C000E0F988001E0090000000E8001007980069
:1021D000D1F980001E00900080804000F00F2000A8
:1021E0008080600080E32100008040001040780083
:1021F0000004E000E6FF3A009E009000200220006C
:10220000808F50000200340010002000E0F98800A8
:10221000E0F980000000E00025023A00D0F98000DB
:102220000000E800D0F98800D1F98000F00F20000C
:1022300000806000D0F98800530207001007980062
:10224000D1F98000F00F20008080600080E3210041
:102250000080400090407800D0C3B30080CF500091
:1022600044003A001E0090000000E0003E003400F0
:102270001E009000E50F50003B003C00D0F98000AC
:102280000000E800D0F98800D1F98000F00F2000AC
:1022900000806000D0F988001E0090000000E90076
:1022A000100798000000EB00300798000B00370083
:1022B0001E009000BE0090004500DD00810040003F
:1022C000E0F32100808040000040EB00804878006F
:1022D0003E0090000000E800300798003E009000AB
:1022E000FF0F5000F2FF34000000EB0030079800B1
:1022F000150037009E0190003E029000D1F9800049
:1023000080E3210000804000104178004518DD0086
:1023100084004000E0F32100008040000248780083
:102320003E0090000000E80030079800D0F98000DF
:102330000000E800D0F98800D1F98000F00F2000FB
:1023400000806000D0F98800D1F9800080E321008E
:102350000080400090407800E0C3B30080CF500080
:10236000E4FF3A00D201370010002000E0F98800B5
:10237000CF0137001E0090000000E0001B003A0073
:102380000000EB0030079800140037003E0090007A
:102390000040E8008E660200000000004093280024
:1023A000F6630200000000003E0090004500DD00E2
:1023B00080007800E0F3210000804000F663020016
:1023C000000000008093280022640200000000004A
:1023D0003E0090000000E800300798003E009000AA
:1023E000E40F5000E9FF3400B10137001E009000F7
:1023F0000000E000090034001E009000E50F5000CE
:1024000006003C00F0922800226402000000000058
:102410009E009000F1FE8800A5013700100020000A
:10242000E0F98800A2013700D0F980000000E80040
:10243000D0F98800D1F98000F00F20000080600002
:10244000D0F98800D00107004007980096030700E4
:10245000D1F98000F00F20008080600080E321002F
:10246000008040009040780090C2B30080CF5000C0
:102470000D003A0021C08000C00220000088B90091
:10248000FC00400000C8210000804000900078005F
:102490004E00900001000100F0922800226402002A
:1024A000000000008201370010002000E0F98800E1
:1024B0007F01370010002000E0F9880010002000A4
:1024C0001007980010003700D1F980001E0090001E
:1024D00080804000F00F20008080600080E32100B9
:1024E000008040009040780020C2B30080CF5000B0
:1024F00002003A000000EB00E0F988001E009000A6
:102500000000E80010079800D1F980001E0090003C
:1025100080804000F00F20008080600080E3210078
:1025200000804000104078000004E000E6FF3A0020
:10253000E0F980000000E0005D013A007100200039
:10254000D07D20006A9902000000000020C2B30084
:10255000526802000000000017003700D1F9800027
:10256000F00F200000806000D0F9880021C08000BA
:10257000C00220000088B900E800400000C8210027
:102580000080400010017800D1F9800080E3210034
:1025900000804000104078000000FB0002000100B5
:1025A000D1F9800080E321000080400010407800D5
:1025B0005268020000000000D0F980000000E8002E
:1025C000D0F98800D1F98000F00F200080806000F1
:1025D00080E32100008040009040780020C2B300DA
:1025E00080CF5000DDFF3A00D0F98000F10F2000CD
:1025F00001006000D0F9880020C2B30052680200D8
:1026000000000000F0922800226402000000000098
:102610002701370021C08000C00220000088B900D7
:102620008000780000C82100008040001000780081
:10263000000001001E01370021C08000C002200000
:102640000088B9008080E80000C8210000804000B8
:1026500010007800000001001501370021C0800043
:10266000C00220000088B900E400400000C821003A
:102670000080400010007800000001000C013700CD
:1026800021C08000C00220000088B900E6004000A0
:1026900000C8210000804000100078000000010008
:1026A0000301370071002000D07D20006A990200EC
:1026B000000000003401070040079800D0F98000B6
:1026C0000000E900D0F98800D1F98000F00F200067
:1026D00000806000D0F98800D00207000000E80008
:1026E000300798001E0037004E00900088940200CA
:1026F0000000000021C08000C00220000088B90056
:10270000E800400000C821000080400090007800F0
:102710004E009000010001001007980000C2B300B5
:1027200052680200000000009E009000F00F2000A0
:10273000808F50000A003C0061002000407E200095
:102740006A990200000000001E00900088940200B8
:102750000000000000C2B300526802000000000048
:102760003E0090000000E900300798003E00900015
:102770000000E000DCFF3A00F09228002264020032
:1027800000000000CA00370061002000407E2000E9
:102790006A99020000000000A00207000000E800A3
:1027A000300798000D00370021C08000C0022000D3
:1027B0000088B900EA00400000C821000080400005
:1027C0001000780000000100889402000000000062
:1027D00000C2B30052680200000000003E009000FA
:1027E0000000E900300798003E0090000000E00083
:1027F000EDFF3A00F0922800226402000000000081
:10280000AB003700850207000000E80030079800A1
:102810000C00370081002000A07E2000F499020007
:102820000000000021C08000C00220000088B90024
:10283000EC00400000C8210000804000100078003B
:10284000000001003E0090000000E9003007980001
:102850003E0090000000E000EEFF3A0094003700D8
:102860006E0207000000E800300798000C003700F7
:1028700081002000207F2000F49902000000000069
:1028800021C08000C00220000088B900EE00400096
:1028900000C8210000804000100078000000010006
:1028A0003E0090000000E900300798003E009000D4
:1028B0000000E000EEFF3A007D00370057020700FD
:1028C0000000E800300798000C003700E10020000D
:1028D000A07F2000F49902000000000021C08000C9
:1028E000C00220000088B900F000400000C82100AC
:1028F0000080400010007800000001003E009000C1
:102900000000E900300798003E0090000000E00061
:10291000EEFF3A0066003700400207000000E800C2
:10292000300798000C003700E10020008080200074
:10293000F49902000000000021C08000C0022000C5
:102940000088B900F200400000C82100008040006B
:1029500010007800000001003E0090000000E90037
:10296000300798003E0090000000E000EEFF3A00C3
:102970004F003700290207000000E80030079800E8
:102980000E00370021C08000C00220000088B9007E
:10299000F400400000C821000080400010007800D2
:1029A00000000100E86302000000000001012000B7
:1029B00060812000F4990200000000003E009000B9
:1029C0000000E900300798003E0090000000E000A1
:1029D000ECFF3A0036003700100207000000E80064
:1029E000300798000C003700A10020006082200012
:1029F000F49902000000000021C08000C002200005
:102A00000088B900F600400000C8210000804000A6
:102A100010007800000001003E0090000000E90076
:102A2000300798003E0090000000E000EEFF3A0002
:102A30001F003700F90107000000E8003007980088
:102A400012003700A100200000832000F49902004A
:102A50000000000021C08000C00220000088B900F2
:102A6000F800400000C821000080400010007800FD
:102A700000000100E86302000000000001012000E6
:102A800060812000F4990200000000003E009000E8
:102A90000000E900300798003E0090000000E000D0
:102AA000E8FF3A000200370010002000E0F988003B
:102AB000D0F980000000E800D0F98800D1F980004A
:102AC000F00F200000806000D0F98800E0F980005D
:102AD0000000E0001C00320051012000A083200013
:102AE0006A99020000000000DE009000D0F980002A
:102AF000808F500007003100D0F9800080407800BE
:102B00005E00900000C050008E66020000000000D1
:102B100006003700D0F98000804078005E00900009
:102B200000C050008E660200000000000000EB00B4
:102B3000E0F988001000200070079800F09228004B
:102B40002264020000000000D1F98000C0F980007A
:102B5000808F500002003A0010002000700798009B
:102B60007E0090000000E00098FB32006E009000B4
:102B7000D0F988006E009000C0F988000000EB00DA
:102B8000000F980077FA37000600FA000000EB000B
:102B9000100798000000EB00000F7800D1F98000CA
:102BA0001E00900080804000F00F200080806000B8
:102BB00080E32100008040009040780000C3B30013
:102BC00080CF500043003400D1F980001E009000F7
:102BD00080804000F00F20008080600080E32100B2
:102BE000008040009040780090C3B30080CF500038
:102BF00038003C00D1F980001E0090008080400029
:102C0000F00F20008080600080E321000080400001
:102C1000104078008000FB0000FD2F00008F400076
:102C20001E0090000000E800100798001200370016
:102C30001E0078006A00B900000F7800D1F980000A
:102C40001E00900080804000F00F20008080600017
:102C500080E3210000804000104078000000FB006D
:102C60009E00400000FD2F00008F40001E009000DD
:102C70000000E80010079800D1F980001E009000C5
:102C800080804000F00F20008080600080E3210001
:102C90000080400090407800F0C2B30080CF500028
:102CA00051013400D1F980001E0090008080400066
:102CB000F00F20008080600080E321000080400051
:102CC0009040780090C3B30080CF5000D8FF34000C
:102CD00045013700D1F980001E009000808040003F
:102CE000F00F20008080600080E321000080400021
:102CF0009040780000C3B30080CF500035013A0007
:102D00001E0090000000E80010079800D1F9800034
:102D10001E00900080804000F00F20008080600046
:102D200080E32100008040009040780020C6B3007E
:102D300080CF50000B003200D1F980001E009000BF
:102D400080804000F00F20008080600080E3210040
:102D5000008040009040780020C4B30080CF500035
:102D60002D003A001E0090000000E80010079800B7
:102D7000120037001E00780000004000000F7800AD
:102D8000D1F980001E00900080804000F00F2000EC
:102D90008080600080E321000080400010407800C7
:102DA0000000FB009E00400000FD2F00008F40004F
:102DB0001E0090000000E80010079800D1F9800084
:102DC0001E00900080804000F00F20008080600096
:102DD00080E32100008040009040780010C3B300E1
:102DE00080CF5000E3FF3200D1F980001E00900038
:102DF00080804000F00F20008080600080E3210090
:102E0000008040009040780000C3B30080CF5000A5
:102E1000D8FF3200F4003700D1F980001E00900086
:102E200080804000F00F20008080600080E321005F
:102E3000008040009040780080C7B30080CF5000F1
:102E40000B003200D1F980001E009000808040000D
:102E5000F00F20008080600080E3210000804000AF
:102E60009040780080C5B30080CF50008E003A00BB
:102E70001E0090000000E80010079800470037008F
:102E80001E0078004400DD00000F7800D1F98000BA
:102E90001E00900080804000F00F200080806000C5
:102EA00080E321000080400090407800F0C2B30031
:102EB00080CF500018003400D1F980001E0090002F
:102EC00080804000F00F20008080600080E32100BF
:102ED000008040009040780090C3B30080CF500045
:102EE0000D003C00D1F980001E0090008080400061
:102EF000F00F20008080600080E32100008040000F
:102F0000104078000000FB009E00400000FD2F00F4
:102F1000008F40001E003700D1F980001E00900095
:102F200080804000F00F200000816000D1F9800017
:102F30001E00900080804000F00F20008080600024
:102F400080E32100008040009040780000C2B30080
:102F500080C0700080E3210000004100014878003B
:102F6000D1F980001E00900080804000F00F20000A
:102F70008080600080E321000080400010407800E5
:102F80000000FB009E00400090FA2F00008F4000E0
:102F90001E0090000000E80010079800D1F98000A2
:102FA0001E00900080804000F00F200080806000B4
:102FB00080E321000080400090407800F0C2B30020
:102FC00080CF50000B003400D1F980001E0090002B
:102FD00080804000F00F20008080600080E32100AE
:102FE000008040009040780090C3B30080CF500034
:102FF000A3FF3400D1F980001E00900080804000C3
:10300000F00F20008080600080E3210000804000FD
:103010009040780000C4B30080CF50000B00340013
:10302000D1F980001E00900080804000F00F200049
:103030008080600080E321000080400090407800A4
:1030400060C4B30080CF50008DFF3400D1F9800000
:103050001E00900080804000F00F20008080600003
:1030600080E32100008040009040780000C6B3005B
:1030700080CF50005C003400D1F980001E00900029
:1030800080804000F00F20008080600080E32100FD
:10309000008040009040780060C6B30080CF5000B0
:1030A00077FF340050003700D1F980001E009000F7
:1030B00080804000F00F20008080600080E32100CD
:1030C0000080400090407800F0C2B30080CF5000F4
:1030D00045003400D1F980001E009000808040003F
:1030E000F00F20008080600080E32100008040001D
:1030F0009040780090C3B30080CF50003A003C006D
:10310000D1F980001E00900080804000F00F200068
:103110008080600080E32100008040001040780043
:103120008000FB0000FD2F00008F400012003700E0
:103130001E0078006A00B900000F7800D1F9800005
:103140001E00900080804000F00F20008080600012
:1031500080E3210000804000104078000000FB0068
:103160009E00400000FD2F00008F40001E009000D8
:103170000000E80010079800D1F980001E009000C0
:1031800080804000F00F20008080600080E32100FC
:103190000080400090407800F0C2B30080CF500023
:1031A00011003400D1F980001E00900080804000A2
:1031B000F00F20008080600080E32100008040004C
:1031C0009040780090C3B30080CF5000D8FF340007
:1031D0000500370010002000E0F988000000EB0037
:1031E000200798000A003700D1F980001E009000E7
:1031F00000804000D0F98800D1F98000F00F200055
:1032000000806000D0F988001E0078002007980038
:103210002E0090000080FA00000006000400FA0072
:10322000D0F980008000E800F00F2000808060006E
:1032300080E321000080400090407800A0C3B300EC
:1032400080CF500013003A00D0F980000080E800E1
:10325000D0F98800D1F98000F00F200000806000D4
:10326000D0F9880048FE0700000F7800D0F98000F0
:103270000000E900D0F98800D1F98000F00F2000AB
:1032800000806000D0F988001E00780010079800C8
:103290000200370010002000100798001E00900068
:1032A0000080FA00000006000000FA000700370066
:1032B000D0F980000000E800D0F98800D1F9800042
:1032C000F00F200000806000D0F98800D1F9800064
:1032D00080E32100008040009040780000C2B300ED
:1032E00080CF5000F2FF32000080FA00000006009C
:1032F0000400FA000000EB00000F7800D0F9800015
:103300000000E800D0F98800D1F98000F00F20001B
:1033100000806000D0F98800E3FF07001AFE070074
:10332000000F78001E00E0004D003A000000EB00A6
:1033300010079800130037001E0090000040E800BE
:103340008E66020000000000A0932800F6630200D1
:10335000000000009E009000C00220000088B9001C
:10336000410220008080400000C821000080400011
:1033700022640200000000001E0090000000E8002F
:10338000100798001E009000E80F5000EAFF34007C
:1033900071012000F0842000F49902000000000078
:1033A0000000EB00E0F988001300200092002000EC
:1033B0001100200010002000F6000700000FE900B7
:1033C000E0FF2F009E0F1000030032000080EB0092
:1033D0009E0F100005003A00E100200060862000EA
:1033E000F4990200000000004200370021C0800074
:1033F000C00220000088B900010220008080400047
:1034000000C821000080400010007800000001008A
:1034100098930200000000001E00780020C0880081
:1034200021C08000C00220000088B900FE004000DA
:1034300000C821000080400010007800000001005A
:103440001E00E00001003200C222A800610020003E
:10345000E06C2000F4990200000000002500370015
:103460001E0FE900800020009E0F10001D003C0090
:1034700021C08000C00220000088B90001022000A5
:103480008080400000C821000080400010007800CB
:103490000000010098930200000000001E00780068
:1034A00020C0880021C08000C00220000088B90030
:1034B000FE00400000C8210000804000100078009D
:1034C000000001001E00E00001003200C222A8003E
:1034D00061002000E06C2000F49902000000000070
:1034E000040037006101200040872000F4990200A9
:1034F00000000000C0F980008000E900F00F20000B
:1035000000806000D0F988000080FA00000006000A
:103510002600FA001000200020079800D0F9800053
:103520000000E900100798009E009000F00F2000B6
:103530000080600010079800430037009E00900054
:1035400080E3210000804000104078000004E0008B
:1035500036003A001E0090008000E800F00F2000C6
:103560008080600080E321000080400010407800EF
:103570000004E0002D0032002E0090008E66020054
:1035800000000000A0932800F66302000000000085
:1035900010002000000F78000A0037001E00900085
:1035A0009E004000F00F20008080600080E321003A
:1035B00000804000104078005268020000000000C7
:1035C0001E0FE8001E0090009E004000F00F20003B
:1035D0008080600080E3210000804000104078007F
:1035E0000004E000EDFF3A00AE0190001E009000E4
:1035F0008000E800F00F200000816000E600470036
:103600000380410002B078002E0090000000E80026
:10361000200798002E009000EF0F50000E0032009F
:10362000F092280022640200000000001E009000BA
:103630000000E900100798009E009000F00F2000A5
:1036400000806000100798009E009000D0F9800074
:10365000808F5000B9FF3A0071002000A088200040
:10366000F499020000000000130020002E019000D9
:10367000110020000000EB00460007001007980032
:103680001E009000E10F400003003A0010002000EF
:10369000201798003C0037000000EB00200798003E
:1036A00016003700C1F980002E0090008080400095
:1036B000F00F2000008160001E009000E60047002F
:1036C00000004000E08078002E00900080804000E4
:1036D000F00F20008080600080E321000080400027
:1036E0009040780080E3210000004100014878000C
:1036F0002E0090000000E800200798001E009000B7
:10370000E600470000004000E08078002E009000B6
:1037100080804000F00F20008080600080E3210066
:1037200000804000104078000004E000DDFF3A0017
:10373000C0F980008000E900F00F200000806000E8
:10374000D0F98800D1F980002E0090000080400060
:103750008080E800F00F200000806000C0F9880041
:10376000C0F980008000E900F00F20008080600038
:1037700080E32100808040000040EB00804878001A
:103780000000EB00201798002E1090000080FA0037
:10379000000006001E00FA00100F9800210F98008C
:1037A000320F9800430F98000000EB00400798008C
:1037B0000000EB00200798000000EB0010079800C5
:1037C0000000EB00000F7800D0932800F6630200A1
:1037D000000000001E0890008E660200000000003D
:1037E00010942800F6630200000000006700370014
:1037F0004068020000000000204F98002E48900012
:103800000000FB00600F98006E089000ED0F500064
:1038100029003200EE089000ED8F500007003C00B8
:103820006E099000E80F51000D0032006E08900004
:10383000EA0F50002000320035003700D00220008F
:10384000EE089000808F50001E003200800720009C
:103850006E099000800F5100270032002C003700C5
:103860004E0090000000E000070032004E00900083
:103870000000E90040079800B0922800F6630200BB
:1038800000000000410037001E00E000060032008A
:103890000000EB00000F7800B0922800F6630200F1
:1038A000000000003900370070C0B3005268020009
:1038B00000000000350037001000200020079800AD
:1038C000320037004E0090000000E00006003A0091
:1038D000D0C2B300526802000000000010002000B7
:1038E000000F78002900370070C0B3005268020052
:1038F00000000000250037004E0890000000E000A6
:10390000030032000080EB00500F98005D0037008C
:10391000AE489000F0C2B30080CF500018003400D1
:10392000AE48900090C3B30080CF500014003C001C
:103930004E009000E30F50000600340070C0B3004A
:10394000526802000000000040002000400798007C
:103950000E0037002E489000526802000000000060
:10396000CE0090006B0047002E49900082707800D6
:103970004E0090000000E800400798000300370068
:1039800070C0B30052680200000000002E009000DA
:103990000000E00096FF3200F0922800226402004E
:1039A000000000004E0090000000E00003003A001C
:1039B0001E089000500F9800320037000000EB0006
:1039C000100798004E0090000000E90040079800A2
:1039D000CE00900031079800110037001E009000C3
:1039E0006A00B90010079800BE0090004E009000D9
:1039F000808050006B004700614078008000FB0031
:103A00001E0090008080400000FD2F0000804000DC
:103A1000100798004E0090000000E9004007980051
:103A20004E0090000000E000ECFF3D009E00900082
:103A30002E089000808F50000D0035009E009000F1
:103A40003E089000808F500009003C001E00E000FE
:103A5000040032001E0090000000EA00500F9800A1
:103A6000080037001E019000520F98000500370033
:103A7000B1012000500D2100F49902000000000067
:103A800049FF37005E0890000080FA000000060041
:103A90000400FA0050942800226402000000000094
:103AA00030952800F663020000000000D1002000DD
:103AB000209920006A99020000000000A1BF2A009E
:103AC0000000EB006669020000000000000F7800B3
:103AD0001E0078004800DE008E6602000000000034
:103AE000E0C2B30052680200000000001E0078002F
:103AF0008E66020000000000F0922800226402009E
:103B00000000000061002000C08A20006A990200C5
:103B10000000000030C08000486702000000000084
:103B200071002000E00C21006A99020000000000F2
:103B300040C080004867020000000000C0962800D6
:103B4000F66302000000000040C0800010079800EB
:103B5000200423009E009000808F50001600320049
:103B6000200423009E009000808F500005003E003E
:103B7000300023009E009000808F50000A00320029
:103B800019003700300423009E009000808F500001
:103B90000D003200600423009E009000808F5000D2
:103BA0000D00320010003700F0962800F663020086
:103BB000000000000F00370020972800F663020085
:103BC000000000000B00370050972800F663020049
:103BD000000000000700370080972800F66302000D
:103BE0000000000003003700B0972800F6630200D1
:103BF00000000000F097280022640200000000008E
:103C0000E1012000208B2000F49902000000000058
:103C10000080FA00000006000000FA0051002000B9
:103C200060AB20006A99020000000000C1BF2A00BA
:103C30000000EB0066690200000000004867020017
:103C40000000000061002000B0AB20006A99020073
:103C500000000000E1BF2A000000EB0066690200DE
:103C6000000000004867020000000000F0922800F9
:103C70002264020000000000C1002000008D20002E
:103C8000F49902000000000061000700D0802100CC
:103C90009040780000C8B30000C060000004E0005D
:103CA0000500320011012000207B2000F499020061
:103CB000000000000400370021012000307C2000BB
:103CC000F499020000000000D0802100104078002C
:103CD000614060000004E000050032009101200016
:103CE000A06E2000F49902000000000004003700DC
:103CF00061012000406D2000F499020000000000E6
:103D0000D0802100104078000044B2000004E000A0
:103D10000500320021022000C08D2000F49902002D
:103D20000000000004003700E1012000E08F2000C7
:103D3000F499020000000000D080210010407800BB
:103D4000704060000004E0000F003200D0802100CD
:103D5000104078000042B2000004E000050032008C
:103D600041012000E0752000F499020000000000ED
:103D7000090037005101200000722000F499020070
:103D80000000000004003700D1012000C091200095
:103D9000F499020000000000D0802100104078005B
:103DA000644060000004E0000F003200D080210079
:103DB00010407800684060000004E0000500320018
:103DC000B101200090932000F4990200000000004F
:103DD00009003700C101200040952000F49902003D
:103DE000000000000400370021022000009720009E
:103DF000F499020000000000C1002000008D2000A6
:103E0000F4990200000000000080FA0000000600A3
:103E10000000FA00A100200010282100F4990200FF
:103E20000000000061042000902D2100F4990200A0
:103E300000000000A1012000B02821006A990200C2
:103E40000000000021C08000C00220000088B900EE
:103E5000210220008080400000C821000080400036
:103E60001000780000000100A1002000502A21006D
:103E70006A99020000000000004020005000070086
:103E8000001020004E000700002020004C0007001A
:103E9000000420004A000700000820004800070036
:103EA000F09228002264020000000000410020007F
:103EB000F03121006A9902000000000021E3A8000F
:103EC000A0C0B300D8930200000000009267020077
:103ED0000000000011002000B04020006A9902009C
:103EE0000000000090C0B300526802000000000013
:103EF00090C0B300D8930200000000009267020057
:103F00000000000011002000B04020006A9902006B
:103F10000000000090C0B3005268020000000000E2
:103F2000C0C0B300D89302000000000092670200F6
:103F30000000000011002000B04020006A9902003B
:103F40000000000090C0B3005268020000000000B2
:103F5000B0C0B300D89302000000000092670200D6
:103F60000000000011002000B04020006A9902000B
:103F70000000000090C0B300526802000000000082
:103F800021E3A900004020001C00070000102000D1
:103F90001A0007000020200018000700000420007D
:103FA000160007000008200014000700F092280007
:103FB00022640200000000000080FA0000000600F9
:103FC0000200FA00000F7800401680001E0060001A
:103FD0000000E0000400320010982800F6630200A0
:103FE000000000000300370040982800F66302003C
:103FF000000000000080FA00000006000200FA0045
:10400000000F7800501680001E0060000000E000E5
:104010000400320070982800F663020000000000DF
:1040200003003700A0982800F6630200000000009B
:104030000080FA00000006000200FA00D0F98000BB
:104040000000E800D0F98800D1F98000F00F2000CE
:1040500000806000D0F9880093FC0700CAFA0700CE
:10406000000F78001E00E000060034004000200031
:104070009E0F100003003C001E00E90010C08800E5
:104080000C0037000000EB00E0F98800210220005E
:10409000F0992000F4990200000000008001EB007C
:1040A000420020001100200010002000B9FD070090
:1040B00010C0880021012000109C2000F49902000B
:1040C000000000000080FA00000006000200FA0074
:1040D000D0F980000000E800D0F98800D1F9800014
:1040E000F00F200000806000D0F988006EFC07000F
:1040F000A5FA0700004F78001E04E0000900320016
:1041000090C0B3009E4F100006003E001E40780095
:104110000040E900804078000080210001487800DC
:104120000D003700A1072000E09F2000F499020055
:10413000000000008001EB00920020001100200030
:104140009000200093FD07000040E90080407800C7
:1041500000802100014878000103200080A7200092
:10416000F49902000000000023C2BF00614060001B
:104170000004E000FCFF3200629402000000000036
:104180000000370022C2BF00614060000004E00070
:10419000FCFF320030118000004F78008560A900DC
:1041A00000C2B3009E4F100001003200F5FF37003F
:1041B0000080FA00000006000400FA00E100200080
:1041C00080AA20006A990200000000003468020002
:1041D000000000000004E000FCFF32004068020024
:1041E00000000000004F78001E4078005268020076
:1041F00000000000F092280022640200000000008D
:1042000090C7B3009E4F10000300320090C5B3006A
:104210009E4F100003003A00100020001007980085
:10422000020037000000EB00100798001E0090000D
:104230000080FA00000006000000FA00C1C3800000
:1042400000882100008040009040780030C8B30012
:1042500080CF50000E003A00C0C380000000E8008C
:10426000C0C3880003003700C0C380000000E8001E
:10427000C0C38800C1C380000088210000804000C6
:104280009040780000CEB30080CF5000F6FF36009B
:104290000080FA00000006000A00FA0030079800CB
:1042A0000000EB0020079800AE009000008821007D
:1042B000008040009040780000CEB30080CF5000D6
:1042C00003003E000080EB00400798002300370009
:1042D000AE0090000088210000804000104078006F
:1042E0008080FB0000F22F00008040001007980043
:1042F0002E0090008000E80000882100008040002F
:10430000104078000080FB004801DD002E00900086
:104310008080E80000882100008040001040780084
:104320000080FB00000F41009E0078003E009000DE
:10433000808F500003003A002E0090004007980044
:10434000060037009E0090002E0090000080400084
:104350006300400020079800D3FF37004E00900014
:104360000080FA00000006000600FA00881F7800AE
:104370000000EB00000F7800C1C38000008821001E
:10438000008040009040780000C4B30080CF50000F
:1043900016003600C1C38000008821000080400064
:1043A00090407800A0C5B30080CF50000F003E00C1
:1043B000C2C3800000882100000041001040780046
:1043C0008080FB00F0FB2F00008040008000400058
:1043D00080812100008040001000780020079800B4
:1043E0000200E800C0C3880097003700C1C3800006
:1043F00000882100008040009040780000C8B30091
:1044000080CF500080003600C1C3800000882100AA
:1044100000804000104078000080FB0010079800EA
:104420000100E800C0C38800700920009E009000D1
:10443000808F500045003200700920009E009000DF
:10444000808F50000D003C00400920009E0090002D
:10445000808F50001A003200600920009E009000FA
:10446000808F50002F003200300920009E00900005
:10447000808F50001C00320052003700900920004D
:104480009E009000808F5000220032009009200092
:104490009E009000808F500045003500A00920004C
:1044A0009E009000808F500032003200B009200042
:1044B0009E009000808F5000350032004100370090
:1044C00021C08000C00220000088B900EA0040003E
:1044D00000C82100008040001000780000000100AA
:1044E000000F78005600370021C08000C002200075
:1044F0000088B900E800400000C8210000804000AA
:10450000100478005400070008000100000F780034
:104510004B0037001E83020000000000000F7800EF
:104520004700370021C08000C00220000088B90089
:10453000F400400000C82100008040001000780016
:1045400000000100000F78003D00370021C080000E
:10455000C00220000088B900F800400000C8210017
:10456000008040001000780000000100000F78007B
:1045700033003700D0802100104078000080FB001D
:104580004700DE000080FB00000F78002C003700A1
:10459000D0802100104078000080FB004500DE0044
:1045A000614060000080FB00000F780024003700AD
:1045B000C0C0B300D893020000000000000F7800D4
:1045C0001F0037000000EB00000F78001C003700D0
:1045D0001E0078006A00B900000F7800C1C3800097
:1045E0000088210000804000104078000080FB001F
:1045F0009E00400000FD2F00008F4000C0C38000DF
:104600000000E800C0C38800C1C38000008821000A
:104610000080400090407800F0C2B30080CF50008E
:1046200007003600C1C380000088210000804000E0
:104630009040780090C3B30080CF5000E4FF360074
:104640001E007800200798002E0090004F0478008C
:104650000080FA00000006000600FA0042FF070092
:10466000000F7800C1C38000008821000080400056
:1046700090407800D0C2B30080CF500018003200C4
:10468000C1C3800000882100008040009040780075
:10469000B0C2B30080CF500011003200C1C380000F
:1046A000008821000080400090407800A0C2B30044
:1046B00080CF50000A003200C1C380000088210072
:1046C0000080400090407800F0C2B30080CF5000DE
:1046D000030032001E0078002007980032003700E7
:1046E000C1C3800000882100008040001040780095
:1046F0000080FB00100798000100E800C0C388009C
:10470000B00220009E009000808F50001500320003
:10471000B00220009E009000808F500005003C00F9
:10472000A00220009E009000808F500010003200F8
:104730001B003700D00220009E009000808F5000A8
:1047400005003200F00220009E009000808F500093
:104750000D0032001200370003FF07001E0F10008B
:104760000F00370000FF07001E0F40000C0037004D
:10477000FDFE0700800078001E0078000180B9006F
:10478000000F780006003700F7FE070000017800F0
:104790001E007800110009000280D800000F780088
:1047A0001E007800200798002E0090000080FA007C
:1047B000000006000C00FA00C2C38000008821003F
:1047C00000004100104078008080FB00F0FB2F00CB
:1047D0000080400080004000808121000080400077
:1047E00090007800210798000200E800C0C388000C
:1047F0000000EB00000F78000B0037009E017800EE
:10480000C2C38000008821000000410010407800F1
:104810008040780066004700817178000200E8005F
:10482000C0C388001E0FE800C1C3800000882100BB
:10483000008040009040780000C4B30080CF50005A
:1048400007003600C1C380000088210000804000BE
:1048500090407800A0C5B30080CF50000E00360015
:10486000C1C3800000882100008040009040780093
:10487000F0C2B30080CF5000E0FF3600C1C380001B
:1048800000882100008040009040780090C3B30071
:1048900080CF5000D9FF3E006FFF0700100798003F
:1048A00066004700104078000000FB0050079800A9
:1048B000C0032000DE009000808F500032003200E4
:1048C000C0032000DE009000808F500005003C00F7
:1048D00010022000DE009000808F50004100320066
:1048E0004E003700D0032000DE009000808F500083
:1048F00005003200E0032000DE009000808F5000B1
:104900000A003200450037000000EB004007980025
:10491000AE0090001E009000808F500041003A00D1
:1049200011002000410798003E0037006600470054
:1049300090409000D0C3B30080CF500009003A00EF
:104940000000EB0040079800AE0090001E009000B1
:10495000808F50003300350011002000410798007F
:10496000300037000000EB0040079800AE009000D8
:104970001E009000808F50002A003400110020009B
:1049800041079800270037006600470090409000DC
:10499000D0C3B30080CF500009003A000000EB0004
:1049A00040079800AE0090001E009000808F5000DD
:1049B0001C003C001100200041079800190037003E
:1049C0000000EB0040079800AE0090001E00900031
:1049D000808F500013003D00110020004107980017
:1049E000100037006600470090409000D0C3B3002D
:1049F00080CF500009003A000000EB00400798000B
:104A0000AE0090001E009000808F50000500320024
:104A10001100200041079800020037000000EB0061
:104A2000400798004E0090000080FA000000060049
:104A30001C00FA00881F78000000EB00C0C388004B
:104A40000000EB00300798000000EB002007980002
:104A50000000EB00100798000000EB00D0C38800B6
:104A60000000EB00E0C388000000EB00F0C388000A
:104A70000000EB005007980050C080000000A0002C
:104A800050C088000000EB00400798000900370084
:104A90004E00900080004000808121008080400016
:104AA0000000EB00800878004E0090000000E80055
:104AB000400798004E009000F90F5000F4FF3400BA
:104AC000460437001E0090000000E00021003A007C
:104AD000C1C3800000882100008040009040780021
:104AE000F0CDB30080CF500003003E002000200036
:104AF000300798003C043700C1C3800000882100C3
:104B000000804000104078008080FB0000F22F0001
:104B10000080400060079800C0C380008000E8006B
:104B20000088210000804000104078000080FB00D9
:104B30004801DD00C0C380008080E80000882100BB
:104B400000804000104078000080FB0000007100F1
:104B5000500798000000EB0010079800C0C38000C9
:104B6000E3004000008821000080400010407800F1
:104B70000080FB006101B90000F82F00F1FF2F0059
:104B80000201400083814800420F9800530F9800B3
:104B900010022000010020004E099000DE09900064
:104BA000800F5100818F590000043E004E08900094
:104BB000DE0890000060010021003700350037005A
:104BC000FA033700F903370071003700810037001E
:104BD000A3003700B7003700BE0037003B013700A5
:104BE00088013700F1033700EE0137003502370046
:104BF00099023700A0023700AE023700BC0237002E
:104C0000CA023700D8023700E803370080033700B4
:104C100064033700E5033700E4033700E20237009E
:104C2000F0023700A7033700BF0337000603370041
:104C30001A0337003A033700C7033700D803370099
:104C40001000200020079800C0C3800066004000CC
:104C5000C0C38800C0C380008080E90000882100B4
:104C600000804000104078008080FB00F0FB2F00A7
:104C70000084400078FE07000001780088004400AE
:104C80008081210000804000020878006AFD070052
:104C9000C80337001000200020079800C0C3800020
:104CA00064004000C0C38800C2FE07000000E000AE
:104CB0001C003200C1C38000310F98000088210021
:104CC0003E09900000004100904078008041EB00D8
:104CD0004357980020C8B30080CF500002003A002C
:104CE00010C0B30040579800BE0890000100E800D3
:104CF000C0C388004E5190000204E000AD033200B2
:104D00001000200010079800C0C38000630050000E
:104D1000C0C38800A7033700C0C380000000E800BC
:104D2000C0C38800C1C3800000882100008040000B
:104D30009040780030C8B30080CF500007003200A8
:104D4000C1C38000008821000080400090407800AE
:104D500000CEB30080CF5000EFFF3600C1C380000B
:104D600000882100008040009040780030C8B300E7
:104D700080CF50008F033A001000200010079800E9
:104D8000C0C380000080E900C0C3880089033700E9
:104D90001000200020079800C0C38000640040007D
:104DA000C0C388002CFE07003BFD0700000F780001
:104DB0008081EB009E8F1100030032001E007800FE
:104DC000C0C388007B0337006000200030079800D4
:104DD000780337001000200020079800C0C380002F
:104DE00064004000C0C38800E0C38000E90F5000A9
:104DF00018003C00E2C38000C1C380006E00900038
:104E0000008040008001E90082004100C084210050
:104E10000080400003087800E0C380000000E80044
:104E2000E0C388000CFE07001BFD0700000F7800A0
:104E30008080EB009E8F1000030032001E0178007E
:104E4000C2C388005B033700600020003007980071
:104E500058033700700020003007980055033700D2
:104E600080872800F6630200000000001000200088
:104E700020079800E0C380000000E0000A00320034
:104E8000E0C380000000E900E0C38800E0C38000C8
:104E900080004000C08421000080400010007800A5
:104EA000C0C388004303370080002000300798000B
:104EB000400337001000200020079800C1C3800085
:104EC0006E0090000080400063004000C0C3880076
:104ED000380337001000200020079800C0C380006E
:104EE00064004000C0C3880057003700C1C3800081
:104EF00000882100008040009040780020C2B3006C
:104F000080CF50001F003A00C0C380000000E800BE
:104F1000C0C388001000370050C080000000A1000E
:104F200050C08800C1C3800000882100008040007C
:104F300010407800004178000100E800C0C38800FC
:104F400002407800526802000000000050C080005B
:104F50000000A00050C08800C1C38000008821006C
:104F6000008040009040780020C2B30080CF500005
:104F7000E9FF3A00C0C380000000E800C0C3880019
:104F800031003700C1C3800000882100008040004C
:104F90009040780000C4B30080CF50000700360076
:104FA000C1C380000088210000804000904078004C
:104FB000A0C5B30080CF50000D003600C1C38000F3
:104FC0000088210000804000104078000004E000CC
:104FD00013003D00C1C38000008821000080400014
:104FE00090407800F0CDB30080CF50000C003E0020
:104FF00099FD0700000F780050C080000000A1005C
:1050000050C088001E0078003066020000000000DA
:1050100050C080000000A00050C088000A00370087
:10502000C1C38000008821000080400090407800CB
:10503000B0C3B30080CF500003003A00C0C380006B
:105040000000E800C0C38800C1C3800000882100C0
:105050000080400090407800F0CDB30080CF500039
:1050600007003E00C1C3800000882100008040008E
:105070009040780030C8B30080CF50009BFF3A00CA
:10508000C0C380008000E90000882100008040004B
:1050900090407800B0C3B30080CF500009003200C8
:1050A00050C080000000A10050C08800E09028009F
:1050B000226402000000000050C080000000A00038
:1050C00050C088005CFC0700BA02370010002000C6
:1050D0002007980050C080000000A10050C0880048
:1050E000C0C3800064004000C0C38800C1C380000A
:1050F00000882100008040009040780020C2B3006A
:1051000080CF500018003A00C0C380000000E800C3
:10511000C0C388000A003700C1C380000088210096
:105120000080400010407800004178000100E80055
:10513000C0C38800024078005268020000000000EE
:10514000C1C38000008821000080400090407800AA
:1051500020C2B30080CF5000EFFF3A00C0C38000F0
:105160000000E800C0C38800C1C38000008821009F
:105170000080400090407800C0C2B30080CF500053
:1051800004003A00C0C380000000E800C0C38800EB
:10519000020037003000200030079800C1C38000B3
:1051A0000088210000804000104078008080FB00D3
:1051B000F0FB2F00008440008001EB00F2FF27008D
:1051C0008000EB000000EB00CA1B020000000000A2
:1051D00000017800880044008081210000804000A8
:1051E00002087800C0C380000000E800C0C3880047
:1051F00011FC070050C080000000A00050C08800D3
:105200006C0237001000200020079800C0C3800007
:1052100064004000C0C38800D0C38000E30F50008A
:1052200004003C00D0C380000000E800D0C3880028
:10523000020037004000200030079800D2C38000F1
:10524000C3C3800000882100008041001040780026
:105250008080FB0000FC2F00008240006610B90037
:105260008080E8000086210000804000040878006B
:105270000300E800C0C38800C1C38000008821008B
:105280000080400090407800D0C3B30080CF500031
:1052900011003A00C0C380000000E800C0C38800CD
:1052A000D0C380006600B9008080E800008621003D
:1052B00000804000100078000004E900E6FC0700D0
:1052C00000017800880044008081210000804000B7
:1052D00002087800020037003000200030079800F4
:1052E000C3C38000130F9800008821009E0890001F
:1052F00000804000904078000041EB000257980089
:10530000B0C8B30080CF500002003A0013C0B30011
:10531000035798009E0890000100E800C0C3880071
:105320000E5190000204E00009003200D8C3800052
:10533000C9FC0700000178006640B900E4004000A5
:10534000008621000080400002087800020037003B
:105350003000200030079800C1C380000088210081
:105360000080400090407800F0CDB30080CF500026
:1053700008003600D0C38000C2C380006600B900B8
:10538000800078000086210000804000020878003C
:10539000020037003000200030079800A6FB07000D
:1053A000040237001000200020079800C0C38000CE
:1053B00064004000C0C38800C2C380000088210090
:1053C00000004100104078008080FB0000FC2F00AE
:1053D000008F40000200E800C0C388005000200099
:1053E000300798000000EB00400798002F003700BE
:1053F0004E0090006600B9008080E8000086210021
:1054000000804000100078009E0F500024003A00F9
:105410001E00E900800040008081210000804000E3
:10542000100178004E0090006600B900E4004000D2
:10543000008621000080400010007800800F51009D
:1054400012003D009E00E9000181400080812100A2
:1054500000004100100078000001E8008180400059
:105460008081210000804000020878004E009000FA
:105470006600B900800078000086210000804000AE
:1054800010007800C0C3880003003700D0C380003C
:105490000000E900D0C388000000EB00300798004E
:1054A0004E0090000000E80040079800D1C3800043
:1054B0004E009000810F5000CDFF34005EFB0700CE
:1054C000BC0137001000200020079800C0C38000F6
:1054D00064004000C0C38800F0C380000000E0000A
:1054E00027003A000000EB00400798000A00370050
:1054F000CE0090000088210000804000104078001D
:105500008080FB004E0090008080400030F22F0031
:1055100000804000400798004E009000E3004000EB
:10552000008821000080400090407800E0C8B3006F
:1055300080CF500006003200CE009000008821008D
:1055400000804000104078000004E000E8FF3A00CE
:10555000CE009000008821000080400010407800BC
:105560000004E000040032004E009000640040009F
:10557000F0C3880002003700900020003007980038
:10558000C3C38000030F7800F0C38000C0C388004D
:105590009E007800008821000080400010407800C4
:1055A0008080FB00F0FB2F00008440006EFB0700B2
:1055B00000017800880044008081210000804000C4
:1055C00002087800C0C38000F0C388001E00E80015
:1055D000C0C38800F1C38000008821000080400023
:1055E00090407800C0C2B30080CF500003003A0062
:1055F000F0C380000000E800F0C38800F1C3800021
:1056000000882100008040009040780000CEB30068
:1056100080CF50000E003600F0C38000E300400051
:10562000008821000080400090407800E0C8B3006E
:1056300080CF5000030032000000EB00F0C3880070
:1056400003003700F0C3800064004000F0C388000E
:10565000F9FA0700570137001000200020079800D2
:10566000C1C380006E0090000080400063004000D5
:10567000C0C388004F0137001000200020079800A9
:10568000C0C3800064004000C0C3880021C0800007
:10569000C00220000088B9008000780000C8210006
:1056A000008040001000780000000100E2FA0700CE
:1056B000400137001000200020079800C0C3800080
:1056C00064004000C0C3880021C08000C0022000E8
:1056D0000088B9008080E80000C8210000804000F8
:1056E0001000780000000100D3FA070031013700F4
:1056F0001000200020079800C0C380006400400014
:10570000C0C3880021C08000C00220000088B9000A
:10571000E400400000C82100008040001000780034
:1057200000000100C4FA0700220137001000200029
:1057300020079800C0C3800064004000C0C38800F8
:1057400021C08000C00220000088B900E6004000AF
:1057500000C8210000804000100078000000010017
:10576000B5FA070013013700100020002007980049
:10577000C0C3800064004000C0C3880021C0800016
:10578000C00220000088B900E800400000C82100E5
:105790000080400010047800AFFB07000800010003
:1057A000A5FA070003013700100020002007980029
:1057B000C0C3800064004000C0C38800A6FB07008F
:1057C0000000E00003003200DA8202000000000066
:1057D00002003700FC8202000000000096FA070079
:1057E000F40037001000200020079800C0C380009C
:1057F00064004000C0C3880097FB07000000E00081
:1058000008003200C002A900C202A800D080210016
:10581000104078000070A000D180210080487800FE
:1058200007003700C002A900C202A900D0802100F1
:10583000104078000070A100D180210080487800DD
:105840007DFA0700DB0037001000200020079800D9
:10585000C0C3800064004000C0C388007EFB070016
:105860000000E00006003200D080210010407800E7
:105870000000A000D180210080487800050037009A
:10588000D0802100104078000000A000D1802100CD
:105890008048780068FA0700C60037001000200032
:1058A00020079800C0C3800064004000C0C3880087
:1058B00069FB0700A00F8900A00F81000000E00035
:1058C00002003D000000EB00A00F8900A10F810045
:1058D00000FA2000808F50000200340000FA2000FF
:1058E000A00F8900B00F8100E10F500002003C00C2
:1058F00020002000B00F8900B10F81003006200089
:10590000808F50000200340030062000B00F890064
:10591000807F02000000000047FA0700A500370062
:105920001000200020079800C0C3800064004000E1
:10593000C0C3880048FB0700B00F8900A00F81009A
:105940000000E00002003D000000EB00A00F890015
:10595000A10F810000FA2000808F50000200340067
:1059600000FA2000A00F8900B00F8100E10F500065
:1059700002003C0020002000B00F8900B10F810020
:1059800030062000808F50000200340030062000D6
:10599000B00F8900807F02000000000026FA070097
:1059A000840037001000200020079800C0C380004A
:1059B00064004000C0C3880027FB07000000E0002F
:1059C0000900320021C08000C00220000088B90018
:1059D000F000400000C82100008040001000780066
:1059E000000001000800370021C08000C002200034
:1059F0000088B900F200400000C82100008040008B
:105A000010007800000001000BFA07006900370061
:105A10001000200020079800C0C3800064004000F0
:105A2000C0C388000CFB0700700798007E00900040
:105A3000E10F500010003200FE009000E28F500095
:105A4000160032007E0190000200E00001003200EA
:105A50001A00370021C08000C00220000088B90071
:105A6000EE00400000C821000080400010007800D7
:105A7000000001001100370021C08000C00220009A
:105A80000088B900EC00400000C821000080400000
:105A900010007800000001000800370021C08000DD
:105AA000C00220000088B900F600400000C82100B4
:105AB000008040001000780000000100DEF90700BF
:105AC0003C0037001000200020079800C0C3800071
:105AD00064004000C0C38800DFFA07000000E00057
:105AE00008003200C962A800CB62A900D080210062
:105AF000104078000050A000D1802100804878003C
:105B000007003700CB62A900C962A900D08021003C
:105B1000104078000050A100D1802100804878001A
:105B2000C5F9070023003700100020002007980067
:105B3000C0C3800064004000C0C38800C6FA0700EC
:105B4000000F78001E0078000E9502000000000093
:105B5000B9F907001700370010002000200798004F
:105B6000C0C3800064004000C0C38800BAFA0700C8
:105B7000000F780021C08000C00220000088B9001A
:105B8000FC00400000C82100008040009000780028
:105B90001E00780001000100A7F90700050037008A
:105BA000100020003007980002003700300020006D
:105BB000300798002E0090000000E00005003A0039
:105BC000C1C380006E009000008040006300400070
:105BD000C0C388000000EB00200798003E00900042
:105BE0000000E000B7FB320050C080000000A100C0
:105BF00050C088003E009000E10F500018003200B5
:105C000061002000C04020006A99020000000000EE
:105C10003E0090003066020000000000810020007D
:105C2000204120006A990200000000005E00900000
:105C30003066020000000000B1002000A0412000FA
:105C40006A99020000000000C0C3800030660200B4
:105C500000000000E0902800226402000000000024
:105C60004F0478000080FA00000006000200FA00ED
:105C7000000F780000C2B30052680200000000006C
:105C80001E007800F66302000000000000C2B300AE
:105C900052680200000000000080FA0000000600C8
:105CA0000400FA000000EB00C0C388003F0037008A
:105CB000C1C380000088210000804000904078002F
:105CC000214798002E4090000004E00004003500B9
:105CD0002E409000526802000000000030003700A3
:105CE000AE40900000CEB30080CF50001C003600C4
:105CF000E09028002264020000000000C0C3800081
:105D00008000E800008821000080400010407800FA
:105D10000080FB004801DD00C0C380008080E800F7
:105D20000088210000804000104078000080FB00C7
