:020000040000FA
:0600000054EF0DF01200A8
:06082A000100E21A0000CB
:08083000CB00000006000000EF
:0808380056EC08F0020EE12667
:10084000FC0EDBCF60F0FD0EDBCF61F0FE0EDBCFE8
:1008500062F0F90EDBCF63F0FA0EDBCF64F0FB0E33
:10086000DBCF65F0F60EDBCF66F0F70EDBCF67F07F
:10087000F80EDBCF68F0F40EDBCF69F0F50EDBCFBE
:100880006AF00F01386B658C659CA098366B636AC3
:10089000626A140E396F00016B6B6C6B6D6B6E6B63
:1008A0006F6B706BDE6ADD6AB6EC08F0D8900C50A6
:1008B00004E6100E0B5C000E0C5813E2E6EC08F098
:1008C0005FEC08F041EC09F0EE6AED6AE6EC08F046
:1008D0005FEC08F0EE6AED6ADF2A010EE5E3DB2A41
:1008E000E3D76CEC08F0000EE66EE66AE66EE66AA8
:1008F00001DB0FEC09F00F01160E266F0001B16B42
:10090000B26BB56BB36BB46BB66B74EC08F0020EE4
:10091000E15C02E2E16AE552E16ECDD36586000159
:10092000010EB56F65BAFED70001040EB56F120057
:100930009AEF04F062A002D01AD8629062A202D0AC
:10094000636A629262A602D05BD8629662AC0CD0F7
:1009500000016B516C1107E005D06CC0FAFF00017B
:100960006B51F96EFADF629C1200636A12009EDB23
:10097000020EE1260001B16BB26B6296B36BB46BF1
:10098000040EB56FB66B62B6F8D70F01266B276BF6
:10099000286B296B2A6B2B6B2C6B2D6B2E6B2F6BA3
:1009A000306B316B326B336B346B356B386B626A27
:1009B000636ADE6ADD6ADADBD8900C5004E6060E64
:1009C0000B5C000E0C580EE2E6EC08F02BEC09F084
:1009D000000EE926040EEA22EF6A040EDE26000E5F
:1009E000DD22E9D70F01160E266F7EDB0F01376976
:1009F0006598020EE15C02E2E16AE552E16E5BD3CA
:100A000064CFB7F00001B751FC0BE842E842040D97
:100A1000F3CFB8F0F4CFB9F0000EB827040EB92325
:100A2000040EB711FC0BE842E842040DF3CFBAF014
:100A3000F4CFBBF0000EBA27040EBB2314EC09F070
:100A4000EF503C0B240A09E0200A05E0300A01E0DF
:100A500012002FEF05F03DEF07F01FEF07F0C6DBA8
:100A6000080EEF6E65980EDBEF50600B400A24E035
:100A7000600A16E0200A2CE105DBEF50030B020AA6
:100A80000AE0030A05E0010A23E18ADB41D805D028
:100A900087DB70D902D084DB92D9E552E55219D0B8
:100AA00000016D516E1115E005D06EC0FAFF000116
:100AB0006D51F96EFADF0DD000016F51701109E030
:100AC00005D06EC0FAFF00016D51F96EFADF01D05A
:100AD0002ADAAADBEE52080EEF6ED4DAEF50800B62
:100AE0000AE1D0DA060E77DBEF5007E1CBDA070E2A
:100AF00072DBEF5002E1000E01D0010E000902E0AE
:100B0000C80E01D0880EE66E8FDB38DB65981200C8
:100B1000CDDA040EADDA070A01E124D10E0A01E1B3
:100B20000AD1010A01E102D10E0A38E0030A25E0E8
:100B3000060A1BE0020A12E0010A01E013D10001DB
:100B4000B151E66E90DA1ADBB2C00BF00C6A8BDAA8
:100B5000010E41DBB2C0EFFF020E01D186DAEF04D5
:100B600001E000D10001B19306D07FDAEF0401E08B
:100B7000F9D00001B183000EF2D0EFDA01E0F2D03B
:100B80007F0E0B6E56DB0B5C01E2ECD06EDAEFCF22
:100B9000B6F09FDA340EE66E0F0EC2D0DEDA040A2B
:100BA00001E1B9D0010A01E1B6D0060A6FE0010AFD
:100BB00019E0030A01E0AFD060C0BCF061C0BDF035
:100BC00062C0BEF0DFDA0800F5500001BF6FC06BF5
:100BD0007CDAEF5001E0A0D00EDB01E39DD054DAC7
:100BE000EF5096D042DAEFCF0BF0CCDA110E57DA95
:100BF0000B5C01E398D963C0BCF064C0BDF065C074
:100C0000BEF0C7DA030E4BDA0C6A0C6E0B6AC1DA5F
:100C1000020E45DA0001A4DAC8DA91DA0ADB000133
:100C20000CAE02D0D89003D00B5C000E0C5810E232
:100C3000C1DA76DAF0DA0C6A0C6E0B6A29DA020E87
:100C40002EDA8EDA020EDB2A030EE7E3DB2AE5D783
:100C50003CDAEFCF0BF0DFDA0B5C0EE336DAEFCFE6
:100C60000CF0D9DA0C5C58E10FDAEFCF0DF010DAA6
:100C7000020E15DA0D5C50E228DAEF500C6A0C6EA9
:100C80000B6A02DAEF5000016BDA46D0D2DA0B6E53
:100C90000C6A00010C506A19E8AE02D06A3504D023
:100CA00069510B5C6A510C5801E33DD966C0BCF038
:100CB00067C0BDF068C0BEF066C0F6FF67C0F7FF52
:100CC00068C0F8FF0800F5500001BF6FC06B6DDA17
:100CD00036DAAFDA00010CAE02D0D89003D00B5C4C
:100CE000000E0C580DE266DA1BDAD2D90800F55076
:100CF000BF6FC06B020EDB2A030EEAE3DB2AE8D7E4
:100D0000E4D9EF5009E177DA07E2BED9EF500001EC
:100D1000BF6FC06B01D007D919D94C0EE66E0F0E0C
:100D2000E66E000EE66EE66AE3D81AD09CD9B3C030
:100D3000EFFF010E14D0010E0B6E7BDA0B5C12E399
:100D400078DA0001B36FB46BE850B41105E0200EFF
:100D5000B56F60EC09F002D0100EB56F000E53DADB
:100D60005EDA01D0E0D8040EE15C02E2E16AE5520D
:100D7000E16EA1D19BD9020E7BD9010A18E0020ACB
:100D800016E0080A0DE0010A05E00A0A10E16DDA32
:100D9000020E0BD0CED90BE266D9EF6A010E05D058
:100DA000C8D905E246DA03E1000E93D901D0BBD8D9
:100DB000020EE15C02E2E16AE552E16E7CD176D995
:100DC000060E56D90C0A22E00F0A1BE0020A0CE0BC
:100DD000010A1CE14ADA22D9EF94EF5003E043D92B
:100DE000010EEF6E020E10D019D9EF94030EDB50F6
:100DF00002E0F5D9EF8C030EDB5005E1F0D9EF9C52
:100E000002D00CD9EF84000E64D901D08CD8060E24
:100E1000E15C02E2E16AE552E16E4DD162A003D0ED
:100E2000A6DD6290FF0C62A609D064CFB7F004DAA9
:100E300003E0E6DD6296000C6296000E120065D9B2
:100E4000EE50ED1019E0B751E840E840E8401F0BC4
:100E50000F0B040DF3CFE9FFF4CFEAFF710EE92683
:100E6000000EEA22EECF0BF0EFCF0CF004D00CC056
:100E7000FAFF0B50F96EFBDF120047D902DAEE5091
:100E8000ED101DE0B751E840E840E8401F0B0F0BA4
:100E9000040DF3CFE9FFF4CFEAFF710EE926000E4F
:100EA000EA22020EE926000EEA22EECF0BF0EFCF87
:100EB0000CF004D00CC0FAFF0B50F96EFBDF1200EF
:100EC000F5D8FD0EDBCF6BF0FE0EDBCF6CF0F3D070
:100ED000EDD8FD0EDBCF6DF0FE0EDBCF6EF0EBD06C
:100EE000E5D8FD0EDBCF6FF0FE0EDBCF70F0E3D068
:100EF000CBD9AAD1C9D9C5D9A7D1D8D8BDD1D6D82F
:100F00003AD9EF6AB9D1D2D8FF0EE76EFB0EDBCF2C
:100F10000BF0E7500B160C6A2ED90BC0EFFF4FD920
:100F2000C80EEF6EC8D00401080E016F840E046F66
:100F3000006F12000001B65102E1040E01D0100E44
:100F4000B56FB6C038FFB6696CEF08F0AFD8040EC5
:100F5000E1260001BF51C01144E0080EBF5D000E44
:100F6000C05902E227D903D0080E0B6E0C6A020E9C
:100F70000BC0DBFF030E0CC0DBFFDE6ADD6AF6D8B8
:100F8000020EDBCF0DF0030EDBCF0EF00D500B5C2D
:100F90000E500C5828E2DECF0DF0DDCF0EF00F6AB8
:100FA000BC510D24F36EBD510E20F46EBE510F20C6
:100FB000F86EF4CFF7FFF3CFF6FF0800F550E66EBA
:100FC000D5D814D95ED90B50EE24E76E0C50EE2024
:100FD000EA6EE7CFE9FFD2D8DF2A010ED0E3DB2AA1
:100FE000CED7E3D879D802D9EE52020EDBCFEFFF8D
:100FF000FDD8ACD8C3D8A3D893D8020EDBCF06F067
:10100000030EDBCF07F00650BF5F0750C05B040E36
:10101000E15C02E2E16AE552E16E4DD023D90F0BAB
:10102000E76E020EE7CFDBFF1DD9E844010BE76E48
:10103000030EE7CFDBFFDBCFE6FF020EDB50E82439
:10104000E552E724040DF3CF0BF0F4CF0CF0000EC3
:101050000B26040E0C22040E0BC0DBFF050E0CC089
:10106000DBFFEFEF08F0C2D813D1B0D841EF09F0A1
:10107000E126A5D806D9EECFDEFFEDCFDDFFA6D85D
:10108000010E0CD1D1D804D1A1D8060EEBEF08F097
:10109000BCC0F6FFBDC0F7FFBEC0F8FF1200F626C9
:1010A000000EF722F8220800F5501200D9CFE6FF13
:1010B000E1CFD9FF1200E552E7CFD9FF1200CBD81C
:1010C000710EE926000EEA22120080D8070EEBEF1F
:1010D00008F099D80FEF09F0000EE66EE66AE66EAA
:1010E000E66A06DF0FEF09F00401080E016F8A0EB1
:1010F000026F040E036F880E006F056B920E066F71
:10110000040E076F400E046F120096D8040DF3CF43
:10111000E9FFF4CFEAFF710EE926000EEA22120081
:101120000D6A0B500001BC270C50BD230D50BE238F
:101130001200020E0B6E96D8D8800B541200020ECD
:10114000DBCF0BF0030EDBCF0CF01200EF50400AA8
:10115000400B80090809E66E120038D8030E9ED0B5
:101160000B24BF6F000E0C20C06F1200DECF0BF0FF
:10117000DDCF0CF0120023D8EE521200E552E750FA
:10118000EF6E120060C0F6FF61C0F7FF62C0F8FFAB
:10119000120063C0F6FF64C0F7FF65C0F8FF1200DD
:1011A000B8C0E6FFB9C0E6FF1200020EDB6A030E0C
:1011B000DB6A1200BFC00BF0C0C00CF01200FD0EC5
:1011C000DBCFE9FFFE0EDBCFEAFF1200DECFE9FF47
:1011D000DDCFEAFF1200E926000EEA221200040E1B
:1011E000DBCFE9FF050EDBCFEAFF1200BAC0E9FF53
:1011F000BBC0EAFF120048DFEFCF0BF049DF080069
:10120000F5500B5C1200E66EE66ABAC0E6FFBBC0A2
:10121000E6FF83EF07F03CDF030E4FEF08F0E552E7
:10122000E552E552E5521200B8C0E9FFB9C0EAFF45
:1012300012001BDFEF5012000001B751E840E840F8
:10124000E8401F0B0F0B1200FB0EDBCFEEFFFC0E76
:10125000DBCFEDFF30D7D890E936EA36D890E936C3
:10126000EA361200B3DF040E19D0FDDEEF6AFBDEB2
:10127000010EB1DFEF6A1200A2DF68DFA0DF7EDFC0
:101280001AD7020EEBEF08F011DF99DF5FEF08F0DD
:10129000F8DFEE50EFCFEAFFE96E12009CDFEF506F
:0212A00012003A
:0E12A2000E01006BC20E016F010E026F036B96
:1012B000046B056B080E066F4991499371EF0BF0B3
:1012C0003ADA010E8DDA020E8BDA020E13DA0F0112
:1012D0001A0E276F1E0E286F04010D6B800E0E6F05
:1012E000040E0F6F480E0C6F400E116F400E126F00
:1012F000050E136F880E106F156B000E166F050E1E
:10130000176F480E146FEDD90E01586B100E536F06
:10131000040E546F140E556F040E566F1200C9D987
:10132000040EE126F1D9C0D9EECFDEFFEDCFDDFF0F
:10133000E6D9EF50630B210A68E1E1D9010EE926F5
:10134000000EEA22EF50230A60E0010A50E0030A8F
:1013500017E0010A0DE0220A58E0010A56E0070AE8
:1013600054E0050A02E0010A50E1E5D90EDA3AD06C
:101370001E0EE66E140EE66EDED97AEC07F032D061
:10138000BED9060EE926000EEA22020EEECFDBFFE2
:10139000030EEDCFDBFF020EDBCF0BF0030EDBCF36
:1013A0000CF0070ED8800B54000E0C5407E2070E09
:1013B000F36E020EF3CFDBFF030EDB6AAAD9000E39
:1013C000E66E0E0EE66EBAC0E9FFBBC0EAFFE3D9D7
:1013D000A7D99FD977D91C0EE66E140EE66EABD94D
:1013E00078EC07F0E552E552E552E55210D087D986
:1013F0005BD9EECF49FEEDCF4AFE500EE66E140EDD
:10140000DED90001010ED06F02D093EC07F0040E7C
:10141000E15C02E2E16AE552E16E50D1D5D1070EFE
:10142000E66EE66A71D9B7D9000EE66E0E0EE66E6C
:1014300077D981D95FD94E0EE66E140EC0D964D922
:10144000EE52080EEF6E60D9880EEF6E1200BCD11E
:10145000BBD12FD9E652DF6AABD907E0A0B8FCD7E1
:101460000EEC07F00009F8E0F6D7DF50E55226D180
:1014700020D9E652DF6A82D907E0A0B8FCD70EEC8B
:1014800007F00009F8E0F6D7DF50E55217D111D97F
:1014900075D905E0A0B8FCD70EEC07F0F9D761D9F3
:1014A000FD0EDBCFEEFFFE0EDBCFEDFFE9D8EE52F7
:1014B000FC0EDBCFEFFF66D9FC0EDB50FFD05ED910
:1014C00001E0000C79D95ED9400C0E01576BC1DFE9
:1014D0000E014EA109D0000E516F060E526F7DD93C
:1014E000400EEE6E060E08D0400E516F060E526F83
:1014F00074D9000EEE6E060EED6E4E1FD0D8EE5271
:10150000EFCF4CFE31D94C511200D3D80E01576B9E
:10151000AFDF0E014D5105E05AD9C00E4F6F050ED9
:1015200008D01FD9C00EEE6E050EED6E800E4F6F07
:10153000050E506FA5D8EE52FE0EDBCFEFFF22D97D
:101540004D1F5751BBD094DF42D936D90E014D699A
:10155000800E4F6F050E506F12008ADF02D9000E09
:10156000EE6E050EED6EDCEF0BF0A3D8E6520E0129
:101570004E69000E516F060E526FE1D8000EEE6EEE
:10158000060EE6D096D8E652DAD8400EEE6E050E7C
:10159000DFD06EDF75D8EE52EF6AC2EF0BF008D9DC
:1015A00001E0000C010CEAD801E0000C010C81D82C
:1015B0000E014C6BFDD82CE1FC0EDBCF0BF06FD88D
:1015C000EE52EF50D8800B5405E269D8EE52FC0E73
:1015D000EFCFDBFF4C6BFC0EDB504C5D14E24C514B
:1015E000EA6A400FE96E050EEA22EF50E66E4C51B2
:1015F000E76ED7D8E750E926000EEA22E552E75019
:10160000EF6E4C2BE8D7A0B802D00EEC07F0ACD8A8
:101610000E014C5153D00E01475112E1400EE66EBF
:10162000070EE66E0E0EE66EC2DFE552E552E5529B
:101630000E01476FE85002E098EC04F00E01486B91
:10164000120037D80E014751000805E23DD8470780
:10165000482B010E01D0000E31D02BD80E0147517E
:10166000000803E231D8010E01D0000E27D00E0190
:10167000476B486B1200E66EE66A78EC07F079D0AB
:1016800055CEE9FF56CEEAFF1200EF50400A400B5C
:1016900080090809E66EE552E750EF6E120053CE5E
:1016A000E9FF54CEEAFF1200020EE926000EEA22FC
:1016B0001200D9CFE6FFE1CFD9FF1200E552E7CF04
:1016C000D9FF120062D855D04851EA6A070FE96E77
:1016D0000E0EEA22EF50E66E64D8E552E750EF6E48
:1016E00012001E0EE66E130EE66E68EC07F0E55271
:1016F000E5521200E66EE66A7AEC07F03AD0DECFE9
:10170000E9FFDDCFEAFF1200B8C0E9FFB9C0EAFF88
:101710001200020EDBCFE6FF030EDBCFE6FF120066
:1017200019EC0DF00B6E060EE15E0B501200EE523E
:10173000400EEF6E1200000EE66EE66A1200AFDF9A
:10174000EFCFDFFF400EDF16DFCFEFFFEDEF0BF047
:10175000ED6E000EDF86DF8EA2DFDFCFEFFFE552FA
:10176000ADD78EDF54EF0BF09ADFE1DF98DF45EF66
:101770000BF0E552E552E552E552120081DFEF50E1
:10178000800B12007DDF45EF0BF0BAC0E6FFBBC057
:10179000E6FF83EF07F088DFEECFE6FFEFCFE6FF4F
:1017A0001200FD0EDBCFE9FFFE0EDBCFEAFF1200D9
:1017B00076DFEF50800B120063DF97EF0BF0E66EE1
:1017C000000E0ED862EF0BF0B6DF3BEF0BF0C9DF77
:1017D000800EEE6E050EED6E120061DF54EF0BF021
:0617E0004ADF9BEF0BF055
:0A17E600D9CFE6FFE1CFD9FF030ED3
:1017F000E12651D851EC09F0040EE66EE66A410E7E
:10180000E66E190EE66E000EE66EFE0EE66E180E21
:10181000E66E000EE66EEC0EE66E180EE66E000E3C
:10182000E66E1CEC04F00B6E0B0EE15E0B508EECC2
:1018300004F037EC0BF0A0B802D098EC04F0040EE2
:101840000001B55D05E3200EB55D02E3200EB55D38
:10185000200EB55DF0E3A0B802D098EC04F00BECDC
:101860000BF0D9CFE6FFDACFE6FF21EC0BF0E55223
:10187000E5520108F0E138EC0AF0DFCF00F5010E87
:10188000E66E000EE66E050EE66E47EC0AF0E552D7
:10189000E552E552E0D70F0148690F0E496F926893
:1018A000936894689B8C050EE66EE66A03D8E55251
:1018B000E5521200D9CFE6FFE1CFD9FFD950FD0F95
:1018C000E96EFF0EDA20EA6EEE50ED100BE0780EB6
:1018D000E66E62EC0DF0E552FD0EDB06FE0EEEE26A
:0C18E000DB06ECD7E552E7CFD9FF120081
:0418EC0012011001D4
:1018F0000200000834122143020001020301090220
:10190000430002010080E10904000001020201001D
:101910000524001001042402020524060001052408
:10192000010101070581030A000209040100020AFE
:101930000000000705020240000007058202400087
:1019400000040309042A03440061006E0067006577
:101950000072006F00750073002000500072006F6D
:101960000074006F0074007900700065007300124D
:1019700003430044004300200054006500730074DA
:1019800000120330003000300030003000300030F2
:0319900000310023
:0C1994002A0EF66E080EF76E000EF86EBC
:1019A00000010900F550C66F0900F550C76F03E14B
:1019B000C66701D03DD00900F550C16F0900F55050
:1019C000C26F0900F550C36F09000900F550E96EB8
:1019D0000900F550EA6E090009000900F550C46FCE
:1019E0000900F550C56F09000900F6CFC8F0F7CF20
:1019F000C9F0F8CFCAF0C1C0F6FFC2C0F7FFC3C03C
:101A0000F8FF0001C45302E1C55307E00900F55097
:101A1000EE6EC407F8E2C507F9D7C8C0F6FFC9C023
:101A2000F7FFCAC0F8FF0001C607000EC75BBFD7AB
:021A30001200A2
:0E1A3200D9CFE6FFDACFE6FFFA0EE3CFD9FFF9
:101A4000FB0EE3CFDAFFFC0EE3CFE9FFFD0EE3CFA1
:101A5000EAFFE9CFF3FFEACFF4FFF80EE35003E12A
:101A6000F90EE35008E0F80EE30602E2F90EE30691
:101A7000DECFEEFFF2D7FF0EE3CFDAFFE552FF0E27
:081A8000E3CFD9FFE55212008B
:081A8800C00EF36E00EE00F049
:101A90000E0E01D81200EA6002D0EE6AFCD7F350B5
:081AA000E9601200EE6AFCD7B8
:081AA8001DEE00F02DEE00F030
:101AB000F86A0A9CCAEC0CF070EC0DF0F3EC0BF039
:041AC000FBD712003E
:0C1AC400FF0EE350106E1B0E00D001D08E
:101AD000200EE76EE72EFED7102EFAD700D01200A8
:021AE0001200F2
:061AE2004E4F454D53007C
:013FF800A820
:013FF900F7D0
:013FFA001DA9
:013FFB00FFC6
:013FFC006361
:013FFD00F8CB
:013FFE008141
:013FFF00F1D0
:00000001FF
